:020000040000FA
:0608000016EF36F01200B5
:020806001200DE
:0608080016EF04F01200DF
:0608180008EF06F01200DB
:02081E000100D7
:0C0820006B6C0000BE0000002E00000009
:04082C00DACFE4FF3C
:10083000E2CFDAFFE9CFE4FFEACFE4FFF6CFE4FF4F
:10084000F7CFE4FFF5CFE4FFF3CFE4FFF4CFE4FF0D
:10085000FACFE4FF00EE28F0140EE80403E3EECF35
:10086000E4FFFBD700EE00F0280EE80403E3EECF30
:10087000E4FFFBD7E652F2A42AD1D59EFC0ED76E38
:100880003F0ED66ED58E0101072B000E0823010105
:100890008F2B000E9023912392230101932B000EA6
:1008A0009423952396230101972B000E98239923D7
:1008B0009A2301019B2B000E9C239D239E23010163
:1008C000092B000E0A230101F52B000EF623320E30
:1008D0000001815D02E20001812B030E010100197C
:1008E00001E1015101E17FD0020E0101001901E196
:1008F00001513CE0010E0101001901E1015107E045
:100900000101005101E1015101E0DBD0DFD0805055
:10091000100B100A01E0010E010808E10101026B51
:10092000036B0101002B000E01231FD00101022BDC
:10093000000E03230101F40ED8800255010E035569
:1009400014E20101026B036B0101010E0D1901E1BB
:100950000E5106E00101070E0D1901E10E5105E1EE
:100960000101AA5101E0B2D0897EB0D080A805D0A3
:1009700001010007000E015B35D00101022B000EC2
:1009800003230101320ED8800255000E03552AE2DE
:10099000000EE66EE66A000EE66EE66A02EC0AF00B
:1009A000E552E552E552E552899E899C8A908A98E3
:1009B000020E01010D1901E10E510BE001010D5173
:1009C00001E10E5101E00AD0898E0101096B0A6B29
:1009D00005D0040E01010D6F0E6B00D00101002B3C
:1009E000000E012373D080A83FD0040E01010D1921
:1009F00001E10E5133E0070E01010D1901E10E5125
:100A000028E0050E01010D1901E10E511DE0030E54
:100A100001010D1901E10E5112E0010E01010D1944
:100A200001E10E5107E001010D5101E10E5101E01C
:100A300016D015D0020E01010D6F0E6B10D0010EF5
:100A400001010D6F0E6B0BD0060E01010D6F0E6BC9
:100A500006D0080E01010D6F0E6B01D0FF000101E1
:100A6000002B000E01232CD0050E01010D1901E110
:100A70000E5116E001010D5101E10E5101E020D0AF
:100A80000101D00ED8800955070E0A5508E2899C4D
:100A9000050E01010D6F0E6B0101026B036B10D08F
:100AA0000101022B000E03230101640ED8800255C0
:100AB000000E035504E20101026B036B897E00D036
:100AC00005D0010E0101006F016B00D0F2949EA6CB
:100AD00073D00001816B0001826B000180510F0A0D
:100AE00064E0010A5EE0030A44E0010A39E0070A13
:100AF0002EE0080A23E0010A0AE0030A01E058D0C8
:100B000083C0C9FF0001846B0001802B54D0C5ACA9
:100B100003D080C082F011D000018451842BEA6A96
:100B2000860FE96E000EEA22EF50C96E0001855172
:100B30000001845D02E10001802B3DD0C5AC03D0F3
:100B400080C082F003D0C5840001806B34D0010ED8
:100B500000018311C96E0001846B0001802B2BD032
:100B6000C5AC03D080C082F003D0C5860001802BC5
:100B700022D000018451842BEA6A860FE96E000EB0
:100B8000EA22C9CFEFFF000185510001845D04E234
:100B9000C59A0001800703D0C58A0001802BC58853
:100BA0000AD0C5840001802B06D00001806B03D0E1
:100BB0000001806B00D09E96A1A606D0A196400EA3
:100BC000000180110001826FE55200EE27F0280E2F
:100BD000E80403E3E5CFEDFFFBD700EE3BF0140E96
:100BE000E80403E3E5CFEDFFFBD7E5CFFAFFE5CF60
:100BF000F4FFE5CFF3FFE5CFF5FFE5CFF7FFE5CF56
:100C0000F6FFE5CFEAFFE5CFE9FFE5CFDAFF110018
:100C1000D8CFE4FFE0CFE4FFE46EDACFE4FFE2CF29
:100C2000DAFFE9CFE4FFEACFE4FFE6529EAC2CD135
:100C30009E9CC4CF06F1C3CF05F101010451EA6ABD
:100C4000A00FE96E010EEA22EF50050801E09BD0EB
:100C500001010C3504E20B510308000E0C5501E3B1
:100C600091D005C105F106C106F10101FF0ED88042
:100C70000557030E0657010E0101D89005370637B8
:100C8000E806FBE10101900E055D010E065905E243
:100C90000101900E056F010E066F900E0101055FB8
:100CA000010E0101065B0101FF0ED8800555030E00
:100CB000065504E201010569030E066F01010451A6
:100CC000E96EEA6AD890E936EA360F0EE926010E97
:100CD000EA22EE5001010527EE500101062305C16D
:100CE0003CF006C13DF0010E0F0B05E0D8903D32FF
:100CF0003C32E806FBE101010451E96EEA6AD89052
:100D0000E936EA360F0EE926010EEA223CC0EEFF74
:100D10003DC0EDFF01010B6B0C6B01010451090A91
:100D20002EE0010A29E00F0A24E0010A1FE0030A6D
:100D30001AE0010A15E0070A10E0010A0BE0030AB5
:100D400006E0010A01E01ED0929089801BD09292A9
:100D5000898218D09294898415D09296898612D06F
:100D6000929A898A0FD093948A840CD093968A861B
:100D700009D093928A8206D093988A8803D0939060
:100D80008A8000D02CD001010451E96EEA6AD89023
:100D9000E936EA360F0EE926010EEA22EE5001018D
:100DA0000527EE500101062305C13CF006C13DF0C8
:100DB000010E0F0B05E0D8903D323C32E806FBE116
:100DC00001010451E96EEA6AD890E936EA360F0E5D
:100DD000E926010EEA223CC0EEFF3DC0EDFF0A0EFF
:100DE0003C6E0101042B01010451D8803C5402E304
:100DF0000101046B01010451EA6AA00FE96E010EC2
:100E0000EA22EF50050837E101010B2B000E0C23FD
:100E100001010C3504E20B510308000E0C552BE2C6
:100E200001010451090A25E0010A21E00F0A1DE031
:100E3000010A19E0030A15E0010A11E0070A0DE0B2
:100E4000010A09E0030A05E0010A01E014D09280DA
:100E500012D0928210D092840ED092860CD0928AB8
:100E60000AD0938408D0938606D0938204D09388C6
:100E700002D0938000D001010451EA6ABE0FE96EEE
:100E8000000EEA22EF50C26E9EAA98D0ABA403D007
:100E9000AECFF9F193D0ABA203D0AB98AB888ED094
:100EA000AECFF9F10101010E0D1901E10E5173E010
:100EB0000101FA51080A66E00F0A5AE0010A4EE001
:100EC000030A42E0010A36E0070A2AE0010A1EE0AE
:100ED000030A12E0010A01E05ED0520E0101F95D41
:100EE00003E10101010EFA6F560E0101F95D03E104
:100EF0000101050EFA6F4FD0650E0101F95D02E1A7
:100F0000020E01D0000E0101FA6F45D0730E0101EF
:100F1000F95D02E1030E01D0000E0101FA6F3BD032
:100F2000650E0101F95D02E1040E01D0000E010120
:100F3000FA6F31D0740E0101F95D02E1070E01D0A4
:100F4000000E0101FA6F27D0650E0101F95D02E183
:100F5000060E01D0000E0101FA6F1DD0720E0101C4
:100F6000F95D02E1070E01D0000E0101FA6F13D006
:100F70000D0E0101F95D02E1080E01D0000E010124
:100F8000FA6F09D00A0E0101F95D02E1FF0002D0FB
:100F90000101FA6B00D00101F751EA6AD40FE96E42
:100FA000010EEA22F9C1EFFF1F0E3C6E0101F72B83
:100FB0000101F7513C5C02E20101F76BE552E5CF1C
:100FC000EAFFE5CFE9FFE5CFDAFFE550E5CFE0FF47
:100FD000E5CFD8FF1000D9CFE6FFE1CFD9FF030E50
:100FE000E126F00ED36EC00E9B6E0101FA6B01017B
:100FF0000D6B0E6B006B016B026B036B010EDB6AFA
:10100000020EDB6A010EDBCF00F0020EDBCF01F037
:10101000D890015004E61A0E005C000E01581AE246
:10102000010EDBCFE9FF020EDBCFEAFFD890E936F5
:10103000EA36D890E936EA36270EE926010EEA228A
:10104000EE6AEE6AEE6AEE6A010EDB2A020EDAE35F
:10105000DB2AD8D7010EDB6A020EDB6A010EDBCF7A
:1010600000F0020EDBCF01F0D890015004E6040E30
:10107000005C000E01581AE2010EDBCFE9FF020E00
:10108000DBCFEAFFD890E936EA36D890E936EA367F
:101090008F0EE926010EEA22EE6AEE6AEE6AEE6A29
:1010A000010EDB2A020EDAE3DB2AD8D7010EDB6A57
:1010B000020EDB6A010EDBCF00F0020EDBCF01F087
:1010C000D890015004E60A0E005C000E015811E2AF
:1010D000010EDBCFE9FF020EDBCFEAFFA00EE9260F
:1010E000010EEA22010EEF6EDB2A020EE3E3DB2A99
:1010F000E1D70101236B246B256B266B046B0B6B13
:101100000C6BAA6BAB6B096B0A6B076B086B896A7C
:101110003F0EDF6EDF50926E8A6A1F0EDF6E000197
:10112000D01DDF16E66A080EE66E12EC0DF0E552F1
:10113000E5520101A86B0001C81DDF16E66A090E21
:10114000E66E12EC0DF0E552E5520101A96BDF509D
:10115000936E180E8B6E980E946E020ED56EFC0E6A
:10116000D76E3F0ED66ED58EF294F28AF184B00E11
:10117000B16EA292A192A092B1809D92010ECA6E10
:10118000CC68CB68CA849F6F000E256F266B236FD7
:10119000246BE66EE66AE66EE66A9ED8E552E55294
:1011A000E552E5529F9C9D8CBE0EC06E020EC16E34
:1011B00001010451EA6ABE0FE96E000EEA22EF5007
:1011C000C26E98EC18F0CAEC11F0D09CD08EF28E62
:1011D000F28C420E006E6A0E016E026A00C0E6FFDB
:1011E000E66E02C0E6FFE7EC18F0E552E552E55284
:1011F000C8EC1BF0AEEC12F0E66AC6EC12F0E55259
:10120000010E0101006F016B8050100B100A01E00C
:10121000010E0108F9E001010D510E1103E1010E6B
:101220000D6F0E6B898E030EE15C02E2E16AE552FE
:10123000E16EE552E7CFD9FF1200CDDEF40EE66E87
:10124000010EE66EB5D8E552E5520101096B0A6B55
:101250002DEC19F0000902E033EC19F0070E010142
:101260000D1901E10E5135E0050E0D1901E10E5188
:101270002BE0060E0D1901E10E5126E0020E0D19AC
:1012800001E10E5116E0030E0D1901E10E5111E0BE
:10129000010E0D19DDE10E51DBE1CC51095DCD519F
:1012A0000A59D6E3096B0A6BAAA1D2D721EC1CF02C
:1012B000CFD76CEC25F0899E899C8A908A98010E84
:1012C00001010D6F0E6BC4D78AEC0EF008EC0FF025
:1012D000BFD713EC10F0BCD7D9CFE6FFE1CFD9FFD1
:1012E000040EE126FD0EDBCF00F0FE0EDBCF01F099
:1012F000FF0ED8800054030E015407E2FD0EDB6898
:10130000030EF36EFE0EF3CFDBFFFB0EDBCF00F020
:10131000FC0EDBCF01F0FF0ED8800054030E015409
:1013200007E2FB0EDB68030EF36EFC0EF3CFDBFF70
:10133000FB0EDBCF00F0FC0EDBCF01F0060ED890E9
:1013400000360136E804FBE100C0DEFF01C0DDFF2E
:10135000FD0EDBCF00F0FE0EDBCF01F0060ED890C5
:1013600000360136E804FBE1020E00C0DBFF030E8D
:1013700001C0DBFF010EDB50BE6E030EDB50BB6E07
:10138000DF50E840E8403F0B300B0C09BD6E020E09
:10139000DB40E8403F0B300B0C09BA6E040EE15CF9
:1013A00002E2E16AE552E16EE552E7CFD9FF1200B1
:1013B000D9CFE6FFE1CFD9FF020EE126F29A010173
:1013C000096B0A6BF28AF29A09C1DEFF0AC1DDFFDE
:1013D000F28ADECF00F0DDCF01F0FD0EDBCF02F0B0
:1013E000FE0EDBCF03F00250005C03500158EBE32C
:1013F000020EE15C02E2E16AE552E16EE552E7CFFE
:10140000D9FF1200D9CFE6FFE1CFD9FF0A0EE126BE
:1014100023C100F024C101F0FD0EDB50001811E1E2
:10142000FE0EDB5001180DE125C102F026C103F0CC
:10143000FB0EDB50021805E1FC0EDB50031801E146
:10144000E7D2000EE66EE66AE66EE66A45DFE55232
:10145000E552E552E5528B9A8B908A9C8A9AA0922B
:10146000A192B190B368050EB26EB180080EF6C0BD
:10147000DBFFFD0EDBCF00F0FE0EDBCF01F0013411
:1014800001E387D000500008000E015401E381D031
:10149000010EF36E040EF3CFDBFF060EDB6A080EBF
:1014A000306E316AFD0EDBCF35F0FE0EDBCF36F04D
:1014B0002DEC2CF02EC0DEFF2FC0DDFF0001000E52
:1014C000D880F655000EF75501E3F8D0DECF00F0D6
:1014D000DDCF01F001341EE200509008010E0154EE
:1014E00019E2DECF02F0DDCF03F0900E025E010EB6
:1014F000035A02C030F003C031F0FAC035F0FBC02F
:1015000036F0C2EC35F00001F6513024006EF75190
:10151000312027D0DECF00F0DDCF01F0900ED88053
:101520000056010E0156F651005CF75101581CE2BD
:10153000DECF02F0DDCF03F0900ED8800256010E10
:10154000035602C030F003C031F0FAC035F0FBC0E2
:1015500036F0C2EC35F000013050F65D006E3150CF
:10156000F759080E00C0DBFF080EDB50006E016A61
:10157000DECF02F0DDCF03F001500318E8AE02D059
:10158000033404D00250005C0350015801E396D0AC
:1015900089D0FD0EDBCF00F0FE0EDBCF01F00001A5
:1015A000800E011401E18FD0040EDB6A010EF36E90
:1015B000060EF3CFDBFFF80E306E3168FD0EDBCF89
:1015C00035F0FE0EDBCF36F02DEC2CF02EC0DEFF1A
:1015D0002FC0DDFF0001000ED880F655000EF75534
:1015E0006DE2DECF00F0DDCF01F001341EE20050ED
:1015F0009008010E015419E2DECF02F0DDCF03F0B6
:10160000900E025E010E035A02C030F003C031F0AA
:10161000FAC035F0FBC036F0C2EC35F00001F651EF
:101620003024006EF751312027D0DECF00F0DDCF1F
:1016300001F0900ED8800056010E0156F651005C64
:10164000F75101581CE2DECF02F0DDCF03F0900E1F
:10165000D8800256010E035602C030F003C031F0AC
:10166000FAC035F0FBC036F0C2EC35F00001305066
:10167000F65D006E3150F759080E00C0DBFF080E12
:10168000DB50006E016ADECF02F0DDCF03F00150C7
:101690000318E8AE02D0033404D00250005C0350BB
:1016A00001580CE2080EDB50006E016AD9CFE9FF49
:1016B000DACFEAFFE850EE5E0150ED5A640EDE2606
:1016C000000EDD220FD001019F510CE0010EF36EE0
:1016D000040EF3CFDBFF010EF36E060EF3CFDBFF3C
:1016E000DE6ADD6A090EF8C0DBFFFB0EDBCF00F01F
:1016F000FC0EDBCF01F0013401E393D00050000871
:10170000000E015401E38DD0010EF36E050EF3CFF0
:10171000DBFF070EDB6A080E306E316AFB0EDBCF93
:1017200035F0FC0EDBCF36F02DEC2CF0020E2EC087
:10173000DBFF030E2FC0DBFF0001000ED880F85541
:10174000000EF95501E310D1020EDBCF00F0030EBD
:10175000DBCF01F0013420E200509008010E01546B
:101760001BE2020EDBCF02F0030EDBCF03F0900E84
:10177000025E010E035A02C030F003C031F0FAC01D
:1017800035F0FBC036F0C2EC35F00001F8513024E2
:10179000006EF95131202BD0020EDBCF00F0030E8A
:1017A000DBCF01F0900ED8800056010E0156F851A3
:1017B000005CF95101581EE2020EDBCF02F0030E6D
:1017C000DBCF03F0900ED8800256010E035602C004
:1017D00030F003C031F0FAC035F0FBC036F0C2EC97
:1017E00035F000013050F85D006E3150F959090EA6
:1017F00000C0DBFF090EDB50006E016A020EDBCF7A
:1018000002F0030EDBCF03F001500318E8AE02D064
:10181000033404D00250005C0350015801E3A4D00B
:1018200096D0FB0EDBCF00F0FC0EDBCF01F0000109
:10183000800E011401E1A2D0050EDB6A010EF36EE9
:10184000070EF3CFDBFFF80E306E3168FB0EDBCFF7
:1018500035F0FC0EDBCF36F02DEC2CF0020E2EC056
:10186000DBFF030E2FC0DBFF0001000ED880F85510
:10187000000EF95501E378D0020EDBCF00F0030E25
:10188000DBCF01F0013420E200509008010E01543A
:101890001BE2020EDBCF02F0030EDBCF03F0900E53
:1018A000025E010E035A02C030F003C031F0FAC0EC
:1018B00035F0FBC036F0C2EC35F00001F8513024B1
:1018C000006EF95131202BD0020EDBCF00F0030E59
:1018D000DBCF01F0900ED8800056010E0156F85172
:1018E000005CF95101581EE2020EDBCF02F0030E3C
:1018F000DBCF03F0900ED8800256010E035602C0D3
:1019000030F003C031F0FAC035F0FBC036F0C2EC65
:1019100035F000013050F85D006E3150F959090E74
:1019200000C0DBFF090EDB50006E016A020EDBCF48
:1019300002F0030EDBCF03F001500318E8AE02D033
:10194000033404D00250005C035001580DE2090E2C
:10195000DB50006E016AD950020FE96EDACFEAFF60
:101960000050EE5E0150ED5AD950020FE96EDACF09
:10197000EAFF640EEE26000EED2211D001019F5108
:101980000EE0010EF36E050EF3CFDBFF010EF36EDA
:10199000070EF3CFDBFF020EDB6A030EDB6A0101E9
:1019A000010E9F6FFD0EDBCF23F1FE0EDBCF24F186
:1019B000FB0EDBCF25F1FC0EDBCF26F1A1A2FED77B
:1019C000A192020EDBCFE6FF030EDBCFE6FFDECFF8
:1019D000E6FFDDCFE6FF80DCE552E552E552E55259
:1019E000040EDB50E8B08B8AE8A08B9A060EDB5021
:1019F000E8B08B80E8A08B90050EDB50E8B08A8CB5
:101A0000E8A08A9C070EDB50E8B08A8AE8A08A9A90
:101A10000A0EE15C02E2E16AE552E16EE552E7CFCF
:101A2000D9FF1200D9CFE6FFE1CFD9FFFE0EDB5080
:101A3000090A5AE0010A50E00F0A46E0010A3CE0B8
:101A4000030A32E0010A28E0070A1EE0010A14E056
:101A5000030A0AE0010A4EE1FD0EDB50E8B089807E
:101A6000E8B048D0899046D0FD0EDB50E8B08982BE
:101A7000E8B040D089923ED0FD0EDB50E8B08984BA
:101A8000E8B038D0899436D0FD0EDB50E8B08986B6
:101A9000E8B030D089962ED0FD0EDB50E8B0898AB0
:101AA000E8B028D0899A26D0FD0EDB50E8B08A84B1
:101AB000E8B020D08A941ED0FD0EDB50E8B08A86B4
:101AC000E8B018D08A9616D0FD0EDB50E8B08A82B6
:101AD000E8B010D08A920ED0FD0EDB50E8B08A88B4
:101AE000E8B008D08A9806D0FD0EDB50E8B08A80B6
:101AF000E8A08A90E552E7CFD9FF1200D9CFE6FFE0
:101B0000E1CFD9FFE652DF6AFE0EDB50090A35E06D
:101B1000010A2EE00F0A28E0010A22E0030A1CE075
:101B2000010A16E0070A10E0010A0AE0030A04E0CD
:101B3000010A26E1895022D08950020B20E01BD0F7
:101B40008950040B1CE017D08950080B18E013D003
:101B50008950200B14E00FD08A50040B10E00BD0FA
:101B60008A50080B0CE007D08A50020B08E003D023
:101B70008A50100B04E0010E02D08A50010BDF6E78
:101B8000DF50E552E552E7CFD9FF1200D9CFE6FF8B
:101B9000E1CFD9FFFE0EDB50030A1EE0010A14E07C
:101BA000030A0AE0010A1EE1FD0EDB50E8B0898E4F
:101BB000E8B018D0899E16D0FD0EDB50E8B0898CB5
:101BC000E8B010D0899C0ED0FD0EDB50E8B08A80C2
:101BD000E8B008D08A9006D0FD0EDB50E8B08A88C5
:101BE000E8A08A98E552E7CFD9FF1200D9CFE6FFE7
:101BF000E1CFD9FFE652DF6AFE0EDB50030A13E0A5
:101C0000010A0DE0030A06E0010A12E18950800B87
:101C100008E003D08950400B04E0010E02D08A5046
:101C2000010BDF6E05D08A50100B01E0010EDF6E54
:101C3000DF50E552E552E7CFD9FF1200D9CFE6FFDA
:101C4000E1CFD9FFF29AFE0EDB50040DF3CFE9FF8E
:101C5000F4CFEAFF8F0EE926010EEA22EE6AEE6A61
:101C6000EE6AEE6AF28AE552E7CFD9FF1200D9CFC9
:101C7000E6FFE1CFD9FF040EE126F29AFE0EDB501B
:101C8000040DF3CFE9FFF4CFEAFF8F0EE926010E32
:101C9000EA22EECFDFFF010EEECFDBFF020EEECF2A
:101CA000DBFF030EEECFDBFFF28ADECF2EF0DECFBE
:101CB0002FF0DECF30F0DDCF31F0DD52DD52040EFB
:101CC000E15C02E2E16AE552E16EE552E7CFD9FF5D
:101CD0001200B36AB26AB1801200D9CFE6FFE1CF39
:101CE000D9FF020EE126B250DF6E010EB3CFDBFF4B
:101CF000DECF00F0DDCF01F000C0F3FF01C0F4FF44
:101D0000020EE15C02E2E16AE552E16EE552E7CFE4
:101D1000D9FF1200E66AE66A39DFE552E552E66A63
:101D2000010EE66E33DFE552E552E66A020EE66E1C
:101D30002DDFE552E552E66A030EE66E27DFE55237
:101D4000E552050E01010D6F0E6B0101050E0D1917
:101D50005EE10E515CE1320ED8800F55010E105538
:101D600003E2010EE66E01D0E66AE66A0FDFE55295
:101D7000E5520101320ED8801155010E125503E2D1
:101D8000010EE66E02D0E66A010EE66EFFDEE55257
:101D9000E5520101FF0ED8801355010E145503E2E0
:101DA000010EE66E01D0E66A020EE66EEFDEE55247
:101DB000E5520101FF0ED8801555010E165503E2BC
:101DC000010EE66E01D0E66A030EE66EDFDEE55236
:101DD000E5520101FF0ED8801755010E18550AE291
:101DE000010EE66E020EE66ED1DEE552E552010E00
:101DF000E66E07D0E66A020EE66EC8DEE552E552F0
:101E0000E66A030EE66EC2DEE552E5529ED7120088
:101E1000E66AE66ABBDEE552E552E66A010EE66E68
:101E2000B5DEE552E552E66A020EE66EAFDEE55239
:101E3000E552E66A030EE66EA9DEE552E552010EB2
:101E4000E66EE66AA3DEE552E552320EE66EE66A1B
:101E5000E66EE66A02EC0AF0E552E552E552E5521A
:101E6000E80EE66E030EE66ED8EC09F0E552E55298
:101E7000E66AE66A8BDEE552E552000EE66EE66A39
:101E8000E66EE66A02EC0AF0E552E552E552E552EA
:101E9000C80EE66EE66AD8EC09F0E552E552010E8E
:101EA000E66EE66E73DEE552E552CE0EE66EE6684D
:101EB000E66EE66802EC0AF0E552E552E552E552BC
:101EC000E80EE66E030EE66ED8EC09F0E552E55238
:101ED000E66A010EE66E5ADEE552E552000EE66E47
:101EE000E66AE66EE66A02EC0AF0E552E552E55271
:101EF000E552C80EE66EE66AD8EC09F0E552E55206
:101F0000010EE66E020EE66E41DEE552E552320E3D
:101F1000E66EE66ACE0EE66EE66802EC0AF0E55280
:101F2000E552E552E552E80EE66E030EE66ED8EC99
:101F300009F0E552E552E66A020EE66E27DEE5524A
:101F4000E552000EE66EE66AE66EE66A02EC0AF01C
:101F5000E552E552E552E552C80EE66EE66AD8EC67
:101F600009F0E552E552010EE66E030EE66E0EDE56
:101F7000E552E552CE0EE66EE668320EE66EE66A91
:101F800002EC0AF0E552E552E552E552E80EE66E43
:101F9000030EE66ED8EC09F0E552E552E66A030E50
:101FA000E66EF4DDE552E552000EE66EE66AE66E98
:101FB000E66A02EC0AF0E552E552E552E552320ECD
:101FC000E66EE66A000EE66EE66A02EC0AF0E5529C
:101FD000E552E552E552E80EE66E030EE66ED8ECE9
:101FE00009F0E552E552000EE66EE66A320EE66E44
:101FF000E66A02EC0AF0E552E552E552E552E80ED7
:10200000E66E030EE66ED8EC09F0E552E552000EDE
:10201000E66EE66AE66EE66A02EC0AF0E552E55222
:10202000E552E55212002DEC19F0000902E033EC04
:1020300019F00101080E0D1901E080D00E5101E0E8
:102040007DD0010EE66EE66AA1DDE552E552320E64
:10205000E66EE66AE66EE66A02EC0AF0E552E552E2
:10206000E552E552D00EE66E070EE66ED8EC09F0AA
:10207000E552E552640EE66EE66AE66EE66A02EC4A
:102080000AF0E552E552E552E552E80EE66E030E1F
:10209000E66ED8EC09F0E552E552010EE66E030E4D
:1020A000E66E74DDE552E552000EE66EE66AE66E17
:1020B000E66A02EC0AF0E552E552E552E552F40E0A
:1020C000E66E010EE66ED8EC09F0E552E552CE0E52
:1020D000E66EE668E66EE66802EC0AF0E552E55266
:1020E000E552E552D00EE66E070EE66ED8EC09F02A
:1020F000E552E5529C0EE66EE668E66EE66802EC96
:102100000AF0E552E552E552E552E80EE66E030E9E
:10211000E66ED8EC09F0E552E552E66A030EE66E8B
:1021200035DDE552E552000EE66EE66AE66EE66AD9
:1021300002EC0AF0E552E552E552E552070E0101C4
:102140000D6F0E6B70D7D9CFE6FFE1CFD9FFFD0E33
:10215000DBCFCEF1FE0EDBCFCFF10101D06BD16B27
:102160006F0ECE5F000ECF5BD05BD15B700E336E17
:10217000170E346E356A366ACEC12EF0CFC12FF0FD
:10218000D0C130F0D1C131F083EC34F02AC0CEF1AF
:102190002BC0CFF12CC0D0F12DC0D1F18A0E336EFF
:1021A0000C0E346E356A366A2AC02EF02BC02FF022
:1021B0002CC030F02DC031F0F9EC2BF02EC0CEF158
:1021C0002FC0CFF130C0D0F131C0D1F1640E010188
:1021D000CE5F000ECF5BD05BD15BD880D151FF0AC0
:1021E00008E6F60ECE5DFF0ECF59FF0ED059FF0E5A
:1021F000D1590BE20001190EE86FFC0EE96FEA6994
:10220000EB6907C1D2F108C1D3F10101D251075DD9
:10221000006E0851D355016EE80E005C030E0158A4
:1022200001E2B0D007C1D2F108C1D3F1190E00010B
:10223000E81911E1FC0EE9190EE1E868EA190BE171
:10224000E868EB1908E1CEC1E8F0CFC1E9F0D0C1F0
:10225000EAF0D1C1EBF0E80EE96E000EEA6E030E73
:10226000EB500101D119E8AE02D0D13508D0CE51E2
:10227000EE5CCF51EE58D051EE58D151EE582DE2D0
:10228000E80EE96E000EEA6EEE50CE5D006EEE5086
:10229000CF59016EEE50D059026EEE50D159036EF7
:1022A000E834000E031809E6D880010E0054000E31
:1022B0000154000E0254000E03543DE2E8C0CEF17A
:1022C000E9C0CFF1EAC0D0F1EBC0D1F1020ECE27C8
:1022D000000ECF23D023D1232ED0CE0EE96E010ED7
:1022E000EA6EEE500001E85D006EEE50E959016EB5
:1022F000EE50EA59026EEE50EB59036EE834000ED0
:10230000031809E6D880010E0054000E0154000E97
:102310000254000E03540FE2E8C0CEF1E9C0CFF141
:10232000EAC0D0F1EBC0D1F1020E0101CE5F000E88
:10233000CF5BD05BD15B0101CE510001E8270101E9
:10234000CF510001E9230101D0510001EA2301012D
:10235000D1510001EB23020E336E346A356A366ABE
:10236000E8C02EF0E9C02FF0EAC030F0EBC031F049
:10237000F9EC2BF02EC0E8F02FC0E9F030C0EAF005
:1023800031C0EBF0E8C0F3FFE9C0F4FFE552E7CF5E
:04239000D9FF12005F
:0C239400C76A110EC86E280EC66E400EFF
:1023A000C56E948694889F869E969D86A286A196E9
:1023B000A08606D8A00EE66E08EC36F0E5521200B4
:1023C000D9CFE6FFE1CFD9FFE652C950DF6EC69AFA
:1023D000C69CC69EC59CC59A0001846B82A80CD879
:1023E0009E96A1960001806B816B826BC68AE55236
:1023F000E552E7CFD9FF1200D9CFE6FFE1CFD9FFF1
:10240000E6528A88C69ADF6A090EDF5C0EE294966D
:10241000020EE66E22EC36F0E5529486020EE66E6F
:1024200022EC36F0E552DF2AEFD7E552E552E7CF4E
:10243000D9FF12000001816B1F0EC51403E1C750C4
:10244000040B07E00A0E006E8151005CF5E2CAEF52
:1024500011F01200D9CFE6FFE1CFD9FFE652DF6AD3
:10246000020E0001815DFCE3E5DFFE0EDBCF83F0B1
:10247000FD0EDBCF85F00001816B010E806FC58002
:10248000805112E0020E006E8151005C03E2800E6A
:102490008011826F8251F4E0C5847CDFDF2A050E53
:1024A000DF5CE9E3000E02D0816B010EE552E552DC
:1024B000E7CFD9FF1200D9CFE6FFE1CFD9FF020E57
:1024C0000001815DFCE3B6DFFE0EDB500109000177
:1024D000836FFD0EDBCF85F0816B0B0E806FC580A7
:1024E00080510EE0020E006E8151005C03E2800E0E
:1024F0008011826F8251F4E0C5844CDF000E02D05F
:10250000816B010EE552E7CFD9FF1200D9CFE6FF6C
:10251000E1CFD9FFE652DF6A060EDF5C13E2DF503F
:10252000EA6AB80FE96E000EEA22EF50E66EDF505D
:10253000EA6A860FE96E000EEA22E552E750EF6E76
:10254000DF2AEAD7060EE66E140EE66E83DFE5524A
:10255000E552E552E552E7CFD9FF1200D9CFE6FFA9
:10256000E1CFD9FFE652DF6A060EDF5C09E2DF50F9
:10257000EA6AB80FE96E000EEA22EF6ADF2AF4D7A2
:10258000C5DFE552E552E7CFD9FF1200D9CFE6FF0C
:10259000E1CFD9FF020EE126DF6A006AFE0EDB50B2
:1025A000005C09E2FE0EDB04E824300FE76E010E4A
:1025B000E7CFDBFF02D0010EDB6ADF50DF2AEA6AD9
:1025C000860FE96E000EEA22010EEF6EDF50DF2A61
:1025D000EA6A860FE96E000EEA22EF6ADFCFE6FFB5
:1025E000010EDBCFE6FF36DFE552E552020EE15C7D
:1025F00002E2E16AE552E16EE552E7CFD9FF12004F
:10260000D9CFE6FFE1CFD9FF020EE126DF6A006AEB
:10261000FE0EDB50005C09E2FE0EDB04E824300F06
:10262000E76E010EE7CFDBFF02D0010EDB6ADF5061
:10263000DF2AEA6A860FE96E000EEA22010EEF6ECB
:10264000DF50DF2AEA6A860FE96E000EEA22010EE9
:10265000EF6EDFCFE6FFDBCFE6FFFCDEE552E552B3
:10266000640EE66EE66AD8EC09F0E552E552020E19
:10267000E15C02E2E16AE552E16EE552E7CFD9FFA3
:102680001200D9CFE6FFE1CFD9FF020EE126006AA2
:10269000FE0EDB50005C09E2FE0EDB04E824300F86
:1026A000E76E010EE7CFDBFF02D0010EDB6ADF6AC7
:1026B000DF50DF2AEA6A860FE96E000EEA22030E77
:1026C000EF6EDF50DF2AEA6A860FE96E000EEA221B
:1026D000120EEF6EDF50DF2AEA6A860FE96E000EF7
:1026E000EA22FC0EDBCFEFFFDF50DF2AEA6A860F1B
:1026F000E96E000EEA22FA0EDBCFEFFFDFCFE6FF36
:10270000010EDBCFE6FFA6DEE552E552020EE15CEC
:1027100002E2E16AE552E16EE552E7CFD9FF12002D
:10272000D9CFE6FFE1CFD9FF020EE126006AFE0E07
:10273000DB50005C09E2FE0EDB04E824300FE76E9C
:10274000010EE7CFDBFF02D0010EDB6ADF6ADF504C
:10275000DF2AEA6A860FE96E000EEA22030EEF6EA8
:10276000DF50DF2AEA6A860FE96E000EEA22130EB6
:10277000EF6EDF50DF2AEA6A860FE96E000EEA226A
:10278000FD0EDBCFEFFFDF50DF2AEA6A860FE96E2E
:10279000000EEA22FC0EDBCFEFFFDFCFE6FF010EDB
:1027A000DBCFE6FF57DEE552E552020EE15C02E2C6
:1027B000E16AE552E16EE552E7CFD9FF1200D9CFC9
:1027C000E6FFE1CFD9FF020EE126006AFE0EDB50E4
:1027D000005C09E2FE0EDB04E824300FE76E010E18
:1027E000E7CFDBFF02D0010EDB6ADF6ADF50DF2AB2
:1027F000EA6A860FE96E000EEA22030EEF6EDF50E2
:10280000DF2AEA6A860FE96E000EEA22140EEF6EE6
:10281000DF50DF2AEA6A860FE96E000EEA22FD0E1B
:10282000DBCFEFFFDF50DF2AEA6A860FE96E000E8A
:10283000EA22FC0EDBCFEFFFDFCFE6FF010EDBCF9E
:10284000E6FF08DEE552E552020EE15C02E2E16AD3
:10285000E552E16EE552E7CFD9FF1200D9CFE6FF8E
:10286000E1CFD9FF020EE126006AFE0EDB50005CCC
:1028700009E2FE0EDB04E824300FE76E010EE7CF1D
:10288000DBFF02D0010EDB6ADF6ADF50DF2AEA6A73
:10289000860FE96E000EEA22020EEF6EDF50DF2A8D
:1028A000EA6A860FE96E000EEA22150EEF6EDF501F
:1028B000DF2AEA6A860FE96E000EEA22FD0EDBCF00
:1028C000EFFFDFCFE6FF010EDBCFE6FFC3DDE55212
:1028D000E552020EE15C02E2E16AE552E16EE55288
:1028E000E7CFD9FF1200D9CFE6FFE1CFD9FF060E1F
:1028F000E126006AFE0EDB50005C09E2FE0EDB04FE
:10290000E824300FE76E050EE7CFDBFF02D0050E9F
:10291000DB6A040EDB6ADBCFF3FFDB2AF350EA6AE3
:10292000860FE96E000EEA22060EEF6E040EDBCF74
:10293000F3FFDB2AF350EA6A860FE96E000EEA2203
:10294000160EEF6E040EDBCFF3FFDB2AF350EA6ABC
:10295000860FE96E000EEA22FD0EDBCFEFFFD9CF26
:10296000E9FFDACFEAFFF90EDBCFEEFFFA0EDBCF9D
:10297000EEFFFB0EDBCFEEFFFC0EDBCFEEFF040E17
:10298000DBCFF3FFDB2AF350EA6A860FE96E000E15
:10299000EA22DFCFEFFF040EDBCFF3FFDB2AF35099
:1029A000EA6A860FE96E000EEA22010EDBCFEFFF26
:1029B000040EDBCFF3FFDB2AF350EA6A860FE96EE1
:1029C000000EEA22020EDBCFEFFF040EDBCFF3FF97
:1029D000DB2AF350EA6A860FE96E000EEA22030E44
:1029E000DBCFEFFF040EDBCFE6FF050EDBCFE6FF0C
:1029F00031DDE552E552060EE15C02E2E16AE552A4
:102A0000E16EE552E7CFD9FF1200D9CFE6FFE1CF63
:102A1000D9FF040EE126006AFE0EDB50005C09E2DD
:102A2000FE0EDB04E824300FE76E030EE7CFDBFF7A
:102A300002D0030EDB6A020EDB6ADBCFF3FFDB2A78
:102A4000F350EA6A860FE96E000EEA22010EEF6E7D
:102A5000020EDBCFF3FFDB2AF350EA6A860FE96E42
:102A6000000EEA22800EEF6E020EDBCFE6FF030EB1
:102A7000DBCFE6FFEFDCE552E55200090AE00A0E83
:102A8000E66E030EDBCFE6FF16DDE552E5520009E8
:102A900002E1000E21D0020EDB6A0A0EF36E020E76
:102AA000DBCFF4FFF350F45C16E2020EDB50EA6A6F
:102AB000860FE96E000EEA22EF50E66E020EDB5042
:102AC000EA6AC00FE96E010EEA22E552E750EF6EA6
:102AD000020EDB2AE2D7010E006E040EE15C02E278
:102AE000E16AE552E16E0050E552E7CFD9FF1200EE
:102AF000D9CFE6FFE1CFD9FF050EE126006AFE0E31
:102B0000DB50005C09E2FE0EDB04E824300FE76EC8
:102B1000020EE7CFDBFF02D0020EDB6A030EDB6A98
:102B20000A0EF36EFD0EDBCFF4FFF350F45C02E20D
:102B3000020E01D0160EE76E040EE7CFDBFF030E88
:102B4000DBCFF3FFDB2AF350EA6A860FE96E000E53
:102B5000EA22020EEF6E030EDBCFF3FFDB2AF35007
:102B6000EA6A860FE96E000EEA22810EEF6E030E0E
:102B7000DBCFF3FFDB2AF350EA6A860FE96E000E23
:102B8000EA22FD0EDBCFEFFF030EDBCFE6FF020EE6
:102B9000DBCFE6FF5FDCE552E55200090BE0040EF7
:102BA000DBCFE6FF020EDBCFE6FF85DCE552E55228
:102BB000000902E1F36A49D0040EDB5002080EE17D
:102BC00086C0DFFF010E87C0DBFFDECF00F0DDCF68
:102BD00001F000C0F3FF01C0F4FF38D0030EDB6A40
:102BE0000A0EF36E030EDBCFF4FFF350F45C27E222
:102BF000030EDB50E824EA6A860FE96E000EEA2233
:102C0000EFCFDFFF030EDB50E824010FEA6A860FE7
:102C1000E96E000EEA22010EEFCFDBFF030EEA6A37
:102C2000DB34FE0BEA36E96EAC0EE926010EEA2231
:102C3000DECFEEFFDDCFEDFF030EDB2AD1D79AC04A
:102C4000CAF19BC0CBF1010EF36EF46A050EE15C94
:102C500002E2E16AE552E16EE552E7CFD9FF1200E8
:102C6000D9CFE6FFE1CFD9FF040EE126006AFE0EC0
:102C7000DB50005C09E2FE0EDB04E824300FE76E57
:102C8000030EE7CFDBFF02D0030EDB6A020EDB6A26
:102C9000DBCFF3FFDB2AF350EA6A860FE96E000E02
:102CA000EA22010EEF6E020EDBCFF3FFDB2AF350B8
:102CB000EA6A860FE96E000EEA22820EEF6E020EBD
:102CC000DBCFE6FF030EDBCFE6FF2AEC12F0E55286
:102CD000E55200090BE0020EE66E030EDBCFE6FFC5
:102CE0005BEC12F0E552E552000903E1F36AF46A85
:102CF0000DD086C0DFFF010E87C0DBFFDECF00F006
:102D0000DDCF01F000C0F3FF01C0F4FF040EE15C71
:102D100002E2E16AE552E16EE552E7CFD9FF120027
:102D2000D9CFE6FFE1CFD9FF020EE126030E006EF8
:102D3000FD0EDB50005C42E3006AFE0EDB50005CDF
:102D400009E2FE0EDB04E824300FE76E010EE7CF48
:102D5000DBFF02D0010EDB6ADF6ADF50DF2AEA6A9E
:102D6000860FE96E000EEA22020EEF6EDF50DF2AB8
:102D7000EA6A860FE96E000EEA22830EEF6EDF50DC
:102D8000DF2AEA6A860FE96E000EEA22FD0EDBCF2B
:102D9000EFFFDFCFE6FF010EDBCFE6FF2AEC12F0FC
:102DA000E552E55200090AE0010EE66EDBCFE6FFD0
:102DB0005BEC12F0E552E552000902E1000E02D090
:102DC00000018651006E020EE15C02E2E16AE5520A
:102DD000E16E0050E552E7CFD9FF1200D9CFE6FFF0
:102DE000E1CFD9FF020EE126090E006EFD0EDB5089
:102DF000005C42E3006AFE0EDB50005C09E2FE0E5E
:102E0000DB04E824300FE76E010EE7CFDBFF02D0D2
:102E1000010EDB6ADF6ADF50DF2AEA6A860FE96E9D
:102E2000000EEA22020EEF6EDF50DF2AEA6A860FFA
:102E3000E96E000EEA22840EEF6EDF50DF2AEA6AA6
:102E4000860FE96E000EEA22FD0EDBCFEFFFDFCF2B
:102E5000E6FF010EDBCFE6FF2AEC12F0E552E55269
:102E600000090AE0010EE66EDBCFE6FF5BEC12F034
:102E7000E552E552000902E1000E02D00001865140
:102E8000006E020EE15C02E2E16AE552E16E005082
:102E9000E552E7CFD9FF1200D9CFE6FFE1CFD9FF46
:102EA000060EE126030E006EFD0EDB50005C4DE3C6
:102EB000006AFE0EDB50005C09E2FE0EDB04E82433
:102EC000300FE76E050EE7CFDBFF02D0050EDB6AA1
:102ED000040EDB6ADBCFF3FFDB2AF350EA6A860FCE
:102EE000E96E000EEA22020EEF6E040EDBCFF3FF56
:102EF000DB2AF350EA6A860FE96E000EEA22850E9D
:102F0000EF6E040EDBCFF3FFDB2AF350EA6A860F85
:102F1000E96E000EEA22FD0EDBCFEFFF040EDBCFE1
:102F2000E6FF050EDBCFE6FF2AEC12F0E552E55294
:102F300000090BE0040EE66E050EDBCFE6FF5BEC4E
:102F400012F0E552E552000905E12E6A2F6A306A57
:102F5000316A3ED0040EDB6ADBCFF3FFDB2AF3508D
:102F6000EA6A860FE96E000EEA22EFCFDFFF040E59
:102F7000DBCFF3FFDB2AF350EA6A860FE96E000E1F
:102F8000EA22010EEFCFDBFF040EDBCFF3FFDB2ADB
:102F9000F350EA6A860FE96E000EEA22020EEFCFC6
:102FA000DBFF040EDBCFF3FFDB2AF350EA6A860F68
:102FB000E96E000EEA22030EEFCFDBFFDECF2EF02C
:102FC000DECF2FF0DECF30F0DDCF31F0DD52DD523D
:102FD000060EE15C02E2E16AE552E16EE552E7CFFE
:102FE000D9FF1200D9CFE6FFE1CFD9FF060EE126C7
:102FF000190E006EFD0EDB50005C4DE3006AFE0E04
:10300000DB50005C09E2FE0EDB04E824300FE76EC3
:10301000050EE7CFDBFF02D0050EDB6A040EDB6A8C
:10302000DBCFF3FFDB2AF350EA6A860FE96E000E6E
:10303000EA22020EEF6E040EDBCFF3FFDB2AF35021
:10304000EA6A860FE96E000EEA22860EEF6E040E23
:10305000DBCFF3FFDB2AF350EA6A860FE96E000E3E
:10306000EA22FD0EDBCFEFFF040EDBCFE6FF050EFD
:10307000DBCFE6FF2AEC12F0E552E55200090BE047
:10308000040EE66E050EDBCFE6FF5BEC12F0E552B8
:10309000E552000905E12E6A2F6A306A316A3ED096
:1030A000040EDB6ADBCFF3FFDB2AF350EA6A860FFC
:1030B000E96E000EEA22EFCFDFFF040EDBCFF3FF55
:1030C000DB2AF350EA6A860FE96E000EEA22010E4F
:1030D000EFCFDBFF040EDBCFF3FFDB2AF350EA6A0E
:1030E000860FE96E000EEA22020EEFCFDBFF040E20
:1030F000DBCFF3FFDB2AF350EA6A860FE96E000E9E
:10310000EA22030EEFCFDBFFDECF2EF0DECF2FF073
:10311000DECF30F0DDCF31F0DD52DD52060EE15C66
:1031200002E2E16AE552E16EE552E7CFD9FF120013
:103130009D9A9E9A040EAC6E800EAB6EB886B06AF5
:10314000440EAF6E240EAC6E900EAB6E0101F76BA9
:10315000200EF75D09E2F751EA6AD40FE96E010E1D
:10316000EA22EF6AF72BF4D7F86BF8C1F7F1FA6BA4
:103170009F9A9E9A9D8A1200D9CFE6FFE1CFD9FF90
:10318000ACA2FED7FE0EDB50AD6EE552E7CFD9FF05
:103190001200D9CFE6FFE1CFD9FFFD0EDBCFE9FF6B
:1031A000FE0EDBCFEAFFEF500EE0FD0EDBCFE9FFB6
:1031B000DB2AFE0EDBCFEAFF01E3DB2AEF50E66EEF
:1031C000DBDFE552EAD7E552E7CFD9FF1200D9CFCE
:1031D000E6FFE1CFD9FFFC0EDBCFF6FFFD0EDBCF24
:1031E000F7FFFE0EDBCFF8FF0800F55016E0D950D0
:1031F000FC0FE96EFF0EDA20EA6EEFCFF6FFEE2A43
:10320000EFCFF7FF000EEE22EFCFF8FFEE2208001F
:10321000F550E66EB1DFE552DED7E552E7CFD9FFD4
:103220001200D9CFE6FFE1CFD9FFE6520101F851F4
:10323000EA6AD40FE96E010EEA22EFCFDFFF200E1B
:10324000006EF82BF851D880005401E3F86BDF5082
:10325000E552E552E7CFD9FF12000101F751F85DC1
:1032600001E1000C010CD9CFE6FFE1CFD9FF1A0E26
:10327000E126190EDB6A0101F56BF66B0101640EA4
:10328000D880F555000EF6552DE3E7DF0009F6E08E
:10329000C8DFE76E180EE7CFDBFFDBCF00F0200EB4
:1032A000E76E0018E8AE02D0E73402D0E750005CC9
:1032B00019E3170E006E190EDB50005C13E3D9CF33
:1032C00000F0DACF01F0190EDBCFF3FFDB2AF35069
:1032D0000F01D924E96E000EDA20EA6E180EDBCF5A
:1032E000EFFFC9D7D9CF00F0DACF01F0190EDB50CC
:1032F0000F01D924E96E000EDA20EA6EEF6A190E8A
:10330000DB5009E0E66AD9CFE6FFDACFE6FF0DD859
:10331000E552E552E5521A0EE15C02E2E16AE5523D
:10332000E16EE552E7CFD9FF1200D9CFE6FFE1CF3A
:10333000D9FF060EE126FD0EDBCFE9FFFE0EDBCF47
:10334000EAFFEF50520A01E196D1040A01E191D15E
:10335000140A01E17FD10F0A01E119D1020A01E14A
:10336000DBD0030A01E19DD0050A57E03A0A54E098
:10337000200A01E082D1640E0101CC6FCD6B010EF9
:10338000E76EFD0EDBCFE9FFFE0EDBCFEAFFE75075
:10339000E926000EEA22EF50310A21E0010A01E09D
:1033A00036D0030EE76EFD0EDBCFE9FFFE0EDBCF5E
:1033B000EAFFE750E926000EEA22EF50310805E166
:1033C0006ED90101AA81899E09D00101AA9101014A
:1033D000AB6BABC1E6FFC6EC12F0E55218D0030EA2
:1033E000E76EFD0EDBCFE9FFFE0EDBCFEAFFE75015
:1033F000E926000EEA22EF50310802E1010E01D069
:10340000000E0101E8B0AA83E8A0AA9300D0010E43
:1034100001010D6F0E6B39D138D1010EE76EFD0E33
:10342000DBCFE9FFFE0EDBCFEAFFE750E926000E17
:10343000EA22EF50440822E1030EE76EFD0EDBCFD7
:10344000E9FFFE0EDBCFEAFFE750E926000EEA2295
:10345000EFCF00F0300E005C11E3390E016E030E69
:10346000E76EFD0EDBCFE9FFFE0EDBCFEAFFE75094
:10347000E926000EEA22EF50015C01E206D1030EBC
:10348000E76EFD0EDBCFE9FFFE0EDBCFEAFFE75074
:10349000E926000EEA22EF50D00F0101AB6FFFD8F2
:1034A000F4D0010EE76EFD0EDBCFE9FFFE0EDBCFA1
:1034B000EAFFE750E926000EEA22EF50D00FDF6E58
:1034C000030EE76EFD0EDBCFE9FFFE0EDBCFEAFF5A
:1034D000E750E926000EEA22EF50D00FE76E010E0A
:1034E000E7CFDBFF0101AB510AE1010EDBCFE6FFC5
:1034F000DFCFE6FFC6EC0DF0E552E5520CD0010E31
:10350000DBCFE6FFDFCFE6FFABC1E6FF90EC13F0C9
:10351000E552E552E552B9D0010EE76EFD0EDBCF64
:10352000E9FFFE0EDBCFEAFFE750E926000EEA22B4
:10353000EF50D00FDF6E030EE76EFD0EDBCFE9FF1D
:10354000FE0EDBCFEAFFE750E926000EEA22EF503D
:10355000D00FE76E010EE7CFDBFF0101AB510AE1AF
:10356000010EDBCFE6FFDFCFE6FF12EC0DF0E552F8
:10357000E5520CD0010EDBCFE6FFDFCFE6FFABC19B
:10358000E6FFDFEC13F0E552E552E5527ED0030E84
:10359000E66E020EE76EFD0EDBCF00F0FE0EDBCF17
:1035A00001F0E7500026000E012200C0E6FF01C036
:1035B000E6FFBBDAE552E552E552020EF3CFDBFF40
:1035C000030EF4CFDBFF030EE66E060EE76EFD0E74
:1035D000DBCF00F0FE0EDBCF01F0E7500026000E3F
:1035E000012200C0E6FF01C0E6FF9FDAE552E55286
:1035F000E552040EF3CFDBFF050EF4CFDBFF010134
:10360000AB5113E1040EDBCFE6FF050EDBCFE6FF87
:10361000020EDBCFE6FF030EDBCFE6FF02EC0AF083
:10362000E552E552E552E55214D0040EDBCFE6FF39
:10363000050EDBCFE6FF020EDBCFE6FF030EDBCF8E
:10364000E6FFABC1E6FF41EC13F0006E050EE15E54
:1036500000501BD0070E01010D6F0E6BFD0EDBCF6E
:10366000E6FFFE0EDBCFE6FFE1EC31F0E552E5527E
:103670000CD08ED80AD0FF0008D0FC0EDB5004E13D
:10368000150EE66E79DDE55200D0060EE15C02E231
:10369000E16AE552E16EE552E7CFD9FF1200D9CFDA
:1036A000E6FFE1CFD9FFE652840E006E6A0E016E8E
:1036B000026A00C0E6FFE66E02C0E6FF88DDE55262
:1036C000E552E5520101AB5111E1DF6A0A0EDF5C00
:1036D0000DE2DF50EA6AA00FE96E010EEA22EF5018
:1036E000300FE66E49DDE552DF2AF0D7006A0101AE
:1036F000AB51005C18E2ABC1E6FF05EC15F0E552FA
:10370000000911E0DF6A0A0EDF5C0DE2DF50EA6AB1
:10371000C00FE96E010EEA22EF50300FE66E2CDD8D
:10372000E552DF2AF0D77F0E006E6A0E016E026A44
:1037300000C0E6FFE66E02C0E6FF49DDE552E55255
:10374000E552300E0101AB25E66E16DDE552760E30
:10375000006E6A0E016E026A00C0E6FFE66E02C0ED
:10376000E6FF35DDE552E552E552730E006E6A0E56
:10377000016E026A00C0E6FFE66E02C0E6FF27DDCA
:10378000E552E552E552E552E552E7CFD9FF120086
:10379000D9CFE6FFE1CFD9FF200EE12612EC31F0C0
:1037A0006E0E006E6A0E016E026A00C0E6FFE66EE3
:1037B00002C0E6FF0CDDE552E552E552200EE66E52
:1037C000DBDCE552650E006E6A0E016E026A00C017
:1037D000E6FFE66E02C0E6FFFADCE552E552E5528E
:1037E000FAC0E6FFFBC0E6FFF8C0E6FFF9C0E6FF5F
:1037F000F6C0E6FFF7C0E6FF500E006E6A0E016EDF
:10380000026A00C0E6FFE66E02C0E6FFD9CFE6FF1F
:10381000DACFE6FF9CEC33F0036E0B0EE15E035053
:10382000D9CFE6FFDACFE6FFB4DCE552E552200E51
:10383000E15C02E2E16AE552E16EE552E7CFD9FFD1
:103840001200D9CFE6FFE1CFD9FF160EE126010124
:10385000AB5101E07DD0020EDB6A0A0EF36E020E60
:10386000DBCFF4FFF350F45C62E2020EDB50EA6A55
:10387000A00FE96E010EEA22EF500AE0020EDB50C3
:10388000EA6AA00FE96E010EEA22EF5002080FE18A
:10389000020EDBCFE6FF7EEC0DF0E552000903E1FE
:1038A000006A016A33D00068030E016E2FD0020E49
:1038B000DB50EA6AA00FE96E010EEA22EF5006081B
:1038C00017E1020EEA6ADB34FE0BEA36E96E0F0EF0
:1038D000E926010EEA22EECFE6FFEFCFE6FFA3ECEA
:1038E00010F0E552E552F3CF00F0F4CF01F00ED026
:1038F000020EEA6ADB34FE0BEA36E96E0F0EE926A9
:10390000010EEA22EECF00F0EFCF01F0020EEA6ADC
:10391000DB34FE0BEA36E96EAC0EE926010EEA2234
:1039200000C0EEFF01C0EDFF020EDB2A96D7E66A6B
:10393000F6EC0DF0E552E76E140EE7CFDBFF010E5B
:10394000E66EF6EC0DF0E552E76E150EE7CFDBFF05
:10395000006A0101AB51005C12E20A0EE66EABC1D7
:10396000E6FF78EC15F0E552E552F350F41001E172
:10397000D2D0140ECAC1DBFF150ECBC1DBFF020E85
:10398000DB6A0A0EF36E020EDBCFF4FFF350F45C39
:1039900035E2020EEA6ADB34FE0BEA36E96EAC0E63
:1039A000E926010EEA22EECFE6FFEFCFE6FF020E98
:1039B000DB28E66EE66A450E006E6A0E016E026A4C
:1039C00000C0E6FFE66E02C0E6FFD950030FE66EC8
:1039D000000EDA20E66E9CEC33F0036E090EE15E19
:1039E0000350D950030FE66E000EDA20E66EC9ECE4
:1039F00018F0E552E552020EDB2AC3D7020EDB6A4D
:103A0000D950030F006E020EDBCFF3FFDB2AF35019
:103A10000F010024E96E000EDA20EA6E4C0EEF6E04
:103A2000D950030F006E020EDBCFF3FFDB2AF350F9
:103A30000024E96E000EDA20EA6E450EEF6ED950D2
:103A4000030F006E020EDBCFF3FFDB2AF3500024DE
:103A5000E96E000EDA20EA6E440EEF6ED950030FC5
:103A6000006E020EDBCFF3FFDB2AF3500024E96E79
:103A7000000EDA20EA6E3D0EEF6E140EDB50300FB2
:103A8000E66ED950030F006E020EDBCFF3FFDB2A88
:103A9000F3500024E96E000EDA20EA6EE552E7509A
:103AA000EF6E150EDB50300FE66ED950030F006E2F
:103AB000020EDBCFF3FFDB2AF3500024E96E000E89
:103AC000DA20EA6EE552E750EF6ED950030F006E30
:103AD000DACF01F0020EDB500024E96E000EDA208E
:103AE000EA6EEF6AD950030FE66E000EDA20E66E3A
:103AF000C9EC18F0E552E552730E006E6A0E016EC5
:103B0000026A00C0E6FFE66E02C0E6FFE7EC18F0CE
:103B1000E552E552E552160EE15C02E2E16AE55239
:103B2000E16EE552E7CFD9FF1200D9CFE6FFE1CF32
:103B3000D9FF060EE126010EF36E040EF3CFDBFF74
:103B4000050EDB6A020EDB6A030EDB6ADF6AFC0E1F
:103B5000DB50DF5C43E2FD0EDBCFE9FFDB2AFE0E2C
:103B6000DBCFEAFF01E3DB2A010EEFCFDBFFDB5007
:103B700035E0010EDB502D0805E1040EDB68050E73
:103B8000DB682AD0300EF36E010EDBCFF4FFF3506A
:103B9000F45C22E3390E006E010EDB50005C1CE386
:103BA000D950020FE96EDACFEAFF0A0EEC02F3CF2A
:103BB000EDFFEF02F3CFEEFFF450ED26010EDB50E8
:103BC000D00F006E016AD950020FE96EDACFEAFF1A
:103BD0000050EE260150ED22DF2AB9D7040EDBCFCC
:103BE00000F0050EDBCF01F0D950020FE96EDACFFD
:103BF000EAFF00C035F001C036F0EECF30F0EDCF77
:103C000031F05AEC2CF02EC0EEFF2FC0EDFF020E6B
:103C1000DBCF00F0030EDBCF01F000C0F3FF01C0EB
:103C2000F4FF060EE15C02E2E16AE552E16EE55264
:103C3000E7CFD9FF1200D9CFE6FFE1CFD9FF060EBB
:103C4000E126DE6ADE6ADE6ADD6ADD52DD52040EDE
:103C5000DB6AFC0EDB50F36E040EDBCFF4FFF35097
:103C6000F45C57E2FD0EDBCFE9FFDB2AFE0EDBCF73
:103C7000EAFF01E3DB2A050EEFCFDBFF300EF36E28
:103C8000050EDBCFF4FFF350F45C43E3390E006E16
:103C9000050EDB50005C3DE3300E006E050EDBCF01
:103CA000E7FF0050E75E050EE7CFDBFFD9CFE9FF66
:103CB000DACFEAFF0A0E336E346A356A366AEECF1F
:103CC0002EF0EECF2FF0EECF30F0EFCF31F083ECCF
:103CD00034F02DC0EDFF2CC0EDFF2BC0EDFF2AC04E
:103CE000EFFF050EDBCF00F0016A026A036A00AE47
:103CF00003D00168026803680050DE260150DE220E
:103D00000250DE220350DD22DD52DD52040EDB2A9A
:103D1000A0D7DECF2EF0DECF2FF0DECF30F0DDCF1C
:103D200031F0DD52DD52060EE15C02E2E16AE5525D
:103D3000E16EE552E7CFD9FF1200D9CFE6FFE1CF20
:103D4000D9FF040EE126DE6ADD6A020EDB6AFC0E94
:103D5000DB50F36E020EDBCFF4FFF350F45C4FE266
:103D6000FD0EDBCFE9FFDB2AFE0EDBCFEAFF01E32E
:103D7000DB2A030EEFCFDBFF300E006E030EDB50AD
:103D8000D880005408E3030EDB50390804E3030E27
:103D9000DB50D00F1ED0410E006E030EDB50D880DA
:103DA000005408E3030EDB50460804E3030EDB5027
:103DB000BF0F0ED0610E006E030EDB50D880005492
:103DC0001EE3030EDB5066081AE3030EDB509F0F61
:103DD0000A0FE76E030EE7CFDBFFD9CFE9FFDACF9B
:103DE000EAFF040ED890EE36ED36E806FBE1030E4E
:103DF000DB50DE26000EDD22020EDB2AA8D7DECF46
:103E000000F0DDCF01F000C0F3FF01C0F4FF040EAD
:103E1000E15C02E2E16AE552E16EE552E7CFD9FFEB
:103E20001200D9CFE6FFE1CFD9FF300EF36EFE0EC0
:103E3000DBCFF4FFF350F45C08E3390E006EFE0EA6
:103E4000DB50005C02E3000E01D0010E000902E02D
:103E5000000E01D0010EE552E7CFD9FF1200D9CFF5
:103E6000E6FFE1CFD9FF300E006EFE0EDB50D880AA
:103E7000005404E3FE0EDB50390816E2410E006EDA
:103E8000FE0EDB50D880005404E3FE0EDB504608E3
:103E90000BE2610E006EFE0EDB50D880005406E38C
:103EA000FE0EDB50660802E3010E01D0000EE55263
:063EB000E7CFD9FF12006C
:0A3EB60097EC24F0FB0EDBCFF3FFC6
:103EC000DB06F35000090AE0E5EC24F0FA0E50ECB2
:103ED00025F0F3E1011CF1E1010E01D0000EC6EF67
:103EE00024F097EC24F03B0EE12402E3E168E65273
:103EF000E16E010EDB6A020EDB6AF90EDBCFF6FF24
:103F0000FA0EDBCFF7FFFB0EDBCFF8FF0800F55012
:103F1000DF6EDF5002E1EAEF23F0250EDF5C02E006
:103F2000DDEF23F0030EDB6A040EDB6A050EDB6AAD
:103F3000060EDB6A070EDB6AFFEC23F02D0EDF5C5A
:103F40000CE02B0EDF5C09E0200EDF5C06E0230EA8
:103F5000DF5C03E0300EDF5C1AE1DF50300A14E072
:103F6000130A0FE0030A0AE00B0A05E0060AE4E17F
:103F7000030EDB80E1D7030EDB82DED7030EDB848A
:103F8000DBD7030EDB86D8D7030EDB88D5D72A0E06
:103F9000DF5C1BE1FBEC23F049EC24F010E0030EA6
:103FA000DB8030683168130EDBCF35F0140EDBCFC9
:103FB00036F02DEC2CF0040E2EC0DBFF03D0130ED8
:103FC00032EC24F0FFEC23F00BD0090EDB6AA0ECFE
:103FD00024F003E014EC25F0FAD7090E32EC24F0BB
:103FE000030EDBB0DB982E0EDF5C1BE1FFEC23F051
:103FF0002A0EDF5C0BE1FBEC23F049EC24F003E13B
:10400000130E84EC24F0FFEC23F00BD0090EDB6AD6
:10401000A0EC24F003E014EC25F0FAD7090E84ECB0
:1040200024F0680EDF5C07E1FFEC23F0680EDF5C34
:104030001DE1030E18D0740EDF5C17E07A0EDF5C12
:1040400014E0480EDF5C06E0540EDF5C03E05A0E1D
:10405000DF5C02E1020E07D06C0EDF5C03E06A0E4B
:10406000DF5C04E1010ED7EC24F0C9DBDF506E0AFF
:1040700001E17FD31E0A01E192D1200A01E18FD133
:104080003F0A01E149D11A0A01E146D10D0A01E1D5
:1040900043D1200A01E140D13A0A01E13DD1200A91
:1040A00001E13AD1260A01E135D10D0A01E132D10F
:1040B0001A0A01E1D9D0200A4AE0300A1FE0460A74
:1040C0000EE0250A01E083D3D950F90FE96EFF0E07
:1040D000DA20EA6E010EEE5E000EEE5AEE5AE5ECC4
:1040E00024F0250EE66E95DB03E1011C01E169D3A6
:1040F000E1EC24F001E26BD3DB2A69D3080EDB6A22
:10410000040EDB50010806E2040EDB04A9EC24F0E7
:10411000DB508BDB080EDB5009E0030EDB50010B9C
:1041200005E172DB01E04DD3080EDB6A64DBEFCF03
:10413000DFFF59EC25F003E1011C01E142D3E1EC82
:1041400024F001E3DB2A60DB01E141D33AD3070E1F
:10415000DB5002080FE125EC25F0030EECEC24F017
:104160000E0EEECFDBFF0F0EEECFDBFF100EEECF0D
:10417000DBFF20D0F70EDBCF03F0F80EDBCF04F02F
:10418000020E035E000E045AF70E03C0DBFFF80EAA
:1041900004C0DBFF03C0E9FF04C0EAFFDCEC24F04D
:1041A000026A0E0E00C0DBFF0F0E01C0DBFF100E17
:1041B00002C0DBFF0E0EDBCFE6FF0F0EDBCFE6FF0C
:1041C000100EDBCFE6FFC9EC34F0E552E552E552C4
:1041D000130E2FC0DBFF140E30C0DBFF060EDB50CA
:1041E00005E0130E20EC25F001E26ADB44EC25F03B
:1041F00002E2130E37DB07EC25F006E0040E20EC9C
:1042000025F002E2050E2EDB030EDBB005D0FCDA52
:1042100001E0D7D2080EDB6A090EDB6A0E0EDBCF97
:10422000F6FF0F0EDBCFF7FF100EDBCFF8FF080015
:10423000F550DF6EDF5014E04AEC25F011E259EC46
:1042400025F003E1011C01E1BCD2BBDB01E3DB2A69
:10425000090EDB2AD9500E0FE96E000ECBDBE7D733
:10426000D3DA01E1B4D2ADD2C6DA110EEECFDBFF64
:10427000120EEDCFDBFF110EDBCFE6FF120EDBCF10
:10428000E6FFBBEC34F0E552E552130EF3CFDBFF53
:10429000140EF4CFDBFF060EDB5004E0130ED0DB70
:1042A00001E20EDB44EC25F002E2130EDBDAAFDBB9
:1042B00005E0040EC5DB02E2050ED4DA030EDBB026
:1042C00005D0A2DA01E07DD2080EDB6A090EDB6AB6
:1042D000110EDBCFE9FF120EDBCFEAFFEFCFDFFFDE
:1042E000DF5014E0D7DB12E2E4DB03E1011C01E163
:1042F00068D267DB01E3DB2A090EDB2A110EDB2A19
:10430000DBCFE9FF120EE8E3DB2AE6D77DDA01E135
:104310005ED257D2030EDB8E070EDB0410E195DB75
:10432000040E5ADB0A0EEECFDBFF0B0EEECFDBFFE7
:104330000C0EEECFDBFF0D0EEECFDBFF6CD0070EC9
:10434000DB5003082CE1030EDBAE0DD0B2DA020E17
:1043500076DAEFCF00F0016A026A036A00AE39D064
:104360000168026835D0F70EDBCF01F0F80EDBCF25
:1043700002F0020E015E000E025AF70E01C0DBFFD2
:10438000F80E02C0DBFF01C0E9FF02C0EAFFEFCF79
:1043900000F00A0E00C0DBFF0B0EDB6A38D0070E00
:1043A000DB50020809E1030EDBAE04D059DB02AE9C
:1043B00010D00ED055DB0DD0030EDBAE12D079DA63
:1043C000020E3DDAF9DA026A036A01AE02D002682F
:1043D0000368E2DA0C0E02C0DBFF0D0E03C0DBFF48
:1043E0001AD0F70EDBCF02F0F80EDBCF03F0020E8F
:1043F000025E000E035AF70E02C0DBFFF80E03C088
:10440000DBFF02C0E9FF03C0EAFFD6DAC5DA0C0E13
:10441000DB6A0D0EDB6A060EDB5005E1010EF36E62
:10442000050EF3CFDBFF150EDB6A160EDB6AD950E3
:10443000370F006E000EDA20016E390E00C0DBFF70
:104440003A0E01C0DBFF380EDB6A080EDB6A0A0E8B
:10445000AEDADF50780A12E0200A10E0280A0CE0F9
:10446000200A0AE03F0A06E00D0A02E0200A08E1FD
:10447000020E05D0080E03D0080EDF26100E97DAC4
:10448000030EDBBE02D0DB92DB94DB50800B24E01A
:104490008ADAD890030EEB50000A08E6000EEE5CB4
:1044A000000EEE58000EEE58000EEE5815E213DA2C
:1044B000336834683568366883EC34F00A0E2AC0F5
:1044C000DBFF0B0E2BC0DBFF0C0E2CC0DBFF0D0E39
:1044D0002DC0DBFF2D0E08D0030EDBA202D02B0E69
:1044E00003D0DBA408D0200EF36E170EF3CFDBFF52
:1044F000150EDB2A02D0170EDB6A050EDB5003E136
:10450000B7D901E189D05A0E006E6C0E016E000E13
:10451000026E070EDBCF03F0046A056A066A03C069
:1045200033F004C034F005C035F006C036F0D3D9FE
:104530009EEC35F000502A24F36E01502B20F46ECF
:1045400002502C20F86EF4CFF7FFF3CFF6FF0800EF
:10455000090EF5CFDBFF580EDF5C0FE1610EF36E45
:10456000090E7BD90AE3200E006E090EDBCFE7FFB0
:104570000050E75E090EE7CFDBFF070EDBCF00F050
:10458000016A026A036A0FDA00C033F001C034F036
:1045900002C035F003C036F0EECF2EF0EECF2FF094
:1045A000EECF30F0EFCF31F09EEC35F031C0EDFFC3
:1045B00030C0EDFF2FC0EDFF2EC0EFFF390EDBCF77
:1045C000E9FFDB063A0EDBCFEAFF01E2DB06090E6C
:1045D000DBCFEFFF150EDB2A4BD995E1030EDBA6EF
:1045E0001DD06F0EDF5C06E1C1D918E3150EDB2884
:1045F0005BDA14D0780EDF5C09E0580EDF5C06E071
:10460000620EDF5C03E0420EDF5C08E1020EF36E37
:10461000160EF3CFDBFF02D0150EDB6A030EDB5064
:10462000100B0EE0040EDBCF00F0050EDB50D8803F
:10463000005406E2060EDB5003E1040EDB5034DAD0
:1046400095D90AE2050EDBCFE7FF150EDB50E75EDA
:10465000050EE7CFDBFF02D0050EDB6A040EDBCFD1
:1046600000F0160E45D9D880005414E2160EDBCFA8
:10467000E6FF150EDBCFE6FF040EDBCFE6FF050EEF
:10468000DB50E552E75CE552D880E754E552D8802C
:10469000E7545FD9030EDB50010B0BE1080EDB5032
:1046A00008E0B2D801E08DD0080EDB50BED8080E6D
:1046B000DB6A170EDB5007E088D9170EF1D903E14A
:1046C000011C01E17ED0160EDB5016E07ED9300EC3
:1046D000E66E9FD802E1011C74E077D9DFCFE6FFD8
:1046E00041EC34F0E552E552E552F4CF01F000011F
:1046F000F31C02E1011C65E0050EDBCF00F0160E95
:10470000DB50D880005409E2050EDBCFE7FF160E20
:10471000DB50E75E050EE7CFDBFF300EE66E050EE1
:10472000CBD94FE1390EDB2ADBCFE9FF3A0E01E3AB
:10473000DB2ADBCFEAFF090EEFCFDBFFDB500EE019
:1047400044D9090EADD902E1011C3BE0390EDB2A48
:10475000DBCFE9FF3A0EEDE3DB2AEBD755D831E1A9
:10476000160EDBCFE6FF080EC3D8E552E7245DD86E
:104770002ED0070EDB50030A1CE0010A14E0030AE6
:1047800007E07BD9DBCFEEFF020EDBCFEDFF1FD0C2
:10479000F5D8056A03AE02D0046805682CD8BCD8E9
:1047A00005C0EEFF14D0EAD803BE046824D8B4D8FC
:1047B0000ED063D9DBCFEFFF0AD07BD905E1011C16
:1047C00003E1F368F46810D0FCD801E3DB2A79D95F
:1047D00086EF1FF0010EDBCF00F0020EDBCF01F001
:1047E00000C0F3FF01C0F4FF3B0EE15C02E2E16AAE
:1047F000E552E16ECBD029D9020EECEF24F061D95D
:104800000800F550DF6E1200200EE66E080E5CEF19
:1048100025F041EC34F0E552E552E552F3CF00F0DB
:10482000F4CF01F00001F31C1200006E016AD950B0
:10483000010F4DD90050EE260150ED221200045E0A
:10484000000E055AF70E04C0DBFFF80E05C0DBFFB3
:1048500004C0E9FF05C0EAFF1200DBCFF4FFF3500C
:10486000F45C1200DB50E76E040EE7CFDBFF1200B2
:104870000A0EDBCF00F00B0EDBCF01F00C0EDBCF0E
:1048800002F00D0EDBCF03F00050011002100310F8
:104890001200130EEECFDBFF140EEDCFDBFF130E75
:1048A000DBCF00F0140EDBCF01F00001800E01140D
:1048B0001200F70EDBCF04F0F80EDBCF05F012008C
:1048C000050EDB50E66ED950130F01D9E552E750C3
:1048D000EE6EED6A12000A0EDBCF2EF00B0EDBCF70
:1048E0002FF00C0EDBCF30F00D0EDBCF31F01200CD
:1048F000DBCFE6FF150EDBCFE6FF050EDB50E55202
:10490000E724E552E7241200DB50CED8010EF36E07
:10491000060EF3CFDBFF1200EE50EFCFEAFFE96E99
:1049200002C0EEFF03C0EEFF04C0EEFF1200D9CFBD
:10493000E6FFDACFE6FFE1CFD9FFE2CFDAFF1200E0
:10494000DFCFE6FFE66AD8EC35F0E552E552F350EA
:104950001200E76E080EE7CFDBFF1200EECF00F08B
:10496000EECF01F0EFCF02F0036A1200050EDBCFAD
:1049700000F0150EDB50D88000541200010EDBCF82
:1049800002F0020EDBCF03F0046A1200E552E5CF1D
:10499000DAFFE7CFD9FF12000A0E00C0DBFF0B0ED3
:1049A00001C0DBFF1200D9500A0F67EF25F0F36E4C
:1049B000070EF3CFDBFF1200EECF00F0EFCF01F0D8
:1049C0001200010EDB2A020E1200FC0EDBCFE6FF06
:1049D000FD0EDBCFE6FF1200005E000E015AF70E5F
:1049E00000C0DBFFF80E01C0DBFF00C0E9FF01C023
:1049F000EAFF1200DA20EA6EEF2AEECFF6FF000E91
:104A0000EF22EECFF7FFEF22EECFF8FF1200040EF9
:104A1000DBCFE6FF130EDB50E552E75C9ADFDB509D
:104A200004DF060EDB501200090EDB500A0DF350B6
:104A3000DF24D00FE76E090EE7CFDBFFFFEF23F097
:104A4000DB50F36E050E2DEF24F0F70EDBCF00F0F8
:104A5000F80EDBCF01F01200DFCFE6FF09EF24F004
:104A600028DF030EECDEAEEF24F05BEC1FF0E55226
:104A7000E552E552E55200091200BDDEEE50EFCFDF
:104A8000EAFFE96E010E1200130EDB50F36E040E06
:104A90002DEF24F0040EDB50F36E090E2DEF24F001
:104AA000DBCFE6FF09EF24F0E76E050EE7CFDBFF73
:104AB00012008BDF2CEF25F0DBCFE6FF86DF35EF32
:104AC00025F0D950F90FE96EFF0EFAEF24F0E96EE8
:084AD000000EDA20EA6E12006C
:084AD800D9CFE6FFE1CFD9FFC1
:104AE000160EE126320EDE6EDD6AF36E020EF3CF95
:104AF000DBFF030EDB6A460EF36E040EF3CFDBFF23
:104B0000050EDB6A0FC100F010C101F0120E0102A8
:104B1000F3CF01F00002F3CF00F0F4500126110EA4
:104B2000356E366AF3CF30F001C031F0C2EC35F0AB
:104B300030C000F031C001F072EC2AF00E0E2FC030
:104B4000DBFF0F0E30C0DBFF100E31C0DBFF110E9C
:104B500032C0DBFF0101990ED8800F55010E1055B0
:104B600011E2060EDB6A070EDB6A080EDB6A090E2D
:104B7000DB6A0A0EDB6A0B0EDB6A0C0EDB6A0D0EBB
:104B8000DB6A12D30E0EDBCF00F00F0EDBCF01F08D
:104B9000100EDBCF02F0110EDBCF03F0346A356A62
:104BA000340E366E430E376E00C02FF001C030F069
:104BB00002C031F003C032F0AFEC2CF0010A01E08A
:104BC0007BD1186A196A340E1A6E420E1B6E0E0ED5
:104BD000DBCF1CF00F0EDBCF1DF0100EDBCF1EF075
:104BE000110EDBCF1FF01CC034F01DC035F01EC00D
:104BF00036F01FC037F018C02FF019C030F01AC0BF
:104C000031F01BC032F0A3EC2AF02FC014F030C0FA
:104C100015F031C016F032C017F0346A356AB40EA0
:104C2000366E430E376EA3EC2AF02FC010F030C062
:104C300011F031C012F032C013F0040EDBCF30F0AF
:104C4000050EDBCF31F074EC2AF02FC020F030C01D
:104C500021F031C022F032C023F02FC034F030C038
:104C600035F031C036F032C037F010C02FF011C02F
:104C700030F012C031F013C032F0A2EC2AF02FC095
:104C80000CF030C00DF031C00EF032C00FF0560EF7
:104C9000346E0E0E356E490E366E400E376E8CEC4D
:104CA0002BF02FC008F030C009F031C00AF032C03C
:104CB0000BF0346A356A340E366E430E376E39ECBB
:104CC0002BF02FC004F030C005F031C006F032C028
:104CD00007F02FC0E6FF30C0E6FF31C0E6FF32C06C
:104CE000E6FF77EC35F0E552E552E552E5522EC08D
:104CF00000F02FC001F030C002F031C003F0000E10
:104D0000DFCF30F0010EDBCF31F074EC2AF02FC092
:104D100024F030C025F031C026F032C027F02FC07B
:104D200034F030C035F031C036F032C037F000C05A
:104D30002FF001C030F002C031F003C032F08CEC33
:104D40002BF0060E2FC0DBFF070E30C0DBFF080E76
:104D500031C0DBFF090E32C0DBFF186A196A340E5E
:104D60001A6E420E1B6E0E0EDBCF1CF00F0EDBCF49
:104D70001DF0100EDBCF1EF0110EDBCF1FF01CC09C
:104D800034F01DC035F01EC036F01FC037F018C01B
:104D90002FF019C030F01AC031F01BC032F0A3EC74
:104DA0002AF02FC014F030C015F031C016F032C018
:104DB00017F0346A356AB40E366E430E376EA3ECC4
:104DC0002AF02FC010F030C011F031C012F032C004
:104DD00013F0040EDBCF30F0050EDBCF31F074ECB6
:104DE0002AF02FC020F030C021F031C022F032C0B4
:104DF00023F02FC034F030C035F031C036F032C06F
:104E000037F010C02FF011C030F012C031F013C0D5
:104E100032F0A2EC2AF02FC00CF030C00DF031C0FF
:104E20000EF032C00FF0560E346E0E0E356E490E77
:104E3000366E400E376E8CEC2BF02FC008F030C071
:104E400009F031C00AF032C00BF0346A356A340E12
:104E5000366E430E376E39EC2BF02FC004F030C0A5
:104E600005F031C006F032C007F02FC0E6FF30C0B9
:104E7000E6FF31C0E6FF32C0E6FF4FEC35F0E55209
:104E8000E552E552E5522EC000F02FC001F030C0CF
:104E900002F031C003F0000EDFCF30F0010EDBCFA7
:104EA00031F074EC2AF02FC024F030C025F031C06E
:104EB00026F032C027F05AD1146A156A340E166EE5
:104EC000420E176E0E0EDBCF18F00F0EDBCF19F06F
:104ED000100EDBCF1AF0110EDBCF1BF018C034F030
:104EE00019C035F01AC036F01BC037F014C02FF0CF
:104EF00015C030F016C031F017C032F0A3EC2AF024
:104F00002FC010F030C011F031C012F032C013F0D9
:104F1000040EDBCF30F0050EDBCF31F074EC2AF05D
:104F20002FC01CF030C01DF031C01EF032C01FF089
:104F30002FC034F030C035F031C036F032C037F019
:104F400010C02FF011C030F012C031F013C032F099
:104F5000A3EC2AF02FC00CF030C00DF031C00EF0E1
:104F600032C00FF0560E346E0E0E356E490E366E90
:104F7000400E376E8CEC2BF02FC008F030C009F0DB
:104F800031C00AF032C00BF0346A356A340E366E26
:104F9000430E376E39EC2BF02FC004F030C005F013
:104FA00031C006F032C007F02FC0E6FF30C0E6FF88
:104FB00031C0E6FF32C0E6FF77EC35F0E552E5524E
:104FC000E552E5522EC000F02FC001F030C002F0D3
:104FD00031C003F0000EDFCF30F0010EDBCF31F037
:104FE00074EC2AF02FC020F030C021F031C022F044
:104FF00032C023F02FC034F030C035F031C036F06D
:1050000032C037F000C02FF001C030F002C031F0E4
:1050100003C032F08CEC2BF0060E2FC0DBFF070E26
:1050200030C0DBFF080E31C0DBFF090E32C0DBFFF2
:10503000146A156A340E166E420E176E0E0EDBCF12
:1050400018F00F0EDBCF19F0100EDBCF1AF0110E97
:10505000DBCF1BF018C034F019C035F01AC036F0A1
:105060001BC037F014C02FF015C030F016C031F05F
:1050700017C032F0A3EC2AF02FC010F030C011F0AE
:1050800031C012F032C013F0040EDBCF30F0050E49
:10509000DBCF31F074EC2AF02FC01CF030C01DF0D3
:1050A00031C01EF032C01FF02FC034F030C035F0D8
:1050B00031C036F032C037F010C02FF011C030F0E0
:1050C00012C031F013C032F0A3EC2AF02FC00CF064
:1050D00030C00DF031C00EF032C00FF0560E346EFD
:1050E0000E0E356E490E366E400E376E8CEC2BF080
:1050F0002FC008F030C009F031C00AF032C00BF008
:10510000346A356A340E366E430E376E39EC2BF046
:105110002FC004F030C005F031C006F032C007F0F7
:105120002FC0E6FF30C0E6FF31C0E6FF32C0E6FF29
:105130004FEC35F0E552E552E552E5522EC000F055
:105140002FC001F030C002F031C003F0000EDFCFFD
:1051500030F0010EDBCF31F074EC2AF02FC020F0DC
:1051600030C021F031C022F032C023F02FC034F023
:1051700030C035F031C036F032C037F000C02FF00B
:1051800001C030F002C031F003C032F08CEC2BF0E3
:105190000A0E2FC0DBFF0B0E30C0DBFF0C0E31C040
:1051A000DBFF0D0E32C0DBFF01013F6B406B416B3B
:1051B000426B060EDBCF04F0070EDBCF05F0080EC6
:1051C000DBCF06F0090EDBCF07F0346A356A800EBC
:1051D000366EBF0E376E04C02FF005C030F006C02B
:1051E00031F007C032F08CEC2BF02FC000F030C053
:1051F00001F031C002F032C003F03FC12EF040C1D7
:105200002FF041C130F042C131F089EC2AF02FC0BB
:1052100008F030C009F031C00AF032C00BF02FC0E6
:1052200034F030C035F031C036F032C037F000C055
:105230002FF001C030F002C031F003C032F0A3EC17
:105240002AF078EC2CF02EC027F12FC028F130C0C6
:1052500029F131C02AF10A0EDBCF00F00B0EDBCFB3
:1052600001F00C0EDBCF02F00D0EDBCF03F03FC1DF
:105270002EF040C12FF041C130F042C131F089EC35
:105280002AF02FC004F030C005F031C006F032C063
:1052900007F02FC034F030C035F031C036F032C0E6
:1052A00037F000C02FF001C030F002C031F003C071
:1052B00032F0A3EC2AF078EC2CF02EC02BF12FC0AA
:1052C0002CF130C02DF131C02EF10A0EDBCF04F0ED
:1052D0000B0EDBCF05F00C0EDBCF06F00D0EDBCF97
:1052E00007F0346A356A800E366EBF0E376E04C022
:1052F0002FF005C030F006C031F007C032F08CEC62
:105300002BF02FC000F030C001F031C002F032C0ED
:1053100003F03FC12EF040C12FF041C130F042C137
:1053200031F089EC2AF02FC008F030C009F031C00C
:105330000AF032C00BF02FC034F030C035F031C06D
:1053400036F032C037F000C02FF001C030F002C09C
:1053500031F003C032F0A3EC2AF078EC2CF02EC030
:105360002FF12FC030F130C031F131C032F1060ED3
:10537000DBCF00F0070EDBCF01F0080EDBCF02F031
:10538000090EDBCF03F03FC12EF040C12FF041C129
:1053900030F042C131F089EC2AF02FC004F030C067
:1053A00005F031C006F032C007F02FC034F030C035
:1053B00035F031C036F032C037F000C02FF001C0F8
:1053C00030F002C031F003C032F0A3EC2AF078ECE8
:1053D0002CF02EC033F12FC034F130C035F131C084
:1053E00036F10101800E2A1512E027C100F028C114
:1053F00001F029C102F02AC103F0000E006C011E69
:105400000122021E0222031E0322008E08D027C1A1
:1054100000F028C101F029C102F02AC103F000C048
:10542000B8F0800E2E1512E02BC100F02CC101F057
:105430002DC102F02EC103F0000E006C011E0122EE
:10544000021E0222031E0322008E08D02BC100F090
:105450002CC101F02DC102F02EC103F000C0B9F043
:10546000800E321512E02FC100F030C101F031C1C1
:1054700002F032C103F0000E006C011E0122021E78
:105480000222031E0322008E08D02FC100F030C17B
:1054900001F031C102F032C103F000C0BAF0800E59
:1054A000361512E033C100F034C101F035C102F00D
:1054B00036C103F0000E006C011E0122021E022202
:1054C000031E0322008E08D033C100F034C101F066
:1054D00035C102F036C103F000C0BBF086EC12F01B
:0454E00082EF25F042
:0C54E400299E08D0299E31AE05D0306C06
:1054F000311EE86A3122298E31C02BF030C02AF0EB
:105500003B6A3A6A8E0E2C6E2D6A29EF2DF0299E89
:105510000CD0299E31AE09D02E6C2F1E301E311EAC
:10552000E86A2F2230223122298E31C02BF030C080
:105530002AF02FC03BF02EC03AF09E0E2C6E2D6A42
:1055400029EF2DF0377E296A65EC2DF07DEC2DF0EA
:1055500029B60DEF2DF029A20AD029AA03D029BE21
:105560000DEF2DF029A419EF2DF016EF2DF029AA3B
:1055700005D029AC19EF2DF016EF2DF029A00AD097
:1055800029A808D029BE04D029A402D022EF2DF0EA
:1055900026EF2DF03A6A2D6A3750325C396E10E3EF
:1055A0002FC03BF030C02AF031C02BF032C038F0B1
:1055B00034C02FF035C030F036C031F0293A09D070
:1055C00034C03BF035C02AF036C02BF037C038F07D
:1055D000396C299E29BC298E38C02CF029B055EF92
:1055E0002DF01A0E396055EF2DF02C6A326A29A47D
:1055F00008D02F6C301E311E321EE86A3022312254
:10560000322229AC08D03B6C2A1E2B1E2C1EE86AC5
:105610002A222B222C222E6A395207E032343132D0
:1056200030322F322E32392EF9D72F503B263050C0
:105630002A2231502B2232502C222EC03AF0299EA1
:105640002CAE0BD03A6C3B1E2A1E2B1E2C1EE86A79
:105650003B222A222B222C22298E2CA006D0D88055
:105660002B322A323B323A32382A38C02CF029EF1A
:105670002DF0296A65EC2DF07DEC2DF029B60DEFAB
:105680002DF029A205D029BA0DEF2DF014EF2DF041
:1056900029BA20EF2DF029A005D029B80DEF2DF063
:1056A00020EF2DF029B814EF2DF02D6A7F0E322453
:1056B0002C6EE86A2D2237502C5EE86A2D5A1A0E9D
:1056C000386E326A3A6A3B6A2A6A2B6A34502F5E15
:1056D0003550305A3650315A000E325A09E734509C
:1056E0002F263550302236503122000E322201D082
:1056F0003A8AD8902F36303631363236D8903A360C
:105700003B362A362B36382EE1D7315030102F1049
:10571000D8A43A8A29EF2DF0296A65EC2DF07DECAA
:105720002DF029B60DEF2DF029A205D029B80DEFE7
:105730002DF014EF2DF029AA05D029B00DEF2DF092
:1057400014EF2DF029B002D029A802D020EF2DF0BF
:105750002D6A375032242C6EE86A2D227E0E2C5E84
:10576000E86A2D5A3A6A3B6A2A6A2B6A3650310235
:10577000F4CF2BF0F3CF2AF035503102F3503B2613
:10578000F4502A22000E2B2236503002F3503B26D2
:10579000F4502A22000E2B2234503102F3503A26C4
:1057A000F4503B22000E2A222B2235503002F350B7
:1057B0003A26F4503B22000E2A222B2236502F028A
:1057C000F3503A26F4503B22000E2A222B2234506A
:1057D0003002F4503A26000E3B222A222B2235506A
:1057E0002F02F4503A26000E3B222A222B2229EFC8
:1057F0002DF0286AE86A36AE06EF2CF0336C341EC2
:10580000351E361E342235223622281E31AE11EFC7
:105810002CF02E6C2F1E301E311E2F2230223122F2
:10582000281E9EEC35F031BE28EF2CF028AE000C7F
:105830002E6C2F1E301E311EE86A2F22302231229C
:105840002A6C2B1E2C1E2D1E2B222C222D22000CEE
:1058500028BE18EF2CF02988FF0C31C03BF030C077
:105860003AF030503502F4CF2FF0F3CF2EF0315014
:105870003602F4CF31F0F3CF30F03502F3502F265B
:10588000F4503022E86A31223A503602F3502F2683
:10589000F4503022E86A312236AE53EF2CF03A5001
:1058A000305E3B50315A3BAE000C3550305E3650C6
:1058B000315A000C30C03AF030503502F4CF2FF09E
:1058C000F3CF2EF031503602F4CF31F0F3CF30F079
:1058D0003502F3502F26F4503022E86A31223A5034
:1058E0003602F3502F26F4503022E86A3122000CA1
:1058F000296A65EC2DF029B682EF2CF029A20FD091
:1059000029B407D07F0E316EFF0E306E2F6E2E6ED3
:1059100025D0800E316E01D0316A000EF6D729B045
:10592000FBD72E6A9F0E3260EBD77E0E3264F4D71F
:105930009E0E325C07E0D890313230322F322E3258
:10594000322AF6D729A40AD02E6C2F1E301E311E03
:10595000E86A2F223022312231AEDED71200B8ECB5
:105960002CF029B6000C29B0000C29B4000C010C55
:10597000296A65EC2DF07DEC2DF029B6120029AED8
:1059800008D029A004D029A802D02980120029908B
:1059900012003750325C0BE13650315C08E1355073
:1059A000305C05E134502F5C02E129801200D8A060
:1059B00002D0298E10D0325037C032F0376E3150BD
:1059C00036C031F0366E305035C030F0356E2F5065
:1059D00034C02FF0346E3750325C10E0FF0F09E016
:1059E000299029B403D029AE2984120029AE299424
:1059F0001200372AD89036323532343234502F5E86
:105A00003550305A3650315A31BEEAD7D8902F36F9
:105A100030363136322EF8D7C8D77F0E326EFF0EB1
:105A2000316E306E2F6E12007F0E29BEFF0E326E69
:105A300002D07F0E326E800E316E306A2F6AF3D73D
:105A400029AE04D0800E326E316AF7D7326A316ADD
:105A5000F4D72B502A103B103A10F8E02DBEF0D7A7
:105A60002BBE0CD02C502D10EBE0D8903A363B36A4
:105A70002A362B362C06D8A02D06F2D72D50D4E18D
:105A80002C28D2E03AAE11D07F0E3A1402E13BA0AE
:105A90000CD03B2AE86A2A222B2207E3D8802B323B
:105AA0002A323B322C2A2C28BFE02C50C9E03BC0C4
:105AB0002FF02AC030F02B34316E2C30326E313260
:105AC000329E29BE328E13EF2DF03136323602E38C
:105AD0002984297E06E12980326A316A306A2F6A78
:105AE0001200322803E0D88031321200D8903132CF
:105AF00002E129821200298612003636373602E387
:105B0000298C297E06E12988376A366A356A346A23
:105B10001200372803E0D88036321200D89036328F
:105B2000EAE1298A1200296A65EC2DF029B69DEF79
:105B30002DF029A20ED029B405D07F0E316EFF0EB4
:105B4000306E1FD0800E316E306A1BD0316A306AE1
:105B500018D029B0FBD78F0E3260EDD77E0E32649D
:105B6000F5D78E0E325C05E0D89031323032322AD1
:105B7000F8D729A406D0306C311EE86A312231AE44
:105B8000E5D71200B8EC2CF029B6000C29B0000CB7
:065B900029A4000C010C29
:0A5B9600D9CFE6FFDACFE6FFE1CF3A
:105BA000D9FFE2CFDAFF220EE12402E3E168E652F8
:105BB000E16ED950130FE66E000EDA20E66EA8DA19
:105BC0000EEC33F0006E060EE15C02E2E16AE55293
:105BD000E16E0050E76E0E0EE7CFDBFFDB50840B6B
:105BE0000CE0210E0001FC6FFD6B0F0EDB68100E48
:105BF000DB68110EDB687F0E6ED08ADA36DA020EB1
:105C00002EC0DBFF030E2FC0DBFF040E30C0DBFF16
:105C1000050E31C0DBFF87DA346A100E356E490E8F
:105C2000366E460E14DAC2EC2DF0010A32E07BDA51
:105C300067DA0DDA39EC2BF0BFD9060EDBCF2FF087
:105C4000070EDBCF30F0080EDBCF31F0090EDBCFD3
:105C500032F078EC2CF089EC2AF0AED964DA060E3A
:105C6000DBCF08F0070EDBCF09F0080EDBCF0AF020
:105C7000090EDBCF0BF044DA376E08C02FF009C0F5
:105C800030F00AC031F00BC032F048DAA2EC2AF052
:105C9000C4D9F90EDB5012E00E0EDB040BE1FA0E54
:105CA000DBCF00F0FB0EDBCF01F0FC0EDBCF02F010
:105CB000FD0E52D167D9366AF8D947D00E0EDB04F3
:105CC00019E10F0EDB6A100EDB6A800EF36E110E07
:105CD000F3CFDBFF3F0EF36E120EF3CFDBFF0F0EA1
:105CE000DBCF00F0100EDBCF01F0110EDBCF02F0A6
:105CF000120E32D1190EDB6A45D9800E366ED5D917
:105D0000006A016A026A3F0E036ED950060FE96EFF
:105D1000000EDA20EA6EEECF2FF0EECF30F0EECFAD
:105D200031F0EFCF32F000C034F001C035F002C0E6
:105D300036F003C037F0A2EC2AF032C0EDFF31C0DC
:105D4000EDFF30C0EDFF2FC0EFFFDF50010B0AE089
:105D5000190EDB5002E0000E01D0010EE76E190EA5
:105D6000E7CFDBFF8CD9060EDBCF0CF0070EDBCFC5
:105D70000DF0080EDBCF0EF0090EDBCF0FF0346A0A
:105D8000356A490E366E400E376E0CC02FF00DC0CE
:105D900030F00EC031F00FC032F08CEC2BF05CD93B
:105DA000A6D995D9A2EC2AF077D9060EDBCF14F04C
:105DB000070EDBCF15F0080EDBCF16F0090EDBCF98
:105DC00017F0220E346EAA0E356E7D0E366E3A0E28
:105DD000376E14C02FF015C030F016C031F017C068
:105DE00032F08CEC2BF02FC010F030C011F031C02D
:105DF00012F032C013F0EDD8A2EC2AF00A0E2FC038
:105E0000DBFF0B0E30C0DBFF0C0E31C0DBFF0D0ED5
:105E100032C0DBFFD9500A0FE96E000EEAD825D94F
:105E20002EC000F02FC001F030C002F031C003F0EE
:105E3000346A356A800E366E390E376E2EC02FF0FA
:105E40004FD9C2EC2DF0010A13E1D9500A0FE96EC7
:105E5000000EDA20EA6E020EEECFDBFF030EEECF6D
:105E6000DBFF040EEECFDBFF050EEECFDBFF68D0CD
:105E7000E1D80A0EDBCF34F00B0EDBCF35F00C0E81
:105E8000DBCF36F00D0EDBCF37F08CEC2BF01A0E9B
:105E90002FC0DBFF1B0E30C0DBFF1C0E31C0DBFF51
:105EA0001D0E32C0DBFF5B0E2F6E9C0E306E2E0E71
:105EB000316E360E326E72D8CFD8220E346EB20EDC
:105EC000356E4F0E366EB90E32D99ED83E0E346EF8
:105ED000870E356E080E366E3C0E29D9DDD8A40E1D
:105EE000346EAA0E356E2A0E366EBE0E20D91E0EE8
:105EF0002FC0DBFF1F0E30C0DBFF200E31C0DBFFE9
:105F0000210E32C0DBFF0A0EDBCF00F00B0EDBCF21
:105F100001F00C0EDBCF02F00D0EDBCF03F08AD8C0
:105F20001E0EDBCF34F01F0EDBCF35F0200EDBCFA3
:105F300036F0210EDBCF37F0F1D8A3EC2AF06DD884
:105F4000190EDB5008E09BD8346A356A800E366E35
:105F5000BF0EF0D803D042D8DBCF03F000C02EF044
:105F600001C02FF002C030F003C031F0220EE15C1E
:105F700002E2E16AE552E16EE552E5CFDAFFE7CFF2
:105F8000D9FF12007CD8830E346EF90E356EA20E46
:105F9000366E3E0ECFD8346A356A12001A0EDBCF49
:105FA00034F01B0EDBCF35F01C0EDBCF36F01D0EB0
:105FB000DBCF37F08CEF2BF0060E2FC0DBFF070E88
:105FC00030C0DBFF080E31C0DBFF090E32C0DBFF43
:105FD00012008DD800C02FF070EF30F0020EDBCF32
:105FE00000F0030EDBCF01F0040EDBCF02F0050E54
:105FF0001200DA20EA6EEECFE6FFEECFE6FFEECF3C
:10600000E6FFEFCFE6FF12002FC004F030C005F02E
:1060100031C006F032C007F01200020E2FC0DBFFC5
:10602000030E30C0DBFF040E31C0DBFF050E32C0B3
:10603000DBFF12000A0EDBCF2FF00B0EDBCF30F0B0
:106040000C0EDBCF31F00D0EDBCF32F01200376ECD
:1060500000C02FF070EF30F02FC008F030C009F012
:1060600031C00AF032C00BF01200EEEC34F0E55211
:10607000E552E552E5521200376EA3EF2AF0020E08
:10608000DBCF04F0030EDBCF05F0040EDBCF06F010
:10609000050EDBCF07F012002FC000F030C001F07A
:1060A00031C002F032C003F012003F0EE5DF93EC86
:1060B0002DF030C0DEFF31C0DDFF000EDFCF30F04D
:1060C000010EDBCF31F074EC2AF0DCEF2FF004C0CE
:1060D0002FF005C030F006C031F007C032F01200DA
:1060E00001C030F002C031F003C032F012002FC006
:1060F00034F030C035F031C036F032C037F0120025
:10610000DB0E346E0F0E356EC90E366E400E120069
:10611000D950FA0FE96EFF0EF9EF2FF08CEC2BF04F
:1061200073DFE9EF2FF05ADFDBCF03F01200A4DFBB
:10613000CEEF2FF0376ECBDF8CEC2BF04CEF30F046
:10614000D9CFE6FFE1CFD9FF030EE126FD0EDBCF6D
:1061500030F0FE0EDBCF31F0DE5230C0DEFF31C05A
:10616000DDFFDD52020EDB50AA6E010EDB50A96E80
:10617000A69EA69CA680A850DF6EDF50006E030E80
:10618000E15C02E2E16AE552E16E0050E552E7CFE0
:10619000D9FF1200D9CFE6FFE1CFD9FF040EE126E7
:1061A000FD0EDBCF30F0FE0EDBCF31F0020E30C043
:1061B000DBFF030E31C0DBFFDB50AA6E020EDB50AB
:1061C000A96EFC0EDB50A86EA69EA69CA684F29E2D
:1061D000550EA76EAA0EA76EA682DE6ADD6AA6A27B
:1061E00015D0DFCF00F0DF2A010EDBCF01F001E395
:1061F000DB2A026A0234000E021807E6D880E80E95
:106200000054FD0E0154000E0254E9E2F28EA694F1
:10621000040EE15C02E2E16AE552E16EE552E7CF8D
:10622000D9FF1200D9CFE6FFE1CFD9FF020EE12658
:10623000000EE66EE66A84DFE552E552DF6E010E7F
:10624000E66EE66A7DDFE552E552E76E010EE7CFC6
:10625000DBFFDECF00F0DDCF01F0F00ED880005480
:10626000000E015402E2DE6ADD6ADECFF6F0DDCF19
:10627000F7F0020EE66EE66A63DFE552E552DF6E86
:10628000030EE66EE66A5CDFE552E552E76E010E4C
:10629000E7CFDBFFDECF00F0DDCF01F0F00ED880DE
:1062A0000054000E015402E2DE6ADD6ADECFF8F02F
:1062B000DDCFF9F0040EE66EE66A42DFE552E55204
