:020000040000FA
:0608000014EF3BF01200B2
:020806001200DE
:060808001CEF04F01200D9
:060818006EEF07F0120074
:02081E000200D6
:10082000957600002E0F000018000000677600008B
:08083000000F00002E00000083
:08083800DACFE4FFE2CFDAFFA2
:10084000E9CFE4FFEACFE4FFF6CFE4FFF7CFE4FF20
:10085000F5CFE4FFF3CFE4FFF4CFE4FFFACFE4FFFA
:1008600000EE18F0140EE80403E3EECFE4FFFBD72C
:1008700000EE00F0180EE80403E3EECFE4FFFBD730
:10088000E652F2A42AD1D59EFC0ED76E3F0ED66E4C
:10089000D58E0101072B000E082301018F2B000EBE
:1008A0009023912392230101932B000E94239523EF
:1008B00096230101972B000E982399239A23010177
:1008C0009B2B000E9C239D239E230101092B000ED0
:1008D0000A230101F52B000EF623320E0001815D83
:1008E00002E20001812B030E0101001901E1015117
:1008F00001E17FD0020E0101001901E101513CE04C
:10090000010E0101001901E1015107E0010100514F
:1009100001E1015101E0DBD0DFD08050100B100A63
:1009200001E0010E010808E10101026B036B010106
:10093000002B000E01231FD00101022B000E032308
:100940000101F40ED8800255010E035514E2010195
:10095000026B036B0101010E0D1901E10E5106E05E
:100960000101070E0D1901E10E5105E10101AA5126
:1009700001E0B2D0897EB0D080A805D00101000787
:10098000000E015B35D00101022B000E0323010193
:10099000320ED8800255000E03552AE2000EE66E94
:1009A000E66A000EE66EE66A55EC0BF0E552E5529B
:1009B000E552E552899E899C8A908A98020E01012F
:1009C0000D1901E10E510BE001010D5101E10E5134
:1009D00001E00AD0898E0101096B0A6B05D0040E73
:1009E00001010D6F0E6B00D00101002B000E0123E1
:1009F00073D080A83FD0040E01010D1901E10E5102
:100A000033E0070E01010D1901E10E5128E0050E3A
:100A100001010D1901E10E511DE0030E01010D1937
:100A200001E10E5112E0010E01010D1901E10E511B
:100A300007E001010D5101E10E5101E016D015D082
:100A4000020E01010D6F0E6B10D0010E01010D6F32
:100A50000E6B0BD0060E01010D6F0E6B06D0080E4B
:100A600001010D6F0E6B01D0FF000101002B000E84
:100A700001232CD0050E01010D1901E10E5116E0E4
:100A800001010D5101E10E5101E020D00101D00E14
:100A9000D8800955070E0A5508E2899C050E010108
:100AA0000D6F0E6B0101026B036B10D00101022B65
:100AB000000E03230101640ED8800255000E035579
:100AC00004E20101026B036B897E00D005D0010EA8
:100AD0000101006F016B00D0F2949EA6D3D10001FA
:100AE000816B0001826B00018051190A01E1C3D1C1
:100AF000010A01E1BCD10F0A01E180D0010A01E144
:100B000074D0030A69E01A0A64E0010A5EE0030A8D
:100B100044E0010A39E0070A2EE0080A23E0010A4E
:100B20000AE0030A01E0AAD183C0C9FF0001846B77
:100B30000001802BA6D1C5AC03D080C082F011D0BB
:100B400000018451842BEA6A860FE96E000EEA22C6
:100B5000EF50C96E000185510001845D02E1000182
:100B6000802B8FD1C5AC03D080C082F003D0C58468
:100B70000001806B86D1010E00018311C96E000156
:100B8000846B0001802B7DD1C5AC03D080C082F086
:100B900003D0C5860001802B74D100018451842BC1
:100BA000EA6A860FE96E000EEA22C9CFEFFF000164
:100BB00085510001845D04E2C59A0001800703D0DD
:100BC000C58A0001802BC5885CD1C5840001802BBB
:100BD00058D10001806B55D1010E00018311C96EFF
:100BE0000001846B0001802B4CD1C5AC03D080C0C8
:100BF00082F003D0C5860001802B43D100018451CF
:100C0000842BEA6A860FE96E000EEA22C9CFEFFF55
:100C1000020E0001845D05E2C59AC58800018007C7
:100C200030D186C0EBF087C0ECF00001EB51EC1145
:100C300016E1C58AC5880001ED510101075D2E6EE0
:100C400008510001EE552F6EC80ED8802E54000EAC
:100C50002F5402E20001F46B0001802B12D100013D
:100C6000846B0001F151090A01E1E4D0010A01E1BC
:100C7000D4D00F0A01E19FD0010A01E17ED0030A1E
:100C80005EE0010A41E0070A27E0010A1EE0030ACC
:100C90000FE0010A01E0E0D0550E0001EB1902E17E
:100CA000AA0EEC1904E10001F46B0001F12BD4D081
:100CB000550E0001EB1902E1AA0EEC1903E1000147
:100CC000F12B02D00001F107C7D0EBC0F2F0ECC06D
:100CD000F3F00001F12BC0D00001F451090DF3CF66
:100CE000E9FFF4CFEAFFBE0EE926000EEA22EBC0D0
:100CF000EFFF0001EB510001F25F0001EC51000138
:100D0000F35B0001F12BA8D00001F451090DF3CFE2
:100D1000E9FFF4CFEAFFBE0EE926000EEA22EE520A
:100D2000EBC0EEFFECC0EDFF0001EB510001F25F04
:100D30000001EC510001F35B0001F12B8DD00001AB
:100D4000F451090DF3CFE9FFF4CFEAFFBE0EE92617
:100D5000000EEA22030EE926000EEA22EBC0EEFFA7
:100D6000ECC0EDFF0001EB510001F25F0001EC511E
:100D70000001F35B0001F12B6FD00001F451090D6C
:100D8000F3CFE9FFF4CFEAFFBE0EE926000EEA2218
:100D9000050EE926000EEA22EBC0EEFFECC0EDFFE7
:100DA0000001EB510001F25F0001EC510001F35B27
:100DB0000001F12B51D00001F451090DF3CFE9FFEF
:100DC000F4CFEAFFBE0EE926000EEA22070EE9265E
:100DD000000EEA22EBC0EEFFECC0EDFF0001EB518C
:100DE0000001F25F0001EC510001F35B0001F251E0
:100DF000F31110E10001F42B040E0001F45D03E295
:100E00000001F12B02D00001802B07C1EDF008C1D9
:100E1000EEF002D00001802B1FD0550E0001EB191F
:100E200002E1AA0EEC1903E10001F12B02D000014E
:100E3000802B12D0550E0001EB1902E1AA0EEC191D
:100E400003E10001802B07D0EBC0F2F0ECC0F3F01F
:100E50000001030EF16F00D0180E0001805D04E266
:100E6000C59A0001800701D0C58AC5880AD0C5840B
:100E70000001802B06D00001806B03D00001806B45
:100E800000D09E96A1A606D0A196400E000180112A
:100E90000001826FE55200EE17F0180EE80403E33C
:100EA000E5CFEDFFFBD700EE2BF0140EE80403E3D3
:100EB000E5CFEDFFFBD7E5CFFAFFE5CFF4FFE5CFB8
:100EC000F3FFE5CFF5FFE5CFF7FFE5CFF6FFE5CF81
:100ED000EAFFE5CFE9FFE5CFDAFF1100D8CFE4FF65
:100EE000E0CFE4FFE46EDACFE4FFE2CFDAFFE9CF50
:100EF000E4FFEACFE4FFE6529EAC2CD19E9CC4CF27
:100F000006F1C3CF05F101010451EA6AA00FE96EB1
:100F1000010EEA22EF50050801E09BD001010C35DB
:100F200004E20B510308000E0C5501E391D005C1FA
:100F300005F106C106F10101FF0ED8800557030E29
:100F40000657010E0101D89005370637E806FBE188
:100F50000101900E055D010E065905E20101900E9A
:100F6000056F010E066F900E0101055F010E010174
:100F7000065B0101FF0ED8800555030E065504E2FD
:100F800001010569030E066F01010451E96EEA6A69
:100F9000D890E936EA360F0EE926010EEA22EE5025
:100FA00001010527EE500101062305C12CF006C101
:100FB0002DF0010E0F0B05E0D8902D322C32E806F3
:100FC000FBE101010451E96EEA6AD890E936EA369C
:100FD0000F0EE926010EEA222CC0EEFF2DC0EDFF18
:100FE00001010B6B0C6B01010451090A2EE0010A8F
:100FF00029E00F0A24E0010A1FE0030A1AE0010AAF
:1010000015E0070A10E0010A0BE0030A06E0010AF6
:1010100001E01ED0929089801BD09292898218D0D4
:101020009294898415D09296898612D0929A898A50
:101030000FD093948A840CD093968A8609D0939289
:101040008A8206D093988A8803D093908A8000D0B1
:101050002CD001010451E96EEA6AD890E936EA36EB
:101060000F0EE926010EEA22EE5001010527EE508F
:101070000101062305C12CF006C12DF0010E0F0B56
:1010800005E0D8902D322C32E806FBE10101045135
:10109000E96EEA6AD890E936EA360F0EE926010EC3
:1010A000EA222CC0EEFF2DC0EDFF0A0E2C6E0101CE
:1010B000042B01010451D8802C5402E30101046B7C
:1010C00001010451EA6AA00FE96E010EEA22EF5015
:1010D000050837E101010B2B000E0C2301010C3533
:1010E00004E20B510308000E0C552BE201010451E0
:1010F000090A25E0010A21E00F0A1DE0010A19E0B2
:10110000030A15E0010A11E0070A0DE0010A09E0EF
:10111000030A05E0010A01E014D0928012D0928205
:1011200010D092840ED092860CD0928A0AD09384EA
:1011300008D0938606D0938204D0938802D09380FF
:1011400000D001010451EA6A000FE96E0F0EEA2295
:10115000EF50C26E9EAA98D0ABA403D0AECFF9F1E7
:1011600093D0ABA203D0AB98AB888ED0AECFF9F1C1
:101170000101010E0D1901E10E5173E00101FA5157
:10118000080A66E00F0A5AE0010A4EE0030A42E04C
:10119000010A36E0070A2AE0010A1EE0030A12E00B
:1011A000010A01E05ED0520E0101F95D03E1010187
:1011B000010EFA6F560E0101F95D03E10101050E02
:1011C000FA6F4FD0650E0101F95D02E1020E01D008
:1011D000000E0101FA6F45D0730E0101F95D02E1C5
:1011E000030E01D0000E0101FA6F3BD0650E010124
:1011F000F95D02E1040E01D0000E0101FA6F31D059
:10120000740E0101F95D02E1070E01D0000E01012B
:10121000FA6F27D0650E0101F95D02E1060E01D0DB
:10122000000E0101FA6F1DD0720E0101F95D02E19D
:10123000070E01D0000E0101FA6F13D00D0E01014F
:10124000F95D02E1080E01D0000E0101FA6F09D02C
:101250000A0E0101F95D02E1FF0002D00101FA6B03
:1012600000D00101F751EA6AD40FE96E010EEA22BB
:10127000F9C1EFFF1F0E2C6E0101F72B0101F75191
:101280002C5C02E20101F76BE552E5CFEAFFE5CF06
:10129000E9FFE5CFDAFFE550E5CFE0FFE5CFD8FF86
:1012A0001000D9CFE6FFE1CFD9FF030EE126F00E03
:1012B000D36EC00E9B6E0101FA6B01010D6B0E6BBC
:1012C000006B016B026B036B010EDB6A020EDB6AC3
:1012D000010EDBCF00F0020EDBCF01F0D890015001
:1012E00004E61A0E005C000E01581AE2010EDBCF74
:1012F000E9FF020EDBCFEAFFD890E936EA36D89054
:10130000E936EA36270EE926010EEA22EE6AEE6A8F
:10131000EE6AEE6A010EDB2A020EDAE3DB2AD8D788
:10132000010EDB6A020EDB6A010EDBCF00F0020E5B
:10133000DBCF01F0D890015004E6040E005C000EF3
:1013400001581AE2010EDBCFE9FF020EDBCFEAFF04
:10135000D890E936EA36D890E936EA368F0EE92693
:10136000010EEA22EE6AEE6AEE6AEE6A010EDB2AEE
:10137000020EDAE3DB2AD8D7010EDB6A020EDB6A43
:10138000010EDBCF00F0020EDBCF01F0D890015050
:1013900004E60A0E005C000E015811E2010EDBCFDC
:1013A000E9FF020EDBCFEAFFA00EE926010EEA22DA
:1013B000010EEF6EDB2A020EE3E3DB2AE1D7010127
:1013C000236B246B256B266B046B0B6B0C6BAA6B6E
:1013D000AB6B096B0A6B076B086B896A3F0EDF6E9C
:1013E000DF50926E8A6A1F0EDF6EDF50936E180E0A
:1013F0008B6E980E946E020ED56EFC0ED76E3F0E5D
:10140000D66ED58EF294F28AF184B00EB16EA292AD
:10141000A192A092B1809D92010ECA6ECC68CB6859
:10142000CA849F6F000E256F266B236F246BE66EB8
:10143000E66AE66EE66AA3D8E552E552E552E55261
:101440009F9C9D8CBE0EC06E020EC16E01010451A8
:10145000EA6A000FE96E0F0EEA22EF50C26E86ECC8
:101460001CF01DEC13F0D09CD08EF28EF28CE60EA8
:10147000006E720E016E026A00C0E6FFE66E02C0E8
:10148000E6FFD5EC1CF0E552E552E552DFEC1FF02B
:1014900001EC14F0E66A19EC14F0E552010E0101BA
:1014A000006F016B8050100B100A01E0010E010863
:1014B000F9E001010D510E1103E1010E0D6F0E6BEC
:1014C000898E030EE15C02E2E16AE552E16EE552CB
:1014D000E7CFD9FF1200E5DEF40EE66E010EE66EF0
:1014E000BAD8E552E5520101096B0A6B1BEC1DF0FD
:1014F000000902E021EC1DF0070E01010D1901E1C8
:101500000E513AE0050E0D1901E10E5130E0060EC4
:101510000D1901E10E512BE0020E0D1901E10E51E2
:101520001BE0030E0D1901E10E5116E0010E0D191D
:10153000DDE10E51DBE1CC51095DCD510A59D6E315
:10154000096B0A6BAAA102D038EC20F00101AAA90C
:10155000CDD7ACEC21F0CAD7B3EC2AF0899E899C98
:101560008A908A98010E01010D6F0E6BBFD7DDECDA
:101570000FF05BEC10F0BAD766EC11F0B7D7D9CF0B
:10158000E6FFE1CFD9FF040EE126FD0EDBCF00F030
:10159000FE0EDBCF01F0FF0ED8800054030E015485
:1015A00007E2FD0EDB68030EF36EFE0EF3CFDBFFEA
:1015B000FB0EDBCF00F0FC0EDBCF01F0FF0ED8807E
:1015C0000054030E015407E2FB0EDB68030EF36EBA
:1015D000FC0EF3CFDBFFFB0EDBCF00F0FC0EDBCF0E
:1015E00001F0060ED89000360136E804FBE100C099
:1015F000DEFF01C0DDFFFD0EDBCF00F0FE0EDBCF16
:1016000001F0060ED89000360136E804FBE1020E28
:1016100000C0DBFF030E01C0DBFF010EDB50BE6E1E
:10162000030EDB50BB6EDF50E840E8403F0B300B51
:101630000C09BD6E020EDB40E8403F0B300B0C097D
:10164000BA6E040EE15C02E2E16AE552E16EE55237
:10165000E7CFD9FF1200D9CFE6FFE1CFD9FF020EC5
:10166000E126F29A0101096B0A6BF28AF29A09C12A
:10167000DEFF0AC1DDFFF28ADECF00F0DDCF01F030
:10168000FD0EDBCF02F0FE0EDBCF03F00250005C5C
:1016900003500158EBE3020EE15C02E2E16AE5521D
:1016A000E16EE552E7CFD9FF1200D9CFE6FFE1CFD7
:1016B000D9FF0A0EE12623C100F024C101F0FD0E7E
:1016C000DB50001811E1FE0EDB5001180DE125C1C1
:1016D00002F026C103F0FB0EDB50021805E1FC0E00
:1016E000DB50031801E1E7D2000EE66EE66AE66E13
:1016F000E66A45DFE552E552E552E5528B9A8B905A
:101700008A9C8A9AA092A192B190B368050EB26E9B
:10171000B180080E46CFDBFFFD0EDBCF00F0FE0EE2
:10172000DBCF01F0013401E387D000500008000E48
:10173000015401E381D0010EF36E040EF3CFDBFF01
:10174000060EDB6A080E206E216AFD0EDBCF25F047
:10175000FE0EDBCF26F01DEC31F01EC0DEFF1FC0F9
:10176000DDFF0F01000ED8804655000E475501E3FE
:10177000F8D0DECF00F0DDCF01F001341EE20050E2
:101780009008010E015419E2DECF02F0DDCF03F024
:10179000900E025E010E035A02C020F003C021F039
:1017A0004ACF25F04BCF26F0C0EC3AF00F0146515E
:1017B0002024006E4751212027D0DECF00F0DDCF5E
:1017C00001F0900ED8800056010E01564651005C83
:1017D000475101581CE2DECF02F0DDCF03F0900E3E
:1017E000D8800256010E035602C020F003C021F03B
:1017F0004ACF25F04BCF26F0C0EC3AF00F01205035
:10180000465D006E21504759080E00C0DBFF080EF0
:10181000DB50006E016ADECF02F0DDCF03F0015035
:101820000318E8AE02D0033404D00250005C035029
:10183000015801E396D089D0FD0EDBCF00F0FE0EFB
:10184000DBCF01F00001800E011401E18FD0040E06
:10185000DB6A010EF36E060EF3CFDBFFF80E206E8F
:101860002168FD0EDBCF25F0FE0EDBCF26F01DEC50
:1018700031F01EC0DEFF1FC0DDFF0F01000ED8805B
:101880004655000E47556DE2DECF00F0DDCF01F08A
:1018900001341EE200509008010E015419E2DECF1F
:1018A00002F0DDCF03F0900E025E010E035A02C07B
:1018B00020F003C021F04ACF25F04BCF26F0C0EC3A
:1018C0003AF00F0146512024006E4751212027D0C5
:1018D000DECF00F0DDCF01F0900ED8800056010E73
:1018E00001564651005C475101581CE2DECF02F020
:1018F000DDCF03F0900ED8800256010E035602C0D1
:1019000020F003C021F04ACF25F04BCF26F0C0ECE9
:101910003AF00F012050465D006E21504759080EE5
:1019200000C0DBFF080EDB50006E016ADECF02F064
:10193000DDCF03F001500318E8AE02D0033404D029
:101940000250005C035001580CE2080EDB50006EA0
:10195000016AD9CFE9FFDACFEAFFE850EE5E015025
:10196000ED5A640EDE26000EDD220FD001019F51DC
:101970000CE0010EF36E040EF3CFDBFF010EF36EED
:10198000060EF3CFDBFFDE6ADD6A090E48CFDBFF10
:10199000FB0EDBCF00F0FC0EDBCF01F0013401E3E6
:1019A00093D000500008000E015401E38DD0010EC9
:1019B000F36E050EF3CFDBFF070EDB6A080E206E19
:1019C000216AFB0EDBCF25F0FC0EDBCF26F01DECF1
:1019D00031F0020E1EC0DBFF030E1FC0DBFF0F0144
:1019E000000ED8804855000E495501E310D1020E73
:1019F000DBCF00F0030EDBCF01F0013420E200501A
:101A00009008010E01541BE2020EDBCF02F0030E20
:101A1000DBCF03F0900E025E010E035A02C020F0ED
:101A200003C021F04ACF25F04BCF26F0C0EC3AF0AE
:101A30000F0148512024006E495121202BD0020E65
:101A4000DBCF00F0030EDBCF01F0900ED880005604
:101A5000010E01564851005C495101581EE2020E28
:101A6000DBCF02F0030EDBCF03F0900ED8800256DE
:101A7000010E035602C020F003C021F04ACF25F02A
:101A80004BCF26F0C0EC3AF00F012050485D006EBD
:101A900021504959090E00C0DBFF090EDB50006ED2
:101AA000016A020EDBCF02F0030EDBCF03F0015020
:101AB0000318E8AE02D0033404D00250005C035097
:101AC000015801E3A4D096D0FB0EDBCF00F0FC0E52
:101AD000DBCF01F00001800E011401E1A2D0050E60
:101AE000DB6A010EF36E070EF3CFDBFFF80E206EFC
:101AF0002168FB0EDBCF25F0FC0EDBCF26F01DECC2
:101B000031F0020E1EC0DBFF030E1FC0DBFF0F0112
:101B1000000ED8804855000E495501E378D0020EDA
:101B2000DBCF00F0030EDBCF01F0013420E20050E8
:101B30009008010E01541BE2020EDBCF02F0030EEF
:101B4000DBCF03F0900E025E010E035A02C020F0BC
:101B500003C021F04ACF25F04BCF26F0C0EC3AF07D
:101B60000F0148512024006E495121202BD0020E34
:101B7000DBCF00F0030EDBCF01F0900ED8800056D3
:101B8000010E01564851005C495101581EE2020EF7
:101B9000DBCF02F0030EDBCF03F0900ED8800256AD
:101BA000010E035602C020F003C021F04ACF25F0F9
:101BB0004BCF26F0C0EC3AF00F012050485D006E8C
:101BC00021504959090E00C0DBFF090EDB50006EA1
:101BD000016A020EDBCF02F0030EDBCF03F00150EF
:101BE0000318E8AE02D0033404D00250005C035066
:101BF00001580DE2090EDB50006E016AD950020F48
:101C0000E96EDACFEAFF0050EE5E0150ED5AD9508E
:101C1000020FE96EDACFEAFF640EEE26000EED2227
:101C200011D001019F510EE0010EF36E050EF3CFAE
:101C3000DBFF010EF36E070EF3CFDBFF020EDB6A54
:101C4000030EDB6A0101010E9F6FFD0EDBCF23F156
:101C5000FE0EDBCF24F1FB0EDBCF25F1FC0EDBCF3C
:101C600026F1A1A2FED7A192020EDBCFE6FF030E62
:101C7000DBCFE6FFDECFE6FFDDCFE6FF80DCE5521F
:101C8000E552E552E552040EDB50E8B08B8AE8A03D
:101C90008B9A060EDB50E8B08B80E8A08B90050E87
:101CA000DB50E8B08A8CE8A08A9C070EDB50E8B0D5
:101CB0008A8AE8A08A9A0A0EE15C02E2E16AE552A9
:101CC000E16EE552E7CFD9FF1200D9CFE6FFE1CFB1
:101CD000D9FFFE0EDB50090A5AE0010A50E00F0A54
:101CE00046E0010A3CE0030A32E0010A28E0070A64
:101CF0001EE0010A14E0030A0AE0010A4EE1FD0EAB
:101D0000DB50E8B08980E8B048D0899046D0FD0E1D
:101D1000DB50E8B08982E8B040D089923ED0FD0E19
:101D2000DB50E8B08984E8B038D0899436D0FD0E15
:101D3000DB50E8B08986E8B030D089962ED0FD0E11
:101D4000DB50E8B0898AE8B028D0899A26D0FD0E09
:101D5000DB50E8B08A84E8B020D08A941ED0FD0E13
:101D6000DB50E8B08A86E8B018D08A9616D0FD0E0F
:101D7000DB50E8B08A82E8B010D08A920ED0FD0E17
:101D8000DB50E8B08A88E8B008D08A9806D0FD0E0B
:101D9000DB50E8B08A80E8A08A90E552E7CFD9FF0F
:101DA0001200D9CFE6FFE1CFD9FFE652DF6AFE0E7F
:101DB000DB50090A35E0010A2EE00F0A28E0010A8B
:101DC00022E0030A1CE0010A16E0070A10E0010AFB
:101DD0000AE0030A04E0010A26E1895022D0895072
:101DE000020B20E01BD08950040B1CE017D0895057
:101DF000080B18E013D08950200B14E00FD08A5044
:101E0000040B10E00BD08A50080B0CE007D08A506E
:101E1000020B08E003D08A50100B04E0010E02D040
:101E20008A50010BDF6EDF50E552E552E7CFD9FF54
:101E30001200D9CFE6FFE1CFD9FFFE0EDB50030A37
:101E40001EE0010A14E0030A0AE0010A1EE1FD0E89
:101E5000DB50E8B0898EE8B018D0899E16D0FD0E10
:101E6000DB50E8B0898CE8B010D0899C0ED0FD0E14
:101E7000DB50E8B08A80E8B008D08A9006D0FD0E2A
:101E8000DB50E8B08A88E8A08A98E552E7CFD9FF0E
:101E90001200D9CFE6FFE1CFD9FFE652DF6AFE0E8E
:101EA000DB50030A13E0010A0DE0030A06E0010A11
:101EB00012E18950800B08E003D08950400B04E008
:101EC000010E02D08A50010BDF6E05D08A50100B34
:101ED00001E0010EDF6EDF50E552E552E7CFD9FF9A
:101EE0001200D9CFE6FFE1CFD9FFF29AFE0EDB5008
:101EF000040DF3CFE9FFF4CFEAFF8F0EE926010EC0
:101F0000EA22EE6AEE6AEE6AEE6AF28AE552E7CFFC
:101F1000D9FF1200D9CFE6FFE1CFD9FF040EE126A9
:101F2000F29AFE0EDB50040DF3CFE9FFF4CFEAFF87
:101F30008F0EE926010EEA22EECFDFFF010EEECF73
:101F4000DBFF020EEECFDBFF030EEECFDBFFF28AEC
:101F5000DECF1EF0DECF1FF0DECF20F0DDCF21F090
:101F6000DD52DD52040EE15C02E2E16AE552E16E0F
:101F7000E552E7CFD9FF1200B36AB26AB18012000E
:101F8000D9CFE6FFE1CFD9FF020EE126B250DF6ED6
:101F9000010EB3CFDBFFDECF00F0DDCF01F000C0DC
:101FA000F3FF01C0F4FF020EE15C02E2E16AE552D8
:101FB000E16EE552E7CFD9FF1200E66AE66A39DF43
:101FC000E552E552E66A010EE66E33DFE552E55270
:101FD000E66A020EE66E2DDFE552E552E66A030E72
:101FE000E66E27DFE552E552050E01010D6F0E6B1F
:101FF0000101050E0D195EE10E515CE1320ED88033
:102000000F55010E105503E2010EE66E01D0E66A8F
:10201000E66A0FDFE552E5520101320ED880115514
:10202000010E125503E2010EE66E02D0E66A010EC1
:10203000E66EFFDEE552E5520101FF0ED880135532
:10204000010E145503E2010EE66E01D0E66A020E9F
:10205000E66EEFDEE552E5520101FF0ED880155520
:10206000010E165503E2010EE66E01D0E66A030E7C
:10207000E66EDFDEE552E5520101FF0ED88017550E
:10208000010E18550AE2010EE66E020EE66ED1DE72
:10209000E552E552010EE66E07D0E66A020EE66EE4
:1020A000C8DEE552E552E66A030EE66EC2DEE55290
:1020B000E5529ED71200E66AE66ABBDEE552E552BB
:1020C000E66A010EE66EB5DEE552E552E66A020EFC
:1020D000E66EAFDEE552E552E66A030EE66EA9DE75
:1020E000E552E552010EE66EE66AA3DEE552E552E0
:1020F000320EE66EE66AE66EE66A55EC0BF0E552E5
:10210000E552E552E552E80EE66E030EE66E2BEC64
:102110000BF0E552E552E66AE66A8BDEE552E552DF
:10212000000EE66EE66AE66EE66A55EC0BF0E552E6
:10213000E552E552E552C80EE66EE66A2BEC0BF06E
:10214000E552E552010EE66EE66E73DEE552E552AB
:10215000CE0EE66EE668E66EE66855EC0BF0E552EC
:10216000E552E552E552E80EE66E030EE66E2BEC04
:102170000BF0E552E552E66A010EE66E5ADEE552D4
:10218000E552000EE66EE66AE66EE66A55EC0BF086
:10219000E552E552E552E552C80EE66EE66A2BECD2
:1021A0000BF0E552E552010EE66E020EE66E41DEE0
:1021B000E552E552320EE66EE66ACE0EE66EE6684F
:1021C00055EC0BF0E552E552E552E552E80EE66EAD
:1021D000030EE66E2BEC0BF0E552E552E66A020EBA
:1021E000E66E27DEE552E552000EE66EE66AE66E22
:1021F000E66A55EC0BF0E552E552E552E552C80EA1
:10220000E66EE66A2BEC0BF0E552E552010EE66E47
:10221000030EE66E0EDEE552E552CE0EE66EE66881
:10222000320EE66EE66A55EC0BF0E552E552E552E9
:10223000E552E80EE66E030EE66E2BEC0BF0E5526F
:10224000E552E66A030EE66EF4DDE552E552000E55
:10225000E66EE66AE66EE66A55EC0BF0E552E5528C
:10226000E552E552320EE66EE66A000EE66EE66A6A
:1022700055EC0BF0E552E552E552E552E80EE66EFC
:10228000030EE66E2BEC0BF0E552E552000EE66E07
:10229000E66A320EE66EE66A55EC0BF0E552E55260
:1022A000E552E552E80EE66E030EE66E2BEC0BF0FF
:1022B000E552E552000EE66EE66AE66EE66A55EC19
:1022C0000BF0E552E552E552E55212001BEC1DF011
:1022D000000902E021EC1DF00101080E0D1901E0DA
:1022E00080D00E5101E07DD0010EE66EE66AA1DDE0
:1022F000E552E552320EE66EE66AE66EE66A55ECA7
:102300000BF0E552E552E552E552D00EE66E070EAF
:10231000E66E2BEC0BF0E552E552640EE66EE66AD3
:10232000E66EE66A55EC0BF0E552E552E552E552F1
:10233000E80EE66E030EE66E2BEC0BF0E552E5526E
:10234000010EE66E030EE66E74DDE552E552000EF8
:10235000E66EE66AE66EE66A55EC0BF0E552E5528B
:10236000E552E552F40EE66E010EE66E2BEC0BF034
:10237000E552E552CE0EE66EE668E66EE66855EC8E
:102380000BF0E552E552E552E552D00EE66E070E2F
:10239000E66E2BEC0BF0E552E5529C0EE66EE6681D
:1023A000E66EE66855EC0BF0E552E552E552E55273
:1023B000E80EE66E030EE66E2BEC0BF0E552E552EE
:1023C000E66A030EE66E35DDE552E552000EE66E76
:1023D000E66AE66EE66A55EC0BF0E552E552E55228
:1023E000E552070E01010D6F0E6B70D7D9CFE6FFD6
:1023F000E1CFD9FFFD0EDBCFCEF1FE0EDBCFCFF16B
:102400000101D06BD16B6F0ECE5F000ECF5BD05B46
:10241000D15B700E236E170E246E256A266ACEC11C
:102420001EF0CFC11FF0D0C120F0D1C121F0AFEC20
:1024300039F01AC0CEF11BC0CFF11CC0D0F11DC0C5
:10244000D1F18A0E236E0C0E246E256A266A1AC0FC
:102450001EF01BC01FF01CC020F01DC021F0E9ECD5
:1024600030F01EC0CEF11FC0CFF120C0D0F121C08E
:10247000D1F1640E0101CE5F000ECF5BD05BD15B6A
:10248000D880D151FF0A08E6F60ECE5DFF0ECF5977
:10249000FF0ED059FF0ED1590BE20F01190E2A6F12
:1024A000FC0E2B6F2C692D6907C1D2F108C1D3F145
:1024B0000101D251075D006E0851D355016EE80E3F
:1024C000005C030E015801E2B0D007C1D2F108C18F
:1024D000D3F1190E0F012A1911E1FC0E2B190EE18F
:1024E000E8682C190BE1E8682D1908E1CEC12AFF34
:1024F000CFC12BFFD0C12CFFD1C12DFF2A0EE96E19
:102500000F0EEA6E030EEB500101D119E8AE02D0B6
:10251000D13508D0CE51EE5CCF51EE58D051EE58A7
:10252000D151EE582DE22A0EE96E0F0EEA6EEE50F2
:10253000CE5D006EEE50CF59016EEE50D059026E56
:10254000EE50D159036EE834000E031809E6D88026
:10255000010E0054000E0154000E0254000E0354EC
:102560003DE22ACFCEF12BCFCFF12CCFD0F12DCF22
:10257000D1F1020ECE27000ECF23D023D1232ED0AF
:10258000CE0EE96E010EEA6EEE500F012A5D006E6E
:10259000EE502B59016EEE502C59026EEE502D5913
:1025A000036EE834000E031809E6D880010E0054CB
:1025B000000E0154000E0254000E03540FE22ACF05
:1025C000CEF12BCFCFF12CCFD0F12DCFD1F1020E08
:1025D0000101CE5F000ECF5BD05BD15B0101CE511C
:1025E0000F012A270101CF510F012B230101D051E7
:1025F0000F012C230101D1510F012D23020E236E57
:10260000246A256A266A2ACF1EF02BCF1FF02CCF12
:1026100020F02DCF21F0E9EC30F01EC02AFF1FC0C2
:102620002BFF20C02CFF21C02DFF2ACFF3FF2BCF83
:0A263000F4FFE552E7CFD9FF1200D6
:06263A00C76A110EC86E14
:10264000280EC66E400EC56E948694889F869E9610
:102650009D86A286A196A08606D8A00EE66E06EC00
:102660003BF0E5521200D9CFE6FFE1CFD9FFE652A9
:10267000C950DF6EC69AC69CC69EC59CC59A00010D
:10268000846B82A80CD89E96A1960001806B816B0A
:10269000826BC68AE552E552E7CFD9FF1200D9CF47
:1026A000E6FFE1CFD9FFE6528A88C69ADF6A090EB3
:1026B000DF5C0EE29496020EE66E20EC3BF0E552F3
:1026C0009486020EE66E20EC3BF0E552DF2AEFD74F
:1026D000E552E552E7CFD9FF12000001816B1F0ED2
:1026E000C51403E1C750040B07E00A0E006E8151C8
:1026F000005CF5E21DEF13F01200D9CFE6FFE1CF49
:10270000D9FFE652DF6A020E0001815DFCE3E5DFDE
:10271000FE0EDBCF83F0FD0EDBCF85F00001816B79
:10272000010E806FC580805112E0020E006E815153
:10273000005C03E2800E8011826F8251F4E0C58458
:102740007CDFDF2A050EDF5CE9E3000E02D0816B3F
:10275000010EE552E552E7CFD9FF1200D9CFE6FFCF
:10276000E1CFD9FF020E0001815DFCE3B6DFFE0E72
:10277000DB5001090001836FFD0EDBCF85F0816B1B
:102780000B0E806FC58080510EE0020E006E8151ED
:10279000005C03E2800E8011826F8251F4E0C584F8
:1027A0004CDF000E02D0816B010EE552E7CFD9FF5E
:1027B0001200D9CFE6FFE1CFD9FFE652DF6A060E5D
:1027C000DF5C13E2DF50EA6AB80FE96E000EEA221E
:1027D000EF50E66EDF50EA6A860FE96E000EEA22DD
:1027E000E552E750EF6EDF2AEAD7060EE66E140ECA
:1027F000E66E83DFE552E552E552E552E7CFD9FFB9
:102800001200D9CFE6FFE1CFD9FFE652DF6A060E0C
:10281000DF5C09E2DF50EA6AB80FE96E000EEA22D7
:10282000EF6ADF2AF4D7C5DFE552E552E7CFD9FFDB
:102830001200D9CFE6FFE1CFD9FF020EE126DF6A11
:10284000006AFE0EDB50005C09E2FE0EDB04E824A9
:10285000300FE76E010EE7CFDBFF02D0010EDB6A1F
:10286000DF50DF2AEA6A860FE96E000EEA22010EC7
:10287000EF6EDF50DF2AEA6A860FE96E000EEA2269
:10288000EF6ADFCFE6FF010EDBCFE6FF36DFE55272
:10289000E552020EE15C02E2E16AE552E16EE552C8
:1028A000E7CFD9FF1200D9CFE6FFE1CFD9FF020E63
:1028B000E126DF6A006AFE0EDB50005C09E2FE0ED4
:1028C000DB04E824300FE76E010EE7CFDBFF02D018
:1028D000010EDB6ADF50DF2AEA6A860FE96E000E1E
:1028E000EA22010EEF6EDF50DF2AEA6A860FE96EF8
:1028F000000EEA22010EEF6EDFCFE6FFDBCFE6FF30
:10290000FCDEE552E552640EE66EE66A2BEC0BF057
:10291000E552E552020EE15C02E2E16AE552E16E47
:10292000E552E7CFD9FF1200D9CFE6FFE1CFD9FFBB
:10293000020EE126006AFE0EDB50005C09E2FE0E8C
:10294000DB04E824300FE76E010EE7CFDBFF02D097
:10295000010EDB6ADF6ADF50DF2AEA6A860FE96E62
:10296000000EEA22030EEF6EDF50DF2AEA6A860FBE
:10297000E96E000EEA22120EEF6EDF50DF2AEA6ADD
:10298000860FE96E000EEA22FC0EDBCFEFFFDF5070
:10299000DF2AEA6A860FE96E000EEA22FA0EDBCF22
:1029A000EFFFDFCFE6FF010EDBCFE6FFA6DEE5524D
:1029B000E552020EE15C02E2E16AE552E16EE552A7
:1029C000E7CFD9FF1200D9CFE6FFE1CFD9FF020E42
:1029D000E126006AFE0EDB50005C09E2FE0EDB041D
:1029E000E824300FE76E010EE7CFDBFF02D0010EC7
:1029F000DB6ADF6ADF50DF2AEA6A860FE96E000EC3
:102A0000EA22030EEF6EDF50DF2AEA6A860FE96ED4
:102A1000000EEA22130EEF6EDF50DF2AEA6A860FFD
:102A2000E96E000EEA22FD0EDBCFEFFFDF50DF2A5A
:102A3000EA6A860FE96E000EEA22FC0EDBCFEFFF9A
:102A4000DFCFE6FF010EDBCFE6FF57DEE552E552B2
:102A5000020EE15C02E2E16AE552E16EE552E7CF87
:102A6000D9FF1200D9CFE6FFE1CFD9FF020EE12650
:102A7000006AFE0EDB50005C09E2FE0EDB04E82477
:102A8000300FE76E010EE7CFDBFF02D0010EDB6AED
:102A9000DF6ADF50DF2AEA6A860FE96E000EEA225B
:102AA000030EEF6EDF50DF2AEA6A860FE96E000E32
:102AB000EA22140EEF6EDF50DF2AEA6A860FE96E13
:102AC000000EEA22FD0EDBCFEFFFDF50DF2AEA6ABD
:102AD000860FE96E000EEA22FC0EDBCFEFFFDFCFA0
:102AE000E6FF010EDBCFE6FF08DEE552E552020EFF
:102AF000E15C02E2E16AE552E16EE552E7CFD9FF1F
:102B00001200D9CFE6FFE1CFD9FF020EE126006A1D
:102B1000FE0EDB50005C09E2FE0EDB04E824300F01
:102B2000E76E010EE7CFDBFF02D0010EDB6ADF6A42
:102B3000DF50DF2AEA6A860FE96E000EEA22020EF3
:102B4000EF6EDF50DF2AEA6A860FE96E000EEA2296
:102B5000150EEF6EDF50DF2AEA6A860FE96E000E6F
:102B6000EA22FD0EDBCFEFFFDFCFE6FF010EDBCF6A
:102B7000E6FFC3DDE552E552020EE15C02E2E16AE6
:102B8000E552E16EE552E7CFD9FF1200D9CFE6FF5B
:102B9000E1CFD9FF060EE126006AFE0EDB50005C95
:102BA00009E2FE0EDB04E824300FE76E050EE7CFE6
:102BB000DBFF02D0050EDB6A040EDB6ADBCFF3FF1E
:102BC000DB2AF350EA6A860FE96E000EEA22060E4F
:102BD000EF6E040EDBCFF3FFDB2AF350EA6A860FB9
:102BE000E96E000EEA22160EEF6E040EDBCFF3FF45
:102BF000DB2AF350EA6A860FE96E000EEA22FD0E28
:102C0000DBCFEFFFD9CFE9FFDACFEAFFF90EDBCF59
:102C1000EEFFFA0EDBCFEEFFFB0EDBCFEEFFFC0E7E
:102C2000DBCFEEFF040EDBCFF3FFDB2AF350EA6AC3
:102C3000860FE96E000EEA22DFCFEFFF040EDBCF36
:102C4000F3FFDB2AF350EA6A860FE96E000EEA22F0
:102C5000010EDBCFEFFF040EDBCFF3FFDB2AF350D7
:102C6000EA6A860FE96E000EEA22020EDBCFEFFF62
:102C7000040EDBCFF3FFDB2AF350EA6A860FE96E1E
:102C8000000EEA22030EDBCFEFFF040EDBCFE6FFE0
:102C9000050EDBCFE6FF31DDE552E552060EE15CC5
:102CA00002E2E16AE552E16EE552E7CFD9FF120098
:102CB000D9CFE6FFE1CFD9FF040EE126006AFE0E70
:102CC000DB50005C09E2FE0EDB04E824300FE76E07
:102CD000030EE7CFDBFF02D0030EDB6A020EDB6AD6
:102CE000DBCFF3FFDB2AF350EA6A860FE96E000EB2
:102CF000EA22010EEF6E020EDBCFF3FFDB2AF35068
:102D0000EA6A860FE96E000EEA22800EEF6E020E6E
:102D1000DBCFE6FF030EDBCFE6FFEFDCE552E5524B
:102D200000090AE00A0EE66E030EDBCFE6FF16DDB1
:102D3000E552E552000902E1000E21D0020EDB6AE5
:102D40000A0EF36E020EDBCFF4FFF350F45C16E2D2
:102D5000020EDB50EA6A860FE96E000EEA22EF509F
:102D6000E66E020EDB50EA6AC00FE96E010EEA223F
:102D7000E552E750EF6E020EDB2AE2D7010E006E3D
:102D8000040EE15C02E2E16AE552E16E0050E552B8
:102D9000E7CFD9FF1200D9CFE6FFE1CFD9FF050E6B
:102DA000E126006AFE0EDB50005C09E2FE0EDB0449
:102DB000E824300FE76E020EE7CFDBFF02D0020EF1
:102DC000DB6A030EDB6A0A0EF36EFD0EDBCFF4FF47
:102DD000F350F45C02E2020E01D0160EE76E040E10
:102DE000E7CFDBFF030EDBCFF3FFDB2AF350EA6A0A
:102DF000860FE96E000EEA22020EEF6E030EDBCFA5
:102E0000F3FFDB2AF350EA6A860FE96E000EEA222E
:102E1000810EEF6E030EDBCFF3FFDB2AF350EA6A7D
:102E2000860FE96E000EEA22FD0EDBCFEFFF030EE8
:102E3000DBCFE6FF020EDBCFE6FF5FDCE552E552BB
:102E400000090BE0040EDBCFE6FF020EDBCFE6FF4E
:102E500085DCE552E552000902E1F36A49D0040E2F
:102E6000DB5002080EE186C0DFFF010E87C0DBFFEA
:102E7000DECF00F0DDCF01F000C0F3FF01C0F4FFB2
:102E800038D0030EDB6A0A0EF36E030EDBCFF4FFBD
:102E9000F350F45C27E2030EDB50E824EA6A860F65
:102EA000E96E000EEA22EFCFDFFF030EDB50E824CD
:102EB000010FEA6A860FE96E000EEA22010EEFCFDB
:102EC000DBFF030EEA6ADB34FE0BEA36E96EAC0E7A
:102ED000E926010EEA22DECFEEFFDDCFEDFF030E85
:102EE000DB2AD1D79AC0CAF19BC0CBF1010EF36E99
:102EF000F46A050EE15C02E2E16AE552E16EE55238
:102F0000E7CFD9FF1200D9CFE6FFE1CFD9FF040EFA
:102F1000E126006AFE0EDB50005C09E2FE0EDB04D7
:102F2000E824300FE76E030EE7CFDBFF02D0030E7D
:102F3000DB6A020EDB6ADBCFF3FFDB2AF350EA6ABF
:102F4000860FE96E000EEA22010EEF6E020EDBCF55
:102F5000F3FFDB2AF350EA6A860FE96E000EEA22DD
:102F6000820EEF6E020EDBCFE6FF030EDBCFE6FF35
:102F70007DEC13F0E552E55200090BE0020EE66E1F
:102F8000030EDBCFE6FFAEEC13F0E552E55200098D
:102F900003E1F36AF46A0DD086C0DFFF010E87C03B
:102FA000DBFFDECF00F0DDCF01F000C0F3FF01C09A
:102FB000F4FF040EE15C02E2E16AE552E16EE552E3
:102FC000E7CFD9FF1200D9CFE6FFE1CFD9FF020E3C
:102FD000E126030E006EFD0EDB50005C42E3006A4A
:102FE000FE0EDB50005C09E2FE0EDB04E824300F2D
:102FF000E76E010EE7CFDBFF02D0010EDB6ADF6A6E
:10300000DF50DF2AEA6A860FE96E000EEA22020E1E
:10301000EF6EDF50DF2AEA6A860FE96E000EEA22C1
:10302000830EEF6EDF50DF2AEA6A860FE96E000E2C
:10303000EA22FD0EDBCFEFFFDFCFE6FF010EDBCF95
:10304000E6FF7DEC13F0E552E55200090AE0010EBF
:10305000E66EDBCFE6FFAEEC13F0E552E552000979
:1030600002E1000E02D000018651006E020EE15C0A
:1030700002E2E16AE552E16E0050E552E7CFD9FF86
:103080001200D9CFE6FFE1CFD9FF020EE126090EEB
:10309000006EFD0EDB50005C42E3006AFE0EDB506A
:1030A000005C09E2FE0EDB04E824300FE76E010E3F
:1030B000E7CFDBFF02D0010EDB6ADF6ADF50DF2AD9
:1030C000EA6A860FE96E000EEA22020EEF6EDF500A
:1030D000DF2AEA6A860FE96E000EEA22840EEF6E9E
:1030E000DF50DF2AEA6A860FE96E000EEA22FD0E43
:1030F000DBCFEFFFDFCFE6FF010EDBCFE6FF7DEC9E
:1031000013F0E552E55200090AE0010EE66EDBCF4E
:10311000E6FFAEEC13F0E552E552000902E1000EC5
:1031200002D000018651006E020EE15C02E2E16A0B
:10313000E552E16E0050E552E7CFD9FF1200D9CF3A
:10314000E6FFE1CFD9FF060EE126030E006EFD0E6D
:10315000DB50005C4DE3006AFE0EDB50005C09E2D0
:10316000FE0EDB04E824300FE76E050EE7CFDBFF31
:1031700002D0050EDB6A040EDB6ADBCFF3FFDB2A2D
:10318000F350EA6A860FE96E000EEA22020EEF6E35
:10319000040EDBCFF3FFDB2AF350EA6A860FE96EF9
:1031A000000EEA22850EEF6E040EDBCFF3FFDB2A62
:1031B000F350EA6A860FE96E000EEA22FD0EDBCFBD
:1031C000EFFF040EDBCFE6FF050EDBCFE6FF7DEC65
:1031D00013F0E552E55200090BE0040EE66E050E11
:1031E000DBCFE6FFAEEC13F0E552E552000905E156
:1031F0001E6A1F6A206A216A3ED0040EDB6ADBCF9A
:10320000F3FFDB2AF350EA6A860FE96E000EEA222A
:10321000EFCFDFFF040EDBCFF3FFDB2AF350EA6AC8
:10322000860FE96E000EEA22010EEFCFDBFF040EDF
:10323000DBCFF3FFDB2AF350EA6A860FE96E000E5C
:10324000EA22020EEFCFDBFF040EDBCFF3FFDB2A17
:10325000F350EA6A860FE96E000EEA22030EEFCF02
:10326000DBFFDECF1EF0DECF1FF0DECF20F0DDCFA4
:1032700021F0DD52DD52060EE15C02E2E16AE55228
:10328000E16EE552E7CFD9FF1200D9CFE6FFE1CFDB
:10329000D9FF060EE126190E006EFD0EDB50005C14
:1032A0004DE3006AFE0EDB50005C09E2FE0EDB041B
:1032B000E824300FE76E050EE7CFDBFF02D0050EE6
:1032C000DB6A040EDB6ADBCFF3FFDB2AF350EA6A2A
:1032D000860FE96E000EEA22020EEF6E040EDBCFBF
:1032E000F3FFDB2AF350EA6A860FE96E000EEA224A
:1032F000860EEF6E040EDBCFF3FFDB2AF350EA6A93
:10330000860FE96E000EEA22FD0EDBCFEFFF040E02
:10331000DBCFE6FF050EDBCFE6FF7DEC13F0E552D9
:10332000E55200090BE0040EE66E050EDBCFE6FF6A
:10333000AEEC13F0E552E552000905E11E6A1F6A82
:10334000206A216A3ED0040EDB6ADBCFF3FFDB2A62
:10335000F350EA6A860FE96E000EEA22EFCFDFFF34
:10336000040EDBCFF3FFDB2AF350EA6A860FE96E27
:10337000000EEA22010EEFCFDBFF040EDBCFF3FFDE
:10338000DB2AF350EA6A860FE96E000EEA22020E8B
:10339000EFCFDBFF040EDBCFF3FFDB2AF350EA6A4B
:1033A000860FE96E000EEA22030EEFCFDBFFDECFC1
:1033B0001EF0DECF1FF0DECF20F0DDCF21F0DD529A
:1033C000DD52060EE15C02E2E16AE552E16EE55291
:1033D000E7CFD9FF1200D9CFE6FFE1CFD9FFE65200
:1033E0000001EF510101075D006E08510001F05529
:1033F000016E140E005C000E015805E2006AF451E3
:10340000005C29E31DD007C1EFF008C1F0F06DECBE
:1034100013F00001A80E836F816B150E806FF16BA6
:10342000C58080510FE0020E006E8151005C03E206
:10343000800E8011826F8251F4E0C5841DEC13F080
:10344000000E0CD0816B07C1EFF008C1F0F0006AEC
:10345000F451005C02E2010E01D0000EE552E5528B
:10346000E7CFD9FF1200D9CFE6FFE1CFD9FF020E97
:10347000E126010EDB6AAFDFDF6A0001F451DF5C99
:1034800018E2DF50090DF3CFE9FFF4CFEAFFBE0EDB
:10349000E926000EEA22EFCF00F0FE0EDB50005CC2
:1034A00006E1DF28E76E010EE7CFDBFF02D0DF2A5F
:1034B000E4D7010EDB50006E020EE15C02E2E16A2D
:1034C000E552E16E0050E552E7CFD9FF1200D9CFA7
:1034D000E6FFE1CFD9FFE652FE0EDBCFE6FFC3DF0A
:1034E000E552DF6EDF5003E1F36AF46A1BD0DF06BA
:1034F0000001F451DF5C10E2DF50090DF3CFE9FF6A
:10350000F4CFEAFFBE0EE926000EEA22EE52EECF1D
:1035100000F0EFCF01F002D0006A016A00C0F3FFB3
:1035200001C0F4FFE552E552E7CFD9FF1200D9CF31
:10353000E6FFE1CFD9FFE652FE0EDBCFE6FF93DFD9
:10354000E552DF6EDF5003E1F36AF46A1ED0DF0656
:103550000001F451DF5C13E2DF50090DF3CFE9FF06
:10356000F4CFEAFFBE0EE926000EEA22030EE9269A
:10357000000EEA22EECF00F0EFCF01F002D0006A99
:10358000016A00C0F3FF01C0F4FFE552E552E7CF46
:10359000D9FF1200D9CFE6FFE1CFD9FFE652FE0EE8
:1035A000DBCFE6FF60DFE552DF6EDF5003E1F36A59
:1035B000F46A1ED0DF060001F451DF5C13E2DF5035
:1035C000090DF3CFE9FFF4CFEAFFBE0EE926000EA6
:1035D000EA22050EE926000EEA22EECF00F0EFCF38
:1035E00001F002D0006A016A00C0F3FF01C0F4FFDD
:1035F000E552E552E7CFD9FF1200D9CFE6FFE1CF80
:10360000D9FFE652FE0EDBCFE6FF2DDFE552DF6E7F
:10361000DF5003E1F36AF46A1ED0DF060001F451C3
:10362000DF5C13E2DF50090DF3CFE9FFF4CFEAFFCF
:10363000BE0EE926000EEA22070EE926000EEA2257
:10364000EECF00F0EFCF01F002D0006A016A00C0B7
:10365000F3FF01C0F4FFE552E552E7CFD9FF1200B6
:10366000D9CFE6FFE1CFD9FF030EE126010EDB6AD9
:10367000020EDB6AFE0EDBCFE6FFF5DEE552DF6E03
:10368000DF5003E1F36AF46A43D0DF060001F4512E
:10369000DF5C34E2DF50090DF3CFE9FFF4CFEAFF3E
:1036A000BE0EE926000EEA22070EE926000EEA22E7
:1036B000EECF02F0EFCF03F0DF50090DF3CFE9FFBB
:1036C000F4CFEAFFBE0EE926000EEA22050EE92637
:1036D000000EEA22EECF00F0EFCF01F000C020F0A4
:1036E00001C021F002C025F003C026F04AEC31F001
:1036F000DE521EC0DEFF1FC0DDFFDD52010EDBCF3C
:1037000000F0020EDBCF01F000C0F3FF01C0F4FFB8
:10371000030EE15C02E2E16AE552E16EE552E7CFB9
:10372000D9FF1200D9CFE6FFE1CFD9FF040EE12681
:10373000FE0EDBCFE6FF97DEE552DF6EDF5002E1E3
:10374000000ED8D0DF060001F451DF5C01E3D1D0D8
:10375000030EDB6AF36EDBCFF4FFE850F45C01E3A9
:10376000C8D0020EDB6A030EF36E020EDBCFF4FF4D
:10377000F350F45C01E3BAD0020EDBCFE6FF030E98
:10378000DB50040DF350E552E724E76E010EE7CF5E
:10379000DBFFFC0EDBCF02F0FD0EDBCF03F0010EF2
:1037A000EA6ADB34FE0BEA36E96E0A0EE9260F0EF2
:1037B000EA220250EE14006E0350EE14016E005027
:1037C000011001E190D0DF50090DF3CFE9FFF4CFF4
:1037D000EAFFBE0EE926000EEA22EE52EECF00F01E
:1037E000EFCF01F0020EEA6ADB34FE0BEA36E96E37
:1037F0002E0EE9260F0EEA22EECF02F0EFCF03F0F5
:103800000250005C035001586EE3020EEA6ADB349A
:10381000FE0BEA36E96E340EE9260F0EEA22EECFF1
:1038200000F0EFCF01F0DF50090DF3CFE9FFF4CF47
:10383000EAFFBE0EE926000EEA22EE52EECF02F0BB
:10384000EFCF03F00250005C035001584CE3DF500F
:10385000090DF3CFE9FFF4CFEAFFBE0EE926000E13
:10386000EA22030EE926000EEA22EECF00F0EFCFA7
:1038700001F0030EEA6ADB34FE0BEA36E96E3A0E1B
:10388000E9260F0EEA22EECF02F0EFCF03F002504E
:10389000005C0350015827E3030EEA6ADB34FE0B99
:1038A000EA36E96E400EE9260F0EEA22EECF00F06E
:1038B000EFCF01F0DF50090DF3CFE9FFF4CFEAFFBE
:1038C000BE0EE926000EEA22030EE926000EEA22C9
:1038D000EECF02F0EFCF03F00250005C035001582E
:1038E00002E3010E07D0020EDB2A3DD7030EDB2ACE
:1038F00031D7000E006E040EE15C02E2E16AE5528F
:0C390000E16E0050E552E7CFD9FF120045
:04390C009D9A9E9A48
:10391000040EAC6E800EAB6EB886B06A440EAF6E0D
:10392000240EAC6E900EAB6E0101F76B200EF75DAE
:1039300009E2F751EA6AD40FE96E010EEA22EF6A52
:10394000F72BF4D7F86BF8C1F7F1FA6B9F9A9E9AB0
:103950009D8A1200D9CFE6FFE1CFD9FFACA2FED7F6
:10396000FE0EDB50AD6EE552E7CFD9FF1200D9CF86
:10397000E6FFE1CFD9FFFD0EDBCFE9FFFE0EDBCF87
:10398000EAFFEF500EE0FD0EDBCFE9FFDB2AFE0E73
:10399000DBCFEAFF01E3DB2AEF50E66EDBDFE55227
:1039A000EAD7E552E7CFD9FF1200D9CFE6FFE1CF42
:1039B000D9FFFC0EDBCFF6FFFD0EDBCFF7FFFE0ECF
:1039C000DBCFF8FF0800F55016E0D950FC0FE96E88
:1039D000FF0EDA20EA6EEFCFF6FFEE2AEFCFF7FF09
:1039E000000EEE22EFCFF8FFEE220800F550E66E53
:1039F000B1DFE552DED7E552E7CFD9FF1200D9CFCC
:103A0000E6FFE1CFD9FFE6520101F851EA6AD40F8F
:103A1000E96E010EEA22EFCFDFFF200E006EF82BD9
:103A2000F851D880005401E3F86BDF50E552E552BD
:103A3000E7CFD9FF12000101F751F85D01E1000C59
:103A4000010CD9CFE6FFE1CFD9FF1A0EE126190EFE
:103A5000DB6A0101F56BF66B0101640ED880F55548
:103A6000000EF6552DE3E7DF0009F6E0C8DFE76E4C
:103A7000180EE7CFDBFFDBCF00F0200EE76E00185B
:103A8000E8AE02D0E73402D0E750005C19E3170E2D
:103A9000006E190EDB50005C13E3D9CF00F0DACFD3
:103AA00001F0190EDBCFF3FFDB2AF3500F01D9240D
:103AB000E96E000EDA20EA6E180EDBCFEFFFC9D7F1
:103AC000D9CF00F0DACF01F0190EDB500F01D92465
:103AD000E96E000EDA20EA6EEF6A190EDB5009E09B
:103AE000E66AD9CFE6FFDACFE6FF0DD8E552E55218
:103AF000E5521A0EE15C02E2E16AE552E16EE5523E
:103B0000E7CFD9FF1200D9CFE6FFE1CFD9FF060EEC
:103B1000E126FD0EDBCFE9FFFE0EDBCFEAFFEF5023
:103B2000520A01E1B1D1040A01E1ACD1140A01E168
:103B30009AD10F0A01E133D1020A01E1F5D0030A5B
:103B400001E1B7D0050A71E03A0A6EE0200A01E00F
:103B50009DD1640E0101CC6FCD6B010EE76EFD0EA1
:103B6000DBCFE9FFFE0EDBCFEAFFE750E926000ED0
:103B7000EA22EF50340A3BE0050A21E0010A01E0A5
:103B80004ED0030EE76EFD0EDBCFE9FFFE0EDBCF5E
:103B9000EAFFE750E926000EEA22EF50310805E17E
:103BA00087D90101AA81899E09D00101AA91010149
:103BB000AB6BABC1E6FF19EC14F0E55230D0030E4D
:103BC000E76EFD0EDBCFE9FFFE0EDBCFEAFFE7502D
:103BD000E926000EEA22EF50310802E1010E01D081
:103BE000000E0101E8B0AA83E8A0AA9318D0030E42
:103BF000E76EFD0EDBCFE9FFFE0EDBCFEAFFE750FD
:103C0000E926000EEA22EF50310802E1010E01D050
:103C1000000E0101E8B0AA89E8A0AA9900D0010E1F
:103C200001010D6F0E6B3AD139D1010EE76EFD0E19
:103C3000DBCFE9FFFE0EDBCFEAFFE750E926000EFF
:103C4000EA22EF50440822E1030EE76EFD0EDBCFBF
:103C5000E9FFFE0EDBCFEAFFE750E926000EEA227D
:103C6000EFCF00F0300E005C11E3390E016E030E51
:103C7000E76EFD0EDBCFE9FFFE0EDBCFEAFFE7507C
:103C8000E926000EEA22EF50015C01E207D1030EA3
:103C9000E76EFD0EDBCFE9FFFE0EDBCFEAFFE7505C
:103CA000E926000EEA22EF50D00F0101AB6F00D9D8
:103CB000F5D0010EE76EFD0EDBCFE9FFFE0EDBCF88
:103CC000EAFFE750E926000EEA22EF50D00FDF6E40
:103CD000030EE76EFD0EDBCFE9FFFE0EDBCFEAFF42
:103CE000E750E926000EEA22EF50D00FE76E010EF2
:103CF000E7CFDBFF0101AB510AE1010EDBCFE6FFAD
:103D0000DFCFE6FF19EC0FF0E552E5520CD0010EC3
:103D1000DBCFE6FFDFCFE6FFABC1E6FFE3EC14F05D
:103D2000E552E552E552BAD0010EE76EFD0EDBCF4B
:103D3000E9FFFE0EDBCFEAFFE750E926000EEA229C
:103D4000EF50D00FDF6E030EE76EFD0EDBCFE9FF05
:103D5000FE0EDBCFEAFFE750E926000EEA22EF5025
:103D6000D00FE76E010EE7CFDBFF0101AB510AE197
:103D7000010EDBCFE6FFDFCFE6FF65EC0EF0E5528C
:103D8000E5520CD0010EDBCFE6FFDFCFE6FFABC183
:103D9000E6FF32EC15F0E552E552E5527FD0030E16
:103DA000E66E020EE76EFD0EDBCF00F0FE0EDBCFFF
:103DB00001F0E7500026000E012200C0E6FF01C01E
:103DC000E6FFDCEC22F0E552E552E552020EF3CFBD
:103DD000DBFF030EF4CFDBFF030EE66E060EE76E8D
:103DE000FD0EDBCF00F0FE0EDBCF01F0E75000262A
:103DF000000E012200C0E6FF01C0E6FFDDDBE55258
:103E0000E552E552040EF3CFDBFF050EF4CFDBFFE6
:103E10000101AB5113E1040EDBCFE6FF050EDBCF52
:103E2000E6FF020EDBCFE6FF030EDBCFE6FF55EC2D
:103E30000BF0E552E552E552E55214D0040EDBCF0B
:103E4000E6FF050EDBCFE6FF020EDBCFE6FF030E3B
:103E5000DBCFE6FFABC1E6FF94EC14F0006E050E7D
:103E6000E15E00501BD0070E01010D6F0E6BFD0EC1
:103E7000DBCFE6FFFE0EDBCFE6FFD1EC36F0E552FE
:103E8000E5520CD09CD80AD0FF0008D0FC0EDB50C5
:103E900004E1150EE66E5EDDE55200D0060EE15C33
:103EA00002E2E16AE552E16EE552E7CFD9FF120086
:103EB000D9CFE6FFE1CFD9FFE652440E006E730E74
:103EC000016E026A00C0E6FFE66E02C0E6FF6DDD2D
:103ED000E552E552E5520101AB5111E1DF6A0A0EEC
:103EE000DF5C0DE2DF50EA6AA00FE96E010EEA2204
:103EF000EF50300FE66E2EDDE552DF2AF0D7006A74
:103F00000101AB51005C18E2ABC1E6FF58EC16F0C2
:103F1000E552000911E0DF6A0A0EDF5C0DE2DF50B6
:103F2000EA6AC00FE96E010EEA22EF50300FE66E2A
:103F300011DDE552DF2AF0D73F0E006E730E016EE1
:103F4000026A00C0E6FFE66E02C0E6FF2EDDE55223
:103F5000E552E552300E0101AB25E66EFBDCE55281
:103F6000360E006E730E016E026A00C0E6FFE66E4A
:103F700002C0E6FF1ADDE552E552E5522C0E006E56
:103F8000730E016E026A00C0E6FFE66E02C0E6FF35
:103F90000CDDE552E552E552290E006E730E016EFE
:103FA000026A00C0E6FFE66E02C0E6FFFEDCE552F4
:103FB000E552E552E552E552E7CFD9FF1200D9CFDD
:103FC000E6FFE1CFD9FF200EE12602EC36F0240E09
:103FD000006E730E016E026A00C0E6FFE66E02C05C
:103FE000E6FFE3DCE552E552E552200EE66EB2DC78
:103FF000E5521B0E006E730E016E026A00C0E6FFF2
:10400000E66E02C0E6FFD1DCE552E552E5524ACF4A
:10401000E6FF4BCFE6FF48CFE6FF49CFE6FF46CFAE
:10402000E6FF47CFE6FF060E006E730E016E026AD2
:1040300000C0E6FFE66E02C0E6FFD9CFE6FFDACFAA
:10404000E6FF8CEC38F0036E0B0EE15E0350D9CF27
:10405000E6FFDACFE6FF8BDCE552E552200EE15CAD
:1040600002E2E16AE552E16EE552E7CFD9FF1200C4
:10407000D9CFE6FFE1CFD9FF160EE1260101AB5102
:1040800001E07DD0020EDB6A0A0EF36E020EDBCF7A
:10409000F4FFF350F45C62E2020EDB50EA6AA00F18
:1040A000E96E010EEA22EF500AE0020EDB50EA6AE6
:1040B000A00FE96E010EEA22EF5002080FE1020E96
:1040C000DBCFE6FFD1EC0EF0E552000903E1006A18
:1040D000016A33D00068030E016E2FD0020EDB5050
:1040E000EA6AA00FE96E010EEA22EF50060817E116
:1040F000020EEA6ADB34FE0BEA36E96E0F0EE926A1
:10410000010EEA22EECFE6FFEFCFE6FFF6EC11F06C
:10411000E552E552F3CF00F0F4CF01F00ED0020EDD
:10412000EA6ADB34FE0BEA36E96E0F0EE926010E71
:10413000EA22EECF00F0EFCF01F0020EEA6ADB34A4
:10414000FE0BEA36E96EAC0EE926010EEA2200C04B
:10415000EEFF01C0EDFF020EDB2A96D7E66A49ECBE
:104160000FF0E552E76E140EE7CFDBFF010EE66EAF
:1041700049EC0FF0E552E76E150EE7CFDBFF006A62
:104180000101AB51005C12E20A0EE66EABC1E6FF24
:10419000CBEC16F0E552E552F350F41001E1D2D029
:1041A000140ECAC1DBFF150ECBC1DBFF020EDB6AAA
:1041B0000A0EF36E020EDBCFF4FFF350F45C35E22F
:1041C000020EEA6ADB34FE0BEA36E96EAC0EE92633
:1041D000010EEA22EECFE6FFEFCFE6FF020EDB286C
:1041E000E66EE66AFB0E006E720E016E026A00C099
:1041F000E6FFE66E02C0E6FFD950030FE66E000E42
:10420000DA20E66E8CEC38F0036E090EE15E0350A6
:10421000D950030FE66E000EDA20E66EB7EC1CF004
:10422000E552E552020EDB2AC3D7020EDB6AD950F3
:10423000030F006E020EDBCFF3FFDB2AF3500F01FA
:104240000024E96E000EDA20EA6E4C0EEF6ED950B3
:10425000030F006E020EDBCFF3FFDB2AF3500024C6
:10426000E96E000EDA20EA6E450EEF6ED950030FAC
:10427000006E020EDBCFF3FFDB2AF3500024E96E61
:10428000000EDA20EA6E440EEF6ED950030F006E76
:10429000020EDBCFF3FFDB2AF3500024E96E000EA1
:1042A000DA20EA6E3D0EEF6E140EDB50300FE66E34
:1042B000D950030F006E020EDBCFF3FFDB2AF35061
:1042C0000024E96E000EDA20EA6EE552E750EF6E48
:1042D000150EDB50300FE66ED950030F006E020E44
:1042E000DBCFF3FFDB2AF3500024E96E000EDA2067
:1042F000EA6EE552E750EF6ED950030F006EDACF49
:1043000001F0020EDB500024E96E000EDA20EA6EA6
:10431000EF6AD950030FE66E000EDA20E66EB7ECB6
:104320001CF0E552E552290E006E730E016E026A12
:1043300000C0E6FFE66E02C0E6FFD5EC1CF0E552D9
:10434000E552E552160EE15C02E2E16AE552E16EE9
:10435000E552E7CFD9FF1200D9CFE6FFE1CFD9FF71
:10436000090EE126EBEC19F0006A0001F451005C43
:1043700001E318D1F50E006E720E016E026A00C0E4
:10438000E6FFE66E02C0E6FFD5EC1CF0E552E55212
:10439000E552DF6A0001F451DF5C01E3F4D0DF5045
:1043A000090DF3CFE9FFF4CFEAFFBE0EE926000EB8
:1043B000EA22EF50E66EE66AEF0E006E720E016EB4
:1043C000026A00C0E6FFE66E02C0E6FFD950010FA8
:1043D000E66E000EDA20E66E8CEC38F0036E070E07
:1043E000E15E0350D950010FE66E000EDA20E66E52
:1043F000B7EC1CF0E552E552DF50090DF3CFE9FFB1
:10440000F4CFEAFFBE0EE926000EEA22EE52EECF0E
:10441000E6FFEFCFE6FFE90E006E720E016E026A54
:1044200000C0E6FFE66E02C0E6FFD950010FE66E5F
:10443000000EDA20E66E8CEC38F0036E070EE15EBB
:104440000350D950010FE66E000EDA20E66EB7EC8D
:104450001CF0E552E552DF50090DF3CFE9FFF4CF30
:10446000EAFFBE0EE926000EEA22030EE926000E40
:10447000EA22EECFE6FFEFCFE6FFE90E006E720E06
:10448000016E026A00C0E6FFE66E02C0E6FFD95088
:10449000010FE66E000EDA20E66E8CEC38F0036E4B
:1044A000070EE15E0350D950010FE66E000EDA20D0
:1044B000E66EB7EC1CF0E552E552DF50090DF3CF84
:1044C000E9FFF4CFEAFFBE0EE926000EEA22050E50
:1044D000E926000EEA22EECFE6FFEFCFE6FFE90E77
:1044E000006E720E016E026A00C0E6FFE66E02C048
:1044F000E6FFD950010FE66E000EDA20E66E8CEC76
:1045000038F0036E070EE15E0350D950010FE66EDE
:10451000000EDA20E66EB7EC1CF0E552E552DF50F3
:10452000090DF3CFE9FFF4CFEAFFBE0EE926000E36
:10453000EA22070EE926000EEA22EECFE6FFEFCFD1
:10454000E6FFE90E006E720E016E026A00C0E6FF21
:10455000E66E02C0E6FFD950010FE66E000EDA20CB
:10456000E66E8CEC38F0036E070EE15E0350D95016
:10457000010FE66E000EDA20E66EB7EC1CF0E55295
:10458000E552DF2A07D7290E006E730E016E026A0C
:1045900000C0E6FFE66E02C0E6FFD5EC1CF0E55277
:1045A000E552E552090EE15C02E2E16AE552E16E94
:1045B000E552E7CFD9FF1200D9CFE6FFE1CFD9FF0F
:1045C000060EE126010EF36E040EF3CFDBFF050E9F
:1045D000DB6A020EDB6A030EDB6ADF6AFC0EDB506D
:1045E000DF5C43E2FD0EDBCFE9FFDB2AFE0EDBCF13
:1045F000EAFF01E3DB2A010EEFCFDBFFDB5035E002
:10460000010EDB502D0805E1040EDB68050EDB68AA
:104610002AD0300EF36E010EDBCFF4FFF350F45CC2
:1046200022E3390E006E010EDB50005C1CE3D95012
:10463000020FE96EDACFEAFF0A0EEC02F3CFEDFFCC
:10464000EF02F3CFEEFFF450ED26010EDB50D00F5A
:10465000006E016AD950020FE96EDACFEAFF00500E
:10466000EE260150ED22DF2AB9D7040EDBCF00F091
:10467000050EDBCF01F0D950020FE96EDACFEAFF69
:1046800000C025F001C026F0EECF20F0EDCF21F0E4
:104690004AEC31F01EC0EEFF1FC0EDFF020EDBCF73
:1046A00000F0030EDBCF01F000C0F3FF01C0F4FF08
:1046B000060EE15C02E2E16AE552E16EE552E7CF07
:1046C000D9FF1200D9CFE6FFE1CFD9FF060EE126D0
:1046D000DE6ADE6ADE6ADD6ADD52DD52040EDB6A06
:1046E000FC0EDB50F36E040EDBCFF4FFF350F45CF2
:1046F00057E2FD0EDBCFE9FFDB2AFE0EDBCFEAFF40
:1047000001E3DB2A050EEFCFDBFF300EF36E050E63
:10471000DBCFF4FFF350F45C43E3390E006E050E7B
:10472000DB50005C3DE3300E006E050EDBCFE7FF93
:104730000050E75E050EE7CFDBFFD9CFE9FFDACF08
:10474000EAFF0A0E236E246A256A266AEECF1EF05F
:10475000EECF1FF0EECF20F0EFCF21F0AFEC39F02D
:104760001DC0EDFF1CC0EDFF1BC0EDFF1AC0EFFF29
:10477000050EDBCF00F0016A026A036A00AE03D0C7
:104780000168026803680050DE260150DE220250F4
:10479000DE220350DD22DD52DD52040EDB2AA0D7DB
:1047A000DECF1EF0DECF1FF0DECF20F0DDCF21F018
:1047B000DD52DD52060EE15C02E2E16AE552E16E95
:1047C000E552E7CFD9FF1200D9CFE6FFE1CFD9FFFD
:1047D000040EE126DE6ADD6A020EDB6AFC0EDB50A7
:1047E000F36E020EDBCFF4FFF350F45C4FE2FD0EEC
:1047F000DBCFE9FFDB2AFE0EDBCFEAFF01E3DB2A9A
:10480000030EEFCFDBFF300E006E030EDB50D880BF
:10481000005408E3030EDB50390804E3030EDB50B9
:10482000D00F1ED0410E006E030EDB50D880005416
:1048300008E3030EDB50460804E3030EDB50BF0F12
:104840000ED0610E006E030EDB50D88000541EE3C4
:10485000030EDB5066081AE3030EDB509F0F0A0FAE
:10486000E76E030EE7CFDBFFD9CFE9FFDACFEAFF30
:10487000040ED890EE36ED36E806FBE1030EDB5071
:10488000DE26000EDD22020EDB2AA8D7DECF00F0E6
:10489000DDCF01F000C0F3FF01C0F4FF040EE15CC6
:1048A00002E2E16AE552E16EE552E7CFD9FF12007C
:1048B000D9CFE6FFE1CFD9FF300EF36EFE0EDBCF8E
:1048C000F4FFF350F45C08E3390E006EFE0EDB508B
:1048D000005C02E3000E01D0010E000902E0000EB0
:1048E00001D0010EE552E7CFD9FF1200D9CFE6FF84
:1048F000E1CFD9FF300E006EFE0EDB50D8800054A1
:1049000004E3FE0EDB50390816E2410E006EFE0E87
:10491000DB50D880005404E3FE0EDB5046080BE267
:10492000610E006EFE0EDB50D880005406E3FE0ED2
:10493000DB50660802E3010E01D0000EE552E7CF1E
:04494000D9FF120089
:0C494400DEEC29F0FB0EDBCFF3FFDB06FE
:10495000F35000090AE02CEC2AF0FA0E97EC2AF04A
:10496000F3E1011CF1E1010E01D0000E0DEF2AF080
:10497000DEEC29F03B0EE12402E3E168E652E16E51
:10498000010EDB6A020EDB6AF90EDBCFF6FFFA0ED0
:10499000DBCFF7FFFB0EDBCFF8FF0800F550DF6E33
:1049A000DF5002E131EF29F0250EDF5C02E024EF59
:1049B00029F0030EDB6A040EDB6A050EDB6A060EC5
:1049C000DB6A070EDB6A46EC29F02D0EDF5C0CE09B
:1049D0002B0EDF5C09E0200EDF5C06E0230EDF5CBF
:1049E00003E0300EDF5C1AE1DF50300A14E0130AF6
:1049F0000FE0030A0AE00B0A05E0060AE4E1030EF1
:104A0000DB80E1D7030EDB82DED7030EDB84DBD74E
:104A1000030EDB86D8D7030EDB88D5D72A0EDF5CE2
:104A20001BE142EC29F090EC29F010E0030EDB8052
:104A300020682168130EDBCF25F0140EDBCF26F0A3
:104A40001DEC31F0040E1EC0DBFF03D0130E79EC19
:104A500029F046EC29F00BD0090EDB6AE7EC29F0CF
:104A600003E05BEC2AF0FAD7090E79EC29F0030E8B
:104A7000DBB0DB982E0EDF5C1BE146EC29F02A0E42
:104A8000DF5C0BE142EC29F090EC29F003E1130E1E
:104A9000CBEC29F046EC29F00BD0090EDB6AE7ECF1
:104AA00029F003E05BEC2AF0FAD7090ECBEC29F0F1
:104AB000680EDF5C07E146EC29F0680EDF5C1DE163
:104AC000030E18D0740EDF5C17E07A0EDF5C14E082
:104AD000480EDF5C06E0540EDF5C03E05A0EDF5C3C
:104AE00002E1020E07D06C0EDF5C03E06A0EDF5CB1
:104AF00004E1010E1EEC2AF0C9DBDF506E0A01E171
:104B00007FD31E0A01E192D1200A01E18FD13F0A31
:104B100001E149D11A0A01E146D10D0A01E143D16F
:104B2000200A01E140D13A0A01E13DD1200A01E128
:104B30003AD1260A01E135D10D0A01E132D11A0A32
:104B400001E1D9D0200A4AE0300A1FE0460A0EE00F
:104B5000250A01E083D3D950F90FE96EFF0EDA2060
:104B6000EA6E010EEE5E000EEE5AEE5A2CEC2AF0C2
:104B7000250EE66E95DB03E1011C01E169D328EC0B
:104B80002AF001E26BD3DB2A69D3080EDB6A040E3C
:104B9000DB50010806E2040EDB04F0EC29F0DB50E8
:104BA0008BDB080EDB5009E0030EDB50010B05E147
:104BB00072DB01E04DD3080EDB6A64DBEFCFDFFF71
:104BC000A0EC2AF003E1011C01E142D328EC2AF019
:104BD00001E3DB2A60DB01E141D33AD3070EDB506E
:104BE00002080FE16CEC2AF0030E33EC2AF00E0EF3
:104BF000EECFDBFF0F0EEECFDBFF100EEECFDBFFB5
:104C000020D0F70EDBCF03F0F80EDBCF04F0020E5E
:104C1000035E000E045AF70E03C0DBFFF80E04C05B
:104C2000DBFF03C0E9FF04C0EAFF23EC2AF0026ABD
:104C30000E0E00C0DBFF0F0E01C0DBFF100E02C026
:104C4000DBFF0E0EDBCFE6FF0F0EDBCFE6FF100E15
:104C5000DBCFE6FFF5EC39F0E552E552E552130EF5
:104C60001FC0DBFF140E20C0DBFF060EDB5005E08B
:104C7000130E67EC2AF001E26ADB8BEC2AF002E209
:104C8000130E37DB4EEC2AF006E0040E67EC2AF038
:104C900002E2050E2EDB030EDBB005D0FCDA01E0EC
:104CA000D7D2080EDB6A090EDB6A0E0EDBCFF6FFE9
:104CB0000F0EDBCFF7FF100EDBCFF8FF0800F5502B
:104CC000DF6EDF5014E091EC2AF011E2A0EC2AF044
:104CD00003E1011C01E1BCD2BBDB01E3DB2A090ECD
:104CE000DB2AD9500E0FE96E000ECBDBE7D7D3DA03
:104CF00001E1B4D2ADD2C6DA110EEECFDBFF120E57
:104D0000EDCFDBFF110EDBCFE6FF120EDBCFE6FFB0
:104D1000E7EC39F0E552E552130EF3CFDBFF140E4A
:104D2000F4CFDBFF060EDB5004E0130ED0DB01E214
:104D30000EDB8BEC2AF002E2130EDBDAAFDB05E0D0
:104D4000040EC5DB02E2050ED4DA030EDBB005D09B
:104D5000A2DA01E07DD2080EDB6A090EDB6A110ED1
:104D6000DBCFE9FF120EDBCFEAFFEFCFDFFFDF5033
:104D700014E0D7DB12E2E4DB03E1011C01E168D2BD
:104D800067DB01E3DB2A090EDB2A110EDB2ADBCF0E
:104D9000E9FF120EE8E3DB2AE6D77DDA01E15ED215
:104DA00057D2030EDB8E070EDB0410E195DB040EF9
:104DB0005ADB0A0EEECFDBFF0B0EEECFDBFF0C0E45
:104DC000EECFDBFF0D0EEECFDBFF6CD0070EDB501E
:104DD00003082CE1030EDBAE0DD0B2DA020E76DA58
:104DE000EFCF00F0016A026A036A00AE39D00168B1
:104DF000026835D0F70EDBCF01F0F80EDBCF02F002
:104E0000020E015E000E025AF70E01C0DBFFF80E23
:104E100002C0DBFF01C0E9FF02C0EAFFEFCF00F0F4
:104E20000A0E00C0DBFF0B0EDB6A38D0070EDB502A
:104E3000020809E1030EDBAE04D059DB02AE10D04C
:104E40000ED055DB0DD0030EDBAE12D079DA020E98
:104E50003DDAF9DA026A036A01AE02D00268036839
:104E6000E2DA0C0E02C0DBFF0D0E03C0DBFF1AD02E
:104E7000F70EDBCF02F0F80EDBCF03F0020E025E7E
:104E8000000E035AF70E02C0DBFFF80E03C0DBFF73
:104E900002C0E9FF03C0EAFFD6DAC5DA0C0EDB6A0E
:104EA0000D0EDB6A060EDB5005E1010EF36E050EFA
:104EB000F3CFDBFF150EDB6A160EDB6AD950370F16
:104EC000006E000EDA20016E390E00C0DBFF3A0ED4
:104ED00001C0DBFF380EDB6A080EDB6A0A0EAEDAB1
:104EE000DF50780A12E0200A10E0280A0CE0200ABD
:104EF0000AE03F0A06E00D0A02E0200A08E1020E7D
:104F000005D0080E03D0080EDF26100E97DA030E28
:104F1000DBBE02D0DB92DB94DB50800B24E08ADA2C
:104F2000D890030EEB50000A08E6000EEE5C000E6F
:104F3000EE58000EEE58000EEE5815E213DA236814
:104F4000246825682668AFEC39F00A0E1AC0DBFF2A
:104F50000B0E1BC0DBFF0C0E1CC0DBFF0D0E1DC0BB
:104F6000DBFF2D0E08D0030EDBA202D02B0E03D0E8
:104F7000DBA408D0200EF36E170EF3CFDBFF150E67
:104F8000DB2A02D0170EDB6A050EDB5003E1B7D92E
:104F900001E189D0560E006E760E016E000E026E93
:104FA000070EDBCF03F0046A056A066A03C023F02C
:104FB00004C024F005C025F006C026F0D3D99CEC2F
:104FC0003AF000501A24F36E01501B20F46E025088
:104FD0001C20F86EF4CFF7FFF3CFF6FF0800090EA0
:104FE000F5CFDBFF580EDF5C0FE1610EF36E090EAB
:104FF0007BD90AE3200E006E090EDBCFE7FF0050DD
:10500000E75E090EE7CFDBFF070EDBCF00F0016A9A
:10501000026A036A0FDA00C023F001C024F002C064
:1050200025F003C026F0EECF1EF0EECF1FF0EECF3E
:1050300020F0EFCF21F09CEC3AF021C0EDFF20C032
:10504000EDFF1FC0EDFF1EC0EFFF390EDBCFE9FF04
:10505000DB063A0EDBCFEAFF01E2DB06090EDBCF0F
:10506000EFFF150EDB2A4BD995E1030EDBA61DD011
:105070006F0EDF5C06E1C1D918E3150EDB285BDAA1
:1050800014D0780EDF5C09E0580EDF5C06E0620E9B
:10509000DF5C03E0420EDF5C08E1020EF36E160EE9
:1050A000F3CFDBFF02D0150EDB6A030EDB50100BD3
:1050B0000EE0040EDBCF00F0050EDB50D88000546C
:1050C00006E2060EDB5003E1040EDB5034DA95D91C
:1050D0000AE2050EDBCFE7FF150EDB50E75E050E9B
:1050E000E7CFDBFF02D0050EDB6A040EDBCF00F05A
:1050F000160E45D9D880005414E2160EDBCFE6FF19
:10510000150EDBCFE6FF040EDBCFE6FF050EDB500E
:10511000E552E75CE552D880E754E552D880E75481
:105120005FD9030EDB50010B0BE1080EDB5008E0EA
:10513000B2D801E08DD0080EDB50BED8080EDB6A75
:10514000170EDB5007E088D9170EF1D903E1011CD7
:1051500001E17ED0160EDB5016E07ED9300EE66EF1
:105160009FD802E1011C74E077D9DFCFE6FF31EC74
:1051700039F0E552E552E552F4CF01F00001F31C9D
:1051800002E1011C65E0050EDBCF00F0160EDB50DE
:10519000D880005409E2050EDBCFE7FF160EDB5086
:1051A000E75E050EE7CFDBFF300EE66E050ECBD9CE
:1051B0004FE1390EDB2ADBCFE9FF3A0E01E3DB2AB0
:1051C000DBCFEAFF090EEFCFDBFFDB500EE044D967
:1051D000090EADD902E1011C3BE0390EDB2ADBCF21
:1051E000E9FF3A0EEDE3DB2AEBD755D831E1160E95
:1051F000DBCFE6FF080EC3D8E552E7245DD82ED0FA
:10520000070EDB50030A1CE0010A14E0030A07E062
:105210007BD9DBCFEEFF020EDBCFEDFF1FD0F5D841
:10522000056A03AE02D0046805682CD8BCD805C056
:10523000EEFF14D0EAD803BE046824D8B4D80ED048
:1052400063D9DBCFEFFF0AD07BD905E1011C03E175
:10525000F368F46810D0FCD801E3DB2A79D9CDEFEC
:1052600024F0010EDBCF00F0020EDBCF01F000C016
:10527000F3FF01C0F4FF3B0EE15C02E2E16AE5529C
:10528000E16ECBD029D9020E33EF2AF061D90800A4
:10529000F550DF6E1200200EE66E080EA3EF2AF026
:1052A00031EC39F0E552E552E552F3CF00F0F4CF9E
:1052B00001F00001F31C1200006E016AD950010FC9
:1052C0004DD90050EE260150ED221200045E000E72
:1052D000055AF70E04C0DBFFF80E05C0DBFF04C063
:1052E000E9FF05C0EAFF1200DBCFF4FFF350F45CE6
:1052F0001200DB50E76E040EE7CFDBFF12000A0E50
:10530000DBCF00F00B0EDBCF01F00C0EDBCF02F099
:105310000D0EDBCF03F0005001100210031012003D
:10532000130EEECFDBFF140EEDCFDBFF130EDBCF42
:1053300000F0140EDBCF01F00001800E011412000A
:10534000F70EDBCF04F0F80EDBCF05F01200050EF0
:10535000DB50E66ED950130F01D9E552E750EE6EDF
:10536000ED6A12000A0EDBCF1EF00B0EDBCF1FF032
:105370000C0EDBCF20F00D0EDBCF21F01200DBCFC7
:10538000E6FF150EDBCFE6FF050EDB50E552E72406
:10539000E552E7241200DB50CED8010EF36E060E64
:1053A000F3CFDBFF1200EE50EFCFEAFFE96E02C051
:1053B000EEFF03C0EEFF04C0EEFF1200D9CFE6FF00
:1053C000DACFE6FFE1CFD9FFE2CFDAFF1200DFCF7D
:1053D000E6FFE66AD6EC3AF0E552E552F3501200E9
:1053E000E76E080EE7CFDBFF1200EECF00F0EECF46
:1053F00001F0EFCF02F0036A1200050EDBCF00F0E0
:10540000150EDB50D88000541200010EDBCF02F0E5
:10541000020EDBCF03F0046A1200E552E5CFDAFF9B
:10542000E7CFD9FF12000A0E00C0DBFF0B0E01C050
:10543000DBFF1200D9500A0FAEEF2AF0F36E070E11
:10544000F3CFDBFF1200EECF00F0EFCF01F0120040
:10545000010EDB2A020E1200FC0EDBCFE6FFFD0E72
:10546000DBCFE6FF1200005E000E015AF70E00C00F
:10547000DBFFF80E01C0DBFF00C0E9FF01C0EAFF5F
:105480001200DA20EA6EEF2AEECFF6FF000EEF22CE
:10549000EECFF7FFEF22EECFF8FF1200040EDBCFC6
:1054A000E6FF130EDB50E552E75C9ADFDB5004DFCA
:1054B000060EDB501200090EDB500A0DF350DF24FC
:1054C000D00FE76E090EE7CFDBFF46EF29F0DB5088
:1054D000F36E050E74EF29F0F70EDBCF00F0F80E37
:1054E000DBCF01F01200DFCFE6FF50EF29F028DF1D
:1054F000030EECDEF5EF29F0A2EC24F0E552E552C4
:10550000E552E55200091200BDDEEE50EFCFEAFF92
:10551000E96E010E1200130EDB50F36E040E74EFF1
:1055200029F0040EDB50F36E090E74EF29F0DBCF87
:10553000E6FF50EF29F0E76E050EE7CFDBFF120024
:105540008BDF73EF2AF0DBCFE6FF86DF7CEF2AF0FC
:10555000D950F90FE96EFF0E41EF2AF0E96E000E07
:06556000DA20EA6E1200E1
:0A556600D9CFE6FFE1CFD9FF160E02
:10557000E126500EDE6EDD6A140EF36E020EF3CFDE
:10558000DBFF030EDB6A3C0EF36E040EF3CFDBFF92
:10559000050EDB6A0101840ED8801355010E1455E7
:1055A00010E2020EDBCF3FF1030EDBCF40F1010131
:1055B0003F6D401F000E4023416B426B40AF19D03E
:1055C00010D05B0E135D010E14590EE2020EDBCFFC
:1055D0003FF1030EDBCF40F10101416B426B40AF65
:1055E00008D04169426905D001013F6B406B416BB6
:1055F000426BCE0EE66EE668E66EE66855EC0BF0A2
:10560000E552E552E552E55201011551175D16517B
:10561000185922E21951175D1A5118591DE2000E4E
:10562000DFCF20F0010EDBCF21F064EC2FF0060E6F
:105630001FC0DBFF070E20C0DBFF080E21C0DBFF11
:10564000090E22C0DBFF000EDFCF20F0010EDBCF02
:1056500021F064EC2FF091D20FC100F010C101F0E5
:10566000120E0102F3CF01F00002F3CF00F0F4506C
:1056700001260F0E256E266AF3CF20F001C021F01F
:10568000C0EC3AF020C000F021C001F062EC2FF035
:105690000E0E1FC0DBFF0F0E20C0DBFF100E21C05F
:1056A000DBFF110E22C0DBFF0E0EDBCF00F00F0E72
:1056B000DBCF01F0100EDBCF02F0110EDBCF03F0D9
:1056C000246A256A340E266E430E276E00C01FF032
:1056D00001C020F002C021F003C022F09FEC31F0A5
:1056E000010A28E10FC100F010C101F01B0E0102F8
:1056F000F3CF01F00002F3CF00F0F45001261D0EAD
:10570000256E266AF3CF20F001C021F0C0EC3AF0FC
:1057100020C000F021C001F062EC2FF00E0E1FC07F
:10572000DBFF0F0E20C0DBFF100E21C0DBFF110ED0
:1057300022C0DBFF0E0EDBCF00F00F0EDBCF01F03F
:10574000100EDBCF02F0110EDBCF03F0246A256AC6
:10575000C80E266E430E276E00C01FF001C020F059
:1057600002C021F003C022F09FEC31F0010A11E1E8
:10577000060EDB6A070EDB6A080EDB6A090EDB6ABF
:105780000A0EDB6A0B0EDB6A0C0EDB6A0D0EDB6A9F
:1057900000D20101320ED8801155010E125501E3DD
:1057A000C2D00E0EDBCF00F00F0EDBCF01F0100EDB
:1057B000DBCF02F0110EDBCF03F0246A256A340E32
:1057C000266E430E276E00C01FF001C020F002C0FD
:1057D00021F003C022F09FEC31F0010A5FE1086A7A
:1057E000096A340E0A6E420E0B6E0E0EDBCF0CF001
:1057F0000F0EDBCF0DF0100EDBCF0EF0110EDBCF56
:105800000FF00CC024F00DC025F00EC026F00FC024
:1058100027F008C01FF009C020F00AC021F00BC01B
:1058200022F093EC2FF01FC004F020C005F021C03F
:1058300006F022C007F0246A256AB40E266E430ED5
:10584000276E93EC2FF01FC000F020C001F021C0A4
:1058500002F022C003F0040EDBCF20F0050EDBCFF8
:1058600021F064EC2FF01FC010F020C011F021C017
:1058700012F022C013F01FC024F020C025F021C078
:1058800026F022C027F000C01FF001C020F002C0A7
:1058900021F003C022F092EC2FF069D0046A056A6F
:1058A000340E066E420E076E0E0EDBCF08F00F0EA2
:1058B000DBCF09F0100EDBCF0AF0110EDBCF0BF0BF
:1058C00008C024F009C025F00AC026F00BC027F05C
:1058D00004C01FF005C020F006C021F007C022F070
:1058E00093EC2FF01FC000F020C001F021C002F0A7
:1058F00022C003F0040EDBCF20F0050EDBCF21F039
:1059000064EC2FF01FC00CF020C00DF021C00EF091
:1059100022C00FF01FC024F020C025F021C026F0C7
:1059200022C027F01AD0006A016A340E026E420EBD
:10593000036E0E0EDBCF04F00F0EDBCF05F0100E62
:10594000DBCF06F0110EDBCF07F004C024F005C05A
:1059500025F006C026F007C027F000C01FF001C0E8
:1059600020F002C021F003C022F093EC2FF068EC8D
:1059700031F01EC047F11FC048F120C049F121C0DD
:105980004AF1680E236E010E246E256A266A47C10D
:105990001EF048C11FF049C120F04AC121F0E9ECD6
:1059A00030F01AC047F11BC048F11CC049F11DC0BE
:1059B0004AF147C11EF048C11FF049C120F04AC159
:1059C00021F079EC2FF01FC00CF020C00DF021C0A9
:1059D0000EF022C00FF0560E246E0E0E256E490EEC
:1059E000266E400E276E7CEC30F01FC008F020C001
:1059F00009F021C00AF022C00BF0246A256A340E97
:105A0000266E430E276E29EC30F01FC004F020C034
:105A100005F021C006F022C007F01FC0E6FF20C03D
:105A2000E6FF21C0E6FF22C0E6FF75EC3AF0E55242
:105A3000E552E552E5521EC000F01FC001F020C043
:105A400002F021C003F0000EDFCF20F0010EDBCF0B
:105A500021F064EC2FF01FC010F020C011F021C025
:105A600012F022C013F01FC024F020C025F021C086
:105A700026F022C027F000C01FF001C020F002C0B5
:105A800021F003C022F07CEC30F0060E1FC0DBFFDB
:105A9000070E20C0DBFF080E21C0DBFF090E22C06D
:105AA000DBFF47C11EF048C11FF049C120F04AC1C9
:105AB00021F079EC2FF01FC00CF020C00DF021C0B8
:105AC0000EF022C00FF0560E246E0E0E256E490EFB
:105AD000266E400E276E7CEC30F01FC008F020C010
:105AE00009F021C00AF022C00BF0246A256A340EA6
:105AF000266E430E276E29EC30F01FC004F020C044
:105B000005F021C006F022C007F01FC0E6FF20C04C
:105B1000E6FF21C0E6FF22C0E6FF4DEC3AF0E55279
:105B2000E552E552E5521EC000F01FC001F020C052
:105B300002F021C003F0000EDFCF20F0010EDBCF1A
:105B400021F064EC2FF01FC010F020C011F021C034
:105B500012F022C013F01FC024F020C025F021C095
:105B600026F022C027F000C01FF001C020F002C0C4
:105B700021F003C022F07CEC30F00A0E1FC0DBFFE6
:105B80000B0E20C0DBFF0C0E21C0DBFF0D0E22C070
:105B9000DBFF060EDBCF04F0070EDBCF05F0080EAF
:105BA000DBCF06F0090EDBCF07F0246A256A800EF2
:105BB000266EBF0E276E04C01FF005C020F006C081
:105BC00021F007C022F07CEC30F01FC000F020C0B4
:105BD00001F021C002F022C003F03FC11EF040C11D
:105BE0001FF041C120F042C121F079EC2FF01FC01D
:105BF00008F020C009F021C00AF022C00BF01FC03D
:105C000024F020C025F021C026F022C027F000C0DB
:105C10001FF001C020F002C021F003C022F093EC7D
:105C20002FF068EC31F01EC027F11FC028F120C012
:105C300029F121C02AF10A0EDBCF00F00B0EDBCFD9
:105C400001F00C0EDBCF02F00D0EDBCF03F03FC1F5
:105C50001EF040C11FF041C120F042C121F079EC9B
:105C60002FF01FC004F020C005F021C006F022C0B4
:105C700007F01FC024F020C025F021C026F022C06C
:105C800027F000C01FF001C020F002C021F003C0C7
:105C900022F093EC2FF068EC31F01EC02BF11FC006
:105CA0002CF120C02DF121C02EF10A0EDBCF04F023
:105CB0000B0EDBCF05F00C0EDBCF06F00D0EDBCFAD
:105CC00007F0246A256A800E266EBF0E276E04C078
:105CD0001FF005C020F006C021F007C022F07CECC8
:105CE00030F01FC000F020C001F021C002F022C03F
:105CF00003F03FC11EF040C11FF041C120F042C17E
:105D000021F079EC2FF01FC008F020C009F021C06D
:105D10000AF022C00BF01FC024F020C025F021C0E3
:105D200026F022C027F000C01FF001C020F002C002
:105D300021F003C022F093EC2FF068EC31F01EC08C
:105D40002FF11FC030F120C031F121C032F1060E19
:105D5000DBCF00F0070EDBCF01F0080EDBCF02F047
:105D6000090EDBCF03F03FC11EF040C11FF041C15F
:105D700020F042C121F079EC2FF01FC004F020C0C8
:105D800005F021C006F022C007F01FC024F020C09B
:105D900025F021C026F022C027F000C01FF001C06E
:105DA00020F002C021F003C022F093EC2FF068EC49
:105DB00031F01EC033F11FC034F120C035F121C0D5
:105DC00036F10101800E2A1512E027C100F028C12A
:105DD00001F029C102F02AC103F0000E006C011E7F
:105DE0000122021E0222031E0322008E08D027C1B8
:105DF00000F028C101F029C102F02AC103F000C05F
:105E0000B8F0800E2E1512E02BC100F02CC101F06D
:105E10002DC102F02EC103F0000E006C011E012204
:105E2000021E0222031E0322008E08D02BC100F0A6
:105E30002CC101F02DC102F02EC103F000C0B9F059
:105E4000800E321512E02FC100F030C101F031C1D7
:105E500002F032C103F0000E006C011E0122021E8E
:105E60000222031E0322008E08D02FC100F030C191
:105E700001F031C102F032C103F000C0BAF0800E6F
:105E8000361512E033C100F034C101F035C102F023
:105E900036C103F0000E006C011E0122021E022218
:105EA000031E0322008E08D033C100F034C101F07C
:105EB00035C102F036C103F000C0BBF0D9EC13F0DD
:045EC000CAEF2AF00B
:0C5EC400199E08D0199E21AE05D0206C5C
:105ED000211EE86A2122198E21C01BF020C01AF071
:105EE0002B6A2A6A8E0E1C6E1D6A19EF32F0199EFB
:105EF0000CD0199E21AE09D01E6C1F1E201E211E23
:105F0000E86A1F2220222122198E21C01BF020C006
:105F10001AF01FC02BF01EC02AF09E0E1C6E1D6AC8
:105F200019EF32F0277E196A55EC32F06DEC32F041
:105F300019B6FDEF31F019A20AD019AA03D019BE83
:105F4000FDEF31F019A409EF32F006EF32F019AA93
:105F500005D019AC09EF32F006EF32F019A00AD0E3
:105F600019A808D019BE04D019A402D012EF32F03B
:105F700016EF32F02A6A1D6A2750225C296E10E360
:105F80001FC02BF020C01AF021C01BF022C028F047
:105F900024C01FF025C020F026C021F0193A09D0F6
:105FA00024C02BF025C01AF026C01BF027C028F013
:105FB000296C199E19BC198E28C01CF019B045EF28
:105FC00032F01A0E296045EF32F01C6A226A19A4D9
:105FD00008D01F6C201E211E221EE86A20222122CA
:105FE000222219AC08D02B6C1A1E1B1E1C1EE86A3C
:105FF0001A221B221C221E6A295207E02234213257
:1060000020321F321E32292EF9D71F502B26205046
:106010001A2221501B2222501C221EC02AF0199E37
:106020001CAE0BD02A6C2B1E1A1E1B1E1C1EE86AEF
:106030002B221A221B221C22198E1CA006D0D880CB
:106040001B321A322B322A32282A28C01CF019EFB0
:1060500032F0196A55EC32F06DEC32F019B6FDEF02
:1060600031F019A205D019BAFDEF31F004EF32F08A
:1060700019BA10EF32F019A005D019B8FDEF31F0C0
:1060800010EF32F019B804EF32F01D6A7F0E2224AF
:106090001C6EE86A1D2227501C5EE86A1D5A1A0E03
:1060A000286E226A2A6A2B6A1A6A1B6A24501F5EAB
:1060B0002550205A2650215A000E225A09E7245012
:1060C0001F262550202226502122000E222201D0F8
:1060D0002A8AD8901F36203621362236D8902A3682
:1060E0002B361A361B36282EE1D7215020101F10D0
:1060F000D8A42A8A19EF32F0196A55EC32F06DEC07
:1061000032F019B6FDEF31F019A205D019B8FDEF44
:1061100031F004EF32F019AA05D019B0FDEF31F0DB
:1061200004EF32F019B002D019A802D010EF32F00B
:106130001D6A275022241C6EE86A1D227E0E1C5EFA
:10614000E86A1D5A2A6A2B6A1A6A1B6A26502102BB
:10615000F4CF1BF0F3CF1AF025502102F3502B2679
:10616000F4501A22000E1B2226502002F3502B2638
:10617000F4501A22000E1B2224502102F3502A262A
:10618000F4502B22000E1A221B2225502002F3501D
:106190002A26F4502B22000E1A221B2226501F0200
:1061A000F3502A26F4502B22000E1A221B222450D0
:1061B0002002F4502A26000E2B221A221B222550E0
:1061C0001F02F4502A26000E2B221A221B2219EF3E
:1061D00032F0186AE86A26AEF6EF30F0236C241E1F
:1061E000251E261E242225222622181E21AE01EF5E
:1061F00031F01E6C1F1E201E211E1F222022212274
:10620000181E9CEC3AF021BE18EF31F018AE000CCD
:106210001E6C1F1E201E211EE86A1F222022212222
:106220001A6C1B1E1C1E1D1E1B221C221D22000C74
:1062300018BE08EF31F01988FF0C21C02BF020C0E8
:106240002AF020502502F4CF1FF0F3CF1EF021508A
:106250002602F4CF21F0F3CF20F02502F3501F26C1
:10626000F4502022E86A21222A502602F3501F26E9
:10627000F4502022E86A212226AE43EF31F02A5062
:10628000205E2B50215A2BAE000C2550205E26504C
:10629000215A000C20C02AF020502502F4CF1FF014
:1062A000F3CF1EF021502602F4CF21F0F3CF20F0DF
:1062B0002502F3501F26F4502022E86A21222A509A
