:020000040000FA
:060800001CEF38F01200AD
:020806001200DE
:060808001CEF04F01200D9
:060818006EEF07F0120074
:02081E000200D6
:10082000A57000002E0F0000180000007770000077
:08083000000F00002E00000083
:08083800DACFE4FFE2CFDAFFA2
:10084000E9CFE4FFEACFE4FFF6CFE4FFF7CFE4FF20
:10085000F5CFE4FFF3CFE4FFF4CFE4FFFACFE4FFFA
:1008600000EE28F0140EE80403E3EECFE4FFFBD71C
:1008700000EE00F0280EE80403E3EECFE4FFFBD720
:10088000E652F2A42AD1D59EFC0ED76E3F0ED66E4C
:10089000D58E0101072B000E082301018F2B000EBE
:1008A0009023912392230101932B000E94239523EF
:1008B00096230101972B000E982399239A23010177
:1008C0009B2B000E9C239D239E230101092B000ED0
:1008D0000A230101F52B000EF623320E0001815D83
:1008E00002E20001812B030E0101001901E1015117
:1008F00001E17FD0020E0101001901E101513CE04C
:10090000010E0101001901E1015107E0010100514F
:1009100001E1015101E0DBD0DFD08050100B100A63
:1009200001E0010E010808E10101026B036B010106
:10093000002B000E01231FD00101022B000E032308
:100940000101F40ED8800255010E035514E2010195
:10095000026B036B0101010E0D1901E10E5106E05E
:100960000101070E0D1901E10E5105E10101AA5126
:1009700001E0B2D0897EB0D080A805D00101000787
:10098000000E015B35D00101022B000E0323010193
:10099000320ED8800255000E03552AE2000EE66E94
:1009A000E66A000EE66EE66A69EC0BF0E552E55287
:1009B000E552E552899E899C8A908A98020E01012F
:1009C0000D1901E10E510BE001010D5101E10E5134
:1009D00001E00AD0898E0101096B0A6B05D0040E73
:1009E00001010D6F0E6B00D00101002B000E0123E1
:1009F00073D080A83FD0040E01010D1901E10E5102
:100A000033E0070E01010D1901E10E5128E0050E3A
:100A100001010D1901E10E511DE0030E01010D1937
:100A200001E10E5112E0010E01010D1901E10E511B
:100A300007E001010D5101E10E5101E016D015D082
:100A4000020E01010D6F0E6B10D0010E01010D6F32
:100A50000E6B0BD0060E01010D6F0E6B06D0080E4B
:100A600001010D6F0E6B01D0FF000101002B000E84
:100A700001232CD0050E01010D1901E10E5116E0E4
:100A800001010D5101E10E5101E020D00101D00E14
:100A9000D8800955070E0A5508E2899C050E010108
:100AA0000D6F0E6B0101026B036B10D00101022B65
:100AB000000E03230101640ED8800255000E035579
:100AC00004E20101026B036B897E00D005D0010EA8
:100AD0000101006F016B00D0F2949EA6D3D10001FA
:100AE000816B0001826B00018051190A01E1C3D1C1
:100AF000010A01E1BCD10F0A01E180D0010A01E144
:100B000074D0030A69E01A0A64E0010A5EE0030A8D
:100B100044E0010A39E0070A2EE0080A23E0010A4E
:100B20000AE0030A01E0AAD183C0C9FF0001846B77
:100B30000001802BA6D1C5AC03D080C082F011D0BB
:100B400000018451842BEA6A860FE96E000EEA22C6
:100B5000EF50C96E000185510001845D02E1000182
:100B6000802B8FD1C5AC03D080C082F003D0C58468
:100B70000001806B86D1010E00018311C96E000156
:100B8000846B0001802B7DD1C5AC03D080C082F086
:100B900003D0C5860001802B74D100018451842BC1
:100BA000EA6A860FE96E000EEA22C9CFEFFF000164
:100BB00085510001845D04E2C59A0001800703D0DD
:100BC000C58A0001802BC5885CD1C5840001802BBB
:100BD00058D10001806B55D1010E00018311C96EFF
:100BE0000001846B0001802B4CD1C5AC03D080C0C8
:100BF00082F003D0C5860001802B43D100018451CF
:100C0000842BEA6A860FE96E000EEA22C9CFEFFF55
:100C1000020E0001845D05E2C59AC58800018007C7
:100C200030D186C0EBF087C0ECF00001EB51EC1145
:100C300016E1C58AC5880001ED510101075D3E6ED0
:100C400008510001EE553F6EC80ED8803E54000E8C
:100C50003F5402E20001F46B0001802B12D100012D
:100C6000846B0001F151090A01E1E4D0010A01E1BC
:100C7000D4D00F0A01E19FD0010A01E17ED0030A1E
:100C80005EE0010A41E0070A27E0010A1EE0030ACC
:100C90000FE0010A01E0E0D0550E0001EB1902E17E
:100CA000AA0EEC1904E10001F46B0001F12BD4D081
:100CB000550E0001EB1902E1AA0EEC1903E1000147
:100CC000F12B02D00001F107C7D0EBC0F2F0ECC06D
:100CD000F3F00001F12BC0D00001F451090DF3CF66
:100CE000E9FFF4CFEAFFBE0EE926000EEA22EBC0D0
:100CF000EFFF0001EB510001F25F0001EC51000138
:100D0000F35B0001F12BA8D00001F451090DF3CFE2
:100D1000E9FFF4CFEAFFBE0EE926000EEA22EE520A
:100D2000EBC0EEFFECC0EDFF0001EB510001F25F04
:100D30000001EC510001F35B0001F12B8DD00001AB
:100D4000F451090DF3CFE9FFF4CFEAFFBE0EE92617
:100D5000000EEA22030EE926000EEA22EBC0EEFFA7
:100D6000ECC0EDFF0001EB510001F25F0001EC511E
:100D70000001F35B0001F12B6FD00001F451090D6C
:100D8000F3CFE9FFF4CFEAFFBE0EE926000EEA2218
:100D9000050EE926000EEA22EBC0EEFFECC0EDFFE7
:100DA0000001EB510001F25F0001EC510001F35B27
:100DB0000001F12B51D00001F451090DF3CFE9FFEF
:100DC000F4CFEAFFBE0EE926000EEA22070EE9265E
:100DD000000EEA22EBC0EEFFECC0EDFF0001EB518C
:100DE0000001F25F0001EC510001F35B0001F251E0
:100DF000F31110E10001F42B040E0001F45D03E295
:100E00000001F12B02D00001802B07C1EDF008C1D9
:100E1000EEF002D00001802B1FD0550E0001EB191F
:100E200002E1AA0EEC1903E10001F12B02D000014E
:100E3000802B12D0550E0001EB1902E1AA0EEC191D
:100E400003E10001802B07D0EBC0F2F0ECC0F3F01F
:100E50000001030EF16F00D0180E0001805D04E266
:100E6000C59A0001800701D0C58AC5880AD0C5840B
:100E70000001802B06D00001806B03D00001806B45
:100E800000D09E96A1A606D0A196400E000180112A
:100E90000001826FE55200EE27F0280EE80403E31C
:100EA000E5CFEDFFFBD700EE3BF0140EE80403E3C3
:100EB000E5CFEDFFFBD7E5CFFAFFE5CFF4FFE5CFB8
:100EC000F3FFE5CFF5FFE5CFF7FFE5CFF6FFE5CF81
:100ED000EAFFE5CFE9FFE5CFDAFF1100D8CFE4FF65
:100EE000E0CFE4FFE46EDACFE4FFE2CFDAFFE9CF50
:100EF000E4FFEACFE4FFE6529EAC2CD19E9CC4CF27
:100F000006F1C3CF05F101010451EA6AA00FE96EB1
:100F1000010EEA22EF50050801E09BD001010C35DB
:100F200004E20B510308000E0C5501E391D005C1FA
:100F300005F106C106F10101FF0ED8800557030E29
:100F40000657010E0101D89005370637E806FBE188
:100F50000101900E055D010E065905E20101900E9A
:100F6000056F010E066F900E0101055F010E010174
:100F7000065B0101FF0ED8800555030E065504E2FD
:100F800001010569030E066F01010451E96EEA6A69
:100F9000D890E936EA360F0EE926010EEA22EE5025
:100FA00001010527EE500101062305C13CF006C1F1
:100FB0003DF0010E0F0B05E0D8903D323C32E806C3
:100FC000FBE101010451E96EEA6AD890E936EA369C
:100FD0000F0EE926010EEA223CC0EEFF3DC0EDFFF8
:100FE00001010B6B0C6B01010451090A2EE0010A8F
:100FF00029E00F0A24E0010A1FE0030A1AE0010AAF
:1010000015E0070A10E0010A0BE0030A06E0010AF6
:1010100001E01ED0929089801BD09292898218D0D4
:101020009294898415D09296898612D0929A898A50
:101030000FD093948A840CD093968A8609D0939289
:101040008A8206D093988A8803D093908A8000D0B1
:101050002CD001010451E96EEA6AD890E936EA36EB
:101060000F0EE926010EEA22EE5001010527EE508F
:101070000101062305C13CF006C13DF0010E0F0B36
:1010800005E0D8903D323C32E806FBE10101045115
:10109000E96EEA6AD890E936EA360F0EE926010EC3
:1010A000EA223CC0EEFF3DC0EDFF0A0E3C6E01019E
:1010B000042B01010451D8803C5402E30101046B6C
:1010C00001010451EA6AA00FE96E010EEA22EF5015
:1010D000050837E101010B2B000E0C2301010C3533
:1010E00004E20B510308000E0C552BE201010451E0
:1010F000090A25E0010A21E00F0A1DE0010A19E0B2
:10110000030A15E0010A11E0070A0DE0010A09E0EF
:10111000030A05E0010A01E014D0928012D0928205
:1011200010D092840ED092860CD0928A0AD09384EA
:1011300008D0938606D0938204D0938802D09380FF
:1011400000D001010451EA6A000FE96E0F0EEA2295
:10115000EF50C26E9EAA98D0ABA403D0AECFF9F1E7
:1011600093D0ABA203D0AB98AB888ED0AECFF9F1C1
:101170000101010E0D1901E10E5173E00101FA5157
:10118000080A66E00F0A5AE0010A4EE0030A42E04C
:10119000010A36E0070A2AE0010A1EE0030A12E00B
:1011A000010A01E05ED0520E0101F95D03E1010187
:1011B000010EFA6F560E0101F95D03E10101050E02
:1011C000FA6F4FD0650E0101F95D02E1020E01D008
:1011D000000E0101FA6F45D0730E0101F95D02E1C5
:1011E000030E01D0000E0101FA6F3BD0650E010124
:1011F000F95D02E1040E01D0000E0101FA6F31D059
:10120000740E0101F95D02E1070E01D0000E01012B
:10121000FA6F27D0650E0101F95D02E1060E01D0DB
:10122000000E0101FA6F1DD0720E0101F95D02E19D
:10123000070E01D0000E0101FA6F13D00D0E01014F
:10124000F95D02E1080E01D0000E0101FA6F09D02C
:101250000A0E0101F95D02E1FF0002D00101FA6B03
:1012600000D00101F751EA6AD40FE96E010EEA22BB
:10127000F9C1EFFF1F0E3C6E0101F72B0101F75181
:101280003C5C02E20101F76BE552E5CFEAFFE5CFF6
:10129000E9FFE5CFDAFFE550E5CFE0FFE5CFD8FF86
:1012A0001000D9CFE6FFE1CFD9FF030EE126F00E03
:1012B000D36EC00E9B6E0101FA6B01010D6B0E6BBC
:1012C000006B016B026B036B010EDB6A020EDB6AC3
:1012D000010EDBCF00F0020EDBCF01F0D890015001
:1012E00004E61A0E005C000E01581AE2010EDBCF74
:1012F000E9FF020EDBCFEAFFD890E936EA36D89054
:10130000E936EA36270EE926010EEA22EE6AEE6A8F
:10131000EE6AEE6A010EDB2A020EDAE3DB2AD8D788
:10132000010EDB6A020EDB6A010EDBCF00F0020E5B
:10133000DBCF01F0D890015004E6040E005C000EF3
:1013400001581AE2010EDBCFE9FF020EDBCFEAFF04
:10135000D890E936EA36D890E936EA368F0EE92693
:10136000010EEA22EE6AEE6AEE6AEE6A010EDB2AEE
:10137000020EDAE3DB2AD8D7010EDB6A020EDB6A43
:10138000010EDBCF00F0020EDBCF01F0D890015050
:1013900004E60A0E005C000E015811E2010EDBCFDC
:1013A000E9FF020EDBCFEAFFA00EE926010EEA22DA
:1013B000010EEF6EDB2A020EE3E3DB2AE1D7010127
:1013C000236B246B256B266B046B0B6B0C6BAA6B6E
:1013D000AB6B096B0A6B076B086B896A3F0EDF6E9C
:1013E000DF50926E8A6A1F0EDF6E0F01121DDF162C
:1013F000E66A080EE66E79EC0EF0E552E552010160
:10140000A86B0F010A1DDF16E66A090EE66E79EC7D
:101410000EF0E552E5520101A96BDF50936E180EF4
:101420008B6E980E946E020ED56EFC0ED76E3F0E2C
:10143000D66ED58EF294F28AF184B00EB16EA2927D
:10144000A192A092B1809D92010ECA6ECC68CB6829
:10145000CA849F6F000E256F266B236F246BE66E88
:10146000E66AE66EE66A9FD8E552E552E552E55235
:101470009F9C9D8CBE0EC06E020EC16E0101045178
:10148000EA6A000FE96E0F0EEA22EF50C26E26ECF8
:101490001BF0D8EC28F0D09CD08EF28EF28CFC0E93
:1014A000006E6C0E016E026A00C0E6FFE66E02C0BE
:1014B000E6FF75EC1BF0E552E552E5521CEC1EF020
:1014C000BCEC29F0010E0101006F016B8050100B84
:1014D000100A01E0010E0108F9E001010D510E11A1
:1014E00003E1010E0D6F0E6B898E030EE15C02E2CB
:1014F000E16AE552E16EE552E7CFD9FF1200D1DE95
:10150000F40EE66E010EE66EBAD8E552E552010120
:10151000096B0A6BBBEC1BF0000902E0C1EC1BF08D
:10152000070E01010D1901E10E513AE0050E0D19EA
:1015300001E10E5130E0060E0D1901E10E512BE0D4
:10154000020E0D1901E10E511BE0030E0D1901E110
:101550000E5116E0010E0D19DDE10E51DBE1CC510B
:10156000095DCD510A59D6E3096B0A6BAAA102D0D5
:1015700075EC1EF00101AAA9CDD7D1EC1FF0CAD796
:1015800031EC13F0899E899C8A908A98010E0101A2
:101590000D6F0E6BBFD7F1EC0FF06FEC10F0BAD7F8
:1015A0007AEC11F0B7D7D9CFE6FFE1CFD9FF040E1F
:1015B000E126FD0EDBCF00F0FE0EDBCF01F0FF0ECB
:1015C000D8800054030E015407E2FD0EDB68030EC1
:1015D000F36EFE0EF3CFDBFFFB0EDBCF00F0FC0E55
:1015E000DBCF01F0FF0ED8800054030E015407E258
:1015F000FB0EDB68030EF36EFC0EF3CFDBFFFB0E7E
:10160000DBCF00F0FC0EDBCF01F0060ED8900036E9
:101610000136E804FBE100C0DEFF01C0DDFFFD0E86
:10162000DBCF00F0FE0EDBCF01F0060ED8900036C7
:101630000136E804FBE1020E00C0DBFF030E01C02F
:10164000DBFF010EDB50BE6E030EDB50BB6EDF50C6
:10165000E840E8403F0B300B0C09BD6E020EDB404A
:10166000E8403F0B300B0C09BA6E040EE15C02E25D
:10167000E16AE552E16EE552E7CFD9FF1200D9CF1A
:10168000E6FFE1CFD9FF020EE126F29A0101096BD4
:101690000A6BF28AF29A09C1DEFF0AC1DDFFF28A03
:1016A000DECF00F0DDCF01F0FD0EDBCF02F0FE0E4D
:1016B000DBCF03F00250005C03500158EBE3020E55
:1016C000E15C02E2E16AE552E16EE552E7CFD9FF63
:1016D0001200D9CFE6FFE1CFD9FF0A0EE12623C1E0
:1016E00000F024C101F0FD0EDB50001811E1FE0EE8
:1016F000DB5001180DE125C102F026C103F0FB0EFD
:10170000DB50021805E1FC0EDB50031801E1E7D2C3
:10171000000EE66EE66AE66EE66A45DFE552E552E1
:10172000E552E5528B9A8B908A9C8A9AA092A1925C
:10173000B190B368050EB26EB180080E46CFDBFFE4
:10174000FD0EDBCF00F0FE0EDBCF01F0013401E334
:1017500087D000500008000E015401E381D0010E33
:10176000F36E040EF3CFDBFF060EDB6A080E306E5D
:10177000316AFD0EDBCF35F0FE0EDBCF36F028EC04
:101780002EF02EC0DEFF2FC0DDFF0F01000ED8802F
:101790004655000E475501E3F8D0DECF00F0DDCF0F
:1017A00001F001341EE200509008010E015419E2CC
:1017B000DECF02F0DDCF03F0900E025E010E035A81
:1017C00002C030F003C031F04ACF35F04BCF36F0D5
:1017D000C8EC37F00F0146513024006E47513120DC
:1017E00027D0DECF00F0DDCF01F0900ED88000567C
:1017F000010E01564651005C475101581CE2DECFF4
:1018000002F0DDCF03F0900ED8800256010E035691
:1018100002C030F003C031F04ACF35F04BCF36F084
:10182000C8EC37F00F013050465D006E315047591B
:10183000080E00C0DBFF080EDB50006E016ADECF31
:1018400002F0DDCF03F001500318E8AE02D00334FC
:1018500004D00250005C0350015801E396D089D0B7
:10186000FD0EDBCF00F0FE0EDBCF01F00001800E9D
:10187000011401E18FD0040EDB6A010EF36E060E37
:10188000F3CFDBFFF80E306E3168FD0EDBCF35F0A5
:10189000FE0EDBCF36F028EC2EF02EC0DEFF2FC080
:1018A000DDFF0F01000ED8804655000E47556DE252
:1018B000DECF00F0DDCF01F001341EE200509008D1
:1018C000010E015419E2DECF02F0DDCF03F0900EDD
:1018D000025E010E035A02C030F003C031F04ACF5D
:1018E00035F04BCF36F0C8EC37F00F0146513024BD
:1018F000006E4751312027D0DECF00F0DDCF01F060
:10190000900ED8800056010E01564651005C47519A
:1019100001581CE2DECF02F0DDCF03F0900ED8803C
:101920000256010E035602C030F003C031F04ACF18
:1019300035F04BCF36F0C8EC37F00F013050465D34
:10194000006E31504759080E00C0DBFF080EDB5017
:10195000006E016ADECF02F0DDCF03F00150031804
:10196000E8AE02D0033404D00250005C03500158AA
:101970000CE2080EDB50006E016AD9CFE9FFDACF26
:10198000EAFFE850EE5E0150ED5A640EDE26000ECE
:10199000DD220FD001019F510CE0010EF36E040E09
:1019A000F3CFDBFF010EF36E060EF3CFDBFFDE6A33
:1019B000DD6A090E48CFDBFFFB0EDBCF00F0FC0E2B
:1019C000DBCF01F0013401E393D000500008000E9A
:1019D000015401E38DD0010EF36E050EF3CFDBFF52
:1019E000070EDB6A080E306E316AFB0EDBCF35F076
:1019F000FC0EDBCF36F028EC2EF0020E2EC0DBFF03
:101A0000030E2FC0DBFF0F01000ED8804855000EDB
:101A1000495501E310D1020EDBCF00F0030EDBCFFE
:101A200001F0013420E200509008010E01541BE245
:101A3000020EDBCF02F0030EDBCF03F0900E025E4E
:101A4000010E035A02C030F003C031F04ACF35F026
:101A50004BCF36F0C8EC37F00F0148513024006E00
:101A6000495131202BD0020EDBCF00F0030EDBCF2B
:101A700001F0900ED8800056010E01564851005CCE
:101A8000495101581EE2020EDBCF02F0030EDBCFFC
:101A900003F0900ED8800256010E035602C030F0BB
:101AA00003C031F04ACF35F04BCF36F0C8EC37F0F9
:101AB0000F013050485D006E31504959090E00C089
:101AC000DBFF090EDB50006E016A020EDBCF02F075
:101AD000030EDBCF03F001500318E8AE02D003344D
:101AE00004D00250005C0350015801E3A4D096D00A
:101AF000FB0EDBCF00F0FC0EDBCF01F00001800E0F
:101B0000011401E1A2D0050EDB6A010EF36E070E8F
:101B1000F3CFDBFFF80E306E3168FB0EDBCF35F014
:101B2000FC0EDBCF36F028EC2EF0020E2EC0DBFFD1
:101B3000030E2FC0DBFF0F01000ED8804855000EAA
:101B4000495501E378D0020EDBCF00F0030EDBCF66
:101B500001F0013420E200509008010E01541BE214
:101B6000020EDBCF02F0030EDBCF03F0900E025E1D
:101B7000010E035A02C030F003C031F04ACF35F0F5
:101B80004BCF36F0C8EC37F00F0148513024006ECF
:101B9000495131202BD0020EDBCF00F0030EDBCFFA
:101BA00001F0900ED8800056010E01564851005C9D
:101BB000495101581EE2020EDBCF02F0030EDBCFCB
:101BC00003F0900ED8800256010E035602C030F08A
:101BD00003C031F04ACF35F04BCF36F0C8EC37F0C8
:101BE0000F013050485D006E31504959090E00C058
:101BF000DBFF090EDB50006E016A020EDBCF02F044
:101C0000030EDBCF03F001500318E8AE02D003341B
:101C100004D00250005C035001580DE2090EDB5065
:101C2000006E016AD950020FE96EDACFEAFF005068
:101C3000EE5E0150ED5AD950020FE96EDACFEAFF9D
:101C4000640EEE26000EED2211D001019F510EE030
:101C5000010EF36E050EF3CFDBFF010EF36E070EE0
:101C6000F3CFDBFF020EDB6A030EDB6A0101010E1C
:101C70009F6FFD0EDBCF23F1FE0EDBCF24F1FB0EB9
:101C8000DBCF25F1FC0EDBCF26F1A1A2FED7A1927E
:101C9000020EDBCFE6FF030EDBCFE6FFDECFE6FF73
:101CA000DDCFE6FF80DCE552E552E552E552040E59
:101CB000DB50E8B08B8AE8A08B9A060EDB50E8B0C8
:101CC0008B80E8A08B90050EDB50E8B08A8CE8A0F2
:101CD0008A9C070EDB50E8B08A8AE8A08A9A0A0E2E
:101CE000E15C02E2E16AE552E16EE552E7CFD9FF3D
:101CF0001200D9CFE6FFE1CFD9FFFE0EDB50090A73
:101D00005AE0010A50E00F0A46E0010A3CE0030AEB
:101D100032E0010A28E0070A1EE0010A14E0030A83
:101D20000AE0010A4EE1FD0EDB50E8B08980E8B020
:101D300048D0899046D0FD0EDB50E8B08982E8B0EB
:101D400040D089923ED0FD0EDB50E8B08984E8B0E7
:101D500038D0899436D0FD0EDB50E8B08986E8B0E3
:101D600030D089962ED0FD0EDB50E8B0898AE8B0DD
:101D700028D0899A26D0FD0EDB50E8B08A84E8B0DE
:101D800020D08A941ED0FD0EDB50E8B08A86E8B0E1
:101D900018D08A9616D0FD0EDB50E8B08A82E8B0E3
:101DA00010D08A920ED0FD0EDB50E8B08A88E8B0E1
:101DB00008D08A9806D0FD0EDB50E8B08A80E8A0F3
:101DC0008A90E552E7CFD9FF1200D9CFE6FFE1CFE5
:101DD000D9FFE652DF6AFE0EDB50090A35E0010A40
:101DE0002EE00F0A28E0010A22E0030A1CE0010AA3
:101DF00016E0070A10E0010A0AE0030A04E0010AFB
:101E000026E1895022D08950020B20E01BD0895056
:101E1000040B1CE017D08950080B18E013D0895030
:101E2000200B14E00FD08A50040B10E00BD08A5026
:101E3000080B0CE007D08A50020B08E003D08A5050
:101E4000100B04E0010E02D08A50010BDF6EDF5050
:101E5000E552E552E7CFD9FF1200D9CFE6FFE1CF37
:101E6000D9FFFE0EDB50030A1EE0010A14E0030A4C
:101E70000AE0010A1EE1FD0EDB50E8B0898EE8B0F1
:101E800018D0899E16D0FD0EDB50E8B0898CE8B0E2
:101E900010D0899C0ED0FD0EDB50E8B08A80E8B0EF
:101EA00008D08A9006D0FD0EDB50E8B08A88E8A002
:101EB0008A98E552E7CFD9FF1200D9CFE6FFE1CFEC
:101EC000D9FFE652DF6AFE0EDB50030A13E0010A77
:101ED0000DE0030A06E0010A12E18950800B08E0D8
:101EE00003D08950400B04E0010E02D08A50010B50
:101EF000DF6E05D08A50100B01E0010EDF6EDF505F
:101F0000E552E552E7CFD9FF1200D9CFE6FFE1CF86
:101F1000D9FFF29AFE0EDB50040DF3CFE9FFF4CFA8
:101F2000EAFF8F0EE926010EEA22EE6AEE6AEE6AF9
:101F3000EE6AF28AE552E7CFD9FF1200D9CFE6FF69
:101F4000E1CFD9FF040EE126F29AFE0EDB50040D1C
:101F5000F3CFE9FFF4CFEAFF8F0EE926010EEA2264
:101F6000EECFDFFF010EEECFDBFF020EEECFDBFF89
:101F7000030EEECFDBFFF28ADECF2EF0DECF2FF0A6
:101F8000DECF30F0DDCF31F0DD52DD52040EE15C0A
:101F900002E2E16AE552E16EE552E7CFD9FF1200B5
:101FA000B36AB26AB1801200D9CFE6FFE1CFD9FFA0
:101FB000020EE126B250DF6E010EB3CFDBFFDECFA3
:101FC00000F0DDCF01F000C0F3FF01C0F4FF020E0E
:101FD000E15C02E2E16AE552E16EE552E7CFD9FF4A
:101FE0001200E66AE66A39DFE552E552E66A010E5A
:101FF000E66E33DFE552E552E66A020EE66E2DDF4D
:10200000E552E552E66A030EE66E27DFE552E55239
:10201000050E01010D6F0E6B0101050E0D195EE13C
:102020000E515CE1320ED8800F55010E105503E2BF
:10203000010EE66E01D0E66AE66A0FDFE552E55270
:102040000101320ED8801155010E125503E2010E26
:10205000E66E02D0E66A010EE66EFFDEE552E5525C
:102060000101FF0ED8801355010E145503E2010E35
:10207000E66E01D0E66A020EE66EEFDEE552E5524C
:102080000101FF0ED8801555010E165503E2010E11
:10209000E66E01D0E66A030EE66EDFDEE552E5523B
:1020A0000101FF0ED8801755010E18550AE2010EE6
:1020B000E66E020EE66ED1DEE552E552010EE66EE8
:1020C00007D0E66A020EE66EC8DEE552E552E66A21
:1020D000030EE66EC2DEE552E5529ED71200E66AB6
:1020E000E66ABBDEE552E552E66A010EE66EB5DE53
:1020F000E552E552E66A020EE66EAFDEE552E552C3
:10210000E66A030EE66EA9DEE552E552010EE66EC2
:10211000E66AA3DEE552E552320EE66EE66AE66E48
:10212000E66A69EC0BF0E552E552E552E552E80E3D
:10213000E66E030EE66E3FEC0BF0E552E552E66A02
:10214000E66A8BDEE552E552000EE66EE66AE66E62
:10215000E66A69EC0BF0E552E552E552E552C80E2D
:10216000E66EE66A3FEC0BF0E552E552010EE66ED4
:10217000E66E73DEE552E552CE0EE66EE668E66E7A
:10218000E66869EC0BF0E552E552E552E552E80EDF
:10219000E66E030EE66E3FEC0BF0E552E552E66AA2
:1021A000010EE66E5ADEE552E552000EE66EE66A74
:1021B000E66EE66A69EC0BF0E552E552E552E5524F
:1021C000C80EE66EE66A3FEC0BF0E552E552010EF2
:1021D000E66E020EE66E41DEE552E552320EE66E26
:1021E000E66ACE0EE66EE66869EC0BF0E552E55263
:1021F000E552E552E80EE66E030EE66E3FEC0BF09C
:10220000E552E552E66A020EE66E27DEE552E55239
:10221000000EE66EE66AE66EE66A69EC0BF0E552E1
:10222000E552E552E552C80EE66EE66A3FEC0BF069
:10223000E552E552010EE66E030EE66E0EDEE55245
:10224000E552CE0EE66EE668320EE66EE66A69ECA0
:102250000BF0E552E552E552E552E80EE66E030E4C
:10226000E66E3FEC0BF0E552E552E66A030EE66ED1
:10227000F4DDE552E552000EE66EE66AE66EE66AC9
:1022800069EC0BF0E552E552E552E552320EE66E8E
:10229000E66A000EE66EE66A69EC0BF0E552E5527E
:1022A000E552E552E80EE66E030EE66E3FEC0BF0EB
:1022B000E552E552000EE66EE66A320EE66EE66A1A
:1022C00069EC0BF0E552E552E552E552E80EE66E98
:1022D000030EE66E3FEC0BF0E552E552000EE66EA3
:1022E000E66AE66EE66A69EC0BF0E552E552E55205
:1022F000E5521200BBEC1BF0000902E0C1EC1BF040
:102300000101080E0D1901E080D00E5101E07DD0D1
:10231000010EE66EE66AA1DDE552E552320EE66E8A
:10232000E66AE66EE66A69EC0BF0E552E552E552C4
:10233000E552D00EE66E070EE66E3FEC0BF0E5526E
:10234000E552640EE66EE66AE66EE66A69EC0BF04C
:10235000E552E552E552E552E80EE66E030EE66EF2
:102360003FEC0BF0E552E552010EE66E030EE66E11
:1023700074DDE552E552000EE66EE66AE66EE66A48
:1023800069EC0BF0E552E552E552E552F40EE66ECB
:10239000010EE66E3FEC0BF0E552E552CE0EE66E16
:1023A000E668E66EE66869EC0BF0E552E552E55248
:1023B000E552D00EE66E070EE66E3FEC0BF0E552EE
:1023C000E5529C0EE66EE668E66EE66869EC0BF098
:1023D000E552E552E552E552E80EE66E030EE66E72
:1023E0003FEC0BF0E552E552E66A030EE66E35DD92
:1023F000E552E552000EE66EE66AE66EE66A69ECC4
:102400000BF0E552E552E552E552070E01010D6F62
:102410000E6B70D7D9CFE6FFE1CFD9FFFD0EDBCF32
:10242000CEF1FE0EDBCFCFF10101D06BD16B6F0E81
:10243000CE5F000ECF5BD05BD15B700E336E170E9C
:10244000346E356A366ACEC12EF0CFC12FF0D0C1BE
:1024500030F0D1C131F0B7EC36F02AC0CEF12BC04C
:10246000CFF12CC0D0F12DC0D1F18A0E336E0C0EFD
:10247000346E356A366A2AC02EF02BC02FF02CC07D
:1024800030F02DC031F0F4EC2DF02EC0CEF12FC085
:10249000CFF130C0D0F131C0D1F1640E0101CE5F77
:1024A000000ECF5BD05BD15BD880D151FF0A08E62C
:1024B000F60ECE5DFF0ECF59FF0ED059FF0ED1594B
:1024C0000BE20F01190E2A6FFC0E2B6F2C692D6980
:1024D00007C1D2F108C1D3F10101D251075D006EED
:1024E0000851D355016EE80E005C030E015801E25D
:1024F000B0D007C1D2F108C1D3F1190E0F012A19CA
:1025000011E1FC0E2B190EE1E8682C190BE1E868CB
:102510002D1908E1CEC12AFFCFC12BFFD0C12CFF5E
:10252000D1C12DFF2A0EE96E0F0EEA6E030EEB509D
:102530000101D119E8AE02D0D13508D0CE51EE5C00
:10254000CF51EE58D051EE58D151EE582DE22A0E0F
:10255000E96E0F0EEA6EEE50CE5D006EEE50CF5972
:10256000016EEE50D059026EEE50D159036EE83430
:10257000000E031809E6D880010E0054000E015425
:10258000000E0254000E03543DE22ACFCEF12BCFB1
:10259000CFF12CCFD0F12DCFD1F1020ECE27000EEE
:1025A000CF23D023D1232ED0CE0EE96E010EEA6EBA
:1025B000EE500F012A5D006EEE502B59016EEE5069
:1025C0002C59026EEE502D59036EE834000E03189C
:1025D00009E6D880010E0054000E0154000E02548A
:1025E000000E03540FE22ACFCEF12BCFCFF12CCF28
:1025F000D0F12DCFD1F1020E0101CE5F000ECF5BE5
:10260000D05BD15B0101CE510F012A270101CF51CF
:102610000F012B230101D0510F012C230101D151B6
:102620000F012D23020E336E346A356A366A2ACFC3
:102630002EF02BCF2FF02CCF30F02DCF31F0F4EC4B
:102640002DF02EC02AFF2FC02BFF30C02CFF31C031
:102650002DFF2ACFF3FF2BCFF4FFE552E7CFD9FFB1
:02266000120066
:0E266200D9CFE6FFE1CFD9FF1A0EE126320EE6
:10267000DE6EDD6AF36E020EF3CFDBFF030EDB6A64
:10268000320EF36E040EF3CFDBFF050EDB6A040E91
:10269000F36E060EF3CFDBFF070EDB6A080EDB6A74
:1026A000090EDB6A0101FF0E195D010E1A5920E2C5
:1026B0000FC100F010C101F0120E0102F3CF01F0C2
:1026C0000002F3CF00F0F4500126110E356E366A89
:1026D000F3CF30F001C031F0C8EC37F030C000F07B
:1026E00031C001F0080E30C0DBFF090E31C0DBFF46
:1026F0000FC102F010C103F0120E0302F3CF03F07A
:102700000202F3CF02F0F4500326110E356E366A42
:10271000F3CF30F003C031F0C8EC37F030C002F036
:1027200031C003F0080EDB50305C006E090EDB5048
:102730003158016E680E0026010E012200C030F0F3
:1027400001C031F06DEC2CF0120E2FC0DBFF130E28
:1027500030C0DBFF140E31C0DBFF150E32C0DBFFD3
:10276000120EDBCF2FF0130EDBCF30F0140EDBCFC9
:1027700031F0150EDBCF32F073EC2EF02EC047F1A6
:102780002FC048F130C049F131C04AF1680E336EB4
:10279000010E346E356A366A47C12EF048C12FF0FB
:1027A00049C130F04AC131F0F4EC2DF02AC047F1B4
:1027B0002BC048F12CC049F12DC04AF147C12EF081
:1027C00048C12FF049C130F04AC131F084EC2CF0FF
:1027D000120E2FC0DBFF130E30C0DBFF140E31C012
:1027E000DBFF150E32C0DBFF0FC100F010C101F09E
:1027F000120E0102F3CF01F00002F3CF00F0F4500B
:102800000126110E356E366AF3CF30F001C031F07B
:10281000C8EC37F0900ED8803054010E315412E2DB
:102820000A0EDB6A0B0EDB6A0C0EDB6A0D0EDB6A2E
:102830000E0EDB6A0F0EDB6A100EDB6A110EDB6A0E
:10284000CAEF18F0120EDBCF00F0130EDBCF01F051
:10285000140EDBCF02F0150EDBCF03F0060EDBCF3C
:1028600030F0070EDBCF31F06FEC2CF02FC004F00E
:1028700030C005F031C006F032C007F02FC034F090
:1028800030C035F031C036F032C037F000C02FF024
:1028900001C030F002C031F003C032F0B3EC2EF0D2
:1028A000010A39E0120EDBCF08F0130EDBCF09F07E
:1028B000140EDBCF0AF0150EDBCF0BF0060EDBCFCC
:1028C00010F0070EDBCF11F0680ED8801056010E05
:1028D000115610C030F011C031F06FEC2CF02FC049
:1028E0000CF030C00DF031C00EF032C00FF02FC030
:1028F00034F030C035F031C036F032C037F008C0A7
:102900002FF009C030F00AC031F00BC032F0AAEC51
:102910002EF0010A1EE1000EDFCF30F0010EDBCFFA
:1029200031F06FEC2CF00A0E2FC0DBFF0B0E30C025
:10293000DBFF0C0E31C0DBFF0D0E32C0DBFF000EE3
:10294000DFCF30F0010EDBCF31F06FEC2CF0BEEFBB
:1029500018F00101990ED8801155010E125501E3AE
:10296000F5D2120EDBCF00F0130EDBCF01F0140E08
:10297000DBCF02F0150EDBCF03F0346A356A340E7C
:10298000366E430E376E00C02FF001C030F002C02B
:1029900031F003C032F0AAEC2EF0010A01E07BD145
:1029A000186A196A340E1A6E420E1B6E120EDBCFB5
:1029B0001CF0130EDBCF1DF0140EDBCF1EF0150E36
:1029C000DBCF1FF01CC034F01DC035F01EC036F048
:1029D0001FC037F018C02FF019C030F01AC031F006
:1029E0001BC032F09EEC2CF02FC014F030C015F05C
:1029F00031C016F032C017F0346A356AB40E366E44
:102A0000430E376E9EEC2CF02FC010F030C011F04A
:102A100031C012F032C013F0040EDBCF30F0050EDF
:102A2000DBCF31F06FEC2CF02FC020F030C021F064
:102A300031C022F032C023F02FC034F030C035F066
:102A400031C036F032C037F010C02FF011C030F076
:102A500012C031F013C032F09DEC2CF02FC00CF0FE
:102A600030C00DF031C00EF032C00FF0560E346E93
:102A70000E0E356E490E366E400E376E87EC2DF019
:102A80002FC008F030C009F031C00AF032C00BF09E
:102A9000346A356A340E366E430E376E34EC2DF0E0
:102AA0002FC004F030C005F031C006F032C007F08E
:102AB0002FC0E6FF30C0E6FF31C0E6FF32C0E6FFC0
:102AC0007DEC37F0E552E552E552E5522EC000F0BC
:102AD0002FC001F030C002F031C003F0000EDFCF94
:102AE00030F0010EDBCF31F06FEC2CF02FC024F072
:102AF00030C025F031C026F032C027F02FC034F0AE
:102B000030C035F031C036F032C037F000C02FF0A1
:102B100001C030F002C031F003C032F087EC2DF07C
:102B20000A0E2FC0DBFF0B0E30C0DBFF0C0E31C0D6
:102B3000DBFF0D0E32C0DBFF186A196A340E1A6E05
:102B4000420E1B6E120EDBCF1CF0130EDBCF1DF0FE
:102B5000140EDBCF1EF0150EDBCF1FF01CC034F0BF
:102B60001DC035F01EC036F01FC037F018C02FF062
:102B700019C030F01AC031F01BC032F09EEC2CF0BE
:102B80002FC014F030C015F031C016F032C017F06D
:102B9000346A356AB40E366E430E376E9EEC2CF0F6
:102BA0002FC010F030C011F031C012F032C013F05D
:102BB000040EDBCF30F0050EDBCF31F06FEC2CF0E4
:102BC0002FC020F030C021F031C022F032C023F0FD
:102BD0002FC034F030C035F031C036F032C037F09D
:102BE00010C02FF011C030F012C031F013C032F01D
:102BF0009DEC2CF02FC00CF030C00DF031C00EF069
:102C000032C00FF0560E346E0E0E356E490E366E13
:102C1000400E376E87EC2DF02FC008F030C009F061
:102C200031C00AF032C00BF0346A356A340E366EA9
:102C3000430E376E34EC2DF02FC004F030C005F099
:102C400031C006F032C007F02FC0E6FF30C0E6FF0B
:102C500031C0E6FF32C0E6FF55EC37F0E552E552F1
:102C6000E552E5522EC000F02FC001F030C002F056
:102C700031C003F0000EDFCF30F0010EDBCF31F0BA
:102C80006FEC2CF02FC024F030C025F031C026F0BE
:102C900032C027F061D2146A156A340E166E420EE5
:102CA000176E120EDBCF18F0130EDBCF19F0140ED7
:102CB000DBCF1AF0150EDBCF1BF018C034F019C0B3
:102CC00035F01AC036F01BC037F014C02FF015C015
:102CD00030F016C031F017C032F09EEC2CF02FC04F
:102CE00010F030C011F031C012F032C013F0040EF9
:102CF000DBCF30F0050EDBCF31F06FEC2CF02FC0C6
:102D00001CF030C01DF031C01EF032C01FF02FC0CB
:102D100034F030C035F031C036F032C037F010C07A
:102D20002FF011C030F012C031F013C032F09EEC21
:102D30002CF02FC00CF030C00DF031C00EF032C0BE
:102D40000FF0560E346E0E0E356E490E366E400E76
:102D5000376E87EC2DF02FC008F030C009F031C07D
:102D60000AF032C00BF0346A356A340E366E430E08
:102D7000376E34EC2DF02FC004F030C005F031C0B8
:102D800006F032C007F02FC0E6FF30C0E6FF31C0CA
:102D9000E6FF32C0E6FF7DEC37F0E552E552E55242
:102DA000E5522EC000F02FC001F030C002F031C05B
:102DB00003F0000EDFCF30F0010EDBCF31F06FEC0F
:102DC0002CF02FC020F030C021F031C022F032C0F2
:102DD00023F02FC034F030C035F031C036F032C0AF
:102DE00037F000C02FF001C030F002C031F003C056
:102DF00032F087EC2DF00A0E2FC0DBFF0B0E30C037
:102E0000DBFF0C0E31C0DBFF0D0E32C0DBFF146A9E
:102E1000156A340E166E420E176E120EDBCF18F0C6
:102E2000130EDBCF19F0140EDBCF1AF0150EDBCF2B
:102E30001BF018C034F019C035F01AC036F01BC0B2
:102E400037F014C02FF015C030F016C031F017C0A5
:102E500032F09EEC2CF02FC010F030C011F031C0D9
:102E600012F032C013F0040EDBCF30F0050EDBCFD2
:102E700031F06FEC2CF02FC01CF030C01DF031C0D1
:102E80001EF032C01FF02FC034F030C035F031C01A
:102E900036F032C037F010C02FF011C030F012C041
:102EA00031F013C032F09EEC2CF02FC00CF030C08B
:102EB0000DF031C00EF032C00FF0560E346E0E0E13
:102EC000356E490E366E400E376E87EC2DF02FC0F2
:102ED00008F030C009F031C00AF032C00BF0346A9B
:102EE000356A340E366E430E376E34EC2DF02FC03B
:102EF00004F030C005F031C006F032C007F02FC03A
:102F0000E6FF30C0E6FF31C0E6FF32C0E6FF55EC19
:102F100037F0E552E552E552E5522EC000F02FC0E1
:102F200001F030C002F031C003F0000EDFCF30F00E
:102F3000010EDBCF31F06FEC2CF02FC020F030C051
:102F400021F031C022F032C023F006D1106A116A9C
:102F5000340E126E420E136E120EDBCF14F0130EEF
:102F6000DBCF15F0140EDBCF16F0150EDBCF17F00C
:102F700014C034F015C035F016C036F017C037F065
:102F800010C02FF011C030F012C031F013C032F079
:102F90009EEC2CF02FC00CF030C00DF031C00EF0C4
:102FA00032C00FF0560E346E0E0E356E490E366E70
:102FB000400E376E87EC2DF02FC008F030C009F0BE
:102FC00031C00AF032C00BF0346A356A340E366E06
:102FD000430E376E34EC2DF02FC004F030C005F0F6
:102FE00031C006F032C007F02FC0E6FF30C0E6FF68
:102FF00031C0E6FF32C0E6FF7DEC37F0E552E55226
:10300000E552E5522EC000F02FC001F030C002F0B2
:1030100031C003F0000EDFCF30F0010EDBCF31F016
:103020006FEC2CF02FC018F030C019F031C01AF03E
:1030300032C01BF02FC034F030C035F031C036F054
:1030400032C037F000C02FF001C030F002C031F0C4
:1030500003C032F087EC2DF00A0E2FC0DBFF0B0E01
:1030600030C0DBFF0C0E31C0DBFF0D0E32C0DBFFCA
:10307000106A116A340E126E420E136E120EDBCFFE
:1030800014F0130EDBCF15F0140EDBCF16F0150E77
:10309000DBCF17F014C034F015C035F016C036F091
:1030A00017C037F010C02FF011C030F012C031F04F
:1030B00013C032F09EEC2CF02FC00CF030C00DF09D
:1030C00031C00EF032C00FF0560E346E0E0E356E5B
:1030D000490E366E400E376E87EC2DF02FC008F08B
:1030E00030C009F031C00AF032C00BF0346A356AE2
:1030F000340E366E430E376E34EC2DF02FC004F0D4
:1031000030C005F031C006F032C007F02FC0E6FF36
:1031100030C0E6FF31C0E6FF32C0E6FF55EC37F0C5
:10312000E552E552E552E5522EC000F02FC001F005
:1031300030C002F031C003F0000EDFCF30F0010EDE
:10314000DBCF31F06FEC2CF02FC018F030C019F04D
:1031500031C01AF032C01BF02FC034F030C035F04F
:1031600031C036F032C037F000C02FF001C030F06F
:1031700002C031F003C032F087EC2DF00E0E2FC0EC
:10318000DBFF0F0E30C0DBFF100E31C0DBFF110E76
:1031900032C0DBFF13C100F014C101F0120E0102B6
:1031A000F3CF01F00002F3CF00F0F4500126110E2E
:1031B000356E366AF3CF30F001C031F0C8EC37F02D
:1031C00030C000F031C001F06DEC2CF0160E2FC0B5
:1031D000DBFF170E30C0DBFF180E31C0DBFF190E0E
:1031E00032C0DBFF160EDBCF00F0170EDBCF01F095
:1031F000180EDBCF02F0190EDBCF03F0346A356A0C
:10320000340E366E430E376E00C02FF001C030F022
:1032100002C031F003C032F0B3EC2EF0010A1DE120
:10322000160EDBCF04F0170EDBCF05F0180EDBCF48
:1032300006F0190EDBCF07F0020EDBCF30F0030EE5
:10324000DBCF31F06FEC2CF02FC008F030C009F06C
:1032500031C00AF032C00BF034D0160EDBCF08F0CC
:10326000170EDBCF09F0180EDBCF0AF0190EDBCFFB
:103270000BF0346A356AB40E366E430E376E08C0F2
:103280002FF009C030F00AC031F00BC032F09DECD5
:103290002CF02FC004F030C005F031C006F032C071
:1032A00007F0020EDBCF30F0030EDBCF31F06FEC16
:1032B0002CF02FC00CF030C00DF031C00EF032C039
:1032C0000FF02FC034F030C035F031C036F032C0CE
:1032D00037F004C02FF005C030F006C031F007C051
:1032E00032F087EC2DF02FC000F030C001F031C07B
:1032F00002F032C003F0346A356A340E366E430E83
:10330000376E34EC2DF073EC2EF02EC03FF12FC051
:1033100040F130C041F131C042F10A0EDBCF04F080
:103320000B0EDBCF05F00C0EDBCF06F00D0EDBCF66
:1033300007F0346A356A800E366EBF0E376E04C0F1
:103340002FF005C030F006C031F007C032F087EC36
:103350002DF02FC000F030C001F031C002F032C0BB
:1033600003F03FC12EF040C12FF041C130F042C107
:1033700031F084EC2CF02FC008F030C009F031C0DF
:103380000AF032C00BF02FC034F030C035F031C03D
:1033900036F032C037F000C02FF001C030F002C06C
:1033A00031F003C032F09EEC2CF073EC2EF02EC006
:1033B00027F12FC028F130C029F131C02AF10E0EBB
:1033C000DBCF00F00F0EDBCF01F0100EDBCF02F0F1
:1033D000110EDBCF03F03FC12EF040C12FF041C1F1
:1033E00030F042C131F084EC2CF02FC004F030C03A
:1033F00005F031C006F032C007F02FC034F030C005
:1034000035F031C036F032C037F000C02FF001C0C7
:1034100030F002C031F003C032F09EEC2CF073ECBF
:103420002EF02EC02BF12FC02CF130C02DF131C069
:103430002EF10E0EDBCF04F00F0EDBCF05F0100ED9
:10344000DBCF06F0110EDBCF07F0346A356A800E51
:10345000366EBF0E376E04C02FF005C030F006C0C8
:1034600031F007C032F087EC2DF02FC000F030C0F3
:1034700001F031C002F032C003F03FC12EF040C174
:103480002FF041C130F042C131F084EC2CF02FC05C
:1034900008F030C009F031C00AF032C00BF02FC084
:1034A00034F030C035F031C036F032C037F000C0F3
:1034B0002FF001C030F002C031F003C032F09EECBA
:1034C0002CF073EC2EF02EC02FF12FC030F130C055
:1034D00031F131C032F10A0EDBCF00F00B0EDBCF41
:1034E00001F00C0EDBCF02F00D0EDBCF03F03FC17D
:1034F0002EF040C12FF041C130F042C131F084ECD8
:103500002CF02FC004F030C005F031C006F032C0FE
:1035100007F02FC034F030C035F031C036F032C083
:1035200037F000C02FF001C030F002C031F003C00E
:1035300032F09EEC2CF073EC2EF02EC033F12FC045
:1035400034F130C035F131C036F10101800E2A1559
:1035500012E027C100F028C101F029C102F02AC100
:1035600003F0000E006C011E0122021E0222031E47
:103570000322008E08D027C100F028C101F029C124
:1035800002F02AC103F000C0B8F0800E2E1512E040
:103590002BC100F02CC101F02DC102F02EC103F0AF
:1035A000000E006C011E0122021E0222031E0322D5
:1035B000008E08D02BC100F02CC101F02DC102F00B
:1035C0002EC103F000C0B9F0800E321512E02FC1F9
:1035D00000F030C101F031C102F032C103F0000E41
:1035E000006C011E0122021E0222031E0322008E15
:1035F00008D02FC100F030C101F031C102F032C15A
:1036000003F000C0BAF0800E361512E033C100F0AE
:1036100034C101F035C102F036C103F0000E006C78
:10362000011E0122021E0222031E0322008E08D068
:1036300033C100F034C101F035C102F036C103F0EE
:0C36400000C0BBF094EC29F052EF13F036
:04364C009D9A9E9A0B
:10365000040EAC6E800EAB6EB886B06A440EAF6ED0
:10366000240EAC6E900EAB6E0101F76B200EF75D71
:1036700009E2F751EA6AD40FE96E010EEA22EF6A15
:10368000F72BF4D7F86BF8C1F7F1FA6B9F9A9E9A73
:103690009D8A1200D9CFE6FFE1CFD9FFACA2FED7B9
:1036A000FE0EDB50AD6EE552E7CFD9FF1200D9CF49
:1036B000E6FFE1CFD9FFFD0EDBCFE9FFFE0EDBCF4A
:1036C000EAFFEF500EE0FD0EDBCFE9FFDB2AFE0E36
:1036D000DBCFEAFF01E3DB2AEF50E66EDBDFE552EA
:1036E000EAD7E552E7CFD9FF1200D9CFE6FFE1CF05
:1036F000D9FFFC0EDBCFF6FFFD0EDBCFF7FFFE0E92
:10370000DBCFF8FF0800F55016E0D950FC0FE96E4A
:10371000FF0EDA20EA6EEFCFF6FFEE2AEFCFF7FFCB
:10372000000EEE22EFCFF8FFEE220800F550E66E15
:10373000B1DFE552DED7E552E7CFD9FF1200D9CF8E
:10374000E6FFE1CFD9FFE6520101F851EA6AD40F52
:10375000E96E010EEA22EFCFDFFF200E006EF82B9C
:10376000F851D880005401E3F86BDF50E552E55280
:10377000E7CFD9FF12000101F751F85D01E1000C1C
:10378000010CD9CFE6FFE1CFD9FF1A0EE126190EC1
:10379000DB6A0101F56BF66B0101640ED880F5550B
:1037A000000EF6552DE3E7DF0009F6E0C8DFE76E0F
:1037B000180EE7CFDBFFDBCF00F0200EE76E00181E
:1037C000E8AE02D0E73402D0E750005C19E3170EF0
:1037D000006E190EDB50005C13E3D9CF00F0DACF96
:1037E00001F0190EDBCFF3FFDB2AF3500F01D924D0
:1037F000E96E000EDA20EA6E180EDBCFEFFFC9D7B4
:10380000D9CF00F0DACF01F0190EDB500F01D92427
:10381000E96E000EDA20EA6EEF6A190EDB5009E05D
:10382000E66AD9CFE6FFDACFE6FF0DD8E552E552DA
:10383000E5521A0EE15C02E2E16AE552E16EE55200
:10384000E7CFD9FF1200D9CFE6FFE1CFD9FF060EAF
:10385000E126FD0EDBCFE9FFFE0EDBCFEAFFEF50E6
:10386000520A01E17FD1040A01E17AD1140A01E18F
:1038700068D10F0A01E116D1020A01E1E4D0030A7E
:1038800001E1B2D0050A6CE03A0A69E0200A01E0E1
:103890006BD1640E0101CC6FCD6B010EE76EFD0E96
:1038A000DBCFE9FFFE0EDBCFEAFFE750E926000E93
:1038B000EA22EF50340A36E0050A1CE0010A01E072
:1038C00049D0030EE76EFD0EDBCFE9FFFE0EDBCF26
:1038D000EAFFE750E926000EEA22EF50310805E141
:1038E00055D90101AA81899E04D00101AA91010143
:1038F000AB6B30D0030EE76EFD0EDBCFE9FFFE0EA3
:10390000DBCFEAFFE750E926000EEA22EF5031084C
:1039100002E1010E01D0000E0101E8B0AA83E8A087
:10392000AA9318D0030EE76EFD0EDBCFE9FFFE0E63
:10393000DBCFEAFFE750E926000EEA22EF5031081C
:1039400002E1010E01D0000E0101E8B0AA89E8A051
:10395000AA9900D0010E01010D6F0E6B0DD10CD193
:10396000010EE76EFD0EDBCFE9FFFE0EDBCFEAFFB7
:10397000E750E926000EEA22EF50440822E1030E48
:10398000E76EFD0EDBCFE9FFFE0EDBCFEAFFE7506F
:10399000E926000EEA22EFCF00F0300E005C11E3C2
:1039A000390E016E030EE76EFD0EDBCFE9FFFE0E52
:1039B000DBCFEAFFE750E926000EEA22EF50015C78
:1039C00001E2DAD0030EE76EFD0EDBCFE9FFFE0E5B
:1039D000DBCFEAFFE750E926000EEA22EF50D00FD6
:1039E0000101AB6FD3D8C8D0010EE76EFD0EDBCF5F
:1039F000E9FFFE0EDBCFEAFFE750E926000EEA22E0
:103A0000EF50D00FDF6E030EE76EFD0EDBCFE9FF48
:103A1000FE0EDBCFEAFFE750E926000EEA22EF5068
:103A2000D00FE76E010EE7CFDBFF0101AB510AE1DA
:103A3000010EDBCFE6FFDFCFE6FF2DEC0FF0E55206
:103A4000E55200D099D0010EE76EFD0EDBCFE9FF05
:103A5000FE0EDBCFEAFFE750E926000EEA22EF5028
:103A6000D00FDF6E030EE76EFD0EDBCFE9FFFE0E1B
:103A7000DBCFEAFFE750E926000EEA22EF50D00F35
:103A8000E76E010EE7CFDBFF0101AB510AE1010E4A
:103A9000DBCFE6FFDFCFE6FF79EC0EF0E552E55233
:103AA00000D06AD0030EE66E020EE76EFD0EDBCF8D
:103AB00000F0FE0EDBCF01F0E7500026000E0122E1
:103AC00000C0E6FF01C0E6FF9CDBE552E552E5528F
:103AD000020EF3CFDBFF030EF4CFDBFF030EE66E27
:103AE000060EE76EFD0EDBCF00F0FE0EDBCF01F021
:103AF000E7500026000E012200C0E6FF01C0E6FFED
:103B000080DBE552E552E552040EF3CFDBFF050EF4
:103B1000F4CFDBFF0101AB5113E1040EDBCFE6FF75
:103B2000050EDBCFE6FF020EDBCFE6FF030EDBCF99
:103B3000E6FF69EC0BF0E552E552E552E55200D0A4
:103B40001BD0070E01010D6F0E6BFD0EDBCFE6FFE4
:103B5000FE0EDBCFE6FFDCEC33F0E552E5520CD095
:103B60006BD80AD0FF0008D0FC0EDB5004E1150E24
:103B7000E66E90DDE55200D0060EE15C02E2E16AFD
:103B8000E552E16EE552E7CFD9FF1200D9CFE6FF4B
:103B9000E1CFD9FFE652550E006E6D0E016E026A3E
:103BA00000C0E6FFE66E02C0E6FF9FDDE552E5528B
:103BB000E5520101AB5111E1DF6A0A0EDF5C0DE253
:103BC000DF50EA6AA00FE96E010EEA22EF50300FD3
:103BD000E66E60DDE552DF2AF0D74C0E006E6D0E0A
:103BE000016E026A00C0E6FFE66E02C0E6FF7DDD00
:103BF000E552E552E552420E006E6D0E016E026A0C
:103C000000C0E6FFE66E02C0E6FF6FDDE552E5525A
:103C1000E5523F0E006E6D0E016E026A00C0E6FFB7
:103C2000E66E02C0E6FF61DDE552E552E552E5527F
:103C3000E552E7CFD9FF1200D9CFE6FFE1CFD9FF98
:103C4000200EE1260DEC33F03A0E006E6D0E016E83
:103C5000026A00C0E6FFE66E02C0E6FF46DDE552FE
:103C6000E552E552200EE66E15DDE552310E006E8E
:103C70006D0E016E026A00C0E6FFE66E02C0E6FF4E
:103C800034DDE552E552E5524ACFE6FF4BCFE6FF81
:103C900048CFE6FF49CFE6FF46CFE6FF47CFE6FF36
:103CA0001C0E006E6D0E016E026A00C0E6FFE66E2D
:103CB00002C0E6FFD9CFE6FFDACFE6FF97EC35F09A
:103CC000036E0B0EE15E0350D9CFE6FFDACFE6FFBD
:103CD000EEDCE552E552200EE15C02E2E16AE552DB
:103CE000E16EE552E7CFD9FF1200D9CFE6FFE1CF71
:103CF000D9FF160EE1260101AB5101E07DD0020E85
:103D0000DB6A0A0EF36E020EDBCFF4FFF350F45CB5
:103D100062E2020EDB50EA6AA00FE96E010EEA22AF
:103D2000EF500AE0020EDB50EA6AA00FE96E010EC6
:103D3000EA22EF5002080FE1020EDBCFE6FFE5ECCE
:103D40000EF0E552000903E1006A016A33D0006811
:103D5000030E016E2FD0020EDB50EA6AA00FE96E4F
:103D6000010EEA22EF50060817E1020EEA6ADB3480
:103D7000FE0BEA36E96E0F0EE926010EEA22EECFBF
:103D8000E6FFEFCFE6FF0AEC12F0E552E552F3CF83
:103D900000F0F4CF01F00ED0020EEA6ADB34FE0B25
:103DA000EA36E96E0F0EE926010EEA22EECF00F0A8
:103DB000EFCF01F0020EEA6ADB34FE0BEA36E96E61
:103DC000AC0EE926010EEA2200C0EEFF01C0EDFFB5
:103DD000020EDB2A96D7E66A5DEC0FF0E552E76E3D
:103DE000140EE7CFDBFF010EE66E5DEC0FF0E5523F
:103DF000E76E150EE7CFDBFF020EDB6A0A0EF36EED
:103E0000020EDBCFF4FFF350F45C34E2020EEA6AF8
:103E1000DB34FE0BEA36E96EAC0EE926010EEA222F
:103E2000EECFE6FFEFCFE6FF020EDB28E66EE66A96
:103E3000110E006E6D0E016E026A00C0E6FFE66EA6
:103E400002C0E6FFD950030FE66E000EDA20E66EE0
:103E500097EC35F0036E090EE15E0350D950030F65
:103E6000E66E000EDA20E66E22DCE552E552020E26
:103E7000DB2AC4D7020EDB6AD950030F006E020E94
:103E8000DBCFF3FFDB2AF3500F010024E96E000EB5
:103E9000DA20EA6E4C0EEF6ED950030F006E020E60
:103EA000DBCFF3FFDB2AF3500024E96E000EDA20AB
:103EB000EA6E450EEF6ED950030F006E020EDBCF97
:103EC000F3FFDB2AF3500024E96E000EDA20EA6EDD
:103ED000440EEF6ED950030F006E020EDBCFF3FFDE
:103EE000DB2AF3500024E96E000EDA20EA6E3D0E64
:103EF000EF6E140EDB50300FE66ED950030F006EDC
:103F0000020EDBCFF3FFDB2AF3500024E96E000E34
:103F1000DA20EA6EE552E750EF6E150EDB50300FF7
:103F2000E66ED950030F006E020EDBCFF3FFDB2AE3
:103F3000F3500024E96E000EDA20EA6EE552E750F5
:103F4000EF6ED950030F006EDACF01F0020EDB5096
:103F50000024E96E000EDA20EA6EEF6AD950030FF2
:103F6000E66E000EDA20E66E57EC1BF0E552E552E5
:103F70003F0E006E6D0E016E026A00C0E6FFE66E37
:103F800002C0E6FF75EC1BF0E552E552E552160E55
:103F9000E15C02E2E16AE552E16EE552E7CFD9FF6A
:103FA0001200D9CFE6FFE1CFD9FF090EE126D4EC0C
:103FB00029F0006A0001F451005C01E318D10B0EF6
:103FC000006E6D0E016E026A00C0E6FFE66E02C072
:103FD000E6FF75EC1BF0E552E552E552DF6A0001A1
:103FE000F451DF5C01E3F4D0DF50090DF3CFE9FFBA
:103FF000F4CFEAFFBE0EE926000EEA22EF50E66E8D
:10400000E66A050E006E6D0E016E026A00C0E6FFE4
:10401000E66E02C0E6FFD950010FE66E000EDA2010
:10402000E66E97EC35F0036E070EE15E0350D95053
:10403000010FE66E000EDA20E66E57EC1BF0E5523B
:10404000E552DF50090DF3CFE9FFF4CFEAFFBE0ED2
:10405000E926000EEA22EE52EECFE6FFEFCFE6FFB2
:10406000FF0E006E6C0E016E026A00C0E6FFE66E87
:1040700002C0E6FFD950010FE66E000EDA20E66EB0
:1040800097EC35F0036E070EE15E0350D950010F37
:10409000E66E000EDA20E66E57EC1BF0E552E552B4
:1040A000DF50090DF3CFE9FFF4CFEAFFBE0EE9269A
:1040B000000EEA22030EE926000EEA22EECFE6FF0A
:1040C000EFCFE6FFFF0E006E6C0E016E026A00C0BD
:1040D000E6FFE66E02C0E6FFD950010FE66E000E65
:1040E000DA20E66E97EC35F0036E070EE15E0350C2
:1040F000D950010FE66E000EDA20E66E57EC1BF089
:10410000E552E552DF50090DF3CFE9FFF4CFEAFFA6
:10411000BE0EE926000EEA22050EE926000EEA226E
:10412000EECFE6FFEFCFE6FFFF0E006E6C0E016EE6
:10413000026A00C0E6FFE66E02C0E6FFD950010F3A
:10414000E66E000EDA20E66E97EC35F0036E070E91
:10415000E15E0350D950010FE66E000EDA20E66EE4
:1041600057EC1BF0E552E552DF50090DF3CFE9FFA4
:10417000F4CFEAFFBE0EE926000EEA22070EE9267A
:10418000000EEA22EECFE6FFEFCFE6FFFF0E006E55
:104190006C0E016E026A00C0E6FFE66E02C0E6FF2A
:1041A000D950010FE66E000EDA20E66E97EC35F07E
:1041B000036E070EE15E0350D950010FE66E000E4C
:1041C000DA20E66E57EC1BF0E552E552DF2A07D7FE
:1041D0003F0E006E6D0E016E026A00C0E6FFE66ED5
:1041E00002C0E6FF75EC1BF0E552E552E552090E00
:1041F000E15C02E2E16AE552E16EE552E7CFD9FF08
:104200001200D9CFE6FFE1CFD9FF060EE126010E5D
:10421000F36E040EF3CFDBFF050EDB6A020EDB6AE2
:10422000030EDB6ADF6AFC0EDB50DF5C43E2FD0E4F
:10423000DBCFE9FFDB2AFE0EDBCFEAFF01E3DB2A5F
:10424000010EEFCFDBFFDB5035E0010EDB502D0818
:1042500005E1040EDB68050EDB682AD0300EF36E34
:10426000010EDBCFF4FFF350F45C22E3390E006E55
:10427000010EDB50005C1CE3D950020FE96EDACF6F
:10428000EAFF0A0EEC02F3CFEDFFEF02F3CFEEFFF1
:10429000F450ED26010EDB50D00F006E016AD950AC
:1042A000020FE96EDACFEAFF0050EE260150ED2250
:1042B000DF2AB9D7040EDBCF00F0050EDBCF01F00B
:1042C000D950020FE96EDACFEAFF00C035F001C025
:1042D00036F0EECF30F0EDCF31F055EC2EF02EC0B1
:1042E000EEFF2FC0EDFF020EDBCF00F0030EDBCFA1
:1042F00001F000C0F3FF01C0F4FF060EE15C02E232
:10430000E16AE552E16EE552E7CFD9FF1200D9CF5D
:10431000E6FFE1CFD9FF060EE126DE6ADE6ADE6A3D
:10432000DD6ADD52DD52040EDB6AFC0EDB50F36EFB
:10433000040EDBCFF4FFF350F45C57E2FD0EDBCF4D
:10434000E9FFDB2AFE0EDBCFEAFF01E3DB2A050EE5
:10435000EFCFDBFF300EF36E050EDBCFF4FFF35033
:10436000F45C43E3390E006E050EDB50005C3DE368
:10437000300E006E050EDBCFE7FF0050E75E050E46
:10438000E7CFDBFFD9CFE9FFDACFEAFF0A0E336EC2
:10439000346A356A366AEECF2EF0EECF2FF0EECFCC
:1043A00030F0EFCF31F0B7EC36F02DC0EDFF2CC080
:1043B000EDFF2BC0EDFF2AC0EFFF050EDBCF00F0B5
:1043C000016A026A036A00AE03D0016802680368EA
:1043D0000050DE260150DE220250DE220350DD2294
:1043E000DD52DD52040EDB2AA0D7DECF2EF0DECF69
:1043F0002FF0DECF30F0DDCF31F0DD52DD52060E92
:10440000E15C02E2E16AE552E16EE552E7CFD9FFF5
:104410001200D9CFE6FFE1CFD9FF040EE126DE6A14
:10442000DD6A020EDB6AFC0EDB50F36E020EDBCFA0
:10443000F4FFF350F45C4FE2FD0EDBCFE9FFDB2A23
:10444000FE0EDBCFEAFF01E3DB2A030EEFCFDBFF3B
:10445000300E006E030EDB50D880005408E3030ECC
:10446000DB50390804E3030EDB50D00F1ED0410EA1
:10447000006E030EDB50D880005408E3030EDB50BF
:10448000460804E3030EDB50BF0F0ED0610E006E32
:10449000030EDB50D88000541EE3030EDB50660889
:1044A0001AE3030EDB509F0F0A0FE76E030EE7CFF0
:1044B000DBFFD9CFE9FFDACFEAFF040ED890EE3662
:1044C000ED36E806FBE1030EDB50DE26000EDD22B2
:1044D000020EDB2AA8D7DECF00F0DDCF01F000C04E
:1044E000F3FF01C0F4FF040EE15C02E2E16AE55271
:1044F000E16EE552E7CFD9FF1200D9CFE6FFE1CF59
:10450000D9FF300EF36EFE0EDBCFF4FFF350F45CF8
:1045100008E3390E006EFE0EDB50005C02E3000E75
:1045200001D0010E000902E0000E01D0010EE5529B
:10453000E7CFD9FF1200D9CFE6FFE1CFD9FF300E88
:10454000006EFE0EDB50D880005404E3FE0EDB50FC
:10455000390816E2410E006EFE0EDB50D880005482
:1045600004E3FE0EDB5046080BE2610E006EFE0E09
:10457000DB50D880005406E3FE0EDB50660802E3F1
:0E458000010E01D0000EE552E7CFD9FF120068
:02458E0003EC3C
:1045900028F0FB0EDBCFF3FFDB06F35000090AE047
:1045A00051EC28F0FA0EBCEC28F0F3E1011CF1E12B
:1045B000010E01D0000E32EF28F003EC28F03B0E84
:1045C000E12402E3E168E652E16E010EDB6A020ECD
:1045D000DB6AF90EDBCFF6FFFA0EDBCFF7FFFB0E3F
:1045E000DBCFF8FF0800F550DF6EDF5002E156EF39
:1045F00027F0250EDF5C02E049EF27F0030EDB6AAF
:10460000040EDB6A050EDB6A060EDB6A070EDB6A48
:104610006BEC27F02D0EDF5C0CE02B0EDF5C09E06D
:10462000200EDF5C06E0230EDF5C03E0300EDF5C73
:104630001AE1DF50300A14E0130A0FE0030A0AE01F
:104640000B0A05E0060AE4E1030EDB80E1D7030E66
:10465000DB82DED7030EDB84DBD7030EDB86D8D705
:10466000030EDB88D5D72A0EDF5C1BE167EC27F051
:10467000B5EC27F010E0030EDB8030683168130ED4
:10468000DBCF35F0140EDBCF36F028EC2EF0040E25
:104690002EC0DBFF03D0130E9EEC27F06BEC27F04F
:1046A0000BD0090EDB6A0CEC28F003E080EC28F05C
:1046B000FAD7090E9EEC27F0030EDBB0DB982E0E26
:1046C000DF5C1BE16BEC27F02A0EDF5C0BE167EC93
:1046D00027F0B5EC27F003E1130EF0EC27F06BECBC
:1046E00027F00BD0090EDB6A0CEC28F003E080EC1D
:1046F00028F0FAD7090EF0EC27F0680EDF5C07E12E
:104700006BEC27F0680EDF5C1DE1030E18D0740E11
:10471000DF5C17E07A0EDF5C14E0480EDF5C06E039
:10472000540EDF5C03E05A0EDF5C02E1020E07D09C
:104730006C0EDF5C03E06A0EDF5C04E1010E43EC0B
:1047400028F0C9DBDF506E0A01E17FD31E0A01E1C8
:1047500092D1200A01E18FD13F0A01E149D11A0A21
:1047600001E146D10D0A01E143D1200A01E140D126
:104770003A0A01E13DD1200A01E13AD1260A01E1DC
:1047800035D10D0A01E132D11A0A01E1D9D0200A4E
:104790004AE0300A1FE0460A0EE0250A01E083D312
:1047A000D950F90FE96EFF0EDA20EA6E010EEE5EC7
:1047B000000EEE5AEE5A51EC28F0250EE66E95DB0F
:1047C00003E1011C01E169D34DEC28F001E26BD358
:1047D000DB2A69D3080EDB6A040EDB50010806E20F
:1047E000040EDB0415EC28F0DB508BDB080EDB50ED
:1047F00009E0030EDB50010B05E172DB01E04DD354
:10480000080EDB6A64DBEFCFDFFFC5EC28F003E1C5
:10481000011C01E142D34DEC28F001E3DB2A60DB0F
:1048200001E141D33AD3070EDB5002080FE191ECCE
:1048300028F0030E58EC28F00E0EEECFDBFF0F0E23
:10484000EECFDBFF100EEECFDBFF20D0F70EDBCF7D
:1048500003F0F80EDBCF04F0020E035E000E045AE4
:10486000F70E03C0DBFFF80E04C0DBFF03C0E9FF57
:1048700004C0EAFF48EC28F0026A0E0E00C0DBFF1D
:104880000F0E01C0DBFF100E02C0DBFF0E0EDBCFF0
:10489000E6FF0F0EDBCFE6FF100EDBCFE6FFFDECF1
:1048A00036F0E552E552E552130E2FC0DBFF140E31
:1048B00030C0DBFF060EDB5005E0130E8CEC28F059
:1048C00001E26ADBB0EC28F002E2130E37DB73EC96
:1048D00028F006E0040E8CEC28F002E2050E2EDB38
:1048E000030EDBB005D0FCDA01E0D7D2080EDB6A9C
:1048F000090EDB6A0E0EDBCFF6FF0F0EDBCFF7FFE4
:10490000100EDBCFF8FF0800F550DF6EDF5014E02B
:10491000B6EC28F011E2C5EC28F003E1011C01E13E
:10492000BCD2BBDB01E3DB2A090EDB2AD9500E0F18
:10493000E96E000ECBDBE7D7D3DA01E1B4D2ADD21A
:10494000C6DA110EEECFDBFF120EEDCFDBFF110E3C
:10495000DBCFE6FF120EDBCFE6FFEFEC36F0E552E1
:10496000E552130EF3CFDBFF140EF4CFDBFF060E80
:10497000DB5004E0130ED0DB01E20EDBB0EC28F0DC
:1049800002E2130EDBDAAFDB05E0040EC5DB02E268
:10499000050ED4DA030EDBB005D0A2DA01E07DD239
:1049A000080EDB6A090EDB6A110EDBCFE9FF120E7F
:1049B000DBCFEAFFEFCFDFFFDF5014E0D7DB12E2FF
:1049C000E4DB03E1011C01E168D267DB01E3DB2AE0
:1049D000090EDB2A110EDB2ADBCFE9FF120EE8E31A
:1049E000DB2AE6D77DDA01E15ED257D2030EDB8EF9
:1049F000070EDB0410E195DB040E5ADB0A0EEECF46
:104A0000DBFF0B0EEECFDBFF0C0EEECFDBFF0D0E50
:104A1000EECFDBFF6CD0070EDB5003082CE1030E5A
:104A2000DBAE0DD0B2DA020E76DAEFCF00F0016A1B
:104A3000026A036A00AE39D00168026835D0F70E09
:104A4000DBCF01F0F80EDBCF02F0020E015E000EAC
:104A5000025AF70E01C0DBFFF80E02C0DBFF01C0F7
:104A6000E9FF02C0EAFFEFCF00F00A0E00C0DBFF53
:104A70000B0EDB6A38D0070EDB50020809E1030E8B
:104A8000DBAE04D059DB02AE10D00ED055DB0DD01A
:104A9000030EDBAE12D079DA020E3DDAF9DA026AE1
:104AA000036A01AE02D002680368E2DA0C0E02C0AB
:104AB000DBFF0D0E03C0DBFF1AD0F70EDBCF02F0D9
:104AC000F80EDBCF03F0020E025E000E035AF70E63
:104AD00002C0DBFFF80E03C0DBFF02C0E9FF03C02A
:104AE000EAFFD6DAC5DA0C0EDB6A0D0EDB6A060EBB
:104AF000DB5005E1010EF36E050EF3CFDBFF150E63
:104B0000DB6A160EDB6AD950370F006E000EDA2012
:104B1000016E390E00C0DBFF3A0E01C0DBFF380E1C
:104B2000DB6A080EDB6A0A0EAEDADF50780A12E0A2
:104B3000200A10E0280A0CE0200A0AE03F0A06E0FA
:104B40000D0A02E0200A08E1020E05D0080E03D08B
:104B5000080EDF26100E97DA030EDBBE02D0DB92C2
:104B6000DB94DB50800B24E08ADAD890030EEB5004
:104B7000000A08E6000EEE5C000EEE58000EEE583D
:104B8000000EEE5815E213DA33683468356836687B
:104B9000B7EC36F00A0E2AC0DBFF0B0E2BC0DBFF92
:104BA0000C0E2CC0DBFF0D0E2DC0DBFF2D0E08D030
:104BB000030EDBA202D02B0E03D0DBA408D0200E04
:104BC000F36E170EF3CFDBFF150EDB2A02D0170EA4
:104BD000DB6A050EDB5003E1B7D901E189D0660E2F
:104BE000006E700E016E000E026E070EDBCF03F03A
:104BF000046A056A066A03C033F004C034F005C0D5
:104C000035F006C036F0D3D9A4EC37F000502A2492
:104C1000F36E01502B20F46E02502C20F86EF4CF6E
:104C2000F7FFF3CFF6FF0800090EF5CFDBFF580EB4
:104C3000DF5C0FE1610EF36E090E7BD90AE3200EF3
:104C4000006E090EDBCFE7FF0050E75E090EE7CFED
:104C5000DBFF070EDBCF00F0016A026A036A0FDA9E
:104C600000C033F001C034F002C035F003C036F0AC
:104C7000EECF2EF0EECF2FF0EECF30F0EFCF31F0C1
:104C8000A4EC37F031C0EDFF30C0EDFF2FC0EDFFD9
:104C90002EC0EFFF390EDBCFE9FFDB063A0EDBCF8C
:104CA000EAFF01E2DB06090EDBCFEFFF150EDB2A80
:104CB0004BD995E1030EDBA61DD06F0EDF5C06E13C
:104CC000C1D918E3150EDB285BDA14D0780EDF5C4F
:104CD00009E0580EDF5C06E0620EDF5C03E0420E86
:104CE000DF5C08E1020EF36E160EF3CFDBFF02D09D
:104CF000150EDB6A030EDB50100B0EE0040EDBCF4B
:104D000000F0050EDB50D880005406E2060EDB50A2
:104D100003E1040EDB5034DA95D90AE2050EDBCF4D
:104D2000E7FF150EDB50E75E050EE7CFDBFF02D095
:104D3000050EDB6A040EDBCF00F0160E45D9D880D5
:104D4000005414E2160EDBCFE6FF150EDBCFE6FFB4
:104D5000040EDBCFE6FF050EDB50E552E75CE552C3
:104D6000D880E754E552D880E7545FD9030EDB5072
:104D7000010B0BE1080EDB5008E0B2D801E08DD04A
:104D8000080EDB50BED8080EDB6A170EDB5007E0BA
:104D900088D9170EF1D903E1011C01E17ED0160E6E
:104DA000DB5016E07ED9300EE66E9FD802E1011C82
:104DB00074E077D9DFCFE6FF3CEC36F0E552E55200
:104DC000E552F4CF01F00001F31C02E1011C65E0A3
:104DD000050EDBCF00F0160EDB50D880005409E240
:104DE000050EDBCFE7FF160EDB50E75E050EE7CFC3
:104DF000DBFF300EE66E050ECBD94FE1390EDB2A14
:104E0000DBCFE9FF3A0E01E3DB2ADBCFEAFF090E35
:104E1000EFCFDBFFDB500EE044D9090EADD902E144
:104E2000011C3BE0390EDB2ADBCFE9FF3A0EEDE354
:104E3000DB2AEBD755D831E1160EDBCFE6FF080EA3
:104E4000C3D8E552E7245DD82ED0070EDB50030A05
:104E50001CE0010A14E0030A07E07BD9DBCFEEFF78
:104E6000020EDBCFEDFF1FD0F5D8056A03AE02D0EE
:104E7000046805682CD8BCD805C0EEFF14D0EAD869
:104E800003BE046824D8B4D80ED063D9DBCFEFFFBB
:104E90000AD07BD905E1011C03E1F368F46810D066
:104EA000FCD801E3DB2A79D9F2EF22F0010EDBCF47
:104EB00000F0020EDBCF01F000C0F3FF01C0F4FFF1
:104EC0003B0EE15C02E2E16AE552E16ECBD029D90A
:104ED000020E58EF28F061D90800F550DF6E12007D
:104EE000200EE66E080EC8EF28F03CEC36F0E552D6
:104EF000E552E552F3CF00F0F4CF01F00001F31CCE
:104F00001200006E016AD950010F4DD90050EE26F3
:104F10000150ED221200045E000E055AF70E04C087
:104F2000DBFFF80E05C0DBFF04C0E9FF05C0EAFFA8
:104F30001200DBCFF4FFF350F45C1200DB50E76E9D
:104F4000040EE7CFDBFF12000A0EDBCF00F00B0EE2
:104F5000DBCF01F00C0EDBCF02F00D0EDBCF03F048
:104F600000500110021003101200130EEECFDBFFF1
:104F7000140EEDCFDBFF130EDBCF00F0140EDBCFF2
:104F800001F00001800E01141200F70EDBCF04F0D7
:104F9000F80EDBCF05F01200050EDB50E66ED9509F
:104FA000130F01D9E552E750EE6EED6A12000A0EBA
:104FB000DBCF2EF00B0EDBCF2FF00C0EDBCF30F063
:104FC0000D0EDBCF31F01200DBCFE6FF150EDBCF8D
:104FD000E6FF050EDB50E552E724E552E724120018
:104FE000DB50CED8010EF36E060EF3CFDBFF1200BE
:104FF000EE50EFCFEAFFE96E02C0EEFF03C0EEFF16
:1050000004C0EEFF1200D9CFE6FFDACFE6FFE1CF12
:10501000D9FFE2CFDAFF1200DFCFE6FFE66ADEEC6F
:1050200037F0E552E552F3501200E76E080EE7CF75
:10503000DBFF1200EECF00F0EECF01F0EFCF02F079
:10504000036A1200050EDBCF00F0150EDB50D8808E
:1050500000541200010EDBCF02F0020EDBCF03F092
:10506000046A1200E552E5CFDAFFE7CFD9FF12005C
:105070000A0E00C0DBFF0B0E01C0DBFF1200D9508F
:105080000A0FD3EF28F0F36E070EF3CFDBFF120009
:10509000EECF00F0EFCF01F01200010EDB2A020E7E
:1050A0001200FC0EDBCFE6FFFD0EDBCFE6FF1200A9
:1050B000005E000E015AF70E00C0DBFFF80E01C0C3
:1050C000DBFF00C0E9FF01C0EAFF1200DA20EA6E50
:1050D000EF2AEECFF6FF000EEF22EECFF7FFEF2222
:1050E000EECFF8FF1200040EDBCFE6FF130EDB500D
:1050F000E552E75C9ADFDB5004DF060EDB5012005E
:10510000090EDB500A0DF350DF24D00FE76E090EB5
:10511000E7CFDBFF6BEF27F0DB50F36E050E99EF67
:1051200027F0F70EDBCF00F0F80EDBCF01F0120016
:10513000DFCFE6FF75EF27F028DF030EECDE1AEF76
:1051400028F0C7EC22F0E552E552E552E55200099D
:105150001200BDDEEE50EFCFEAFFE96E010E120045
:10516000130EDB50F36E040E99EF27F0040EDB50A4
:10517000F36E090E99EF27F0DBCFE6FF75EF27F00E
:10518000E76E050EE7CFDBFF12008BDF98EF28F00C
:10519000DBCFE6FF86DFA1EF28F0D950F90FE96EEB
:1051A000FF0E66EF28F0E96E000EDA20EA6E1200BC
:1051B000C76A110EC86E280EC66E400EC56E948664
:1051C00094889F869E969D86A286A196A08606D8E4
:1051D000A00EE66E0EEC38F0E5521200D9CFE6FFD5
:1051E000E1CFD9FFE652C950DF6EC69AC69CC69E73
:1051F000C59CC59A0001846B82A80CD89E96A19686
:105200000001806B816B826BC68AE552E552E7CF65
:10521000D9FF1200D9CFE6FFE1CFD9FFE6528A8845
:10522000C69ADF6A090EDF5C0EE29496020EE66E05
:1052300028EC38F0E5529486020EE66E28EC38F041
:10524000E552DF2AEFD7E552E552E7CFD9FF12004A
:105250000001816B1F0EC51403E1C750040B07E06A
:105260000A0E006E8151005CF5E2D8EF28F01200C2
:10527000D9CFE6FFE1CFD9FFE652DF6A020E000187
:10528000815DFCE3E5DFFE0EDBCF83F0FD0EDBCFBF
:1052900085F00001816B010E806FC580805112E0A6
:1052A000020E006E8151005C03E2800E8011826F5D
:1052B0008251F4E0C5847CDFDF2A050EDF5CE9E380
:1052C000000E02D0816B010EE552E552E7CFD9FF07
:1052D0001200D9CFE6FFE1CFD9FF020E0001815DB8
:1052E000FCE3B6DFFE0EDB5001090001836FFD0E0B
:1052F000DBCF85F0816B0B0E806FC58080510EE097
:10530000020E006E8151005C03E2800E8011826FFC
:105310008251F4E0C5844CDF000E02D0816B010E97
:10532000E552E7CFD9FF1200D9CFE6FFE1CFD9FF91
:10533000E652DF6A060EDF5C13E2DF50EA6AB80F5E
:10534000E96E000EEA22EF50E66EDF50EA6A860F41
:10535000E96E000EEA22E552E750EF6EDF2AEAD747
:10536000060EE66E140EE66E83DFE552E552E55258
:10537000E552E7CFD9FF1200D9CFE6FFE1CFD9FF41
:10538000E652DF6A060EDF5C09E2DF50EA6AB80F18
:10539000E96E000EEA22EF6ADF2AF4D7C5DFE55294
:1053A000E552E7CFD9FF1200D9CFE6FFE1CFD9FF11
:1053B000E6520001EF510101075D006E0851000146
:1053C000F055016E140E005C000E015805E2006AF3
:1053D000F451005C27E31BD007C1EFF008C1F0F0E7
:1053E00037DF0001A80E836F816B150E806FF16BA4
:1053F000C58080510EE0020E006E8151005C03E218
:10540000800E8011826F8251F4E0C584D1DE000EDF
:105410000CD0816B07C1EFF008C1F0F0006AF451C5
:10542000005C02E2010E01D0000EE552E552E7CF2A
:10543000D9FF1200D9CFE6FFE1CFD9FF020EE12656
:10544000010EDB6AB1DFDF6A0001F451DF5C18E2B4
:10545000DF50090DF3CFE9FFF4CFEAFFBE0EE926D6
:10546000000EEA22EFCF00F0FE0EDB50005C06E1FA
:10547000DF28E76E010EE7CFDBFF02D0DF2AE4D79B
:10548000010EDB50006E020EE15C02E2E16AE552C1
:10549000E16E0050E552E7CFD9FF1200D9CFE6FF09
:1054A000E1CFD9FFE652FE0EDBCFE6FFC3DFE552C8
:1054B000DF6EDF5003E1F36AF46A1BD0DF06000100
:1054C000F451DF5C10E2DF50090DF3CFE9FFF4CFB8
:1054D000EAFFBE0EE926000EEA22EE52EECF00F001
:1054E000EFCF01F002D0006A016A00C0F3FF01C0F3
:1054F000F4FFE552E552E7CFD9FF1200D9CFE6FF1E
:10550000E1CFD9FFE652FE0EDBCFE6FF93DFE55297
:10551000DF6EDF5003E1F36AF46A1ED0DF0600019C
:10552000F451DF5C13E2DF50090DF3CFE9FFF4CF54
:10553000EAFFBE0EE926000EEA22030EE926000E5F
:10554000EA22EECF00F0EFCF01F002D0006A016A4C
:1055500000C0F3FF01C0F4FFE552E552E7CFD9FFE9
:105560001200D9CFE6FFE1CFD9FFE652FE0EDBCF26
:10557000E6FF60DFE552DF6EDF5003E1F36AF46AB5
:105580001ED0DF060001F451DF5C13E2DF50090D8D
:10559000F3CFE9FFF4CFEAFFBE0EE926000EEA22C0
:1055A000050EE926000EEA22EECF00F0EFCF01F063
:1055B00002D0006A016A00C0F3FF01C0F4FFE552A7
:1055C000E552E7CFD9FF1200D9CFE6FFE1CFD9FFEF
:1055D000E652FE0EDBCFE6FF2DDFE552DF6EDF5039
:1055E00003E1F36AF46A1ED0DF060001F451DF5CC8
:1055F00013E2DF50090DF3CFE9FFF4CFEAFFBE0E4F
:10560000E926000EEA22070EE926000EEA22EECF76
:1056100000F0EFCF01F002D0006A016A00C0F3FF92
:1056200001C0F4FFE552E552E7CFD9FF1200D9CF10
:10563000E6FFE1CFD9FF030EE126010EDB6A020E81
:10564000DB6AFE0EDBCFE6FFF5DEE552DF6EDF50F4
:1056500003E1F36AF46A43D0DF060001F451DF5C32
:1056600034E2DF50090DF3CFE9FFF4CFEAFFBE0EBD
:10567000E926000EEA22070EE926000EEA22EECF06
:1056800002F0EFCF03F0DF50090DF3CFE9FFF4CFC5
:10569000EAFFBE0EE926000EEA22050EE926000EFC
:1056A000EA22EECF00F0EFCF01F000C030F001C0F1
:1056B00031F002C035F003C036F055EC2EF0DE526A
:1056C0002EC0DEFF2FC0DDFFDD52010EDBCF00F06C
:1056D000020EDBCF01F000C0F3FF01C0F4FF030EA8
:1056E000E15C02E2E16AE552E16EE552E7CFD9FF03
:1056F0001200D9CFE6FFE1CFD9FF040EE126FE0E5E
:10570000DBCFE6FF97DEE552DF6EDF5002E1000EF1
:10571000D8D0DF060001F451DF5C01E3D1D0030EE5
:10572000DB6AF36EDBCFF4FFE850F45C01E3C8D032
:10573000020EDB6A030EF36E020EDBCFF4FFF350B2
:10574000F45C01E3BAD0020EDBCFE6FF030EDB50C0
:10575000040DF350E552E724E76E010EE7CFDBFFBF
:10576000FC0EDBCF02F0FD0EDBCF03F0010EEA6A88
:10577000DB34FE0BEA36E96E0A0EE9260F0EEA224A
:105780000250EE14006E0350EE14016E0050011032
:1057900001E190D0DF50090DF3CFE9FFF4CFEAFF2C
:1057A000BE0EE926000EEA22EE52EECF00F0EFCF59
:1057B00001F0020EEA6ADB34FE0BEA36E96E2E0EC9
:1057C000E9260F0EEA22EECF02F0EFCF03F00250EF
:1057D000005C035001586EE3020EEA6ADB34FE0BF4
:1057E000EA36E96E340EE9260F0EEA22EECF00F01B
:1057F000EFCF01F0DF50090DF3CFE9FFF4CFEAFF5F
:10580000BE0EE926000EEA22EE52EECF02F0EFCFF6
:1058100003F00250005C035001584CE3DF50090DC7
:10582000F3CFE9FFF4CFEAFFBE0EE926000EEA222D
:10583000030EE926000EEA22EECF00F0EFCF01F0D2
:10584000030EEA6ADB34FE0BEA36E96E3A0EE9260D
:105850000F0EEA22EECF02F0EFCF03F00250005C11
:105860000350015827E3030EEA6ADB34FE0BEA36E5
:10587000E96E400EE9260F0EEA22EECF00F0EFCFE0
:1058800001F0DF50090DF3CFE9FFF4CFEAFFBE0EC0
:10589000E926000EEA22030EE926000EEA22EECFE8
:1058A00002F0EFCF03F00250005C0350015802E316
:1058B000010E07D0020EDB2A3DD7030EDB2A31D7BB
:1058C000000E006E040EE15C02E2E16AE552E16E58
:0A58D0000050E552E7CFD9FF1200A7
:0658DA00299E08D0299E62
:1058E00031AE05D0306C311EE86A3122298E31C0CC
:1058F0002BF030C02AF03B6A3A6A8E0E2C6E2D6A6D
:105900002DEF2FF0299E0CD0299E31AE09D02E6CA0
:105910002F1E301E311EE86A2F2230223122298E9E
:1059200031C02BF030C02AF02FC03BF02EC03AF02F
:105930009E0E2C6E2D6A2DEF2FF0377E296A69ECB2
:105940002FF081EC2FF029B611EF2FF029A20AD009
:1059500029AA03D029BE11EF2FF029A41DEF2FF0A3
:105960001AEF2FF029AA05D029AC1DEF2FF01AEF5E
:105970002FF029A00AD029A808D029BE04D029A434
:1059800002D026EF2FF02AEF2FF03A6A2D6A375017
:10599000325C396E10E32FC03BF030C02AF031C0CA
:1059A0002BF032C038F034C02FF035C030F036C0A4
:1059B00031F0293A09D034C03BF035C02AF036C066
:1059C0002BF037C038F0396C299E29BC298E38C09D
:1059D0002CF029B059EF2FF01A0E396059EF2FF043
:1059E0002C6A326A29A408D02F6C301E311E321E58
:1059F000E86A30223122322229AC08D03B6C2A1EC0
:105A00002B1E2C1EE86A2A222B222C222E6A3952A7
:105A100007E03234313230322F322E32392EF9D77C
:105A20002F503B2630502A2231502B2232502C222C
:105A30002EC03AF0299E2CAE0BD03A6C3B1E2A1E8B
:105A40002B1E2C1EE86A3B222A222B222C22298E76
:105A50002CA006D0D8802B322A323B323A32382A58
:105A600038C02CF02DEF2FF0296A69EC2FF081EC73
:105A70002FF029B611EF2FF029A205D029BA11EF86
:105A80002FF018EF2FF029BA24EF2FF029A005D01E
:105A900029B811EF2FF024EF2FF029B818EF2FF0CD
:105AA0002D6A7F0E32242C6EE86A2D2237502C5E30
:105AB000E86A2D5A1A0E386E326A3A6A3B6A2A6AC6
:105AC0002B6A34502F5E3550305A3650315A000E02
:105AD000325A09E734502F263550302236503122C1
:105AE000000E322201D03A8AD8902F363036313625
:105AF0003236D8903A363B362A362B36382EE1D716
:105B0000315030102F10D8A43A8A2DEF2FF0296A87
:105B100069EC2FF081EC2FF029B611EF2FF029A2BC
:105B200005D029B811EF2FF018EF2FF029AA05D0D2
:105B300029B011EF2FF018EF2FF029B002D029A8CB
:105B400002D024EF2FF02D6A375032242C6EE86AF1
:105B50002D227E0E2C5EE86A2D5A3A6A3B6A2A6A2A
:105B60002B6A36503102F4CF2BF0F3CF2AF03550A8
:105B70003102F3503B26F4502A22000E2B223650DD
:105B80003002F3503B26F4502A22000E2B223450D0
:105B90003102F3503A26F4503B22000E2A222B22E7
:105BA00035503002F3503A26F4503B22000E2A22A0
:105BB0002B2236502F02F3503A26F4503B22000E8F
:105BC0002A222B2234503002F4503A26000E3B2277
:105BD0002A222B2235502F02F4503A26000E3B2267
:105BE0002A222B222DEF2FF0286AE86A36AE01EF29
:105BF0002EF0336C341E351E361E342235223622EA
:105C0000281E31AE0CEF2EF02E6C2F1E301E311ED2
:105C10002F2230223122281EA4EC37F031BE23EF90
:105C20002EF028AE000C2E6C2F1E301E311EE86A9E
:105C30002F22302231222A6C2B1E2C1E2D1E2B22AD
:105C40002C222D22000C28BE13EF2EF02988FF0CE9
:105C500031C03BF030C03AF030503502F4CF2FF075
:105C6000F3CF2EF031503602F4CF31F0F3CF30F0D5
:105C70003502F3502F26F4503022E86A31223A5090
:105C80003602F3502F26F4503022E86A312236AE25
:105C90004EEF2EF03A50305E3B50315A3BAE000C86
:105CA0003550305E3650315A000C30C03AF030502A
:105CB0003502F4CF2FF0F3CF2EF031503602F4CF6F
:105CC00031F0F3CF30F03502F3502F26F45030226C
:105CD000E86A31223A503602F3502F26F45030222F
:105CE000E86A3122000C296A69EC2FF029B67DEFB1
:105CF0002EF029A20FD029B407D07F0E316EFF0EEF
:105D0000306E2F6E2E6E25D0800E316E01D0316A2E
:105D1000000EF6D729B0FBD72E6A9F0E3260EBD764
:105D20007E0E3264F4D79E0E325C07E0D89031329A
:105D300030322F322E32322AF6D729A40AD02E6CD6
:105D40002F1E301E311EE86A2F223022312231AE42
:105D5000DED71200BCEC2EF029B6000C29B0000CE6
:105D600029B4000C010CBCEC2EF029B6000C29B0B3
:105D7000000C29A4000C010C296A69EC2FF081ECBD
:105D80002FF029B6120029AE08D029A004D029A8E6
:105D900002D029801200299012003750325C0BE1AA
:105DA0003650315C08E13550305C05E134502F5CF1
:105DB00002E129801200D8A002D0298E10D03250E2
:105DC00037C032F0376E315036C031F0366E305059
:105DD00035C030F0356E2F5034C02FF0346E375050
:105DE000325C10E0FF0F09E0299029B403D029AEFE
:105DF0002984120029AE29941200372AD89036320D
:105E00003532343234502F5E3550305A3650315A94
:105E100031BEEAD7D8902F3630363136322EF8D709
:105E2000C8D77F0E326EFF0E316E306E2F6E1200AD
:105E30007F0E29BEFF0E326E02D07F0E326E800EB4
:105E4000316E306A2F6AF3D729AE04D0800E326EDD
:105E5000316AF7D7326A316AF4D72B502A103B10D7
:105E60003A10F8E02DBEF0D72BBE0CD02C502D10E0
:105E7000EBE0D8903A363B362A362B362C06D8A0A3
:105E80002D06F2D72D50D4E12C28D2E03AAE11D015
:105E90007F0E3A1402E13BA00CD03B2AE86A2A228A
:105EA0002B2207E3D8802B322A323B322C2A2C2893
:105EB000BFE02C50C9E03BC02FF02AC030F02B349B
:105EC000316E2C30326E3132329E29BE328E17EF57
:105ED0002FF03136323602E32984297E06E129800B
:105EE000326A316A306A2F6A1200322803E0D880A1
:105EF00031321200D890313202E129821200298613
:105F000012003636373602E3298C297E06E12988CD
:105F1000376A366A356A346A1200372803E0D88057
:105F200036321200D8903632EAE1298A1200296A04
:105F300069EC2FF029B6A1EF2FF029A20ED029B4D9
:105F400005D07F0E316EFF0E306E1FD0800E316E89
:105F5000306A1BD0316A306A18D029B0FBD78F0E57
:105F60003260EDD77E0E3264F5D78E0E325C05E0DE
:105F7000D89031323032322AF8D729A406D0306C8A
:0C5F8000311EE86A312231AEE5D7120074
:045F8C00D9CFE6FF84
:105F9000DACFE6FFE1CFD9FFE2CFDAFF220EE1242C
:105FA00002E3E168E652E16ED950130FE66E000E8F
:105FB000DA20E66EA8DA09EC35F0006E060EE15C38
:105FC00002E2E16AE552E16E0050E76E0E0EE7CFA5
:105FD000DBFFDB50840B0CE0210E0101FB6FFC6B3F
:105FE0000F0EDB68100EDB68110EDB687F0E6ED0C3
:105FF0008ADA36DA020E2EC0DBFF030E2FC0DBFF7B
:10600000040E30C0DBFF050E31C0DBFF87DA346AD7
:10601000100E356E490E366E460E14DAB3EC2EF0C5
:10602000010A32E07BDA67DA0DDA34EC2DF0BFD901
:10603000060EDBCF2FF0070EDBCF30F0080EDBCFE4
:1060400031F0090EDBCF32F073EC2EF084EC2CF043
:10605000AED964DA060EDBCF08F0070EDBCF09F00D
:10606000080EDBCF0AF0090EDBCF0BF044DA376EF7
:1060700008C02FF009C030F00AC031F00BC032F078
:1060800048DA9DEC2CF0C4D9F90EDB5012E00E0E6C
:10609000DB040BE1FA0EDBCF00F0FB0EDBCF01F0EF
:1060A000FC0EDBCF02F0FD0E52D167D9366AF8D96B
:1060B00047D00E0EDB0419E10F0EDB6A100EDB6A0F
:1060C000800EF36E110EF3CFDBFF3F0EF36E120E58
:1060D000F3CFDBFF0F0EDBCF00F0100EDBCF01F0B4
:1060E000110EDBCF02F0120E32D1190EDB6A45D948
:1060F000800E366ED5D9006A016A026A3F0E036EC1
:10610000D950060FE96E000EDA20EA6EEECF2FF0BE
:10611000EECF30F0EECF31F0EFCF32F000C034F000
:1061200001C035F002C036F003C037F09DEC2CF012
:1061300032C0EDFF31C0EDFF30C0EDFF2FC0EFFFEB
:10614000DF50010B0AE0190EDB5002E0000E01D017
:10615000010EE76E190EE7CFDBFF8CD9060EDBCF01
:106160000CF0070EDBCF0DF0080EDBCF0EF0090EA2
:10617000DBCF0FF0346A356A490E366E400E376E4B
:106180000CC02FF00DC030F00EC031F00FC032F057
:1061900087EC2DF05CD9A6D995D99DEC2CF077D958
:1061A000060EDBCF14F0070EDBCF15F0080EDBCFA9
:1061B00016F0090EDBCF17F0220E346EAA0E356EE4
:1061C0007D0E366E3A0E376E14C02FF015C030F0CB
:1061D00016C031F017C032F087EC2DF02FC010F050
:1061E00030C011F031C012F032C013F0EDD89DEC88
:1061F0002CF00A0E2FC0DBFF0B0E30C0DBFF0C0EA5
:1062000031C0DBFF0D0E32C0DBFFD9500A0FE96E43
:10621000000EEAD825D92EC000F02FC001F030C002
:1062200002F031C003F0346A356A800E366E390EE2
:10623000376E2EC02FF04FD9B3EC2EF0010A13E1C8
:10624000D9500A0FE96E000EDA20EA6E020EEECF88
:10625000DBFF030EEECFDBFF040EEECFDBFF050E00
:10626000EECFDBFF68D0E1D80A0EDBCF34F00B0EA7
:10627000DBCF35F00C0EDBCF36F00D0EDBCF37F079
:1062800087EC2DF01A0E2FC0DBFF1B0E30C0DBFF9A
:106290001C0E31C0DBFF1D0E32C0DBFF5B0E2F6E0C
:1062A0009C0E306E2E0E316E360E326E72D8CFD8F6
:1062B000220E346EB20E356E4F0E366EB90E32D9D6
