:020000040000FA
:06080000B4EF3EF012000F
:020806001200DE
:060808001CEF04F01200D9
:060818006EEF07F0120074
:02081E000200D6
:10082000D57D00002E0F000018000000A77D0000FD
:08083000000F00002E00000083
:08083800DACFE4FFE2CFDAFFA2
:10084000E9CFE4FFEACFE4FFF6CFE4FFF7CFE4FF20
:10085000F5CFE4FFF3CFE4FFF4CFE4FFFACFE4FFFA
:1008600000EE1CF0140EE80403E3EECFE4FFFBD728
:1008700000EE00F01C0EE80403E3EECFE4FFFBD72C
:10088000E652F2A42AD1D59EFC0ED76E3F0ED66E4C
:10089000D58E0101072B000E082301018F2B000EBE
:1008A0009023912392230101932B000E94239523EF
:1008B00096230101972B000E982399239A23010177
:1008C0009B2B000E9C239D239E230101092B000ED0
:1008D0000A230101F52B000EF623320E0001815D83
:1008E00002E20001812B030E0101001901E1015117
:1008F00001E17FD0020E0101001901E101513CE04C
:10090000010E0101001901E1015107E0010100514F
:1009100001E1015101E0DBD0DFD08050100B100A63
:1009200001E0010E010808E10101026B036B010106
:10093000002B000E01231FD00101022B000E032308
:100940000101F40ED8800255010E035514E2010195
:10095000026B036B0101010E0D1901E10E5106E05E
:100960000101070E0D1901E10E5105E10101AA5126
:1009700001E0B2D0897EB0D080A805D00101000787
:10098000000E015B35D00101022B000E0323010193
:10099000320ED8800255000E03552AE2000EE66E94
:1009A000E66A000EE66EE66A69EC0BF0E552E55287
:1009B000E552E552899E899C8A908A98020E01012F
:1009C0000D1901E10E510BE001010D5101E10E5134
:1009D00001E00AD0898E0101096B0A6B05D0040E73
:1009E00001010D6F0E6B00D00101002B000E0123E1
:1009F00073D080A83FD0040E01010D1901E10E5102
:100A000033E0070E01010D1901E10E5128E0050E3A
:100A100001010D1901E10E511DE0030E01010D1937
:100A200001E10E5112E0010E01010D1901E10E511B
:100A300007E001010D5101E10E5101E016D015D082
:100A4000020E01010D6F0E6B10D0010E01010D6F32
:100A50000E6B0BD0060E01010D6F0E6B06D0080E4B
:100A600001010D6F0E6B01D0FF000101002B000E84
:100A700001232CD0050E01010D1901E10E5116E0E4
:100A800001010D5101E10E5101E020D00101D00E14
:100A9000D8800955070E0A5508E2899C050E010108
:100AA0000D6F0E6B0101026B036B10D00101022B65
:100AB000000E03230101640ED8800255000E035579
:100AC00004E20101026B036B897E00D005D0010EA8
:100AD0000101006F016B00D0F2949EA6D3D10001FA
:100AE000816B0001826B00018051190A01E1C3D1C1
:100AF000010A01E1BCD10F0A01E180D0010A01E144
:100B000074D0030A69E01A0A64E0010A5EE0030A8D
:100B100044E0010A39E0070A2EE0080A23E0010A4E
:100B20000AE0030A01E0AAD183C0C9FF0001846B77
:100B30000001802BA6D1C5AC03D080C082F011D0BB
:100B400000018451842BEA6A860FE96E000EEA22C6
:100B5000EF50C96E000185510001845D02E1000182
:100B6000802B8FD1C5AC03D080C082F003D0C58468
:100B70000001806B86D1010E00018311C96E000156
:100B8000846B0001802B7DD1C5AC03D080C082F086
:100B900003D0C5860001802B74D100018451842BC1
:100BA000EA6A860FE96E000EEA22C9CFEFFF000164
:100BB00085510001845D04E2C59A0001800703D0DD
:100BC000C58A0001802BC5885CD1C5840001802BBB
:100BD00058D10001806B55D1010E00018311C96EFF
:100BE0000001846B0001802B4CD1C5AC03D080C0C8
:100BF00082F003D0C5860001802B43D100018451CF
:100C0000842BEA6A860FE96E000EEA22C9CFEFFF55
:100C1000020E0001845D05E2C59AC58800018007C7
:100C200030D186C0EBF087C0ECF00001EB51EC1145
:100C300016E1C58AC5880001ED510101075D326EDC
:100C400008510001EE55336EC80ED8803254000EA4
:100C5000335402E20001F46B0001802B12D1000139
:100C6000846B0001F151090A01E1E4D0010A01E1BC
:100C7000D4D00F0A01E19FD0010A01E17ED0030A1E
:100C80005EE0010A41E0070A27E0010A1EE0030ACC
:100C90000FE0010A01E0E0D0550E0001EB1902E17E
:100CA000AA0EEC1904E10001F46B0001F12BD4D081
:100CB000550E0001EB1902E1AA0EEC1903E1000147
:100CC000F12B02D00001F107C7D0EBC0F2F0ECC06D
:100CD000F3F00001F12BC0D00001F451090DF3CF66
:100CE000E9FFF4CFEAFFBE0EE926000EEA22EBC0D0
:100CF000EFFF0001EB510001F25F0001EC51000138
:100D0000F35B0001F12BA8D00001F451090DF3CFE2
:100D1000E9FFF4CFEAFFBE0EE926000EEA22EE520A
:100D2000EBC0EEFFECC0EDFF0001EB510001F25F04
:100D30000001EC510001F35B0001F12B8DD00001AB
:100D4000F451090DF3CFE9FFF4CFEAFFBE0EE92617
:100D5000000EEA22030EE926000EEA22EBC0EEFFA7
:100D6000ECC0EDFF0001EB510001F25F0001EC511E
:100D70000001F35B0001F12B6FD00001F451090D6C
:100D8000F3CFE9FFF4CFEAFFBE0EE926000EEA2218
:100D9000050EE926000EEA22EBC0EEFFECC0EDFFE7
:100DA0000001EB510001F25F0001EC510001F35B27
:100DB0000001F12B51D00001F451090DF3CFE9FFEF
:100DC000F4CFEAFFBE0EE926000EEA22070EE9265E
:100DD000000EEA22EBC0EEFFECC0EDFF0001EB518C
:100DE0000001F25F0001EC510001F35B0001F251E0
:100DF000F31110E10001F42B040E0001F45D03E295
:100E00000001F12B02D00001802B07C1EDF008C1D9
:100E1000EEF002D00001802B1FD0550E0001EB191F
:100E200002E1AA0EEC1903E10001F12B02D000014E
:100E3000802B12D0550E0001EB1902E1AA0EEC191D
:100E400003E10001802B07D0EBC0F2F0ECC0F3F01F
:100E50000001030EF16F00D0180E0001805D04E266
:100E6000C59A0001800701D0C58AC5880AD0C5840B
:100E70000001802B06D00001806B03D00001806B45
:100E800000D09E96A1A606D0A196400E000180112A
:100E90000001826FE55200EE1BF01C0EE80403E334
:100EA000E5CFEDFFFBD700EE2FF0140EE80403E3CF
:100EB000E5CFEDFFFBD7E5CFFAFFE5CFF4FFE5CFB8
:100EC000F3FFE5CFF5FFE5CFF7FFE5CFF6FFE5CF81
:100ED000EAFFE5CFE9FFE5CFDAFF1100D8CFE4FF65
:100EE000E0CFE4FFE46EDACFE4FFE2CFDAFFE9CF50
:100EF000E4FFEACFE4FFE6529EAC2CD19E9CC4CF27
:100F000006F1C3CF05F101010451EA6AA00FE96EB1
:100F1000010EEA22EF50050801E09BD001010C35DB
:100F200004E20B510308000E0C5501E391D005C1FA
:100F300005F106C106F10101FF0ED8800557030E29
:100F40000657010E0101D89005370637E806FBE188
:100F50000101900E055D010E065905E20101900E9A
:100F6000056F010E066F900E0101055F010E010174
:100F7000065B0101FF0ED8800555030E065504E2FD
:100F800001010569030E066F01010451E96EEA6A69
:100F9000D890E936EA360F0EE926010EEA22EE5025
:100FA00001010527EE500101062305C130F006C1FD
:100FB00031F0010E0F0B05E0D89031323032E806E7
:100FC000FBE101010451E96EEA6AD890E936EA369C
:100FD0000F0EE926010EEA2230C0EEFF31C0EDFF10
:100FE00001010B6B0C6B01010451090A2EE0010A8F
:100FF00029E00F0A24E0010A1FE0030A1AE0010AAF
:1010000015E0070A10E0010A0BE0030A06E0010AF6
:1010100001E01ED0929089801BD09292898218D0D4
:101020009294898415D09296898612D0929A898A50
:101030000FD093948A840CD093968A8609D0939289
:101040008A8206D093988A8803D093908A8000D0B1
:101050002CD001010451E96EEA6AD890E936EA36EB
:101060000F0EE926010EEA22EE5001010527EE508F
:101070000101062305C130F006C131F0010E0F0B4E
:1010800005E0D89031323032E806FBE1010104512D
:10109000E96EEA6AD890E936EA360F0EE926010EC3
:1010A000EA2230C0EEFF31C0EDFF0A0E306E0101C2
:1010B000042B01010451D880305402E30101046B78
:1010C00001010451EA6AA00FE96E010EEA22EF5015
:1010D000050837E101010B2B000E0C2301010C3533
:1010E00004E20B510308000E0C552BE201010451E0
:1010F000090A25E0010A21E00F0A1DE0010A19E0B2
:10110000030A15E0010A11E0070A0DE0010A09E0EF
:10111000030A05E0010A01E014D0928012D0928205
:1011200010D092840ED092860CD0928A0AD09384EA
:1011300008D0938606D0938204D0938802D09380FF
:1011400000D001010451EA6A000FE96E0F0EEA2295
:10115000EF50C26E9EAA98D0ABA403D0AECFF9F1E7
:1011600093D0ABA203D0AB98AB888ED0AECFF9F1C1
:101170000101010E0D1901E10E5173E00101FA5157
:10118000080A66E00F0A5AE0010A4EE0030A42E04C
:10119000010A36E0070A2AE0010A1EE0030A12E00B
:1011A000010A01E05ED0520E0101F95D03E1010187
:1011B000010EFA6F560E0101F95D03E10101050E02
:1011C000FA6F4FD0650E0101F95D02E1020E01D008
:1011D000000E0101FA6F45D0730E0101F95D02E1C5
:1011E000030E01D0000E0101FA6F3BD0650E010124
:1011F000F95D02E1040E01D0000E0101FA6F31D059
:10120000740E0101F95D02E1070E01D0000E01012B
:10121000FA6F27D0650E0101F95D02E1060E01D0DB
:10122000000E0101FA6F1DD0720E0101F95D02E19D
:10123000070E01D0000E0101FA6F13D00D0E01014F
:10124000F95D02E1080E01D0000E0101FA6F09D02C
:101250000A0E0101F95D02E1FF0002D00101FA6B03
:1012600000D00101F751EA6AD40FE96E010EEA22BB
:10127000F9C1EFFF1F0E306E0101F72B0101F7518D
:10128000305C02E20101F76BE552E5CFEAFFE5CF02
:10129000E9FFE5CFDAFFE550E5CFE0FFE5CFD8FF86
:1012A0001000D9CFE6FFE1CFD9FF030EE126F00E03
:1012B000D36EC00E9B6E0101FA6B01010D6B0E6BBC
:1012C000006B016B026B036B010EDB6A020EDB6AC3
:1012D000010EDBCF00F0020EDBCF01F0D890015001
:1012E00004E61A0E005C000E01581AE2010EDBCF74
:1012F000E9FF020EDBCFEAFFD890E936EA36D89054
:10130000E936EA36270EE926010EEA22EE6AEE6A8F
:10131000EE6AEE6A010EDB2A020EDAE3DB2AD8D788
:10132000010EDB6A020EDB6A010EDBCF00F0020E5B
:10133000DBCF01F0D890015004E6040E005C000EF3
:1013400001581AE2010EDBCFE9FF020EDBCFEAFF04
:10135000D890E936EA36D890E936EA368F0EE92693
:10136000010EEA22EE6AEE6AEE6AEE6A010EDB2AEE
:10137000020EDAE3DB2AD8D7010EDB6A020EDB6A43
:10138000010EDBCF00F0020EDBCF01F0D890015050
:1013900004E60A0E005C000E015811E2010EDBCFDC
:1013A000E9FF020EDBCFEAFFA00EE926010EEA22DA
:1013B000010EEF6EDB2A020EE3E3DB2AE1D7010127
:1013C000236B246B256B266B046B0B6B0C6BAA6B6E
:1013D000AB6B096B0A6B076B086B896A3F0EDF6E9C
:1013E000DF50926E8A6A1F0EDF6E0F01121DDF162C
:1013F000E66A080EE66E79EC0EF0E552E552010160
:10140000A86B0F010A1DDF16E66A090EE66E79EC7D
:101410000EF0E552E5520101A96BDF50936E180EF4
:101420008B6E980E946E020ED56EFC0ED76E3F0E2C
:10143000D66ED58EF294F28AF184B00EB16EA2927D
:10144000A192A092B1809D92010ECA6ECC68CB6829
:10145000CA849F6F000E256F266B236F246BE66E88
:10146000E66AE66EE66A9FD8E552E552E552E55235
:101470009F9C9D8CBE0EC06E020EC16E0101045178
:10148000EA6A000FE96E0F0EEA22EF50C26EBEEC60
:1014900021F070EC2FF0D09CD08EF28EF28C2C0EBE
:1014A000006E7A0E016E026A00C0E6FFE66E02C0B0
:1014B000E6FF0DEC22F0E552E552E552B4EC24F0E3
:1014C00054EC30F0010E0101006F016B8050100BE5
:1014D000100A01E0010E0108F9E001010D510E11A1
:1014E00003E1010E0D6F0E6B898E030EE15C02E2CB
:1014F000E16AE552E16EE552E7CFD9FF1200D1DE95
:10150000F40EE66E010EE66EBAD8E552E552010120
:10151000096B0A6B53EC22F0000902E059EC22F04F
:10152000070E01010D1901E10E513AE0050E0D19EA
:1015300001E10E5130E0060E0D1901E10E512BE0D4
:10154000020E0D1901E10E511BE0030E0D1901E110
:101550000E5116E0010E0D19DDE10E51DBE1CC510B
:10156000095DCD510A59D6E3096B0A6BAAA102D0D5
:101570000DEC25F00101AAA9CDD769EC26F0CAD758
:1015800031EC13F0899E899C8A908A98010E0101A2
:101590000D6F0E6BBFD7F1EC0FF06FEC10F0BAD7F8
:1015A0007AEC11F0B7D7D9CFE6FFE1CFD9FF040E1F
:1015B000E126FD0EDBCF00F0FE0EDBCF01F0FF0ECB
:1015C000D8800054030E015407E2FD0EDB68030EC1
:1015D000F36EFE0EF3CFDBFFFB0EDBCF00F0FC0E55
:1015E000DBCF01F0FF0ED8800054030E015407E258
:1015F000FB0EDB68030EF36EFC0EF3CFDBFFFB0E7E
:10160000DBCF00F0FC0EDBCF01F0060ED8900036E9
:101610000136E804FBE100C0DEFF01C0DDFFFD0E86
:10162000DBCF00F0FE0EDBCF01F0060ED8900036C7
:101630000136E804FBE1020E00C0DBFF030E01C02F
:10164000DBFF010EDB50BE6E030EDB50BB6EDF50C6
:10165000E840E8403F0B300B0C09BD6E020EDB404A
:10166000E8403F0B300B0C09BA6E040EE15C02E25D
:10167000E16AE552E16EE552E7CFD9FF1200D9CF1A
:10168000E6FFE1CFD9FF020EE126F29A0101096BD4
:101690000A6BF28AF29A09C1DEFF0AC1DDFFF28A03
:1016A000DECF00F0DDCF01F0FD0EDBCF02F0FE0E4D
:1016B000DBCF03F00250005C03500158EBE3020E55
:1016C000E15C02E2E16AE552E16EE552E7CFD9FF63
:1016D0001200D9CFE6FFE1CFD9FF0A0EE12623C1E0
:1016E00000F024C101F0FD0EDB50001811E1FE0EE8
:1016F000DB5001180DE125C102F026C103F0FB0EFD
:10170000DB50021805E1FC0EDB50031801E1E7D2C3
:10171000000EE66EE66AE66EE66A45DFE552E552E1
:10172000E552E5528B9A8B908A9C8A9AA092A1925C
:10173000B190B368050EB26EB180080E46CFDBFFE4
:10174000FD0EDBCF00F0FE0EDBCF01F0013401E334
:1017500087D000500008000E015401E381D0010E33
:10176000F36E040EF3CFDBFF060EDB6A080E246E69
:10177000256AFD0EDBCF29F0FE0EDBCF2AF0C0EC90
:1017800034F022C0DEFF23C0DDFF0F01000ED88041
:101790004655000E475501E3F8D0DECF00F0DDCF0F
:1017A00001F001341EE200509008010E015419E2CC
:1017B000DECF02F0DDCF03F0900E025E010E035A81
:1017C00002C024F003C025F04ACF29F04BCF2AF005
:1017D00060EC3EF00F0146512424006E4751252055
:1017E00027D0DECF00F0DDCF01F0900ED88000567C
:1017F000010E01564651005C475101581CE2DECFF4
:1018000002F0DDCF03F0900ED8800256010E035691
:1018100002C024F003C025F04ACF29F04BCF2AF0B4
:1018200060EC3EF00F012450465D006E2550475994
:10183000080E00C0DBFF080EDB50006E016ADECF31
:1018400002F0DDCF03F001500318E8AE02D00334FC
:1018500004D00250005C0350015801E396D089D0B7
:10186000FD0EDBCF00F0FE0EDBCF01F00001800E9D
:10187000011401E18FD0040EDB6A010EF36E060E37
:10188000F3CFDBFFF80E246E2568FD0EDBCF29F0C9
:10189000FE0EDBCF2AF0C0EC34F022C0DEFF23C006
:1018A000DDFF0F01000ED8804655000E47556DE252
:1018B000DECF00F0DDCF01F001341EE200509008D1
:1018C000010E015419E2DECF02F0DDCF03F0900EDD
:1018D000025E010E035A02C024F003C025F04ACF75
:1018E00029F04BCF2AF060EC3EF00F014651242442
:1018F000006E4751252027D0DECF00F0DDCF01F06C
:10190000900ED8800056010E01564651005C47519A
:1019100001581CE2DECF02F0DDCF03F0900ED8803C
:101920000256010E035602C024F003C025F04ACF30
:1019300029F04BCF2AF060EC3EF00F012450465DB9
:10194000006E25504759080E00C0DBFF080EDB5023
:10195000006E016ADECF02F0DDCF03F00150031804
:10196000E8AE02D0033404D00250005C03500158AA
:101970000CE2080EDB50006E016AD9CFE9FFDACF26
:10198000EAFFE850EE5E0150ED5A640EDE26000ECE
:10199000DD220FD001019F510CE0010EF36E040E09
:1019A000F3CFDBFF010EF36E060EF3CFDBFFDE6A33
:1019B000DD6A090E48CFDBFFFB0EDBCF00F0FC0E2B
:1019C000DBCF01F0013401E393D000500008000E9A
:1019D000015401E38DD0010EF36E050EF3CFDBFF52
:1019E000070EDB6A080E246E256AFB0EDBCF29F09A
:1019F000FC0EDBCF2AF0C0EC34F0020E22C0DBFF7D
:101A0000030E23C0DBFF0F01000ED8804855000EE7
:101A1000495501E310D1020EDBCF00F0030EDBCFFE
:101A200001F0013420E200509008010E01541BE245
:101A3000020EDBCF02F0030EDBCF03F0900E025E4E
:101A4000010E035A02C024F003C025F04ACF29F04A
:101A50004BCF2AF060EC3EF00F0148512424006E79
:101A6000495125202BD0020EDBCF00F0030EDBCF37
:101A700001F0900ED8800056010E01564851005CCE
:101A8000495101581EE2020EDBCF02F0030EDBCFFC
:101A900003F0900ED8800256010E035602C024F0C7
:101AA00003C025F04ACF29F04BCF2AF060EC3EF07E
:101AB0000F012450485D006E25504959090E00C0A1
:101AC000DBFF090EDB50006E016A020EDBCF02F075
:101AD000030EDBCF03F001500318E8AE02D003344D
:101AE00004D00250005C0350015801E3A4D096D00A
:101AF000FB0EDBCF00F0FC0EDBCF01F00001800E0F
:101B0000011401E1A2D0050EDB6A010EF36E070E8F
:101B1000F3CFDBFFF80E246E2568FB0EDBCF29F038
:101B2000FC0EDBCF2AF0C0EC34F0020E22C0DBFF4B
:101B3000030E23C0DBFF0F01000ED8804855000EB6
:101B4000495501E378D0020EDBCF00F0030EDBCF66
:101B500001F0013420E200509008010E01541BE214
:101B6000020EDBCF02F0030EDBCF03F0900E025E1D
:101B7000010E035A02C024F003C025F04ACF29F019
:101B80004BCF2AF060EC3EF00F0148512424006E48
:101B9000495125202BD0020EDBCF00F0030EDBCF06
:101BA00001F0900ED8800056010E01564851005C9D
:101BB000495101581EE2020EDBCF02F0030EDBCFCB
:101BC00003F0900ED8800256010E035602C024F096
:101BD00003C025F04ACF29F04BCF2AF060EC3EF04D
:101BE0000F012450485D006E25504959090E00C070
:101BF000DBFF090EDB50006E016A020EDBCF02F044
:101C0000030EDBCF03F001500318E8AE02D003341B
:101C100004D00250005C035001580DE2090EDB5065
:101C2000006E016AD950020FE96EDACFEAFF005068
:101C3000EE5E0150ED5AD950020FE96EDACFEAFF9D
:101C4000640EEE26000EED2211D001019F510EE030
:101C5000010EF36E050EF3CFDBFF010EF36E070EE0
:101C6000F3CFDBFF020EDB6A030EDB6A0101010E1C
:101C70009F6FFD0EDBCF23F1FE0EDBCF24F1FB0EB9
:101C8000DBCF25F1FC0EDBCF26F1A1A2FED7A1927E
:101C9000020EDBCFE6FF030EDBCFE6FFDECFE6FF73
:101CA000DDCFE6FF80DCE552E552E552E552040E59
:101CB000DB50E8B08B8AE8A08B9A060EDB50E8B0C8
:101CC0008B80E8A08B90050EDB50E8B08A8CE8A0F2
:101CD0008A9C070EDB50E8B08A8AE8A08A9A0A0E2E
:101CE000E15C02E2E16AE552E16EE552E7CFD9FF3D
:101CF0001200D9CFE6FFE1CFD9FFFE0EDB50090A73
:101D00005AE0010A50E00F0A46E0010A3CE0030AEB
:101D100032E0010A28E0070A1EE0010A14E0030A83
:101D20000AE0010A4EE1FD0EDB50E8B08980E8B020
:101D300048D0899046D0FD0EDB50E8B08982E8B0EB
:101D400040D089923ED0FD0EDB50E8B08984E8B0E7
:101D500038D0899436D0FD0EDB50E8B08986E8B0E3
:101D600030D089962ED0FD0EDB50E8B0898AE8B0DD
:101D700028D0899A26D0FD0EDB50E8B08A84E8B0DE
:101D800020D08A941ED0FD0EDB50E8B08A86E8B0E1
:101D900018D08A9616D0FD0EDB50E8B08A82E8B0E3
:101DA00010D08A920ED0FD0EDB50E8B08A88E8B0E1
:101DB00008D08A9806D0FD0EDB50E8B08A80E8A0F3
:101DC0008A90E552E7CFD9FF1200D9CFE6FFE1CFE5
:101DD000D9FFE652DF6AFE0EDB50090A35E0010A40
:101DE0002EE00F0A28E0010A22E0030A1CE0010AA3
:101DF00016E0070A10E0010A0AE0030A04E0010AFB
:101E000026E1895022D08950020B20E01BD0895056
:101E1000040B1CE017D08950080B18E013D0895030
:101E2000200B14E00FD08A50040B10E00BD08A5026
:101E3000080B0CE007D08A50020B08E003D08A5050
:101E4000100B04E0010E02D08A50010BDF6EDF5050
:101E5000E552E552E7CFD9FF1200D9CFE6FFE1CF37
:101E6000D9FFFE0EDB50030A1EE0010A14E0030A4C
:101E70000AE0010A1EE1FD0EDB50E8B0898EE8B0F1
:101E800018D0899E16D0FD0EDB50E8B0898CE8B0E2
:101E900010D0899C0ED0FD0EDB50E8B08A80E8B0EF
:101EA00008D08A9006D0FD0EDB50E8B08A88E8A002
:101EB0008A98E552E7CFD9FF1200D9CFE6FFE1CFEC
:101EC000D9FFE652DF6AFE0EDB50030A13E0010A77
:101ED0000DE0030A06E0010A12E18950800B08E0D8
:101EE00003D08950400B04E0010E02D08A50010B50
:101EF000DF6E05D08A50100B01E0010EDF6EDF505F
:101F0000E552E552E7CFD9FF1200D9CFE6FFE1CF86
:101F1000D9FFF29AFE0EDB50040DF3CFE9FFF4CFA8
:101F2000EAFF8F0EE926010EEA22EE6AEE6AEE6AF9
:101F3000EE6AF28AE552E7CFD9FF1200D9CFE6FF69
:101F4000E1CFD9FF040EE126F29AFE0EDB50040D1C
:101F5000F3CFE9FFF4CFEAFF8F0EE926010EEA2264
:101F6000EECFDFFF010EEECFDBFF020EEECFDBFF89
:101F7000030EEECFDBFFF28ADECF22F0DECF23F0BE
:101F8000DECF24F0DDCF25F0DD52DD52040EE15C22
:101F900002E2E16AE552E16EE552E7CFD9FF1200B5
:101FA000B36AB26AB1801200D9CFE6FFE1CFD9FFA0
:101FB000020EE126B250DF6E010EB3CFDBFFDECFA3
:101FC00000F0DDCF01F000C0F3FF01C0F4FF020E0E
:101FD000E15C02E2E16AE552E16EE552E7CFD9FF4A
:101FE0001200E66AE66A39DFE552E552E66A010E5A
:101FF000E66E33DFE552E552E66A020EE66E2DDF4D
:10200000E552E552E66A030EE66E27DFE552E55239
:10201000050E01010D6F0E6B0101050E0D195EE13C
:102020000E515CE1320ED8800F55010E105503E2BF
:10203000010EE66E01D0E66AE66A0FDFE552E55270
:102040000101320ED8801155010E125503E2010E26
:10205000E66E02D0E66A010EE66EFFDEE552E5525C
:102060000101FF0ED8801355010E145503E2010E35
:10207000E66E01D0E66A020EE66EEFDEE552E5524C
:102080000101FF0ED8801555010E165503E2010E11
:10209000E66E01D0E66A030EE66EDFDEE552E5523B
:1020A0000101FF0ED8801755010E18550AE2010EE6
:1020B000E66E020EE66ED1DEE552E552010EE66EE8
:1020C00007D0E66A020EE66EC8DEE552E552E66A21
:1020D000030EE66EC2DEE552E5529ED71200E66AB6
:1020E000E66ABBDEE552E552E66A010EE66EB5DE53
:1020F000E552E552E66A020EE66EAFDEE552E552C3
:10210000E66A030EE66EA9DEE552E552010EE66EC2
:10211000E66AA3DEE552E552320EE66EE66AE66E48
:10212000E66A69EC0BF0E552E552E552E552E80E3D
:10213000E66E030EE66E3FEC0BF0E552E552E66A02
:10214000E66A8BDEE552E552000EE66EE66AE66E62
:10215000E66A69EC0BF0E552E552E552E552C80E2D
:10216000E66EE66A3FEC0BF0E552E552010EE66ED4
:10217000E66E73DEE552E552CE0EE66EE668E66E7A
:10218000E66869EC0BF0E552E552E552E552E80EDF
:10219000E66E030EE66E3FEC0BF0E552E552E66AA2
:1021A000010EE66E5ADEE552E552000EE66EE66A74
:1021B000E66EE66A69EC0BF0E552E552E552E5524F
:1021C000C80EE66EE66A3FEC0BF0E552E552010EF2
:1021D000E66E020EE66E41DEE552E552320EE66E26
:1021E000E66ACE0EE66EE66869EC0BF0E552E55263
:1021F000E552E552E80EE66E030EE66E3FEC0BF09C
:10220000E552E552E66A020EE66E27DEE552E55239
:10221000000EE66EE66AE66EE66A69EC0BF0E552E1
:10222000E552E552E552C80EE66EE66A3FEC0BF069
:10223000E552E552010EE66E030EE66E0EDEE55245
:10224000E552CE0EE66EE668320EE66EE66A69ECA0
:102250000BF0E552E552E552E552E80EE66E030E4C
:10226000E66E3FEC0BF0E552E552E66A030EE66ED1
:10227000F4DDE552E552000EE66EE66AE66EE66AC9
:1022800069EC0BF0E552E552E552E552320EE66E8E
:10229000E66A000EE66EE66A69EC0BF0E552E5527E
:1022A000E552E552E80EE66E030EE66E3FEC0BF0EB
:1022B000E552E552000EE66EE66A320EE66EE66A1A
:1022C00069EC0BF0E552E552E552E552E80EE66E98
:1022D000030EE66E3FEC0BF0E552E552000EE66EA3
:1022E000E66AE66EE66A69EC0BF0E552E552E55205
:1022F000E552120053EC22F0000902E059EC22F002
:102300000101080E0D1901E080D00E5101E07DD0D1
:10231000010EE66EE66AA1DDE552E552320EE66E8A
:10232000E66AE66EE66A69EC0BF0E552E552E552C4
:10233000E552D00EE66E070EE66E3FEC0BF0E5526E
:10234000E552640EE66EE66AE66EE66A69EC0BF04C
:10235000E552E552E552E552E80EE66E030EE66EF2
:102360003FEC0BF0E552E552010EE66E030EE66E11
:1023700074DDE552E552000EE66EE66AE66EE66A48
:1023800069EC0BF0E552E552E552E552F40EE66ECB
:10239000010EE66E3FEC0BF0E552E552CE0EE66E16
:1023A000E668E66EE66869EC0BF0E552E552E55248
:1023B000E552D00EE66E070EE66E3FEC0BF0E552EE
:1023C000E5529C0EE66EE668E66EE66869EC0BF098
:1023D000E552E552E552E552E80EE66E030EE66E72
:1023E0003FEC0BF0E552E552E66A030EE66E35DD92
:1023F000E552E552000EE66EE66AE66EE66A69ECC4
:102400000BF0E552E552E552E552070E01010D6F62
:102410000E6B70D7D9CFE6FFE1CFD9FFFD0EDBCF32
:10242000CEF1FE0EDBCFCFF10101D06BD16B6F0E81
:10243000CE5F000ECF5BD05BD15B700E276E170EA8
:10244000286E296A2A6ACEC122F0CFC123F0D0C1FA
:1024500024F0D1C125F04FEC3DF01EC0CEF11FC0DD
:10246000CFF120C0D0F121C0D1F18A0E276E0C0E21
:10247000286E296A2A6A1EC022F01FC023F020C0DD
:1024800024F021C025F08CEC34F022C0CEF123C022
:10249000CFF124C0D0F125C0D1F1640E0101CE5F8F
:1024A000000ECF5BD05BD15BD880D151FF0A08E62C
:1024B000F60ECE5DFF0ECF59FF0ED059FF0ED1594B
:1024C0000BE20F01190E2A6FFC0E2B6F2C692D6980
:1024D00007C1D2F108C1D3F10101D251075D006EED
:1024E0000851D355016EE80E005C030E015801E25D
:1024F000B0D007C1D2F108C1D3F1190E0F012A19CA
:1025000011E1FC0E2B190EE1E8682C190BE1E868CB
:102510002D1908E1CEC12AFFCFC12BFFD0C12CFF5E
:10252000D1C12DFF2A0EE96E0F0EEA6E030EEB509D
:102530000101D119E8AE02D0D13508D0CE51EE5C00
:10254000CF51EE58D051EE58D151EE582DE22A0E0F
:10255000E96E0F0EEA6EEE50CE5D006EEE50CF5972
:10256000016EEE50D059026EEE50D159036EE83430
:10257000000E031809E6D880010E0054000E015425
:10258000000E0254000E03543DE22ACFCEF12BCFB1
:10259000CFF12CCFD0F12DCFD1F1020ECE27000EEE
:1025A000CF23D023D1232ED0CE0EE96E010EEA6EBA
:1025B000EE500F012A5D006EEE502B59016EEE5069
:1025C0002C59026EEE502D59036EE834000E03189C
:1025D00009E6D880010E0054000E0154000E02548A
:1025E000000E03540FE22ACFCEF12BCFCFF12CCF28
:1025F000D0F12DCFD1F1020E0101CE5F000ECF5BE5
:10260000D05BD15B0101CE510F012A270101CF51CF
:102610000F012B230101D0510F012C230101D151B6
:102620000F012D23020E276E286A296A2A6A2ACFF3
:1026300022F02BCF23F02CCF24F02DCF25F08CECE3
:1026400034F022C02AFF23C02BFF24C02CFF25C05A
:102650002DFF2ACFF3FF2BCFF4FFE552E7CFD9FFB1
:02266000120066
:0E266200D9CFE6FFE1CFD9FF540EE126DE6AA4
:10267000DE6AA00EDE6E420EDD6EDD52DD52040E0D
:10268000DB6A050EDB6A200EF36E060EF3CFDBFF6E
:10269000410EF36E070EF3CFDBFF5C0EF36E080EF8
:1026A000F3CFDBFF8F0EF36E090EF3CFDBFF820E4D
:1026B000F36E0A0EF3CFDBFF3F0EF36E0B0EF3CF7C
:1026C000DBFF0C0EDB6A0D0EDB6A0E0EDB6A0F0EF3
:1026D000DB6A100EDB6A110EDB6A120EDB6A130E68
:1026E000DB6A140EDB6A150EDB6A700EF36E160ED3
:1026F000F3CFDBFFC10EF36E170EF3CFDBFF180E27
:10270000DB6A190EDB6A700EF36E1A0EF3CFDBFF75
:10271000420EF36E1B0EF3CFDBFF1C0EDB6A1D0EA9
:10272000DB6A480EF36E1E0EF3CFDBFF420EF36E34
:102730001F0EF3CFDBFF200EDB6A210EDB6A220EB9
:10274000DB6A230EDB6A240EDB6A250EDB6AA00E31
:10275000F36E260EF3CFDBFF410EF36E270EF3CFA1
:10276000DBFF280EDB6A290EDB6A200EF36E2A0ED1
:10277000F3CFDBFF410EF36E2B0EF3CFDBFF2C0EFE
:10278000DB6A2D0EDB6A800EF36E2E0EF3CFDBFFBD
:102790003F0EF36E2F0EF3CFDBFF300EDB6A310EF0
:1027A000DB6A320EDB6A330EDB6A340EDB6A350E0F
:1027B000DB6AC80EF36E360EF3CFDBFF430EF36E0B
:1027C000370EF3CFDBFF380EDB6A390EDB6A3A0EC9
:1027D000DB6A3B0EDB6AD950340FE96EDACFEAFFD1
:1027E0003C0EEECFDBFF3D0EEECFDBFF3E0EEECF1D
:1027F000DBFF3F0EEECFDBFF400EDB6A410EDB6AF4
:10280000420EDB6A430EDB6A440EDB6A450EDB6A6E
:10281000A00EF36E460EF3CFDBFF410EF36E470EB4
:10282000F3CFDBFF4C0EDB6A4D0EDB6A4E0EDB6A2C
:102830004F0EDB6A500EDB6A510EDB6A520EDB6A0A
:10284000530EDB6AE66A85EC0FF0E5528FC122F089
:1028500090C123F091C124F092C125F01AEC33F01D
:1028600023C000F024C001F025C002F026C003F010
:102870003C0EDBCF04F03D0EDBCF05F03E0EDBCF90
:1028800006F03F0EDBCF07F004C028F005C029F0AA
:1028900006C02AF007C02BF036EC33F0380E23C008
:1028A000DBFF390E24C0DBFF3A0E25C0DBFF3B0EF9
:1028B00026C0DBFF680E01011125046E010E1221F6
:1028C000056E04C024F0256E05EC33F023C000F043
:1028D00024C001F025C002F026C003F0140EDBCFA7
:1028E00006F0150EDBCF07F0160EDBCF08F0170E43
:1028F000DBCF09F006C028F007C029F008C02AF095
:1029000009C02BF036EC33F00BEC35F022C047F168
:1029100023C048F124C049F125C04AF1680E276E52
:10292000010E286E296A2A6A47C122F048C123F0A5
:1029300049C124F04AC125F08CEC34F01EC047F1A7
:102940001FC048F120C049F121C04AF147C122F01F
:1029500048C123F049C124F04AC125F01CEC33F0F2
:1029600023C000F024C001F025C002F026C003F00F
:10297000CD0E286ECC0E296E8C0E2A6E3F0E2B6E5D
:102980001FEC34F0100E23C0DBFF110E24C0DBFF60
:10299000120E25C0DBFF130E26C0DBFF680E0101FF
:1029A0001125046E010E1221056E2D0E0426000E57
:1029B000052204C024F005C025F005EC33F023C047
:1029C00000F024C001F025C002F026C003F0140E70
:1029D000DBCF06F0150EDBCF07F0160EDBCF08F0CD
:1029E000170EDBCF09F006C028F007C029F008C099
:1029F0002AF009C02BF036EC33F00BEC35F022C096
:102A000047F123C048F124C049F125C04AF1680EBE
:102A1000276E010E286E296A2A6A47C122F048C132
:102A200023F049C124F04AC125F08CEC34F01EC0DB
:102A300047F11FC048F120C049F121C04AF147C108
:102A400022F048C123F049C124F04AC125F01CEC12
:102A500033F023C008F024C009F025C00AF026C0D6
:102A60000BF0C30E286EF50E296E480E2A6E400E2E
:102A70002B6E1FEC34F023C004F024C005F025C0F9
:102A800006F026C007F0286A296A340E2A6E430E23
:102A90002B6ECCEC33F023C000F024C001F025C035
:102AA00002F026C003F0CD0E286ECC0E296E8C0EDF
:102AB0002A6E3F0E2B6E1FEC34F00C0E23C0DBFF92
:102AC0000D0E24C0DBFF0E0E25C0DBFF0F0E26C04F
:102AD000DBFF13C124F014C125F005EC33F023C053
:102AE00000F024C001F025C002F026C003F0CD0E96
:102AF000286ECC0E296E8C0E2A6E3F0E2B6E1FECAC
:102B000034F0300E23C0DBFF310E24C0DBFF320E69
:102B100025C0DBFF330E26C0DBFFB40E01011525F7
:102B20000101536F000E010116210101546F556B15
:102B3000566B680E276E010E286E296A2A6A53C1E9
:102B400022F054C123F055C124F056C125F08CEC7D
:102B500034F01EC053F11FC054F120C055F121C004
:102B600056F153C122F054C123F055C124F056C18F
:102B700025F01CEC33F023C008F024C009F025C078
:102B80000AF026C00BF0C30E286EF50E296E480E13
:102B90002A6E400E2B6E1FEC34F023C004F024C0CC
:102BA00005F025C006F026C007F0286A296A340E11
:102BB0002A6E430E2B6ECCEC33F023C000F024C001
:102BC00001F025C002F026C003F0CD0E286ECC0E19
:102BD000296E8C0E2A6E3F0E2B6E1FEC34F0400EC9
:102BE00023C0DBFF410E24C0DBFF420E25C0DBFF0C
:102BF000430E26C0DBFF6CEC30F0010EE66EE6EC17
:102C000030F0E552F3CF00F0F4CF01F0F3CF24F031
:102C1000F4CF25F005EC33F0480E23C0DBFF490E5E
:102C200024C0DBFF4A0E25C0DBFF4B0E26C0DBFFB6
:102C30000101900E155D010E165901E399D0E66A67
:102C4000E66A2DEC0FF0E552E552010EE66EE66EF7
:102C50002DEC0FF0E552E552320EE66EE66AE66EB6
:102C6000E66A69EC0BF0E552E552E552E552380EA2
:102C7000DBCF00F0390EDBCF01F03A0EDBCF02F0F4
:102C80003B0EDBCF03F0340EDBCF04F0350EDBCF91
:102C900005F0360EDBCF06F0370EDBCF07F004C0B1
:102CA00028F005C029F006C02AF007C02BF000C0AC
:102CB00023F001C024F002C025F003C026F042EC4E
:102CC00035F0010A14E13C0EDB6A3D0EDB6A3E0E74
:102CD000DB6A3F0EDB6A0001800EB86FB96FBA6F16
:102CE000BB6F2CEC30F0E66A85EC0FF0E552D95062
:102CF000400FE96EDACFEAFFEECFE6FFEECFE6FF58
:102D0000EECFE6FFEFCFE6FF15EC3EF0E552E552E1
:102D1000E552E55222C000F023C001F024C002F0C9
:102D200025C003F022C023F001C024F002C025F02A
:102D300003C026F0000EDFCF28F0010EDBCF29F014
:102D4000020EDBCF2AF0030EDBCF2BF01FEC34F0AA
:102D50004C0E23C0DBFF4D0E24C0DBFF4E0E25C002
:102D6000DBFF4F0E26C0DBFFD950400F52EF1BF0A8
:102D7000F40E0F5D010E105949E2100EDBCF00F08A
:102D8000110EDBCF01F0120EDBCF02F0130EDBCF02
:102D900003F0286A296AC80E2A6E430E2B6E00C003
:102DA00023F001C024F002C025F003C026F04BEC54
:102DB00035F0010A2BE1D950340FE96EDACFEAFF82
:102DC0003C0EEECFDBFF3D0EEECFDBFF3E0EEECF37
:102DD000DBFF3F0EEECFDBFFE66AE66A2DEC0FF07D
:102DE000E552E552E66A010EE66E2DEC0FF0E55273
:102DF000E552CE0EE66EE668E66EE66869EC0BF02C
:102E0000E552E552E552E55213EF1BF0100EDBCF11
:102E100000F0110EDBCF01F0120EDBCF02F0130E2B
:102E2000DBCF03F0040EDBCF23F0050EDBCF24F065
:102E3000060EDBCF25F0070EDBCF26F0080EDBCF2A
:102E400028F0090EDBCF29F00A0EDBCF2AF00B0E9B
:102E5000DBCF2BF01FEC34F023C004F024C005F0CE
:102E600025C006F026C007F023C028F024C029F0B2
:102E700025C02AF026C02BF000C023F001C024F0AA
:102E800002C025F003C026F04BEC35F0010A62E0E9
:102E9000100EDBCF08F0110EDBCF09F0120EDBCFE6
:102EA0000AF0130EDBCF0BF0106A116AB40E126E2B
:102EB000430E136E040EDBCF23F0050EDBCF24F0A0
:102EC000060EDBCF25F0070EDBCF26F0080EDBCF9A
:102ED00028F0090EDBCF29F00A0EDBCF2AF00B0E0B
:102EE000DBCF2BF01FEC34F023C014F024C015F01E
:102EF00025C016F026C017F023C028F024C029F002
:102F000025C02AF026C02BF010C023F011C024F0F9
:102F100012C025F013C026F035EC33F023C00CF0BE
:102F200024C00DF025C00EF026C00FF023C028F0FD
:102F300024C029F025C02AF026C02BF008C023F0B9
:102F400009C024F00AC025F00BC026F042EC35F091
:102F5000010A59E1D950340FE96EDACFEAFF3C0E8D
:102F6000EECFDBFF3D0EEECFDBFF3E0EEECFDBFF05
:102F70003F0EEECFDBFFE66AE66A2DEC0FF0E5527E
:102F8000E552E66A010EE66E2DEC0FF0E552E552D1
:102F9000CE0EE66EE668E66EE66869EC0BF0E5528A
:102FA000E552E552E552100EDBCF00F0110EDBCFFB
:102FB00001F0120EDBCF02F0130EDBCF03F0286A14
:102FC000296AC80E2A6E430E2B6E00C023F001C082
:102FD00024F002C025F003C026F042EC35F0010ACF
:102FE00001E021D34C0EDB6A4D0EDB6A4E0EDB6A2C
:102FF0004F0EDB6A500EDB6A510EDB6A520EDB6A43
:10300000530EDB6AABD3D950340FE96EDACFEAFF47
:103010003C0EEECFDBFF3D0EEECFDBFF3E0EEECFE4
:10302000DBFF3F0EEECFDBFF010EE66EE66A2DEC16
:103030000FF0E552E552E66A010EE66E2DEC0FF058
:10304000E552E552CE0EE66EE668E66EE66869EC9D
:103050000BF0E552E552E552E552100EDBCF00F0E1
:10306000110EDBCF01F0120EDBCF02F0130EDBCF1F
:1030700003F0040EDBCF04F0050EDBCF05F0060EE7
:10308000DBCF06F0070EDBCF07F004C028F005C049
:1030900029F006C02AF007C02BF000C023F001C0C1
:1030A00024F002C025F003C026F042EC35F0010AFE
:1030B00001E034D3100EDBCF08F0110EDBCF09F0A6
:1030C000120EDBCF0AF0130EDBCF0BF0106A116A81
:1030D000B40E126E430E136E040EDBCF14F0050E09
:1030E000DBCF15F0060EDBCF16F0070EDBCF17F0A7
:1030F00014C028F015C029F016C02AF017C02BF014
:1031000010C023F011C024F012C025F013C026F027
:1031100035EC33F023C00CF024C00DF025C00EF0C8
:1031200026C00FF023C028F024C029F025C02AF0C3
:1031300026C02BF008C023F009C024F00AC025F0F7
:103140000BC026F04BEC35F0010A01E0E7D21C0E73
:10315000DBCF04F01D0EDBCF05F01E0EDBCF06F03B
:103160001F0EDBCF07F0180EDBCF08F0190EDBCFF8
:1031700009F01A0EDBCF0AF01B0EDBCF0BF008C0F4
:1031800028F009C029F00AC02AF00BC02BF004C0B7
:1031900023F005C024F006C025F007C026F035EC6A
:1031A00033F023C000F024C001F025C002F026C097
:1031B00003F0286A200E296EFD0E2A6E460E2B6E35
:1031C000CCEC33F0100EDBCF28F0110EDBCF29F062
:1031D000120EDBCF2AF0130EDBCF2BF01FEC34F0F6
:1031E000100EDBCF28F0110EDBCF29F0120EDBCF53
:1031F0002AF0130EDBCF2BF01FEC34F0200E23C08F
:10320000DBFF210E24C0DBFF220E25C0DBFF230ED7
:1032100026C0DBFF200EDBCF04F0210EDBCF05F054
:10322000220EDBCF06F0230EDBCF07F01C0EDBCF28
:1032300010F01D0EDBCF11F01E0EDBCF12F01F0EB3
:10324000DBCF13F0180EDBCF14F0190EDBCF15F027
:103250001A0EDBCF16F01B0EDBCF17F014C028F0D0
:1032600015C029F016C02AF017C02BF010C023F0AB
:1032700011C024F012C025F013C026F035EC33F055
:1032800023C00CF024C00DF025C00EF026C00FF0B6
:10329000286A296AB40E2A6E420E2B6ECCEC33F0EB
:1032A000100EDBCF28F0110EDBCF29F0120EDBCF92
:1032B0002AF0130EDBCF2BF01FEC34F023C008F004
:1032C00024C009F025C00AF026C00BF023C028F066
:1032D00024C029F025C02AF026C02BF004C023F01A
:1032E00005C024F006C025F007C026F035EC33F009
:1032F00023C000F024C001F025C002F026C003F076
:103300001C0EDBCF18F01D0EDBCF19F01E0EDBCF2D
:103310001AF01F0EDBCF1BF018C028F019C029F0DF
:103320001AC02AF01BC02BF036EC33F0200E23C05D
:10333000DBFF210E24C0DBFF220E25C0DBFF230EA6
:1033400026C0DBFF100EDBCF00F0110EDBCF01F04B
:10335000120EDBCF02F0130EDBCF03F0286A296ACE
:10336000340E2A6E430E2B6E00C023F001C024F0F1
:1033700002C025F003C026F04BEC35F0010A4EE107
:10338000200EDBCF08F0210EDBCF09F0220EDBCFC1
:103390000AF0230EDBCF0BF0C30E286EF50E296E5C
:1033A000480E2A6E400E2B6E08C023F009C024F090
:1033B0000AC025F00BC026F01FEC34F023C004F047
:1033C00024C005F025C006F026C007F0286A296A47
:1033D000340E2A6E430E2B6ECCEC33F023C000F07B
:1033E00024C001F025C002F026C003F0D9500C0F14
:1033F000E96EDACFEAFFEECF23F0EECF24F0EECF86
:1034000025F0EFCF26F000C028F001C029F002C05F
:103410002AF003C02BF036EC33F04DD0200EDBCF7A
:1034200008F0210EDBCF09F0220EDBCF0AF0230ECD
:10343000DBCF0BF0C30E286EF50E296E480E2A6EF8
:10344000400E2B6E08C023F009C024F00AC025F0FE
:103450000BC026F01FEC34F023C004F024C005F0AC
:1034600025C006F026C007F0286A296A340E2A6EA5
:10347000430E2B6ECCEC33F023C000F024C001F0DF
:1034800025C002F026C003F0D9500C0FE96EDACF48
:10349000EAFFEECF23F0EECF24F0EECF25F0EFCF12
:1034A00026F000C028F001C029F002C02AF003C0B5
:1034B0002BF035EC33F026C0EDFF25C0EDFF24C026
:1034C000EDFF23C0EFFF0C0EDBCF08F00D0EDBCFBE
:1034D00009F00E0EDBCF0AF00F0EDBCF0BF0286ADF
:1034E000296A340E2A6E430E2B6E08C023F009C0E1
:1034F00024F00AC025F00BC026F01FEC34F023C0E6
:1035000004F024C005F025C006F026C007F0C30E65
:10351000286EF50E296E480E2A6E400E2B6ECCECEE
:1035200033F023C000F024C001F025C002F026C013
:1035300003F0286A296AB40E2A6E430E2B6E36EC0D
:1035400033F00C0E23C0DBFF0D0E24C0DBFF0E0E8C
:1035500025C0DBFF0F0E26C0DBFF0C0EDBCF23F0F8
:103560000D0EDBCF24F00E0EDBCF25F00F0EDBCFE0
:1035700026F00BEC35F022C04BF123C04CF124C0F7
:103580004DF125C04EF1680E276E010E286E296A96
:103590002A6A4BC122F04CC123F04DC124F04EC128
:1035A00025F08CEC34F01EC04BF11FC04CF120C054
:1035B0004DF121C04EF14BC122F04CC123F04DC161
:1035C00024F04EC125F01CEC33F023C004F024C0DD
:1035D00005F025C006F026C007F0C30E286EF50ED4
:1035E000296E480E2A6E400E2B6E1FEC34F023C05D
:1035F00000F024C001F025C002F026C003F0286AC4
:10360000296A340E2A6E430E2B6ECCEC33F00C0E6E
:1036100023C0DBFF0D0E24C0DBFF0E0E25C0DBFF39
:103620000F0E26C0DBFFD9500C0FE96EDACFEAFF90
:10363000EECFE6FFEECFE6FFEECFE6FFEFCFE6FF01
:1036400015EC3EF0E552E552E552E55222C000F09D
:1036500023C001F024C002F025C003F022C023F0F3
:1036600001C024F002C025F003C026F0000EDFCF19
:1036700028F0010EDBCF29F0020EDBCF2AF0030E7B
:10368000DBCF2BF01FEC34F04C0E23C0DBFF4D0ED4
:1036900024C0DBFF4E0E25C0DBFF4F0E26C0DBFF34
:1036A000D9500C0FE96EDACFEAFFEECFE6FFEECF8E
:1036B000E6FFEECFE6FFEFCFE6FFEDEC3DF0E552A3
:1036C000E552E552E55222C000F023C001F024C0CB
:1036D00002F025C003F022C023F001C024F002C094
:1036E00025F003C026F0000EDFCF28F0010EDBCF5F
:1036F00029F0020EDBCF2AF0030EDBCF2BF01FECFC
:1037000034F0500E23C0DBFF510E24C0DBFF520EFD
:1037100025C0DBFF530E26C0DBFF20D0D9CFE9FF49
:10372000DACFEAFF4C0EEECFDBFF4D0EEECFDBFF24
:103730004E0EEECFDBFF4F0EEECFDBFFD9CFE9FF12
:10374000DACFEAFF500EEECFDBFF510EEECFDBFFFC
:10375000520EEECFDBFF530EEECFDBFF010EE66E17
:10376000B2EC30F0E552000901E0E9D2300EDBCFD7
:1037700000F0310EDBCF01F0320EDBCF02F0330E62
:10378000DBCF03F0286A296A480E2A6E420E2B6EA0
:1037900000C023F001C024F002C025F003C026F0D1
:1037A00042EC35F0010A35E1300EDBCF04F0310E8A
:1037B000DBCF05F0320EDBCF06F0330EDBCF07F0A8
:1037C000286A296A9B0E2A6E430E2B6E04C023F0D2
:1037D00005C024F006C025F007C026F04BEC35F0FC
:1037E000010A17E10101900ED8801555010E1655FA
:1037F00010E24C0EDB6A4D0EDB6A4E0EDB6A4F0E9A
:10380000DB6A500EDB6A510EDB6A520EDB6A530E26
:10381000DB6A300EDBCF00F0310EDBCF01F0320E71
:10382000DBCF02F0330EDBCF03F02C0EDBCF04F046
:103830002D0EDBCF05F02E0EDBCF06F02F0EDBCFEB
:1038400007F004C028F005C029F006C02AF007C020
:103850002BF000C023F001C024F002C025F003C00B
:1038600026F04BEC35F0010A4CE0300EDBCF00F0D7
:10387000310EDBCF01F0320EDBCF02F0330EDBCFA7
:1038800003F0086A096AB40E0A6E430E0B6E2C0E22
:10389000DBCF0CF02D0EDBCF0DF02E0EDBCF0EF0BC
:1038A0002F0EDBCF0FF00CC028F00DC029F00EC09A
:1038B0002AF00FC02BF008C023F009C024F00AC082
:1038C00025F00BC026F035EC33F023C004F024C003
:1038D00005F025C006F026C007F023C028F024C05C
:1038E00029F025C02AF026C02BF000C023F001C02B
:1038F00024F002C025F003C026F042EC35F0010AA6
:1039000006E101013F6B406B416B426B9ED3300E71
:10391000DBCF00F0310EDBCF01F0320EDBCF02F057
:10392000330EDBCF03F0286A296A340E2A6E430E69
:103930002B6E00C023F001C024F002C025F003C0AC
:1039400026F04BEC35F0010A01E0F2D0280EDBCF77
:1039500004F0290EDBCF05F02A0EDBCF06F02B0E8C
:10396000DBCF07F0240EDBCF08F0250EDBCF09F00C
:10397000260EDBCF0AF0270EDBCF0BF008C028F0B5
:1039800009C029F00AC02AF00BC02BF004C023F0B4
:1039900005C024F006C025F007C026F035EC33F052
:1039A00023C000F024C001F025C002F026C003F0BF
:1039B000286A200E296EFD0E2A6E460E2B6ECCEC68
:1039C00033F0300EDBCF28F0310EDBCF29F0320E92
:1039D000DBCF2AF0330EDBCF2BF01FEC34F0300EB0
:1039E000DBCF28F0310EDBCF29F0320EDBCF2AF00F
:1039F000330EDBCF2BF01FEC34F00BEC35F022C094
:103A00003FF123C040F124C041F125C042F13FC144
:103A100022F040C123F041C124F042C125F01CEC4A
:103A200033F023C004F024C005F025C006F026C002
:103A300007F0280EDBCF10F0290EDBCF11F02A0E95
:103A4000DBCF12F02B0EDBCF13F0240EDBCF14F004
:103A5000250EDBCF15F0260EDBCF16F0270EDBCFC1
:103A600017F014C028F015C029F016C02AF017C0AE
:103A70002BF010C023F011C024F012C025F013C0A9
:103A800026F035EC33F023C00CF024C00DF025C037
:103A90000EF026C00FF0286A296AB40E2A6E420E74
:103AA0002B6ECCEC33F0300EDBCF28F0310EDBCFB9
:103AB00029F0320EDBCF2AF0330EDBCF2BF01FECD8
:103AC00034F023C008F024C009F025C00AF026C055
:103AD0000BF023C028F024C029F025C02AF026C00E
:103AE0002BF004C023F005C024F006C025F007C069
:103AF00026F035EC33F023C000F024C001F025C0DF
:103B000002F026C003F0280EDBCF18F0290EDBCF21
:103B100019F02A0EDBCF1AF02B0EDBCF1BF018C0EA
:103B200028F019C029F01AC02AF01BC02BF0C6D10A
:103B3000280EDBCF04F0290EDBCF05F02A0EDBCFF9
:103B400006F02B0EDBCF07F0240EDBCF08F0250E9E
:103B5000DBCF09F0260EDBCF0AF0270EDBCF0BF010
:103B600008C028F009C029F00AC02AF00BC02BF0C9
:103B700004C023F005C024F006C025F007C026F0DD
:103B800035EC33F023C000F024C001F025C002F072
:103B900026C003F0286A200E296EFD0E2A6E460EFE
:103BA0002B6ECCEC33F0300EDBCF28F0310EDBCFB8
:103BB00029F0320EDBCF2AF0330EDBCF2BF01FECD7
:103BC00034F0300EDBCF28F0310EDBCF29F0320E8F
:103BD000DBCF2AF0330EDBCF2BF01FEC34F00BECF5
:103BE00035F022C03FF123C040F124C041F125C08F
:103BF00042F13FC122F040C123F041C124F042C153
:103C000025F01CEC33F023C004F024C005F025C0DF
:103C100006F026C007F0280EDBCF10F0290EDBCF10
:103C200011F02A0EDBCF12F02B0EDBCF13F0240E97
:103C3000DBCF14F0250EDBCF15F0260EDBCF16F010
:103C4000270EDBCF17F014C028F015C029F016C0DE
:103C50002AF017C02BF010C023F011C024F012C0BE
:103C600025F013C026F035EC33F023C00CF024C04F
:103C70000DF025C00EF026C00FF0286A296AB40E98
:103C80002A6E420E2B6ECCEC33F0300EDBCF28F0D8
:103C9000310EDBCF29F0320EDBCF2AF0330EDBCF33
:103CA0002BF01FEC34F023C008F024C009F025C02D
:103CB0000AF026C00BF023C028F024C029F025C04C
:103CC0002AF026C02BF004C023F005C024F006C063
:103CD00025F007C026F035EC33F023C000F024C0F7
:103CE00001F025C002F026C003F0280EDBCF18F04B
:103CF000290EDBCF19F02A0EDBCF1AF02B0EDBCF0B
:103D00001BF018C028F019C029F01AC02AF01BC0F7
:103D10002BF036EC33F00BEC35F022C03FF123C032
:103D200040F124C041F125C042F1000E01013F6D78
:103D3000401F4023411F4123421F422386D1480E8A
:103D4000DBCF00F0490EDBCF01F04A0EDBCF02F0F3
:103D50004B0EDBCF03F0286A296A200E2A6E430E31
:103D60002B6E00C023F001C024F002C025F003C078
:103D700026F04BEC35F0010A01E0ABD0440EDBCF6E
:103D800008F0450EDBCF09F0460EDBCF0AF0470EF8
:103D9000DBCF0BF0286A296AC80E2A6E460E2B6EFE
:103DA00008C023F009C024F00AC025F00BC026F09B
:103DB000CCEC33F0480EDBCF28F0490EDBCF29F0F6
:103DC0004A0EDBCF2AF04B0EDBCF2BF01FEC34F08A
:103DD000480EDBCF28F0490EDBCF29F04A0EDBCFAF
:103DE0002AF04B0EDBCF2BF01FEC34F023C004F095
:103DF00024C005F025C006F026C007F0440EDBCF36
:103E000010F0450EDBCF11F0460EDBCF12F0470E5F
:103E1000DBCF13F0286A296AA00E2A6E420E2B6EA1
:103E200010C023F011C024F012C025F013C026F0FA
:103E3000CCEC33F0480EDBCF28F0490EDBCF29F075
:103E40004A0EDBCF2AF04B0EDBCF2BF01FEC34F009
:103E500023C00CF024C00DF025C00EF026C00FF0DA
:103E600023C028F024C029F025C02AF026C02BF05A
:103E700004C023F005C024F006C025F007C026F0DA
:103E800035EC33F023C000F024C001F025C002F06F
:103E900026C003F0440EDBCF14F0450EDBCF15F047
:103EA000460EDBCF16F0470EDBCF17F014C028F01C
:103EB00015C029F016C02AF017C02BF000C023F05F
:103EC00001C024F002C025F003C026F036EC33F028
:103ED000B2D0440EDBCF0CF0450EDBCF0DF0460E1A
:103EE000DBCF0EF0470EDBCF0FF0286A296A800E79
:103EF0002A6EBF0E2B6E0CC023F00DC024F00EC036
:103F000025F00FC026F01FEC34F023C008F024C0C9
:103F100009F025C00AF026C00BF0286A296AC80EED
:103F20002A6E460E2B6ECCEC33F0480EDBCF28F019
:103F3000490EDBCF29F04A0EDBCF2AF04B0EDBCF48
:103F40002BF01FEC34F0480EDBCF28F0490EDBCF0E
:103F500029F04A0EDBCF2AF04B0EDBCF2BF01FEC03
:103F600034F023C004F024C005F025C006F026C0BC
:103F700007F0440EDBCF14F0450EDBCF15F0460EF4
:103F8000DBCF16F0470EDBCF17F0286A296AA00EA8
:103F90002A6E420E2B6E14C023F015C024F016C0FA
:103FA00025F017C026F0CCEC33F0480EDBCF28F01C
:103FB000490EDBCF29F04A0EDBCF2AF04B0EDBCFC8
:103FC0002BF01FEC34F023C010F024C011F025C0FA
:103FD00012F026C013F023C028F024C029F025C019
:103FE0002AF026C02BF004C023F005C024F006C040
:103FF00025F007C026F036EC33F023C000F024C0D3
:1040000001F025C002F026C003F0440EDBCF18F00B
:10401000450EDBCF19F0460EDBCF1AF0470EDBCF93
:104020001BF018C028F019C029F01AC02AF01BC0D4
:104030002BF035EC33F00BEC35F022C03FF123C010
:1040400040F124C041F125C042F14C0EDBCF04F019
:104050004D0EDBCF05F04E0EDBCF06F04F0EDBCF63
:1040600007F0286A296A800E2A6EBF0E2B6E04C0E4
:1040700023F005C024F006C025F007C026F01FEC91
:1040800034F023C000F024C001F025C002F026C0A7
:1040900003F03FC122F040C123F041C124F042C1EE
:1040A00025F01CEC33F023C008F024C009F025C033
:1040B0000AF026C00BF023C028F024C029F025C048
:1040C0002AF026C02BF000C023F001C024F002C06B
:1040D00025F003C026F036EC33F00BEC35F022C0AF
:1040E00027F123C028F124C029F125C02AF1500E60
:1040F000DBCF00F0510EDBCF01F0520EDBCF02F030
:10410000530EDBCF03F03FC122F040C123F041C189
:1041100024F042C125F01CEC33F023C004F024C08D
:1041200005F025C006F026C007F023C028F024C003
:1041300029F025C02AF026C02BF000C023F001C0D2
:1041400024F002C025F003C026F036EC33F00BEC6F
:1041500035F022C02BF123C02CF124C02DF125C055
:104160002EF1500EDBCF04F0510EDBCF05F0520ED6
:10417000DBCF06F0530EDBCF07F0286A296A800EEA
:104180002A6EBF0E2B6E04C023F005C024F006C0BB
:1041900025F007C026F01FEC34F023C000F024C047
:1041A00001F025C002F026C003F03FC122F040C15B
:1041B00023F041C124F042C125F01CEC33F023C0B0
:1041C00008F024C009F025C00AF026C00BF023C077
:1041D00028F024C029F025C02AF026C02BF000C00A
:1041E00023F001C024F002C025F003C026F036EC15
:1041F00033F00BEC35F022C02FF123C030F124C096
:1042000031F125C032F14C0EDBCF00F04D0EDBCF8B
:1042100001F04E0EDBCF02F04F0EDBCF03F03FC1BB
:1042200022F040C123F041C124F042C125F01CEC32
:1042300033F023C004F024C005F025C006F026C0EA
:1042400007F023C028F024C029F025C02AF026C09A
:104250002BF000C023F001C024F002C025F003C001
:1042600026F036EC33F00BEC35F022C033F123C0EE
:1042700034F124C035F125C036F10101800E2A1534
:1042800012E027C100F028C101F029C102F02AC1C3
:1042900003F0000E006C011E0122021E0222031E0A
:1042A0000322008E08D027C100F028C101F029C1E7
:1042B00002F02AC103F000C0B8F0800E2E1512E003
:1042C0002BC100F02CC101F02DC102F02EC103F072
:1042D000000E006C011E0122021E0222031E032298
:1042E000008E08D02BC100F02CC101F02DC102F0CE
:1042F0002EC103F000C0B9F0800E321512E02FC1BC
:1043000000F030C101F031C102F032C103F0000E03
:10431000006C011E0122021E0222031E0322008ED7
:1043200008D02FC100F030C101F031C102F032C11C
:1043300003F000C0BAF0800E361512E033C100F071
:1043400034C101F035C102F036C103F0000E006C3B
:10435000011E0122021E0222031E0322008E08D02B
:1043600033C100F034C101F035C102F036C103F0B1
:0C43700000C0BBF02CEC30F026EF14F085
:04437C009D9A9E9ACE
:10438000040EAC6E800EAB6EB886B06A440EAF6E93
:10439000240EAC6E900EAB6E0101F76B200EF75D34
:1043A00009E2F751EA6AD40FE96E010EEA22EF6AD8
:1043B000F72BF4D7F86BF8C1F7F1FA6B9F9A9E9A36
:1043C0009D8A1200D9CFE6FFE1CFD9FFACA2FED77C
:1043D000FE0EDB50AD6EE552E7CFD9FF1200D9CF0C
:1043E000E6FFE1CFD9FFFD0EDBCFE9FFFE0EDBCF0D
:1043F000EAFFEF500EE0FD0EDBCFE9FFDB2AFE0EF9
:10440000DBCFEAFF01E3DB2AEF50E66EDBDFE552AC
:10441000EAD7E552E7CFD9FF1200D9CFE6FFE1CFC7
:10442000D9FFFC0EDBCFF6FFFD0EDBCFF7FFFE0E54
:10443000DBCFF8FF0800F55016E0D950FC0FE96E0D
:10444000FF0EDA20EA6EEFCFF6FFEE2AEFCFF7FF8E
:10445000000EEE22EFCFF8FFEE220800F550E66ED8
:10446000B1DFE552DED7E552E7CFD9FF1200D9CF51
:10447000E6FFE1CFD9FFE6520101F851EA6AD40F15
:10448000E96E010EEA22EFCFDFFF200E006EF82B5F
:10449000F851D880005401E3F86BDF50E552E55243
:1044A000E7CFD9FF12000101F751F85D01E1000CDF
:1044B000010CD9CFE6FFE1CFD9FF1A0EE126190E84
:1044C000DB6A0101F56BF66B0101640ED880F555CE
:1044D000000EF6552DE3E7DF0009F6E0C8DFE76ED2
:1044E000180EE7CFDBFFDBCF00F0200EE76E0018E1
:1044F000E8AE02D0E73402D0E750005C19E3170EB3
:10450000006E190EDB50005C13E3D9CF00F0DACF58
:1045100001F0190EDBCFF3FFDB2AF3500F01D92492
:10452000E96E000EDA20EA6E180EDBCFEFFFC9D776
:10453000D9CF00F0DACF01F0190EDB500F01D924EA
:10454000E96E000EDA20EA6EEF6A190EDB5009E020
:10455000E66AD9CFE6FFDACFE6FF0DD8E552E5529D
:10456000E5521A0EE15C02E2E16AE552E16EE552C3
:10457000E7CFD9FF1200D9CFE6FFE1CFD9FF060E72
:10458000E126FD0EDBCFE9FFFE0EDBCFEAFFEF50A9
:10459000520A01E17FD1040A01E17AD1140A01E152
:1045A00068D10F0A01E116D1020A01E1E4D0030A41
:1045B00001E1B2D0050A6CE03A0A69E0200A01E0A4
:1045C0006BD1640E0101CC6FCD6B010EE76EFD0E59
:1045D000DBCFE9FFFE0EDBCFEAFFE750E926000E56
:1045E000EA22EF50340A36E0050A1CE0010A01E035
:1045F00049D0030EE76EFD0EDBCFE9FFFE0EDBCFE9
:10460000EAFFE750E926000EEA22EF50310805E103
:1046100055D90101AA81899E04D00101AA91010105
:10462000AB6B30D0030EE76EFD0EDBCFE9FFFE0E65
:10463000DBCFEAFFE750E926000EEA22EF5031080F
:1046400002E1010E01D0000E0101E8B0AA83E8A04A
:10465000AA9318D0030EE76EFD0EDBCFE9FFFE0E26
:10466000DBCFEAFFE750E926000EEA22EF503108DF
:1046700002E1010E01D0000E0101E8B0AA89E8A014
:10468000AA9900D0010E01010D6F0E6B0DD10CD156
:10469000010EE76EFD0EDBCFE9FFFE0EDBCFEAFF7A
:1046A000E750E926000EEA22EF50440822E1030E0B
:1046B000E76EFD0EDBCFE9FFFE0EDBCFEAFFE75032
:1046C000E926000EEA22EFCF00F0300E005C11E385
:1046D000390E016E030EE76EFD0EDBCFE9FFFE0E15
:1046E000DBCFEAFFE750E926000EEA22EF50015C3B
:1046F00001E2DAD0030EE76EFD0EDBCFE9FFFE0E1E
:10470000DBCFEAFFE750E926000EEA22EF50D00F98
:104710000101AB6FD3D8C8D0010EE76EFD0EDBCF21
:10472000E9FFFE0EDBCFEAFFE750E926000EEA22A2
:10473000EF50D00FDF6E030EE76EFD0EDBCFE9FF0B
:10474000FE0EDBCFEAFFE750E926000EEA22EF502B
:10475000D00FE76E010EE7CFDBFF0101AB510AE19D
:10476000010EDBCFE6FFDFCFE6FF2DEC0FF0E552C9
:10477000E55200D099D0010EE76EFD0EDBCFE9FFC8
:10478000FE0EDBCFEAFFE750E926000EEA22EF50EB
:10479000D00FDF6E030EE76EFD0EDBCFE9FFFE0EDE
:1047A000DBCFEAFFE750E926000EEA22EF50D00FF8
:1047B000E76E010EE7CFDBFF0101AB510AE1010E0D
:1047C000DBCFE6FFDFCFE6FF79EC0EF0E552E552F6
:1047D00000D06AD0030EE66E020EE76EFD0EDBCF50
:1047E00000F0FE0EDBCF01F0E7500026000E0122A4
:1047F00000C0E6FF01C0E6FF9CDBE552E552E55252
:10480000020EF3CFDBFF030EF4CFDBFF030EE66EE9
:10481000060EE76EFD0EDBCF00F0FE0EDBCF01F0E3
:10482000E7500026000E012200C0E6FF01C0E6FFAF
:1048300080DBE552E552E552040EF3CFDBFF050EB7
:10484000F4CFDBFF0101AB5113E1040EDBCFE6FF38
:10485000050EDBCFE6FF020EDBCFE6FF030EDBCF5C
:10486000E6FF69EC0BF0E552E552E552E55200D067
:104870001BD0070E01010D6F0E6BFD0EDBCFE6FFA7
:10488000FE0EDBCFE6FF74EC3AF0E552E5520CD0B9
:104890006BD80AD0FF0008D0FC0EDB5004E1150EE7
:1048A000E66E90DDE55200D0060EE15C02E2E16AC0
:1048B000E552E16EE552E7CFD9FF1200D9CFE6FF0E
:1048C000E1CFD9FFE652850E006E7A0E016E026AC4
:1048D00000C0E6FFE66E02C0E6FF9FDDE552E5524E
:1048E000E5520101AB5111E1DF6A0A0EDF5C0DE216
:1048F000DF50EA6AA00FE96E010EEA22EF50300F96
:10490000E66E60DDE552DF2AF0D77C0E006E7A0E8F
:10491000016E026A00C0E6FFE66E02C0E6FF7DDDC2
:10492000E552E552E552720E006E7A0E016E026A91
:1049300000C0E6FFE66E02C0E6FF6FDDE552E5521D
:10494000E5526F0E006E7A0E016E026A00C0E6FF3D
:10495000E66E02C0E6FF61DDE552E552E552E55242
:10496000E552E7CFD9FF1200D9CFE6FFE1CFD9FF5B
:10497000200EE126A5EC39F06A0E006E7A0E016E6B
:10498000026A00C0E6FFE66E02C0E6FF46DDE552C1
:10499000E552E552200EE66E15DDE552610E006E21
:1049A0007A0E016E026A00C0E6FFE66E02C0E6FF04
:1049B00034DDE552E552E5524ACFE6FF4BCFE6FF44
:1049C00048CFE6FF49CFE6FF46CFE6FF47CFE6FFF9
:1049D0004C0E006E7A0E016E026A00C0E6FFE66EB3
:1049E00002C0E6FFD9CFE6FFDACFE6FF2FEC3CF0BE
:1049F000036E0B0EE15E0350D9CFE6FFDACFE6FF80
:104A0000EEDCE552E552200EE15C02E2E16AE5529D
:104A1000E16EE552E7CFD9FF1200D9CFE6FFE1CF33
:104A2000D9FF160EE1260101AB5101E07DD0020E47
:104A3000DB6A0A0EF36E020EDBCFF4FFF350F45C78
:104A400062E2020EDB50EA6AA00FE96E010EEA2272
:104A5000EF500AE0020EDB50EA6AA00FE96E010E89
:104A6000EA22EF5002080FE1020EDBCFE6FFE5EC91
:104A70000EF0E552000903E1006A016A33D00068D4
:104A8000030E016E2FD0020EDB50EA6AA00FE96E12
:104A9000010EEA22EF50060817E1020EEA6ADB3443
:104AA000FE0BEA36E96E0F0EE926010EEA22EECF82
:104AB000E6FFEFCFE6FF0AEC12F0E552E552F3CF46
:104AC00000F0F4CF01F00ED0020EEA6ADB34FE0BE8
:104AD000EA36E96E0F0EE926010EEA22EECF00F06B
:104AE000EFCF01F0020EEA6ADB34FE0BEA36E96E24
:104AF000AC0EE926010EEA2200C0EEFF01C0EDFF78
:104B0000020EDB2A96D7E66A5DEC0FF0E552E76EFF
:104B1000140EE7CFDBFF010EE66E5DEC0FF0E55201
:104B2000E76E150EE7CFDBFF020EDB6A0A0EF36EAF
:104B3000020EDBCFF4FFF350F45C34E2020EEA6ABB
:104B4000DB34FE0BEA36E96EAC0EE926010EEA22F2
:104B5000EECFE6FFEFCFE6FF020EDB28E66EE66A59
:104B6000410E006E7A0E016E026A00C0E6FFE66E2C
:104B700002C0E6FFD950030FE66E000EDA20E66EA3
:104B80002FEC3CF0036E090EE15E0350D950030F89
:104B9000E66E000EDA20E66E22DCE552E552020EE9
:104BA000DB2AC4D7020EDB6AD950030F006E020E57
:104BB000DBCFF3FFDB2AF3500F010024E96E000E78
:104BC000DA20EA6E4C0EEF6ED950030F006E020E23
:104BD000DBCFF3FFDB2AF3500024E96E000EDA206E
:104BE000EA6E450EEF6ED950030F006E020EDBCF5A
:104BF000F3FFDB2AF3500024E96E000EDA20EA6EA0
:104C0000440EEF6ED950030F006E020EDBCFF3FFA0
:104C1000DB2AF3500024E96E000EDA20EA6E3D0E26
:104C2000EF6E140EDB50300FE66ED950030F006E9E
:104C3000020EDBCFF3FFDB2AF3500024E96E000EF7
:104C4000DA20EA6EE552E750EF6E150EDB50300FBA
:104C5000E66ED950030F006E020EDBCFF3FFDB2AA6
:104C6000F3500024E96E000EDA20EA6EE552E750B8
:104C7000EF6ED950030F006EDACF01F0020EDB5059
:104C80000024E96E000EDA20EA6EEF6AD950030FB5
:104C9000E66E000EDA20E66EEFEC21F0E552E5520A
:104CA0006F0E006E7A0E016E026A00C0E6FFE66EBD
:104CB00002C0E6FF0DEC22F0E552E552E552160E79
:104CC000E15C02E2E16AE552E16EE552E7CFD9FF2D
:104CD0001200D9CFE6FFE1CFD9FF090EE1266CEC37
:104CE00030F0006A0001F451005C01E318D13B0E82
:104CF000006E7A0E016E026A00C0E6FFE66E02C028
:104D0000E6FF0DEC22F0E552E552E552DF6A0001C4
:104D1000F451DF5C01E3F4D0DF50090DF3CFE9FF7C
:104D2000F4CFEAFFBE0EE926000EEA22EF50E66E4F
:104D3000E66A350E006E7A0E016E026A00C0E6FF6A
:104D4000E66E02C0E6FFD950010FE66E000EDA20D3
:104D5000E66E2FEC3CF0036E070EE15E0350D95077
:104D6000010FE66E000EDA20E66EEFEC21F0E55260
:104D7000E552DF50090DF3CFE9FFF4CFEAFFBE0E95
:104D8000E926000EEA22EE52EECFE6FFEFCFE6FF75
:104D90002F0E006E7A0E016E026A00C0E6FFE66E0C
:104DA00002C0E6FFD950010FE66E000EDA20E66E73
:104DB0002FEC3CF0036E070EE15E0350D950010F5B
:104DC000E66E000EDA20E66EEFEC21F0E552E552D9
:104DD000DF50090DF3CFE9FFF4CFEAFFBE0EE9265D
:104DE000000EEA22030EE926000EEA22EECFE6FFCD
:104DF000EFCFE6FF2F0E006E7A0E016E026A00C042
:104E0000E6FFE66E02C0E6FFD950010FE66E000E27
:104E1000DA20E66E2FEC3CF0036E070EE15E0350E5
:104E2000D950010FE66E000EDA20E66EEFEC21F0AD
:104E3000E552E552DF50090DF3CFE9FFF4CFEAFF69
:104E4000BE0EE926000EEA22050EE926000EEA2231
:104E5000EECFE6FFEFCFE6FF2F0E006E7A0E016E6B
:104E6000026A00C0E6FFE66E02C0E6FFD950010FFD
:104E7000E66E000EDA20E66E2FEC3CF0036E070EB5
:104E8000E15E0350D950010FE66E000EDA20E66EA7
:104E9000EFEC21F0E552E552DF50090DF3CFE9FFC9
:104EA000F4CFEAFFBE0EE926000EEA22070EE9263D
:104EB000000EEA22EECFE6FFEFCFE6FF2F0E006EE8
:104EC0007A0E016E026A00C0E6FFE66E02C0E6FFDF
:104ED000D950010FE66E000EDA20E66E2FEC3CF0A2
:104EE000036E070EE15E0350D950010FE66E000E0F
:104EF000DA20E66EEFEC21F0E552E552DF2A07D723
:104F00006F0E006E7A0E016E026A00C0E6FFE66E5A
:104F100002C0E6FF0DEC22F0E552E552E552090E23
:104F2000E15C02E2E16AE552E16EE552E7CFD9FFCA
:104F30001200D9CFE6FFE1CFD9FF060EE126010E20
:104F4000F36E040EF3CFDBFF050EDB6A020EDB6AA5
:104F5000030EDB6ADF6AFC0EDB50DF5C43E2FD0E12
:104F6000DBCFE9FFDB2AFE0EDBCFEAFF01E3DB2A22
:104F7000010EEFCFDBFFDB5035E0010EDB502D08DB
:104F800005E1040EDB68050EDB682AD0300EF36EF7
:104F9000010EDBCFF4FFF350F45C22E3390E006E18
:104FA000010EDB50005C1CE3D950020FE96EDACF32
:104FB000EAFF0A0EEC02F3CFEDFFEF02F3CFEEFFB4
:104FC000F450ED26010EDB50D00F006E016AD9506F
:104FD000020FE96EDACFEAFF0050EE260150ED2213
:104FE000DF2AB9D7040EDBCF00F0050EDBCF01F0CE
:104FF000D950020FE96EDACFEAFF00C029F001C0F4
:105000002AF0EECF24F0EDCF25F0EDEC34F022C005
:10501000EEFF23C0EDFF020EDBCF00F0030EDBCF6F
:1050200001F000C0F3FF01C0F4FF060EE15C02E2F4
:10503000E16AE552E16EE552E7CFD9FF1200D9CF20
:10504000E6FFE1CFD9FF060EE126DE6ADE6ADE6A00
:10505000DD6ADD52DD52040EDB6AFC0EDB50F36EBE
:10506000040EDBCFF4FFF350F45C57E2FD0EDBCF10
:10507000E9FFDB2AFE0EDBCFEAFF01E3DB2A050EA8
:10508000EFCFDBFF300EF36E050EDBCFF4FFF350F6
:10509000F45C43E3390E006E050EDB50005C3DE32B
:1050A000300E006E050EDBCFE7FF0050E75E050E09
:1050B000E7CFDBFFD9CFE9FFDACFEAFF0A0E276E91
:1050C000286A296A2A6AEECF22F0EECF23F0EECFCB
:1050D00024F0EFCF25F04FEC3DF021C0EDFF20C0D4
:1050E000EDFF1FC0EDFF1EC0EFFF050EDBCF00F090
:1050F000016A026A036A00AE03D0016802680368AD
:105100000050DE260150DE220250DE220350DD2256
:10511000DD52DD52040EDB2AA0D7DECF22F0DECF37
:1051200023F0DECF24F0DDCF25F0DD52DD52060E78
:10513000E15C02E2E16AE552E16EE552E7CFD9FFB8
:105140001200D9CFE6FFE1CFD9FF040EE126DE6AD7
:10515000DD6A020EDB6AFC0EDB50F36E020EDBCF63
:10516000F4FFF350F45C4FE2FD0EDBCFE9FFDB2AE6
:10517000FE0EDBCFEAFF01E3DB2A030EEFCFDBFFFE
:10518000300E006E030EDB50D880005408E3030E8F
:10519000DB50390804E3030EDB50D00F1ED0410E64
:1051A000006E030EDB50D880005408E3030EDB5082
:1051B000460804E3030EDB50BF0F0ED0610E006EF5
:1051C000030EDB50D88000541EE3030EDB5066084C
:1051D0001AE3030EDB509F0F0A0FE76E030EE7CFB3
:1051E000DBFFD9CFE9FFDACFEAFF040ED890EE3625
:1051F000ED36E806FBE1030EDB50DE26000EDD2275
:10520000020EDB2AA8D7DECF00F0DDCF01F000C010
:10521000F3FF01C0F4FF040EE15C02E2E16AE55233
:10522000E16EE552E7CFD9FF1200D9CFE6FFE1CF1B
:10523000D9FF300EF36EFE0EDBCFF4FFF350F45CBB
:1052400008E3390E006EFE0EDB50005C02E3000E38
:1052500001D0010E000902E0000E01D0010EE5525E
:10526000E7CFD9FF1200D9CFE6FFE1CFD9FF300E4B
:10527000006EFE0EDB50D880005404E3FE0EDB50BF
:10528000390816E2410E006EFE0EDB50D880005445
:1052900004E3FE0EDB5046080BE2610E006EFE0ECC
:1052A000DB50D880005406E3FE0EDB50660802E3B4
:0E52B000010E01D0000EE552E7CFD9FF12002B
:0252BE009BEC67
:1052C0002EF0FB0EDBCFF3FFDB06F35000090AE004
:1052D000E9EC2EF0FA0E54EC2FF0F3E1011CF1E1B1
:1052E000010E01D0000ECAEF2EF09BEC2EF03B0E0B
:1052F000E12402E3E168E652E16E010EDB6A020E90
:10530000DB6AF90EDBCFF6FFFA0EDBCFF7FFFB0E01
:10531000DBCFF8FF0800F550DF6EDF5002E1EEEF63
:105320002DF0250EDF5C02E0E1EF2DF0030EDB6ACD
:10533000040EDB6A050EDB6A060EDB6A070EDB6A0B
:1053400003EC2EF02D0EDF5C0CE02B0EDF5C09E091
:10535000200EDF5C06E0230EDF5C03E0300EDF5C36
:105360001AE1DF50300A14E0130A0FE0030A0AE0E2
:105370000B0A05E0060AE4E1030EDB80E1D7030E29
:10538000DB82DED7030EDB84DBD7030EDB86D8D7C8
:10539000030EDB88D5D72A0EDF5C1BE1FFEC2DF076
:1053A0004DEC2EF010E0030EDB8024682568130E10
:1053B000DBCF29F0140EDBCF2AF0C0EC34F0040E62
:1053C00022C0DBFF03D0130E36EC2EF003EC2EF0E0
:1053D0000BD0090EDB6AA4EC2EF003E018EC2FF0E2
:1053E000FAD7090E36EC2EF0030EDBB0DB982E0E4A
:1053F000DF5C1BE103EC2EF02A0EDF5C0BE1FFEC1F
:105400002DF04DEC2EF003E1130E88EC2EF003ECA2
:105410002EF00BD0090EDB6AA4EC2EF003E018ECA2
:105420002FF0FAD7090E88EC2EF0680EDF5C07E14A
:1054300003EC2EF0680EDF5C1DE1030E18D0740E35
:10544000DF5C17E07A0EDF5C14E0480EDF5C06E0FC
:10545000540EDF5C03E05A0EDF5C02E1020E07D05F
:105460006C0EDF5C03E06A0EDF5C04E1010EDBEC36
:105470002EF0C9DBDF506E0A01E17FD31E0A01E185
:1054800092D1200A01E18FD13F0A01E149D11A0AE4
:1054900001E146D10D0A01E143D1200A01E140D1E9
:1054A0003A0A01E13DD1200A01E13AD1260A01E19F
:1054B00035D10D0A01E132D11A0A01E1D9D0200A11
:1054C0004AE0300A1FE0460A0EE0250A01E083D3D5
:1054D000D950F90FE96EFF0EDA20EA6E010EEE5E8A
:1054E000000EEE5AEE5AE9EC2EF0250EE66E95DB34
:1054F00003E1011C01E169D3E5EC2EF001E26BD37D
:10550000DB2A69D3080EDB6A040EDB50010806E2D1
:10551000040EDB04ADEC2EF0DB508BDB080EDB5011
:1055200009E0030EDB50010B05E172DB01E04DD316
:10553000080EDB6A64DBEFCFDFFF5DEC2FF003E1E9
:10554000011C01E142D3E5EC2EF001E3DB2A60DB34
:1055500001E141D33AD3070EDB5002080FE129ECF9
:105560002FF0030EF0EC2EF00E0EEECFDBFF0F0E41
:10557000EECFDBFF100EEECFDBFF20D0F70EDBCF40
:1055800003F0F80EDBCF04F0020E035E000E045AA7
:10559000F70E03C0DBFFF80E04C0DBFF03C0E9FF1A
:1055A00004C0EAFFE0EC2EF0026A0E0E00C0DBFF42
:1055B0000F0E01C0DBFF100E02C0DBFF0E0EDBCFB3
:1055C000E6FF0F0EDBCFE6FF100EDBCFE6FF95EC1C
:1055D0003DF0E552E552E552130E23C0DBFF140EF9
:1055E00024C0DBFF060EDB5005E0130E24EC2FF089
:1055F00001E26ADB48EC2FF002E2130E37DB0BEC22
:105600002FF006E0040E24EC2FF002E2050E2EDB54
:10561000030EDBB005D0FCDA01E0D7D2080EDB6A5E
:10562000090EDB6A0E0EDBCFF6FF0F0EDBCFF7FFA6
:10563000100EDBCFF8FF0800F550DF6EDF5014E0EE
:105640004EEC2FF011E25DEC2FF003E1011C01E1C3
:10565000BCD2BBDB01E3DB2A090EDB2AD9500E0FDB
:10566000E96E000ECBDBE7D7D3DA01E1B4D2ADD2DD
:10567000C6DA110EEECFDBFF120EEDCFDBFF110EFF
:10568000DBCFE6FF120EDBCFE6FF87EC3DF0E55205
:10569000E552130EF3CFDBFF140EF4CFDBFF060E43
:1056A000DB5004E0130ED0DB01E20EDB48EC2FF000
:1056B00002E2130EDBDAAFDB05E0040EC5DB02E22B
:1056C000050ED4DA030EDBB005D0A2DA01E07DD2FC
:1056D000080EDB6A090EDB6A110EDBCFE9FF120E42
:1056E000DBCFEAFFEFCFDFFFDF5014E0D7DB12E2C2
:1056F000E4DB03E1011C01E168D267DB01E3DB2AA3
:10570000090EDB2A110EDB2ADBCFE9FF120EE8E3DC
:10571000DB2AE6D77DDA01E15ED257D2030EDB8EBB
:10572000070EDB0410E195DB040E5ADB0A0EEECF08
:10573000DBFF0B0EEECFDBFF0C0EEECFDBFF0D0E13
:10574000EECFDBFF6CD0070EDB5003082CE1030E1D
:10575000DBAE0DD0B2DA020E76DAEFCF00F0016ADE
:10576000026A036A00AE39D00168026835D0F70ECC
:10577000DBCF01F0F80EDBCF02F0020E015E000E6F
:10578000025AF70E01C0DBFFF80E02C0DBFF01C0BA
:10579000E9FF02C0EAFFEFCF00F00A0E00C0DBFF16
:1057A0000B0EDB6A38D0070EDB50020809E1030E4E
:1057B000DBAE04D059DB02AE10D00ED055DB0DD0DD
:1057C000030EDBAE12D079DA020E3DDAF9DA026AA4
:1057D000036A01AE02D002680368E2DA0C0E02C06E
:1057E000DBFF0D0E03C0DBFF1AD0F70EDBCF02F09C
:1057F000F80EDBCF03F0020E025E000E035AF70E26
:1058000002C0DBFFF80E03C0DBFF02C0E9FF03C0EC
:10581000EAFFD6DAC5DA0C0EDB6A0D0EDB6A060E7D
:10582000DB5005E1010EF36E050EF3CFDBFF150E25
:10583000DB6A160EDB6AD950370F006E000EDA20D5
:10584000016E390E00C0DBFF3A0E01C0DBFF380EDF
:10585000DB6A080EDB6A0A0EAEDADF50780A12E065
:10586000200A10E0280A0CE0200A0AE03F0A06E0BD
:105870000D0A02E0200A08E1020E05D0080E03D04E
:10588000080EDF26100E97DA030EDBBE02D0DB9285
:10589000DB94DB50800B24E08ADAD890030EEB50C7
:1058A000000A08E6000EEE5C000EEE58000EEE5800
:1058B000000EEE5815E213DA2768286829682A686E
:1058C0004FEC3DF00A0E1EC0DBFF0B0E1FC0DBFFCE
:1058D0000C0E20C0DBFF0D0E21C0DBFF2D0E08D00B
:1058E000030EDBA202D02B0E03D0DBA408D0200EC7
:1058F000F36E170EF3CFDBFF150EDB2A02D0170E67
:10590000DB6A050EDB5003E1B7D901E189D0960EC1
:10591000006E7D0E016E000E026E070EDBCF03F0EF
:10592000046A056A066A03C027F004C028F005C0AF
:1059300029F006C02AF0D3D93CEC3EF000501E24DA
:10594000F36E01501F20F46E02502020F86EF4CF49
:10595000F7FFF3CFF6FF0800090EF5CFDBFF580E77
:10596000DF5C0FE1610EF36E090E7BD90AE3200EB6
:10597000006E090EDBCFE7FF0050E75E090EE7CFB0
:10598000DBFF070EDBCF00F0016A026A036A0FDA61
:1059900000C027F001C028F002C029F003C02AF09F
:1059A000EECF22F0EECF23F0EECF24F0EFCF25F0B4
:1059B0003CEC3EF025C0EDFF24C0EDFF23C0EDFF21
:1059C00022C0EFFF390EDBCFE9FFDB063A0EDBCF5B
:1059D000EAFF01E2DB06090EDBCFEFFF150EDB2A43
:1059E0004BD995E1030EDBA61DD06F0EDF5C06E1FF
:1059F000C1D918E3150EDB285BDA14D0780EDF5C12
:105A000009E0580EDF5C06E0620EDF5C03E0420E48
:105A1000DF5C08E1020EF36E160EF3CFDBFF02D05F
:105A2000150EDB6A030EDB50100B0EE0040EDBCF0D
:105A300000F0050EDB50D880005406E2060EDB5065
:105A400003E1040EDB5034DA95D90AE2050EDBCF10
:105A5000E7FF150EDB50E75E050EE7CFDBFF02D058
:105A6000050EDB6A040EDBCF00F0160E45D9D88098
:105A7000005414E2160EDBCFE6FF150EDBCFE6FF77
:105A8000040EDBCFE6FF050EDB50E552E75CE55286
:105A9000D880E754E552D880E7545FD9030EDB5035
:105AA000010B0BE1080EDB5008E0B2D801E08DD00D
:105AB000080EDB50BED8080EDB6A170EDB5007E07D
:105AC00088D9170EF1D903E1011C01E17ED0160E31
:105AD000DB5016E07ED9300EE66E9FD802E1011C45
:105AE00074E077D9DFCFE6FFD4EC3CF0E552E55225
:105AF000E552F4CF01F00001F31C02E1011C65E066
:105B0000050EDBCF00F0160EDB50D880005409E202
:105B1000050EDBCFE7FF160EDB50E75E050EE7CF85
:105B2000DBFF300EE66E050ECBD94FE1390EDB2AD6
:105B3000DBCFE9FF3A0E01E3DB2ADBCFEAFF090EF8
:105B4000EFCFDBFFDB500EE044D9090EADD902E107
:105B5000011C3BE0390EDB2ADBCFE9FF3A0EEDE317
:105B6000DB2AEBD755D831E1160EDBCFE6FF080E66
:105B7000C3D8E552E7245DD82ED0070EDB50030AC8
:105B80001CE0010A14E0030A07E07BD9DBCFEEFF3B
:105B9000020EDBCFEDFF1FD0F5D8056A03AE02D0B1
:105BA000046805682CD8BCD805C0EEFF14D0EAD82C
:105BB00003BE046824D8B4D80ED063D9DBCFEFFF7E
:105BC0000AD07BD905E1011C03E1F368F46810D029
:105BD000FCD801E3DB2A79D98AEF29F0010EDBCF6B
:105BE00000F0020EDBCF01F000C0F3FF01C0F4FFB4
:105BF0003B0EE15C02E2E16AE552E16ECBD029D9CD
:105C0000020EF0EF2EF061D90800F550DF6E1200A1
:105C1000200EE66E080E60EF2FF0D4EC3CF0E5525B
:105C2000E552E552F3CF00F0F4CF01F00001F31C90
:105C30001200006E016AD950010F4DD90050EE26B6
:105C40000150ED221200045E000E055AF70E04C04A
:105C5000DBFFF80E05C0DBFF04C0E9FF05C0EAFF6B
:105C60001200DBCFF4FFF350F45C1200DB50E76E60
:105C7000040EE7CFDBFF12000A0EDBCF00F00B0EA5
:105C8000DBCF01F00C0EDBCF02F00D0EDBCF03F00B
:105C900000500110021003101200130EEECFDBFFB4
:105CA000140EEDCFDBFF130EDBCF00F0140EDBCFB5
:105CB00001F00001800E01141200F70EDBCF04F09A
:105CC000F80EDBCF05F01200050EDB50E66ED95062
:105CD000130F01D9E552E750EE6EED6A12000A0E7D
:105CE000DBCF22F00B0EDBCF23F00C0EDBCF24F04A
:105CF0000D0EDBCF25F01200DBCFE6FF150EDBCF5C
:105D0000E6FF050EDB50E552E724E552E7241200DA
:105D1000DB50CED8010EF36E060EF3CFDBFF120080
:105D2000EE50EFCFEAFFE96E02C0EEFF03C0EEFFD8
:105D300004C0EEFF1200D9CFE6FFDACFE6FFE1CFD5
:105D4000D9FFE2CFDAFF1200DFCFE6FFE66A76EC9A
:105D50003EF0E552E552F3501200E76E080EE7CF31
:105D6000DBFF1200EECF00F0EECF01F0EFCF02F03C
:105D7000036A1200050EDBCF00F0150EDB50D88051
:105D800000541200010EDBCF02F0020EDBCF03F055
:105D9000046A1200E552E5CFDAFFE7CFD9FF12001F
:105DA0000A0E00C0DBFF0B0E01C0DBFF1200D95052
:105DB0000A0F6BEF2FF0F36E070EF3CFDBFF12002D
:105DC000EECF00F0EFCF01F01200010EDB2A020E41
:105DD0001200FC0EDBCFE6FFFD0EDBCFE6FF12006C
:105DE000005E000E015AF70E00C0DBFFF80E01C086
:105DF000DBFF00C0E9FF01C0EAFF1200DA20EA6E13
:105E0000EF2AEECFF6FF000EEF22EECFF7FFEF22E4
:105E1000EECFF8FF1200040EDBCFE6FF130EDB50CF
:105E2000E552E75C9ADFDB5004DF060EDB50120020
:105E3000090EDB500A0DF350DF24D00FE76E090E78
:105E4000E7CFDBFF03EF2EF0DB50F36E050E31EFF3
:105E50002EF0F70EDBCF00F0F80EDBCF01F01200D2
:105E6000DFCFE6FF0DEF2EF028DF030EECDEB2EF02
:105E70002EF05FEC29F0E552E552E552E5520009BB
:105E80001200BDDEEE50EFCFEAFFE96E010E120008
:105E9000130EDB50F36E040E31EF2EF0040EDB50C8
:105EA000F36E090E31EF2EF0DBCFE6FF0DEF2EF093
:105EB000E76E050EE7CFDBFF12008BDF30EF2FF030
:105EC000DBCFE6FF86DF39EF2FF0D950F90FE96E0F
:105ED000FF0EFEEF2EF0E96E000EDA20EA6E1200E1
:105EE000C76A110EC86E280EC66E400EC56E948627
:105EF00094889F869E969D86A286A196A08606D8A7
:105F0000A00EE66EA6EC3EF0E5521200D9CFE6FFF9
:105F1000E1CFD9FFE652C950DF6EC69AC69CC69E35
:105F2000C59CC59A0001846B82A80CD89E96A19648
:105F30000001806B816B826BC68AE552E552E7CF28
:105F4000D9FF1200D9CFE6FFE1CFD9FFE6528A8808
:105F5000C69ADF6A090EDF5C0EE29496020EE66EC8
:105F6000C0EC3EF0E5529486020EE66EC0EC3EF0C8
:105F7000E552DF2AEFD7E552E552E7CFD9FF12000D
:105F80000001816B1F0EC51403E1C750040B07E02D
:105F90000A0E006E8151005CF5E270EF2FF01200E6
:105FA000D9CFE6FFE1CFD9FFE652DF6A020E00014A
:105FB000815DFCE3E5DFFE0EDBCF83F0FD0EDBCF82
:105FC00085F00001816B010E806FC580805112E069
:105FD000020E006E8151005C03E2800E8011826F20
:105FE0008251F4E0C5847CDFDF2A050EDF5CE9E343
:105FF000000E02D0816B010EE552E552E7CFD9FFCA
:106000001200D9CFE6FFE1CFD9FF020E0001815D7A
:10601000FCE3B6DFFE0EDB5001090001836FFD0ECD
:10602000DBCF85F0816B0B0E806FC58080510EE059
:10603000020E006E8151005C03E2800E8011826FBF
:106040008251F4E0C5844CDF000E02D0816B010E5A
:10605000E552E7CFD9FF1200D9CFE6FFE1CFD9FF54
:10606000E652DF6A060EDF5C13E2DF50EA6AB80F21
:10607000E96E000EEA22EF50E66EDF50EA6A860F04
:10608000E96E000EEA22E552E750EF6EDF2AEAD70A
:10609000060EE66E140EE66E83DFE552E552E5521B
:1060A000E552E7CFD9FF1200D9CFE6FFE1CFD9FF04
:1060B000E652DF6A060EDF5C09E2DF50EA6AB80FDB
:1060C000E96E000EEA22EF6ADF2AF4D7C5DFE55257
:1060D000E552E7CFD9FF1200D9CFE6FFE1CFD9FFD4
:1060E000E6520001EF510101075D006E0851000109
:1060F000F055016E140E005C000E015805E2006AB6
:10610000F451005C27E31BD007C1EFF008C1F0F0A9
:1061100037DF0001A80E836F816B150E806FF16B66
:10612000C58080510EE0020E006E8151005C03E2DA
:10613000800E8011826F8251F4E0C584D1DE000EA2
:106140000CD0816B07C1EFF008C1F0F0006AF45188
:10615000005C02E2010E01D0000EE552E552E7CFED
:10616000D9FF1200D9CFE6FFE1CFD9FF020EE12619
:10617000010EDB6AB1DFDF6A0001F451DF5C18E277
:10618000DF50090DF3CFE9FFF4CFEAFFBE0EE92699
:10619000000EEA22EFCF00F0FE0EDB50005C06E1BD
:1061A000DF28E76E010EE7CFDBFF02D0DF2AE4D75E
:1061B000010EDB50006E020EE15C02E2E16AE55284
:1061C000E16E0050E552E7CFD9FF1200D9CFE6FFCC
:1061D000E1CFD9FFE652FE0EDBCFE6FFC3DFE5528B
:1061E000DF6EDF5003E1F36AF46A1BD0DF060001C3
:1061F000F451DF5C10E2DF50090DF3CFE9FFF4CF7B
:10620000EAFFBE0EE926000EEA22EE52EECF00F0C3
:10621000EFCF01F002D0006A016A00C0F3FF01C0B5
:10622000F4FFE552E552E7CFD9FF1200D9CFE6FFE0
:10623000E1CFD9FFE652FE0EDBCFE6FF93DFE5525A
:10624000DF6EDF5003E1F36AF46A1ED0DF0600015F
:10625000F451DF5C13E2DF50090DF3CFE9FFF4CF17
:10626000EAFFBE0EE926000EEA22030EE926000E22
:10627000EA22EECF00F0EFCF01F002D0006A016A0F
:1062800000C0F3FF01C0F4FFE552E552E7CFD9FFAC
:106290001200D9CFE6FFE1CFD9FFE652FE0EDBCFE9
:1062A000E6FF60DFE552DF6EDF5003E1F36AF46A78
:1062B0001ED0DF060001F451DF5C13E2DF50090D50
