:020000040000FA
:060800009EEF37F012002C
:020806001200DE
:0608080016EF04F01200DF
:0608180008EF06F01200DB
:02081E000100D7
:0C0820007B6F0000BE0000002E000000F6
:04082C00DACFE4FF3C
:10083000E2CFDAFFE9CFE4FFEACFE4FFF6CFE4FF4F
:10084000F7CFE4FFF5CFE4FFF3CFE4FFF4CFE4FF0D
:10085000FACFE4FF00EE20F0140EE80403E3EECF3D
:10086000E4FFFBD700EE00F0200EE80403E3EECF38
:10087000E4FFFBD7E652F2A42AD1D59EFC0ED76E38
:100880003F0ED66ED58E0101072B000E0823010105
:100890008F2B000E9023912392230101932B000EA6
:1008A0009423952396230101972B000E98239923D7
:1008B0009A2301019B2B000E9C239D239E23010163
:1008C000092B000E0A230101F52B000EF623320E30
:1008D0000001815D02E20001812B030E010100197C
:1008E00001E1015101E17FD0020E0101001901E196
:1008F00001513CE0010E0101001901E1015107E045
:100900000101005101E1015101E0DBD0DFD0805055
:10091000100B100A01E0010E010808E10101026B51
:10092000036B0101002B000E01231FD00101022BDC
:10093000000E03230101F40ED8800255010E035569
:1009400014E20101026B036B0101010E0D1901E1BB
:100950000E5106E00101070E0D1901E10E5105E1EE
:100960000101AA5101E0B2D0897EB0D080A805D0A3
:1009700001010007000E015B35D00101022B000EC2
:1009800003230101320ED8800255000E03552AE2DE
:10099000000EE66EE66A000EE66EE66AFEEC09F010
:1009A000E552E552E552E552899E899C8A908A98E3
:1009B000020E01010D1901E10E510BE001010D5173
:1009C00001E10E5101E00AD0898E0101096B0A6B29
:1009D00005D0040E01010D6F0E6B00D00101002B3C
:1009E000000E012373D080A83FD0040E01010D1921
:1009F00001E10E5133E0070E01010D1901E10E5125
:100A000028E0050E01010D1901E10E511DE0030E54
:100A100001010D1901E10E5112E0010E01010D1944
:100A200001E10E5107E001010D5101E10E5101E01C
:100A300016D015D0020E01010D6F0E6B10D0010EF5
:100A400001010D6F0E6B0BD0060E01010D6F0E6BC9
:100A500006D0080E01010D6F0E6B01D0FF000101E1
:100A6000002B000E01232CD0050E01010D1901E110
:100A70000E5116E001010D5101E10E5101E020D0AF
:100A80000101D00ED8800955070E0A5508E2899C4D
:100A9000050E01010D6F0E6B0101026B036B10D08F
:100AA0000101022B000E03230101640ED8800255C0
:100AB000000E035504E20101026B036B897E00D036
:100AC00005D0010E0101006F016B00D0F2949EA6CB
:100AD00073D00001816B0001826B000180510F0A0D
:100AE00064E0010A5EE0030A44E0010A39E0070A13
:100AF0002EE0080A23E0010A0AE0030A01E058D0C8
:100B000083C0C9FF0001846B0001802B54D0C5ACA9
:100B100003D080C082F011D000018451842BEA6A96
:100B2000860FE96E000EEA22EF50C96E0001855172
:100B30000001845D02E10001802B3DD0C5AC03D0F3
:100B400080C082F003D0C5840001806B34D0010ED8
:100B500000018311C96E0001846B0001802B2BD032
:100B6000C5AC03D080C082F003D0C5860001802BC5
:100B700022D000018451842BEA6A860FE96E000EB0
:100B8000EA22C9CFEFFF000185510001845D04E234
:100B9000C59A0001800703D0C58A0001802BC58853
:100BA0000AD0C5840001802B06D00001806B03D0E1
:100BB0000001806B00D09E96A1A606D0A196400EA3
:100BC000000180110001826FE55200EE1FF0200E3F
:100BD000E80403E3E5CFEDFFFBD700EE33F0140E9E
:100BE000E80403E3E5CFEDFFFBD7E5CFFAFFE5CF60
:100BF000F4FFE5CFF3FFE5CFF5FFE5CFF7FFE5CF56
:100C0000F6FFE5CFEAFFE5CFE9FFE5CFDAFF110018
:100C1000D8CFE4FFE0CFE4FFE46EDACFE4FFE2CF29
:100C2000DAFFE9CFE4FFEACFE4FFE6529EAC2CD135
:100C30009E9CC4CF06F1C3CF05F101010451EA6ABD
:100C4000A00FE96E010EEA22EF50050801E09BD0EB
:100C500001010C3504E20B510308000E0C5501E3B1
:100C600091D005C105F106C106F10101FF0ED88042
:100C70000557030E0657010E0101D89005370637B8
:100C8000E806FBE10101900E055D010E065905E243
:100C90000101900E056F010E066F900E0101055FB8
:100CA000010E0101065B0101FF0ED8800555030E00
:100CB000065504E201010569030E066F01010451A6
:100CC000E96EEA6AD890E936EA360F0EE926010E97
:100CD000EA22EE5001010527EE500101062305C16D
:100CE00034F006C135F0010E0F0B05E0D890353217
:100CF0003432E806FBE101010451E96EEA6AD8905A
:100D0000E936EA360F0EE926010EEA2234C0EEFF7C
:100D100035C0EDFF01010B6B0C6B01010451090A99
:100D20002EE0010A29E00F0A24E0010A1FE0030A6D
:100D30001AE0010A15E0070A10E0010A0BE0030AB5
:100D400006E0010A01E01ED0929089801BD09292A9
:100D5000898218D09294898415D09296898612D06F
:100D6000929A898A0FD093948A840CD093968A861B
:100D700009D093928A8206D093988A8803D0939060
:100D80008A8000D02CD001010451E96EEA6AD89023
:100D9000E936EA360F0EE926010EEA22EE5001018D
:100DA0000527EE500101062305C134F006C135F0D8
:100DB000010E0F0B05E0D89035323432E806FBE126
:100DC00001010451E96EEA6AD890E936EA360F0E5D
:100DD000E926010EEA2234C0EEFF35C0EDFF0A0E0F
:100DE000346E0101042B01010451D880345402E314
:100DF0000101046B01010451EA6AA00FE96E010EC2
:100E0000EA22EF50050837E101010B2B000E0C23FD
:100E100001010C3504E20B510308000E0C552BE2C6
:100E200001010451090A25E0010A21E00F0A1DE031
:100E3000010A19E0030A15E0010A11E0070A0DE0B2
:100E4000010A09E0030A05E0010A01E014D09280DA
:100E500012D0928210D092840ED092860CD0928AB8
:100E60000AD0938408D0938606D0938204D09388C6
:100E700002D0938000D001010451EA6ABE0FE96EEE
:100E8000000EEA22EF50C26E9EAA98D0ABA403D007
:100E9000AECFF9F193D0ABA203D0AB98AB888ED094
:100EA000AECFF9F10101010E0D1901E10E5173E010
:100EB0000101FA51080A66E00F0A5AE0010A4EE001
:100EC000030A42E0010A36E0070A2AE0010A1EE0AE
:100ED000030A12E0010A01E05ED0520E0101F95D41
:100EE00003E10101010EFA6F560E0101F95D03E104
:100EF0000101050EFA6F4FD0650E0101F95D02E1A7
:100F0000020E01D0000E0101FA6F45D0730E0101EF
:100F1000F95D02E1030E01D0000E0101FA6F3BD032
:100F2000650E0101F95D02E1040E01D0000E010120
:100F3000FA6F31D0740E0101F95D02E1070E01D0A4
:100F4000000E0101FA6F27D0650E0101F95D02E183
:100F5000060E01D0000E0101FA6F1DD0720E0101C4
:100F6000F95D02E1070E01D0000E0101FA6F13D006
:100F70000D0E0101F95D02E1080E01D0000E010124
:100F8000FA6F09D00A0E0101F95D02E1FF0002D0FB
:100F90000101FA6B00D00101F751EA6AD40FE96E42
:100FA000010EEA22F9C1EFFF1F0E346E0101F72B8B
:100FB0000101F751345C02E20101F76BE552E5CF24
:100FC000EAFFE5CFE9FFE5CFDAFFE550E5CFE0FF47
:100FD000E5CFD8FF1000D9CFE6FFE1CFD9FF030E50
:100FE000E126F00ED36EC00E9B6E0101FA6B01017B
:100FF0000D6B0E6B006B016B026B036B010EDB6AFA
:10100000020EDB6A010EDBCF00F0020EDBCF01F037
:10101000D890015004E61A0E005C000E01581AE246
:10102000010EDBCFE9FF020EDBCFEAFFD890E936F5
:10103000EA36D890E936EA36270EE926010EEA228A
:10104000EE6AEE6AEE6AEE6A010EDB2A020EDAE35F
:10105000DB2AD8D7010EDB6A020EDB6A010EDBCF7A
:1010600000F0020EDBCF01F0D890015004E6040E30
:10107000005C000E01581AE2010EDBCFE9FF020E00
:10108000DBCFEAFFD890E936EA36D890E936EA367F
:101090008F0EE926010EEA22EE6AEE6AEE6AEE6A29
:1010A000010EDB2A020EDAE3DB2AD8D7010EDB6A57
:1010B000020EDB6A010EDBCF00F0020EDBCF01F087
:1010C000D890015004E60A0E005C000E015811E2AF
:1010D000010EDBCFE9FF020EDBCFEAFFA00EE9260F
:1010E000010EEA22010EEF6EDB2A020EE3E3DB2A99
:1010F000E1D70101236B246B256B266B046B0B6B13
:101100000C6BAA6BAB6B096B0A6B076B086B896A7C
:101110003F0EDF6EDF50926E8A6A1F0EDF6E000197
:10112000D01DDF16E66A080EE66E0EEC0DF0E552F5
:10113000E5520101A86B0001C81DDF16E66A090E21
:10114000E66E0EEC0DF0E552E5520101A96BDF50A1
:10115000936E180E8B6E980E946E020ED56EFC0E6A
:10116000D76E3F0ED66ED58EF294F28AF184B00E11
:10117000B16EA292A192A092B1809D92010ECA6E10
:10118000CC68CB68CA849F6F000E256F266B236FD7
:10119000246BE66EE66AE66EE66A9AD8E552E55298
:1011A000E552E5529F9C9D8CBE0EC06E020EC16E34
:1011B00001010451EA6ABE0FE96E000EEA22EF5007
:1011C000C26EA7EC1EF09DEC33F0D09CD08EF28E58
:1011D000F28C580E006E6D0E016E026A00C0E6FFC2
:1011E000E66E02C0E6FFF6EC1EF0E552E552E5526F
:1011F00075EC21F081EC34F0010E0101006F016B00
:101200008050100B100A01E0010E0108F9E0010105
:101210000D510E1103E1010E0D6F0E6B898E030E41
:10122000E15C02E2E16AE552E16EE552E7CFD9FF07
:101230001200D1DEF40EE66E010EE66EB5D8E55270
:10124000E5520101096B0A6B3CEC1FF0000902E05A
:1012500042EC1FF0070E01010D1901E10E5135E0BE
:10126000050E0D1901E10E512BE0060E0D1901E1DD
:101270000E5126E0020E0D1901E10E5116E0030E8B
:101280000D1901E10E5111E0010E0D19DDE10E51B4
:10129000DBE1CC51095DCD510A59D6E3096B0A6BEC
:1012A000AAA1D2D7CEEC21F0CFD7C6EC11F0899EFF
:1012B000899C8A908A98010E01010D6F0E6BC4D72C
:1012C00086EC0EF004EC0FF0BFD70FEC10F0BCD79B
:1012D000D9CFE6FFE1CFD9FF040EE126FD0EDBCF2B
:1012E00000F0FE0EDBCF01F0FF0ED8800054030E9D
:1012F000015407E2FD0EDB68030EF36EFE0EF3CF22
:10130000DBFFFB0EDBCF00F0FC0EDBCF01F0FF0EAE
:10131000D8800054030E015407E2FB0EDB68030E75
:10132000F36EFC0EF3CFDBFFFB0EDBCF00F0FC0E09
:10133000DBCF01F0060ED89000360136E804FBE161
:1013400000C0DEFF01C0DDFFFD0EDBCF00F0FE0EB2
:10135000DBCF01F0060ED89000360136E804FBE141
:10136000020E00C0DBFF030E01C0DBFF010EDB50ED
:10137000BE6E030EDB50BB6EDF50E840E8403F0B13
:10138000300B0C09BD6E020EDB40E8403F0B300B0A
:101390000C09BA6E040EE15C02E2E16AE552E16E0C
:1013A000E552E7CFD9FF1200D9CFE6FFE1CFD9FF51
:1013B000020EE126F29A0101096B0A6BF28AF29A97
:1013C00009C1DEFF0AC1DDFFF28ADECF00F0DDCF0A
:1013D00001F0FD0EDBCF02F0FE0EDBCF03F002507A
:1013E000005C03500158EBE3020EE15C02E2E16AAB
:1013F000E552E16EE552E7CFD9FF1200D9CFE6FF03
:10140000E1CFD9FF0A0EE12623C100F024C101F08B
:10141000FD0EDB50001811E1FE0EDB5001180DE14E
:1014200025C102F026C103F0FB0EDB50021805E1D6
:10143000FC0EDB50031801E1E7D2000EE66EE66A0F
:10144000E66EE66A45DFE552E552E552E5528B9AD3
:101450008B908A9C8A9AA092A192B190B368050E53
:10146000B26EB180080EF6C0DBFFFD0EDBCF00F0E0
:10147000FE0EDBCF01F0013401E387D000500008FD
:10148000000E015401E381D0010EF36E040EF3CF80
:10149000DBFF060EDB6A080E286E296AFD0EDBCF25
:1014A0002DF0FE0EDBCF2EF0BCEC2CF026C0DEFFC4
:1014B00027C0DDFF0001000ED880F655000EF7555D
:1014C00001E3F8D0DECF00F0DDCF01F001341EE201
:1014D00000509008010E015419E2DECF02F0DDCF7A
:1014E00003F0900E025E010E035A02C028F003C002
:1014F00029F0FAC02DF0FBC02EF04AEC37F00001C5
:10150000F6512824006EF751292027D0DECF00F0B5
:10151000DDCF01F0900ED8800056010E0156F65135
:10152000005CF75101581CE2DECF02F0DDCF03F082
:10153000900ED8800256010E035602C028F003C058
:1015400029F0FAC02DF0FBC02EF04AEC37F0000174
:101550002850F65D006E2950F759080E00C0DBFFD9
:10156000080EDB50006E016ADECF02F0DDCF03F023
:1015700001500318E8AE02D0033404D00250005CDE
:101580000350015801E396D089D0FD0EDBCF00F067
:10159000FE0EDBCF01F00001800E011401E18FD0BF
:1015A000040EDB6A010EF36E060EF3CFDBFFF80EBE
:1015B000286E2968FD0EDBCF2DF0FE0EDBCF2EF05E
:1015C000BCEC2CF026C0DEFF27C0DDFF0001000EC2
:1015D000D880F655000EF7556DE2DECF00F0DDCF76
:1015E00001F001341EE200509008010E015419E28E
:1015F000DECF02F0DDCF03F0900E025E010E035A43
:1016000002C028F003C029F0FAC02DF0FBC02EF074
:101610004AEC37F00001F6512824006EF7512920DA
:1016200027D0DECF00F0DDCF01F0900ED88000563D
:10163000010E0156F651005CF75101581CE2DECF55
:1016400002F0DDCF03F0900ED8800256010E035653
:1016500002C028F003C029F0FAC02DF0FBC02EF024
:101660004AEC37F000012850F65D006E2950F7591A
:10167000080E00C0DBFF080EDB50006E016ADECFF3
:1016800002F0DDCF03F001500318E8AE02D00334BE
:1016900004D00250005C035001580CE2080EDB50ED
:1016A000006E016AD9CFE9FFDACFEAFFE850EE5EBB
:1016B0000150ED5A640EDE26000EDD220FD001012E
:1016C0009F510CE0010EF36E040EF3CFDBFF010E11
:1016D000F36E060EF3CFDBFFDE6ADD6A090EF8C09B
:1016E000DBFFFB0EDBCF00F0FC0EDBCF01F00134A3
:1016F00001E393D000500008000E015401E38DD0A7
:10170000010EF36E050EF3CFDBFF070EDB6A080E4A
:10171000286E296AFB0EDBCF2DF0FC0EDBCF2EF0FE
:10172000BCEC2CF0020E26C0DBFF030E27C0DBFF53
:101730000001000ED880F855000EF95501E310D1D4
:10174000020EDBCF00F0030EDBCF01F0013420E20C
:1017500000509008010E01541BE2020EDBCF02F094
:10176000030EDBCF03F0900E025E010E035A02C09F
:1017700028F003C029F0FAC02DF0FBC02EF04AEC8F
:1017800037F00001F8512824006EF95129202BD0A0
:10179000020EDBCF00F0030EDBCF01F0900ED880FD
:1017A0000056010E0156F851005CF95101581EE235
:1017B000020EDBCF02F0030EDBCF03F0900ED880D9
:1017C0000256010E035602C028F003C029F0FAC0E9
:1017D0002DF0FBC02EF04AEC37F000012850F85DE8
:1017E000006E2950F959090E00C0DBFF090EDB50CD
:1017F000006E016A020EDBCF02F0030EDBCF03F0B6
:1018000001500318E8AE02D0033404D00250005C4B
:101810000350015801E3A4D096D0FB0EDBCF00F0BB
:10182000FC0EDBCF01F00001800E011401E1A2D01B
:10183000050EDB6A010EF36E070EF3CFDBFFF80E29
:10184000286E2968FB0EDBCF2DF0FC0EDBCF2EF0CF
:10185000BCEC2CF0020E26C0DBFF030E27C0DBFF22
:101860000001000ED880F855000EF95501E378D03C
:10187000020EDBCF00F0030EDBCF01F0013420E2DB
:1018800000509008010E01541BE2020EDBCF02F063
:10189000030EDBCF03F0900E025E010E035A02C06E
:1018A00028F003C029F0FAC02DF0FBC02EF04AEC5E
:1018B00037F00001F8512824006EF95129202BD06F
:1018C000020EDBCF00F0030EDBCF01F0900ED880CC
:1018D0000056010E0156F851005CF95101581EE204
:1018E000020EDBCF02F0030EDBCF03F0900ED880A8
:1018F0000256010E035602C028F003C029F0FAC0B8
:101900002DF0FBC02EF04AEC37F000012850F85DB6
:10191000006E2950F959090E00C0DBFF090EDB509B
:10192000006E016A020EDBCF02F0030EDBCF03F084
:1019300001500318E8AE02D0033404D00250005C1A
:10194000035001580DE2090EDB50006E016AD950B8
:10195000020FE96EDACFEAFF0050EE5E0150ED5A59
:10196000D950020FE96EDACFEAFF640EEE26000EC0
:10197000ED2211D001019F510EE0010EF36E050E14
:10198000F3CFDBFF010EF36E070EF3CFDBFF020E8A
:10199000DB6A030EDB6A0101010E9F6FFD0EDBCFD8
:1019A00023F1FE0EDBCF24F1FB0EDBCF25F1FC0E85
:1019B000DBCF26F1A1A2FED7A192020EDBCFE6FF7C
:1019C000030EDBCFE6FFDECFE6FFDDCFE6FF80DCF8
:1019D000E552E552E552E552040EDB50E8B08B8A41
:1019E000E8A08B9A060EDB50E8B08B80E8A08B90C5
:1019F000050EDB50E8B08A8CE8A08A9C070EDB500D
:101A0000E8B08A8AE8A08A9A0A0EE15C02E2E16AFA
:101A1000E552E16EE552E7CFD9FF1200D9CFE6FFDC
:101A2000E1CFD9FFFE0EDB50090A5AE0010A50E06F
:101A30000F0A46E0010A3CE0030A32E0010A28E00E
:101A4000070A1EE0010A14E0030A0AE0010A4EE157
:101A5000FD0EDB50E8B08980E8B048D0899046D0D0
:101A6000FD0EDB50E8B08982E8B040D089923ED0CC
:101A7000FD0EDB50E8B08984E8B038D0899436D0C8
:101A8000FD0EDB50E8B08986E8B030D089962ED0C4
:101A9000FD0EDB50E8B0898AE8B028D0899A26D0BC
:101AA000FD0EDB50E8B08A84E8B020D08A941ED0C6
:101AB000FD0EDB50E8B08A86E8B018D08A9616D0C2
:101AC000FD0EDB50E8B08A82E8B010D08A920ED0CA
:101AD000FD0EDB50E8B08A88E8B008D08A9806D0BE
:101AE000FD0EDB50E8B08A80E8A08A90E552E7CF8F
:101AF000D9FF1200D9CFE6FFE1CFD9FFE652DF6A66
:101B0000FE0EDB50090A35E0010A2EE00F0A28E03C
:101B1000010A22E0030A1CE0010A16E0070A10E0AD
:101B2000010A0AE0030A04E0010A26E1895022D0F2
:101B30008950020B20E01BD08950040B1CE017D009
:101B40008950080B18E013D08950200B14E00FD0F7
:101B50008A50040B10E00BD08A50080B0CE007D021
:101B60008A50020B08E003D08A50100B04E0010EEB
:101B700002D08A50010BDF6EDF50E552E552E7CF0D
:101B8000D9FF1200D9CFE6FFE1CFD9FFFE0EDB501F
:101B9000030A1EE0010A14E0030A0AE0010A1EE13A
:101BA000FD0EDB50E8B0898EE8B018D0899E16D0C3
:101BB000FD0EDB50E8B0898CE8B010D0899C0ED0C7
:101BC000FD0EDB50E8B08A80E8B008D08A9006D0DD
:101BD000FD0EDB50E8B08A88E8A08A98E552E7CF8E
:101BE000D9FF1200D9CFE6FFE1CFD9FFE652DF6A75
:101BF000FE0EDB50030A13E0010A0DE0030A06E0C3
:101C0000010A12E18950800B08E003D08950400B93
:101C100004E0010E02D08A50010BDF6E05D08A501D
:101C2000100B01E0010EDF6EDF50E552E552E7CF09
:101C3000D9FF1200D9CFE6FFE1CFD9FFF29AFE0E0D
:101C4000DB50040DF3CFE9FFF4CFEAFF8F0EE92656
:101C5000010EEA22EE6AEE6AEE6AEE6AF28AE55256
:101C6000E7CFD9FF1200D9CFE6FFE1CFD9FF040EAD
:101C7000E126F29AFE0EDB50040DF3CFE9FFF4CF1C
:101C8000EAFF8F0EE926010EEA22EECFDFFF010EFA
:101C9000EECFDBFF020EEECFDBFF030EEECFDBFF5E
:101CA000F28ADECF26F0DECF27F0DECF28F0DDCFC0
:101CB00029F0DD52DD52040EE15C02E2E16AE552F8
:101CC000E16EE552E7CFD9FF1200B36AB26AB18084
:101CD0001200D9CFE6FFE1CFD9FF020EE126B250C4
:101CE000DF6E010EB3CFDBFFDECF00F0DDCF01F002
:101CF00000C0F3FF01C0F4FF020EE15C02E2E16A02
:101D0000E552E16EE552E7CFD9FF1200E66AE66AD6
:101D100039DFE552E552E66A010EE66E33DFE55241
:101D2000E552E66A020EE66E2DDFE552E552E66AFE
:101D3000030EE66E27DFE552E552050E01010D6F39
:101D40000E6B0101050E0D195EE10E515CE1320EC4
:101D5000D8800F55010E105503E2010EE66E01D03A
:101D6000E66AE66A0FDFE552E5520101320ED880DD
:101D70001155010E125503E2010EE66E02D0E66A1D
:101D8000010EE66EFFDEE552E5520101FF0ED8803E
:101D90001355010E145503E2010EE66E01D0E66AFA
:101DA000020EE66EEFDEE552E5520101FF0ED8802D
:101DB0001555010E165503E2010EE66E01D0E66AD6
:101DC000030EE66EDFDEE552E5520101FF0ED8801C
:101DD0001755010E18550AE2010EE66E020EE66E68
:101DE000D1DEE552E552010EE66E07D0E66A020E3C
:101DF000E66EC8DEE552E552E66A030EE66EC2DE26
:101E0000E552E5529ED71200E66AE66ABBDEE5526D
:101E1000E552E66A010EE66EB5DEE552E552E66A87
:101E2000020EE66EAFDEE552E552E66A030EE66E9E
:101E3000A9DEE552E552010EE66EE66AA3DEE55242
:101E4000E552320EE66EE66AE66EE66AFEEC09F0F0
:101E5000E552E552E552E552E80EE66E030EE66EF7
:101E6000D4EC09F0E552E552E66AE66A8BDEE5520B
:101E7000E552000EE66EE66AE66EE66AFEEC09F0F2
:101E8000E552E552E552E552C80EE66EE66AD4EC3C
:101E900009F0E552E552010EE66EE66E73DEE5529C
:101EA000E552CE0EE66EE668E66EE668FEEC09F0F8
:101EB000E552E552E552E552E80EE66E030EE66E97
:101EC000D4EC09F0E552E552E66A010EE66E5ADE00
:101ED000E552E552000EE66EE66AE66EE66AFEEC54
:101EE00009F0E552E552E552E552C80EE66EE66AA3
:101EF000D4EC09F0E552E552010EE66E020EE66EF4
:101F000041DEE552E552320EE66EE66ACE0EE66E30
:101F1000E668FEEC09F0E552E552E552E552E80EBE
:101F2000E66E030EE66ED4EC09F0E552E552E66A81
:101F3000020EE66E27DEE552E552000EE66EE66A18
:101F4000E66EE66AFEEC09F0E552E552E552E5522E
:101F5000C80EE66EE66AD4EC09F0E552E552010ED1
:101F6000E66E030EE66E0EDEE552E552CE0EE66E2E
:101F7000E668320EE66EE66AFEEC09F0E552E552DE
:101F8000E552E552E80EE66E030EE66ED4EC09F07B
:101F9000E552E552E66A030EE66EF4DDE552E552DF
:101FA000000EE66EE66AE66EE66AFEEC09F0E552C1
:101FB000E552E552E552320EE66EE66A000EE66E36
:101FC000E66AFEEC09F0E552E552E552E552E80E0C
:101FD000E66E030EE66ED4EC09F0E552E552000E13
:101FE000E66EE66A320EE66EE66AFEEC09F0E5524F
:101FF000E552E552E552E80EE66E030EE66ED4ECCD
:1020000009F0E552E552000EE66EE66AE66EE66A13
:10201000FEEC09F0E552E552E552E55212003CECC7
:102020001FF0000902E042EC1FF00101080E0D193B
:1020300001E080D00E5101E07DD0010EE66EE66A2F
:10204000A1DDE552E552320EE66EE66AE66EE66A1C
:10205000FEEC09F0E552E552E552E552D00EE66E8F
:10206000070EE66ED4EC09F0E552E552640EE66E1A
:10207000E66AE66EE66AFEEC09F0E552E552E552E4
:10208000E552E80EE66E030EE66ED4EC09F0E5527A
:10209000E552010EE66E030EE66E74DDE552E55282
:1020A000000EE66EE66AE66EE66AFEEC09F0E552C0
:1020B000E552E552E552F40EE66E010EE66ED4EC02
:1020C00009F0E552E552CE0EE66EE668E66EE66889
:1020D000FEEC09F0E552E552E552E552D00EE66E0F
:1020E000070EE66ED4EC09F0E552E5529C0EE66E62
:1020F000E668E66EE668FEEC09F0E552E552E55268
:10210000E552E80EE66E030EE66ED4EC09F0E552F9
:10211000E552E66A030EE66E35DDE552E552000E45
:10212000E66EE66AE66EE66AFEEC09F0E552E55216
:10213000E552E552070E01010D6F0E6B70D7D9CF36
:10214000E6FFE1CFD9FFFD0EDBCFCEF1FE0EDBCFF8
:10215000CFF10101D06BD16B6F0ECE5F000ECF5B64
:10216000D05BD15B700E2B6E170E2C6E2D6A2E6A13
:10217000CEC126F0CFC127F0D0C128F0D1C129F0BF
:102180000EEC36F022C0CEF123C0CFF124C0D0F146
:1021900025C0D1F18A0E2B6E0C0E2C6E2D6A2E6A84
:1021A00022C026F023C027F024C028F025C029F043
:1021B00088EC2CF026C0CEF127C0CFF128C0D0F19A
:1021C00029C0D1F1640E0101CE5F000ECF5BD05B60
:1021D000D15BD880D151FF0A08E6F60ECE5DFF0E26
:1021E000CF59FF0ED059FF0ED1590BE20001190E45
:1021F000E86FFC0EE96FEA69EB6907C1D2F108C12B
:10220000D3F10101D251075D006E0851D355016E23
:10221000E80E005C030E015801E2B0D007C1D2F114
:1022200008C1D3F1190E0001E81911E1FC0EE919FA
:102230000EE1E868EA190BE1E868EB1908E1CEC1A4
:10224000E8F0CFC1E9F0D0C1EAF0D1C1EBF0E80E7F
:10225000E96E000EEA6E030EEB500101D119E8AEF3
:1022600002D0D13508D0CE51EE5CCF51EE58D051CE
:10227000EE58D151EE582DE2E80EE96E000EEA6EEE
:10228000EE50CE5D006EEE50CF59016EEE50D0593B
:10229000026EEE50D159036EE834000E031809E6C1
:1022A000D880010E0054000E0154000E0254000E9E
:1022B00003543DE2E8C0CEF1E9C0CFF1EAC0D0F16D
:1022C000EBC0D1F1020ECE27000ECF23D023D123B5
:1022D0002ED0CE0EE96E010EEA6EEE500001E85DE2
:1022E000006EEE50E959016EEE50EA59026EEE5062
:1022F000EB59036EE834000E031809E6D880010E8E
:102300000054000E0154000E0254000E03540FE25C
:10231000E8C0CEF1E9C0CFF1EAC0D0F1EBC0D1F115
:10232000020E0101CE5F000ECF5BD05BD15B0101DD
:10233000CE510001E8270101CF510001E92301013D
:10234000D0510001EA230101D1510001EB23020E1B
:102350002B6E2C6A2D6A2E6AE8C026F0E9C027F0A1
:10236000EAC028F0EBC029F088EC2CF026C0E8F099
:1023700027C0E9F028C0EAF029C0EBF0E8C0F3FF7D
:0C238000E9C0F4FFE552E7CFD9FF1200DE
:04238C00D9CFE6FFC0
:10239000E1CFD9FF500EE126DE6ADE6AA00EDE6EC6
:1023A000420EDD6EDD52DD52040EDB6A050EDB6A85
:1023B000A00EF36E060EF3CFDBFF410EF36E070E99
:1023C000F3CFDBFF660EF36E080EF3CFDBFF660E76
:1023D000F36E090EF3CFDBFFE60EF36E0A0EF3CFBA
:1023E000DBFF3F0EF36E0B0EF3CFDBFF0C0EDB6A51
:1023F0000D0EDB6A0E0EDB6A0F0EDB6A100EDB6A57
:10240000110EDB6A120EDB6A130EDB6A140EDB6A36
:10241000150EDB6A160EDB6A170EDB6A180EDB6A16
:10242000190EDB6A1A0EDB6A1B0EDB6A1C0EDB6AF6
:102430001D0EDB6A8C0EF36E1E0EF3CFDBFF420E19
:10244000F36E1F0EF3CFDBFF200EDB6A210EDB6A7B
:10245000700EF36E220EF3CFDBFF420EF36E230EEF
:10246000F3CFDBFF240EDB6A250EDB6A260EDB6A68
:10247000270EDB6A280EDB6A290EDB6AA00EF36EDC
:102480002A0EF3CFDBFF410EF36E2B0EF3CFDBFFF3
:102490002C0EDB6A2D0EDB6AA00EF36E2E0EF3CF30
:1024A000DBFF410EF36E2F0EF3CFDBFF300EDB6A46
:1024B000310EDB6A800EF36E320EF3CFDBFF3F0E80
:1024C000F36E330EF3CFDBFF340EDB6A350EDB6ABF
:1024D000360EDB6A370EDB6A380EDB6A390EDB6AD2
:1024E000C80EF36E3A0EF3CFDBFF430EF36E3B0ED6
:1024F000F3CFDBFF3C0EDB6A3D0EDB6A3E0EDB6A90
:102500003F0EDB6AD950380FE96EDACFEAFF400E92
:10251000EECFDBFF410EEECFDBFF420EEECFDBFF57
:10252000430EEECFDBFF440EDB6A450EDB6A460E40
:10253000DB6A470EDB6A480EDB6A490EDB6A4A0E2D
:10254000DB6A4B0EDB6A4C0EDB6A4D0EDB6A4E0E0D
:10255000DB6A4F0EDB6AE66A1AEC0EF0E5528FC1B9
:1025600026F090C127F091C128F092C129F016EC15
:102570002BF027C000F028C001F029C002F02AC0CB
:1025800003F0400EDBCF04F0410EDBCF05F0420E2E
:10259000DBCF06F0430EDBCF07F004C02CF005C004
:1025A0002DF006C02EF007C02FF032EC2BF03C0EC1
:1025B00027C0DBFF3D0E28C0DBFF3E0E29C0DBFF3E
:1025C0003F0E2AC0DBFF13C128F014C129F001EC33
:1025D0002BF027C008F028C009F029C00AF02AC053
:1025E0000BF0140EDBCF0CF0150EDBCF0DF0160E3A
:1025F000DBCF0EF0170EDBCF0FF00CC02CF00DC0B0
:102600002DF00EC02EF00FC02FF031EC2BF027C0B4
:1026100004F028C005F029C006F02AC007F0180E03
:10262000DBCF14F0190EDBCF15F01A0EDBCF16F04E
:102630001B0EDBCF17F0140EDBCF18F0150EDBCF1F
:1026400019F0160EDBCF1AF0170EDBCF1BF018C0F7
:102650002CF019C02DF01AC02EF01BC02FF014C0A2
:1026600027F015C028F016C029F017C02AF031EC69
:102670002BF027C010F028C011F029C012F02AC09A
:1026800013F027C02CF028C02DF029C02EF02AC04E
:102690002FF004C027F005C028F006C029F007C0BD
:1026A0002AF031EC2BF027C000F028C001F029C03F
:1026B00002F02AC003F02C6A2D6AB40E2E6E430E6F
:1026C0002F6E32EC2BF007EC2DF026C047F127C01F
:1026D00048F128C049F129C04AF1680E2B6E010E5D
:1026E0002C6E2D6A2E6A47C126F048C127F049C1D9
:1026F00028F04AC129F088EC2CF022C047F123C011
:1027000048F124C049F125C04AF147C126F048C12B
:1027100027F049C128F04AC129F018EC2BF027C056
:1027200000F028C001F029C002F02AC003F0CD0E4D
:102730002C6ECC0E2D6E8C0E2E6E3F0E2F6E1BEC63
:102740002CF0100E27C0DBFF110E28C0DBFF120E8D
:1027500029C0DBFF130E2AC0DBFF13C128F014C110
:1027600029F001EC2BF027C008F028C009F029C09F
:102770000AF02AC00BF0140EDBCF0CF0150EDBCFE5
:102780000DF0160EDBCF0EF0170EDBCF0FF00CC0E6
:102790002CF00DC02DF00EC02EF00FC02FF031EC3C
:1027A0002BF027C004F028C005F029C006F02AC08D
:1027B00007F02C6A2D6AB40E2E6E430E2F6E32EC8B
:1027C0002BF027C000F028C001F029C002F02AC079
:1027D00003F02C6A2D6A340E2E6E420E2F6E31ECF1
:1027E0002BF007EC2DF026C047F127C048F128C098
:1027F00049F129C04AF1680E2B6E010E2C6E2D6A2C
:102800002E6A47C126F048C127F049C128F04AC1C5
:1028100029F088EC2CF022C047F123C048F124C0F5
:1028200049F125C04AF147C126F048C127F049C106
:1028300028F04AC129F018EC2BF027C008F028C076
:1028400009F029C00AF02AC00BF0C30E2C6EF50E59
:102850002D6E480E2E6E400E2F6E1BEC2CF027C0F6
:1028600004F028C005F029C006F02AC007F02C6A41
:102870002D6A340E2E6E430E2F6EC8EC2BF027C03F
:1028800000F028C001F029C002F02AC003F0CD0EEC
:102890002C6ECC0E2D6E8C0E2E6E3F0E2F6E1BEC02
:1028A0002CF00C0E27C0DBFF0D0E28C0DBFF0E0E38
:1028B00029C0DBFF0F0E2AC0DBFF0FC128F010C1BB
:1028C00029F001EC2BF027C000F028C001F029C04E
:1028D00002F02AC003F0CD0E2C6ECC0E2D6E8C0EA5
:1028E0002E6E3F0E2F6E1BEC2CF0340E27C0DBFF3C
:1028F000350E28C0DBFF360E29C0DBFF370E2AC09D
:10290000DBFFB40E010115250101536F000E01011B
:1029100016210101546F556B566B680E2B6E010E1C
:102920002C6E2D6A2E6A53C126F054C127F055C172
:1029300028F056C129F088EC2CF022C053F123C0B6
:1029400054F124C055F125C056F153C126F054C1AD
:1029500027F055C128F056C129F018EC2BF027C0FC
:1029600008F028C009F029C00AF02AC00BF0C30EF5
:102970002C6EF50E2D6E480E2E6E400E2F6E1BEC3B
:102980002CF027C004F028C005F029C006F02AC0AA
:1029900007F02C6A2D6A340E2E6E430E2F6EC8EC93
:1029A0002BF027C000F028C001F029C002F02AC097
:1029B00003F0CD0E2C6ECC0E2D6E8C0E2E6E3F0EB7
:1029C0002F6E1BEC2CF0440E27C0DBFF450E28C0F9
:1029D000DBFF460E29C0DBFF470E2AC0DBFF0101EB
:1029E000900E155D010E165901E381D03C0EDBCF30
:1029F00000F03D0EDBCF01F03E0EDBCF02F03F0ECC
:102A0000DBCF03F0380EDBCF04F0390EDBCF05F05F
:102A10003A0EDBCF06F03B0EDBCF07F004C02CF004
:102A200005C02DF006C02EF007C02FF000C027F023
:102A300001C028F002C029F003C02AF03EEC2DF0BE
:102A4000010A14E1400EDB6A410EDB6A420EDB6ACA
:102A5000430EDB6A0001800EB86FB96FBA6FBB6FAF
:102A600059EC34F0E66A1AEC0EF0E552D950440FF6
:102A7000E96EDACFEAFFEECFE6FFEECFE6FFEECF6C
:102A8000E6FFEFCFE6FFFFEC36F0E552E552E55208
:102A9000E55226C000F027C001F028C002F029C08E
:102AA00003F026C027F001C028F002C029F003C0BF
:102AB0002AF0000EDFCF2CF0010EDBCF2DF0020E3E
:102AC000DBCF2EF0030EDBCF2FF01BEC2CF0480EEB
:102AD00027C0DBFF490E28C0DBFF4A0E29C0DBFF01
:102AE0004B0E2AC0DBFFD950440F32EF1AF0900E84
:102AF000D8801355010E14553CE3340EDBCF00F0A3
:102B0000350EDBCF01F0360EDBCF02F0370EDBCF18
:102B100003F02C6A2D6A480E2E6E420E2F6E00C0F6
:102B200027F001C028F002C029F003C02AF03EECD3
:102B30002DF0010A41E1340EDBCF04F0350EDBCF7E
:102B400005F0360EDBCF06F0370EDBCF07F02C6A30
:102B50002D6A9B0E2E6E430E2F6E04C027F005C00B
:102B600028F006C029F007C02AF047EC2DF0010A32
:102B700023E1D950380FE96EDACFEAFF400EEECFED
:102B8000DBFF410EEECFDBFF420EEECFDBFF430E4D
:102B9000EECFDBFF480EDB6A490EDB6A4A0EDB6ACA
:102BA0004B0EDB6A4C0EDB6A4D0EDB6A4E0EDB6AA7
:102BB0004F0EDB6A6DEF1AF00101F40E115D010E8C
:102BC000125913E2D950380FE96EDACFEAFF400EFE
:102BD000EECFDBFF410EEECFDBFF420EEECFDBFF91
:102BE000430EEECFDBFFF3EF19F0100EDBCF00F05A
:102BF000110EDBCF01F0120EDBCF02F0130EDBCF94
:102C000003F0040EDBCF27F0050EDBCF28F0060E15
:102C1000DBCF29F0070EDBCF2AF0080EDBCF2CF03C
:102C2000090EDBCF2DF00A0EDBCF2EF00B0EDBCF23
:102C30002FF01BEC2CF027C004F028C005F029C0B1
:102C400006F02AC007F027C02CF028C02DF029C0BC
:102C50002EF02AC02FF000C027F001C028F002C0DB
:102C600029F003C02AF047EC2DF0010A01E189D0D8
:102C7000100EDBCF08F0110EDBCF09F0120EDBCF08
:102C80000AF0130EDBCF0BF0146A156AB40E166E41
:102C9000430E176E040EDBCF18F0050EDBCF19F0D4
:102CA000060EDBCF1AF0070EDBCF1BF018C02CF09E
:102CB00019C02DF01AC02EF01BC02FF014C027F041
:102CC00015C028F016C029F017C02AF031EC2BF0FF
:102CD00027C010F028C011F029C012F02AC013F04C
:102CE000040EDBCF27F0050EDBCF28F0060EDBCF7E
:102CF00029F0070EDBCF2AF0080EDBCF2CF0090EEF
:102D0000DBCF2DF00A0EDBCF2EF00B0EDBCF2FF03A
:102D10001BEC2CF027C01CF028C01DF029C01EF0B1
:102D20002AC01FF027C02CF028C02DF029C02EF09B
:102D30002AC02FF010C027F011C028F012C029F0CF
:102D400013C02AF031EC2BF027C00CF028C00DF096
:102D500029C00EF02AC00FF027C02CF028C02DF09B
:102D600029C02EF02AC02FF008C027F009C028F093
:102D70000AC029F00BC02AF03EEC2DF0010A01E058
:102D8000B5D0D950380FE96EDACFEAFF400EEECF5A
:102D9000DBFF410EEECFDBFF420EEECFDBFF430E3B
:102DA000EECFDBFF100EDBCF00F0110EDBCF01F01A
:102DB000120EDBCF02F0130EDBCF03F0040EDBCFDD
:102DC00004F0050EDBCF05F0060EDBCF06F0070E94
:102DD000DBCF07F004C02CF005C02DF006C02EF0AC
:102DE00007C02FF000C027F001C028F002C029F072
:102DF00003C02AF047EC2DF0010A4DE0100EDBCFA6
:102E000008F0110EDBCF09F0120EDBCF0AF0130E23
:102E1000DBCF0BF0106A116AB40E126E430E136E04
:102E2000040EDBCF14F0050EDBCF15F0060EDBCF62
:102E300016F0070EDBCF17F014C02CF015C02DF0E4
:102E400016C02EF017C02FF010C027F011C028F0C8
:102E500012C029F013C02AF031EC2BF027C00CF07F
:102E600028C00DF029C00EF02AC00FF027C02CF0AA
:102E700028C02DF029C02EF02AC02FF008C027F05E
:102E800009C028F00AC029F00BC02AF03EEC2DF052
:102E9000010A01E0A8D2D9CFE9FFDACFEAFF480E54
:102EA000EECFDBFF490EEECFDBFF4A0EEECFDBFFAE
:102EB0004B0EEECFDBFFD9CFE9FFDACFEAFFEECF43
:102EC00000F0EECF01F0EECF02F0EFCF03F02C6A6E
:102ED0002D6A800E2E6EBF0E2F6E00C027F001C02F
:102EE00028F002C029F003C02AF0E9D2D950380FE7
:102EF000E96EDACFEAFF400EEECFDBFF410EEECFF8
:102F0000DBFF420EEECFDBFF430EEECFDBFF200EEA
:102F1000DBCF04F0210EDBCF05F0220EDBCF06F075
:102F2000230EDBCF07F01C0EDBCF08F01D0EDBCF2E
:102F300009F01E0EDBCF0AF01F0EDBCF0BF008C02E
:102F40002CF009C02DF00AC02EF00BC02FF004C0E9
:102F500027F005C028F006C029F007C02AF031ECA0
:102F60002BF027C000F028C001F029C002F02AC0D1
:102F700003F02C6A200E2D6EFD0E2E6E460E2F6E67
:102F8000C8EC2BF0100EDBCF2CF0110EDBCF2DF0A8
:102F9000120EDBCF2EF0130EDBCF2FF01BEC2CF03C
:102FA000100EDBCF2CF0110EDBCF2DF0120EDBCF8D
:102FB0002EF0130EDBCF2FF01BEC2CF0240E27C0CD
:102FC000DBFF250E28C0DBFF260E29C0DBFF270E06
:102FD0002AC0DBFF240EDBCF04F0250EDBCF05F08B
:102FE000260EDBCF06F0270EDBCF07F0200EDBCF5F
:102FF00010F0210EDBCF11F0220EDBCF12F0230EEA
:10300000DBCF13F01C0EDBCF14F01D0EDBCF15F061
:103010001E0EDBCF16F01F0EDBCF17F014C02CF006
:1030200015C02DF016C02EF017C02FF010C027F0DD
:1030300011C028F012C029F013C02AF031EC2BF097
:1030400027C00CF028C00DF029C00EF02AC00FF0E8
:103050002C6A2D6AB40E2E6E420E2F6EC8EC2BF029
:10306000100EDBCF2CF0110EDBCF2DF0120EDBCFCC
:103070002EF0130EDBCF2FF01BEC2CF027C008F046
:1030800028C009F029C00AF02AC00BF027C02CF094
:1030900028C02DF029C02EF02AC02FF004C027F040
:1030A00005C028F006C029F007C02AF031EC2BF04B
:1030B00027C000F028C001F029C002F02AC003F0A8
:1030C000200EDBCF18F0210EDBCF19F0220EDBCF64
:1030D0001AF0230EDBCF1BF018C02CF019C02DF016
:1030E0001AC02EF01BC02FF032EC2BF0240E27C09C
:1030F000DBFF250E28C0DBFF260E29C0DBFF270ED5
:103100002AC0DBFF100EDBCF00F0110EDBCF01F089
:10311000120EDBCF02F0130EDBCF03F02C6A2D6A08
:10312000340E2E6E430E2F6E00C027F001C028F023
:1031300002C029F003C02AF047EC2DF0010A4EE14D
:10314000240EDBCF08F0250EDBCF09F0260EDBCFF7
:103150000AF0270EDBCF0BF0C30E2C6EF50E2D6E92
:10316000480E2E6E400E2F6E08C027F009C028F0C2
:103170000AC029F00BC02AF01BEC2CF027C004F089
:1031800028C005F029C006F02AC007F02C6A2D6A75
:10319000340E2E6E430E2F6EC8EC2BF027C000F0BD
:1031A00028C001F029C002F02AC003F0D9500C0F4A
:1031B000E96EDACFEAFFEECF27F0EECF28F0EECFC0
:1031C00029F0EFCF2AF000C02CF001C02DF002C092
:1031D0002EF003C02FF032EC2BF04DD0240EDBCFBD
:1031E00008F0250EDBCF09F0260EDBCF0AF0270E04
:1031F000DBCF0BF0C30E2C6EF50E2D6E480E2E6E2F
:10320000400E2F6E08C027F009C028F00AC029F030
:103210000BC02AF01BEC2CF027C004F028C005F0EE
:1032200029C006F02AC007F02C6A2D6A340E2E6ED3
:10323000430E2F6EC8EC2BF027C000F028C001F021
:1032400029C002F02AC003F0D9500C0FE96EDACF82
:10325000EAFFEECF27F0EECF28F0EECF29F0EFCF48
:103260002AF000C02CF001C02DF002C02EF003C0E7
:103270002FF031EC2BF02AC0EDFF29C0EDFF28C064
:10328000EDFF27C0EFFF0C0EDBCF08F00D0EDBCFFC
:1032900009F00E0EDBCF0AF00F0EDBCF0BF02C6A1D
:1032A0002D6A340E2E6E430E2F6E08C027F009C013
:1032B00028F00AC029F00BC02AF01BEC2CF027C024
:1032C00004F028C005F029C006F02AC007F0C30E9C
:1032D0002C6EF50E2D6E480E2E6E400E2F6EC8EC25
:1032E0002BF027C000F028C001F029C002F02AC04E
:1032F00003F02C6A2D6AB40E2E6E430E2F6E32EC44
:103300002BF00C0E27C0DBFF0D0E28C0DBFF0E0ECE
:1033100029C0DBFF0F0E2AC0DBFF0C0EDBCF27F02E
:103320000D0EDBCF28F00E0EDBCF29F00F0EDBCF1A
:103330002AF007EC2DF026C04BF127C04CF128C035
:103340004DF129C04EF1680E2B6E010E2C6E2D6AC8
:103350002E6A4BC126F04CC127F04DC128F04EC15A
:1033600029F088EC2CF022C04BF123C04CF124C092
:103370004DF125C04EF14BC126F04CC127F04DC197
:1033800028F04EC129F018EC2BF027C004F028C01B
:1033900005F029C006F02AC007F0C30E2C6EF50E0A
:1033A0002D6E480E2E6E400E2F6E1BEC2CF027C09B
:1033B00000F028C001F029C002F02AC003F02C6AF6
:1033C0002D6A340E2E6E430E2F6EC8EC2BF00C0EB1
:1033D00027C0DBFF0D0E28C0DBFF0E0E29C0DBFF70
:1033E0000F0E2AC0DBFFD9500C0FE96EDACFEAFFCF
:1033F000EECFE6FFEECFE6FFEECFE6FFEFCFE6FF44
:10340000FFEC36F0E552E552E552E55226C000F0F9
:1034100027C001F028C002F029C003F026C027F021
:1034200001C028F002C029F003C02AF0000EDFCF4F
:103430002CF0010EDBCF2DF0020EDBCF2EF0030EB1
:10344000DBCF2FF01BEC2CF0480E27C0DBFF490E22
:1034500028C0DBFF4A0E29C0DBFF4B0E2AC0DBFF72
:10346000D9500C0FE96EDACFEAFFEECFE6FFEECFD0
:10347000E6FFEECFE6FFEFCFE6FFD7EC36F0E55202
:10348000E552E552E55226C000F027C001F028C001
:1034900002F029C003F026C027F001C028F002C0C6
:1034A00029F003C02AF0000EDFCF2CF0010EDBCF95
:1034B0002DF0020EDBCF2EF0030EDBCF2FF01BEC36
:1034C0002CF04C0E27C0DBFF4D0E28C0DBFF4E0E4C
:1034D00029C0DBFF4F0E2AC0DBFF340EDBCF00F02C
:1034E000350EDBCF01F0360EDBCF02F0370EDBCF2F
:1034F00003F0300EDBCF04F0310EDBCF05F0320EDF
:10350000DBCF06F0330EDBCF07F004C02CF005C094
:103510002DF006C02EF007C02FF000C027F001C02C
:1035200028F002C029F003C02AF047EC2DF0010A70
:103530004CE0340EDBCF00F0350EDBCF01F0360E61
:10354000DBCF02F0370EDBCF03F0086A096AB40E56
:103550000A6E430E0B6E300EDBCF0CF0310EDBCF5C
:103560000DF0320EDBCF0EF0330EDBCF0FF00CC0C0
:103570002CF00DC02DF00EC02EF00FC02FF008C0A3
:1035800027F009C028F00AC029F00BC02AF031EC5E
:103590002BF027C004F028C005F029C006F02AC08F
:1035A00007F027C02CF028C02DF029C02EF02AC02B
:1035B0002FF000C027F001C028F002C029F003C09E
:1035C0002AF03EEC2DF0010A06E101013F6B406B51
:1035D000416B426B23D2340EDBCF00F0350EDBCFD4
:1035E00001F0360EDBCF02F0370EDBCF03F02C6A92
:1035F0002D6A340E2E6E430E2F6E00C027F001C0D0
:1036000028F002C029F003C02AF047EC2DF0010A8F
:1036100001E0FED02C0EDBCF04F02D0EDBCF05F049
:103620002E0EDBCF06F02F0EDBCF07F0280EDBCF00
:1036300008F0290EDBCF09F02A0EDBCF0AF02B0EA3
:10364000DBCF0BF008C02CF009C02DF00AC02EF023
:103650000BC02FF004C027F005C028F006C029F0E9
:1036600007C02AF031EC2BF027C000F028C001F091
:1036700029C002F02AC003F02C6A200E2D6EFD0E28
:103680002E6E460E2F6EC8EC2BF0340EDBCF2CF0D6
:10369000350EDBCF2DF0360EDBCF2EF0370EDBCF25
:1036A0002FF01BEC2CF0340EDBCF2CF0350EDBCFE3
:1036B0002DF0360EDBCF2EF0370EDBCF2FF01BECCC
:1036C0002CF007EC2DF026C03FF127C040F128C0B8
:1036D00041F129C042F13FC126F040C127F041C16C
:1036E00028F042C129F018EC2BF027C004F028C0C4
:1036F00005F029C006F02AC007F02C0EDBCF10F031
:103700002D0EDBCF11F02E0EDBCF12F02F0EDBCF04
:1037100013F0280EDBCF14F0290EDBCF15F02A0EA4
:10372000DBCF16F02B0EDBCF17F014C02CF015C03A
:103730002DF016C02EF017C02FF010C027F011C0CA
:1037400028F012C029F013C02AF031EC2BF027C06A
:103750000CF028C00DF029C00EF02AC00FF02C6A22
:103760002D6AB40E2E6E420E2F6EC8EC2BF0340E66
:10377000DBCF2CF0350EDBCF2DF0360EDBCF2EF06D
:10378000370EDBCF2FF01BEC2CF027C008F028C041
:1037900009F029C00AF02AC00BF027C02CF028C07D
:1037A0002DF029C02EF02AC02FF004C027F005C04C
:1037B00028F006C029F007C02AF031EC2BF027C012
:1037C00000F028C001F029C002F02AC003F02C0E3E
:1037D000DBCF18F02D0EDBCF19F02E0EDBCF1AF059
:1037E0002F0EDBCF1BF018C02CF019C02DF01AC023
:1037F0002EF01BC02FF032EC2BF007EC2DF026C082
:103800003FF127C040F128C041F129C042F106D163
:103810002C0EDBCF04F02D0EDBCF05F02E0EDBCF10
:1038200006F02F0EDBCF07F0280EDBCF08F0290EB5
:10383000DBCF09F02A0EDBCF0AF02B0EDBCF0BF02B
:1038400008C02CF009C02DF00AC02EF00BC02FF0DC
:1038500004C027F005C028F006C029F007C02AF0F0
:1038600031EC2BF027C000F028C001F029C002F095
:103870002AC003F02C6A200E2D6EFD0E2E6E460E11
:103880002F6EC8EC2BF0340EDBCF2CF0350EDBCFD7
:103890002DF0360EDBCF2EF0370EDBCF2FF01BECEA
:1038A0002CF0340EDBCF2CF0350EDBCF2DF0360EA6
:1038B000DBCF2EF0370EDBCF2FF01BEC2CF007EC1C
:1038C0002DF026C03FF127C040F128C041F129C0AA
:1038D00042F13FC126F040C127F041C128F042C16A
:1038E00029F018EC2BF027C004F028C005F029C0FF
:1038F00006F02AC007F02C0EDBCF10F02D0EDBCF28
:1039000011F02E0EDBCF12F02F0EDBCF13F0280EAE
:10391000DBCF14F0290EDBCF15F02A0EDBCF16F02B
:103920002B0EDBCF17F014C02CF015C02DF016C0F5
:103930002EF017C02FF010C027F011C028F012C0D1
:1039400029F013C02AF031EC2BF027C00CF028C06E
:103950000DF029C00EF02AC00FF02C6A2D6AB40EAB
:103960002E6E420E2F6EC8EC2BF0340EDBCF2CF0F7
:10397000350EDBCF2DF0360EDBCF2EF0370EDBCF42
:103980002FF01BEC2CF027C008F028C009F029C04C
:103990000AF02AC00BF027C02CF028C02DF029C057
:1039A0002EF02AC02FF004C027F005C028F006C072
:1039B00029F007C02AF031EC2BF027C000F028C016
:1039C00001F029C002F02AC003F02C0EDBCF18F062
:1039D0002D0EDBCF19F02E0EDBCF1AF02F0EDBCF22
:1039E0001BF018C02CF019C02DF01AC02EF01BC00F
:1039F0002FF032EC2BF007EC2DF026C03FF127C062
:103A000040F128C041F129C042F1000E01013F6D93
:103A1000401F4023411F4123421F42234C0EDBCF56
:103A200000F04D0EDBCF01F04E0EDBCF02F04F0E5B
:103A3000DBCF03F03FC126F040C127F041C128F0A1
:103A400042C129F018EC2BF027C004F028C005F083
:103A500029C006F02AC007F027C02CF028C02DF09E
:103A600029C02EF02AC02FF000C027F001C028F096
:103A700002C029F003C02AF032EC2BF007EC2DF045
:103A800026C027F127C028F128C029F129C02AF132
:103A9000480EDBCF00F0490EDBCF01F04A0EDBCF42
:103AA00002F04B0EDBCF03F03FC126F040C127F000
:103AB00041C128F042C129F018EC2BF027C004F0D6
:103AC00028C005F029C006F02AC007F027C02CF056
:103AD00028C02DF029C02EF02AC02FF000C027F0FA
:103AE00001C028F002C029F003C02AF032EC2BF00C
:103AF00007EC2DF026C02BF127C02CF128C02DF1AA
:103B000029C02EF1480EDBCF04F0490EDBCF05F0C3
:103B10004A0EDBCF06F04B0EDBCF07F02C6A2D6A86
:103B2000800E2E6EBF0E2F6E04C027F005C028F049
:103B300006C029F007C02AF01BEC2CF027C000F0CB
:103B400028C001F029C002F02AC003F03FC126F0CE
:103B500040C127F041C128F042C129F018EC2BF0F8
:103B600027C008F028C009F029C00AF02AC00BF0CD
:103B700027C02CF028C02DF029C02EF02AC02FF02D
:103B800000C027F001C028F002C029F003C02AF0CD
:103B900032EC2BF007EC2DF026C02FF127C030F1CE
:103BA00028C031F129C032F14C0EDBCF04F04D0EAC
:103BB000DBCF05F04E0EDBCF06F04F0EDBCF07F06C
:103BC0002C6A2D6A800E2E6EBF0E2F6E04C027F059
:103BD00005C028F006C029F007C02AF01BEC2CF025
:103BE00027C000F028C001F029C002F02AC003F06D
:103BF0003FC126F040C127F041C128F042C129F061
:103C000018EC2BF027C008F028C009F029C00AF0F2
:103C10002AC00BF027C02CF028C02DF029C02EF0B0
:103C20002AC02FF000C027F001C028F002C029F000
:103C300003C02AF032EC2BF007EC2DF026C033F154
:103C400027C034F128C035F129C036F10101800EBA
:103C50002A1512E027C100F028C101F029C102F0A5
:103C60002AC103F0000E006C011E0122021E022276
:103C7000031E0322008E08D027C100F028C101F0E6
:103C800029C102F02AC103F000C0B8F0800E2E1541
:103C900012E02BC100F02CC101F02DC102F02EC1A9
:103CA00003F0000E006C011E0122021E0222031E00
:103CB0000322008E08D02BC100F02CC101F02DC1D1
:103CC00002F02EC103F000C0B9F0800E321512E0F0
:103CD0002FC100F030C101F031C102F032C103F058
:103CE000000E006C011E0122021E0222031E03228E
:103CF000008E08D02FC100F030C101F031C102F0B8
:103D000032C103F000C0BAF0800E361512E033C1A4
:103D100000F034C101F035C102F036C103F0000EED
:103D2000006C011E0122021E0222031E0322008ECD
:103D300008D033C100F034C101F035C102F036C102
:0E3D400003F000C0BCF059EC34F0AFEF12F00D
:023D4E009D9A3C
:103D50009E9A040EAC6E800EAB6EB886B06A440EAE
:103D6000AF6E240EAC6E900EAB6E0101F76B200EA1
:103D7000F75D09E2F751EA6AD40FE96E010EEA2213
:103D8000EF6AF72BF4D7F86BF8C1F7F1FA6B9F9A4B
:103D90009E9A9D8A1200D9CFE6FFE1CFD9FFACA24F
:103DA000FED7FE0EDB50AD6EE552E7CFD9FF120015
:103DB000D9CFE6FFE1CFD9FFFD0EDBCFE9FFFE0E45
:103DC000DBCFEAFFEF500EE0FD0EDBCFE9FFDB2A91
:103DD000FE0EDBCFEAFF01E3DB2AEF50E66EDBDF0E
:103DE000E552EAD7E552E7CFD9FF1200D9CFE6FF77
:103DF000E1CFD9FFFC0EDBCFF6FFFD0EDBCFF7FFE7
:103E0000FE0EDBCFF8FF0800F55016E0D950FC0F8E
:103E1000E96EFF0EDA20EA6EEFCFF6FFEE2AEFCF63
:103E2000F7FF000EEE22EFCFF8FFEE220800F5506C
:103E3000E66EB1DFE552DED7E552E7CFD9FF1200DB
:103E4000D9CFE6FFE1CFD9FFE6520101F851EA6A86
:103E5000D40FE96E010EEA22EFCFDFFF200E006ED5
:103E6000F82BF851D880005401E3F86BDF50E5528D
:103E7000E552E7CFD9FF12000101F751F85D01E1EA
:103E8000000C010CD9CFE6FFE1CFD9FF1A0EE126D5
:103E9000190EDB6A0101F56BF66B0101640ED88027
:103EA000F555000EF6552DE3E7DF0009F6E0C8DF13
:103EB000E76E180EE7CFDBFFDBCF00F0200EE76EDA
:103EC0000018E8AE02D0E73402D0E750005C19E3F6
:103ED000170E006E190EDB50005C13E3D9CF00F013
:103EE000DACF01F0190EDBCFF3FFDB2AF3500F011D
:103EF000D924E96E000EDA20EA6E180EDBCFEFFF50
:103F0000C9D7D9CF00F0DACF01F0190EDB500F017D
:103F1000D924E96E000EDA20EA6EEF6A190EDB5042
:103F200009E0E66AD9CFE6FFDACFE6FF0DD8E55221
:103F3000E552E5521A0EE15C02E2E16AE552E16EF9
:103F4000E552E7CFD9FF1200D9CFE6FFE1CFD9FF85
:103F5000060EE126FD0EDBCFE9FFFE0EDBCFEAFF0A
:103F6000EF50520A01E165D1040A01E160D1140A5F
:103F700001E14ED10F0A01E1FCD0020A01E1CAD0F1
:103F8000030A01E198D0050A52E03A0A4FE0200AFC
:103F900001E051D1640E0101CC6FCD6B010EE76ED3
:103FA000FD0EDBCFE9FFFE0EDBCFEAFFE750E9268F
:103FB000000EEA22EF50310A1CE0010A01E031D084
:103FC000030EE76EFD0EDBCFE9FFFE0EDBCFEAFF4F
:103FD000E750E926000EEA22EF50310805E13DD90D
:103FE0000101AA81899E04D00101AA910101AB6B54
:103FF00018D0030EE76EFD0EDBCFE9FFFE0EDBCF20
:10400000EAFFE750E926000EEA22EF50310802E10C
:10401000010E01D0000E0101E8B0AA83E8A0AA9326
:1040200000D0010E01010D6F0E6B0DD10CD1010EF0
:10403000E76EFD0EDBCFE9FFFE0EDBCFEAFFE750B8
:10404000E926000EEA22EF50440822E1030EE76E53
:10405000FD0EDBCFE9FFFE0EDBCFEAFFE750E926DE
:10406000000EEA22EFCF00F0300E005C11E3390EB3
:10407000016E030EE76EFD0EDBCFE9FFFE0EDBCF18
:10408000EAFFE750E926000EEA22EF50015C01E268
:10409000DAD0030EE76EFD0EDBCFE9FFFE0EDBCFBD
:1040A000EAFFE750E926000EEA22EF50D00F0101A7
:1040B000AB6FD3D8C8D0010EE76EFD0EDBCFE9FFA2
:1040C000FE0EDBCFEAFFE750E926000EEA22EF50B2
:1040D000D00FDF6E030EE76EFD0EDBCFE9FFFE0EA5
:1040E000DBCFEAFFE750E926000EEA22EF50D00FBF
:1040F000E76E010EE7CFDBFF0101AB510AE1010ED4
:10410000DBCFE6FFDFCFE6FFC2EC0DF0E552E55274
:1041100000D099D0010EE76EFD0EDBCFE9FFFE0E59
:10412000DBCFEAFFE750E926000EEA22EF50D00F7E
:10413000DF6E030EE76EFD0EDBCFE9FFFE0EDBCF79
:10414000EAFFE750E926000EEA22EF50D00FE76EB3
:10415000010EE7CFDBFF0101AB510AE1010EDBCF1E
:10416000E6FFDFCFE6FF0EEC0DF0E552E55200D0A2
:104170006AD0030EE66E020EE76EFD0EDBCF00F096
:10418000FE0EDBCF01F0E7500026000E012200C03A
:10419000E6FF01C0E6FF5EDAE552E552E552020EA7
:1041A000F3CFDBFF030EF4CFDBFF030EE66E060E4C
:1041B000E76EFD0EDBCF00F0FE0EDBCF01F0E75027
:1041C0000026000E012200C0E6FF01C0E6FF42DA31
:1041D000E552E552E552040EF3CFDBFF050EF4CFB6
:1041E000DBFF0101AB5113E1040EDBCFE6FF050E4F
:1041F000DBCFE6FF020EDBCFE6FF030EDBCFE6FFF1
:10420000FEEC09F0E552E552E552E55200D01BD034
:10421000070E01010D6F0E6BFD0EDBCFE6FFFE0EEC
:10422000DBCFE6FF70EC32F0E552E5520CD05DD802
:104230000AD0FF0008D0FC0EDB5004E1150EE66E3C
:10424000AADDE55200D0060EE15C02E2E16AE55229
:10425000E16EE552E7CFD9FF1200D9CFE6FFE1CFFB
:10426000D9FFE652950E006E6D0E016E026A00C017
:10427000E6FFE66E02C0E6FFB9DDE552E552E55223
:104280000101AB5111E1DF6A0A0EDF5C0DE2DF5084
:10429000EA6AA00FE96E010EEA22EF50300FE66ED7
:1042A0007ADDE552DF2AF0D78C0E006E6D0E016EBE
:1042B000026A00C0E6FFE66E02C0E6FF97DDE55247
:1042C000E552E552890E006E6D0E016E026A00C065
:1042D000E6FFE66E02C0E6FF89DDE552E552E552F3
:1042E000E552E552E7CFD9FF1200D9CFE6FFE1CF83
:1042F000D9FF200EE126A1EC31F0840E006E6D0E88
:10430000016E026A00C0E6FFE66E02C0E6FF6EDDE7
:10431000E552E552E552200EE66E3DDDE5527B0E9C
:10432000006E6D0E016E026A00C0E6FFE66E02C00E
:10433000E6FF5CDDE552E552E552FAC0E6FFFBC060
:10434000E6FFF8C0E6FFF9C0E6FFF6C0E6FFF7C0FB
:10435000E6FF660E006E6D0E016E026A00C0E6FF9B
:10436000E66E02C0E6FFD9CFE6FFDACFE6FF27EC24
:1043700035F0036E0B0EE15E0350D9CFE6FFDACFC6
:10438000E6FF16DDE552E552200EE15C02E2E16A4D
:10439000E552E16EE552E7CFD9FF1200D9CFE6FF33
:1043A000E1CFD9FF160EE1260101AB5101E07DD02E
:1043B000020EDB6A0A0EF36E020EDBCFF4FFF3503F
:1043C000F45C62E2020EDB50EA6AA00FE96E010EB5
:1043D000EA22EF500AE0020EDB50EA6AA00FE96E13
:1043E000010EEA22EF5002080FE1020EDBCFE6FFDA
:1043F0007AEC0DF0E552000903E1006A016A33D05E
:104400000068030E016E2FD0020EDB50EA6AA00F87
:10441000E96E010EEA22EF50060817E1020EEA6A81
:10442000DB34FE0BEA36E96E0F0EE926010EEA22B6
:10443000EECFE6FFEFCFE6FF9FEC10F0E552E5523E
:10444000F3CF00F0F4CF01F00ED0020EEA6ADB34B5
:10445000FE0BEA36E96E0F0EE926010EEA22EECFD8
:1044600000F0EFCF01F0020EEA6ADB34FE0BEA3611
:10447000E96EAC0EE926010EEA2200C0EEFF01C093
:10448000EDFF020EDB2A96D7E66AF2EC0DF0E5525C
:10449000E76E140EE7CFDBFF010EE66EF2EC0DF0D7
:1044A000E552E76E150EE7CFDBFF020EDB6A0A0E60
:1044B000F36E020EDBCFF4FFF350F45C34E2020E35
:1044C000EA6ADB34FE0BEA36E96EAC0EE926010E31
:1044D000EA22EECFE6FFEFCFE6FF020EDB28E66E24
:1044E000E66A5B0E006E6D0E016E026A00C0E6FFAA
:1044F000E66E02C0E6FFD950030FE66E000EDA202A
:10450000E66E27EC35F0036E090EE15E0350D950DC
:10451000030FE66E000EDA20E66E4ADCE552E55245
:10452000020EDB2AC4D7020EDB6AD950030F006EDD
:10453000020EDBCFF3FFDB2AF3500F010024E96EFC
:10454000000EDA20EA6E4C0EEF6ED950030F006EAB
:10455000020EDBCFF3FFDB2AF3500024E96E000EDE
:10456000DA20EA6E450EEF6ED950030F006E020E90
:10457000DBCFF3FFDB2AF3500024E96E000EDA20D4
:10458000EA6E440EEF6ED950030F006E020EDBCFC1
:10459000F3FFDB2AF3500024E96E000EDA20EA6E06
:1045A0003D0EEF6E140EDB50300FE66ED950030F48
:1045B000006E020EDBCFF3FFDB2AF3500024E96E1E
:1045C000000EDA20EA6EE552E750EF6E150EDB5072
:1045D000300FE66ED950030F006E020EDBCFF3FFF3
:1045E000DB2AF3500024E96E000EDA20EA6EE55271
:1045F000E750EF6ED950030F006EDACF01F0020ED4
:10460000DB500024E96E000EDA20EA6EEF6AD95022
:10461000030FE66E000EDA20E66ED8EC1EF0E552CF
:10462000E552890E006E6D0E016E026A00C0E6FF53
:10463000E66E02C0E6FFF6EC1EF0E552E552E552EA
:10464000160EE15C02E2E16AE552E16EE552E7CF67
:10465000D9FF1200D9CFE6FFE1CFD9FF060EE12640
:10466000010EF36E040EF3CFDBFF050EDB6A020EC4
:10467000DB6A030EDB6ADF6AFC0EDB50DF5C43E2C1
:10468000FD0EDBCFE9FFDB2AFE0EDBCFEAFF01E305
:10469000DB2A010EEFCFDBFFDB5035E0010EDB50F4
:1046A0002D0805E1040EDB68050EDB682AD0300E0C
:1046B000F36E010EDBCFF4FFF350F45C22E3390E0E
:1046C000006E010EDB50005C1CE3D950020FE96E56
:1046D000DACFEAFF0A0EEC02F3CFEDFFEF02F3CFE1
:1046E000EEFFF450ED26010EDB50D00F006E016A94
:1046F000D950020FE96EDACFEAFF0050EE260150E2
:10470000ED22DF2AB9D7040EDBCF00F0050EDBCF98
:1047100001F0D950020FE96EDACFEAFF00C02DF0A8
:1047200001C02EF0EECF28F0EDCF29F0E9EC2CF00F
:1047300026C0EEFF27C0EDFF020EDBCF00F0030E18
:10474000DBCF01F000C0F3FF01C0F4FF060EE15C17
:1047500002E2E16AE552E16EE552E7CFD9FF1200CD
:10476000D9CFE6FFE1CFD9FF060EE126DE6ADE6A89
:10477000DE6ADD6ADD52DD52040EDB6AFC0EDB50C0
:10478000F36E040EDBCFF4FFF350F45C57E2FD0E42
:10479000DBCFE9FFDB2AFE0EDBCFEAFF01E3DB2AFA
:1047A000050EEFCFDBFF300EF36E050EDBCFF4FF0F
:1047B000F350F45C43E3390E006E050EDB50005CF1
:1047C0003DE3300E006E050EDBCFE7FF0050E75EE5
:1047D000050EE7CFDBFFD9CFE9FFDACFEAFF0A0EFC
:1047E0002B6E2C6A2D6A2E6AEECF26F0EECF27F0C4
:1047F000EECF28F0EFCF29F00EEC36F025C0EDFF1C
:1048000024C0EDFF23C0EDFF22C0EFFF050EDBCF7C
:1048100000F0016A026A036A00AE03D00168026810
:1048200003680050DE260150DE220250DE220350D3
:10483000DD22DD52DD52040EDB2AA0D7DECF26F0CA
:10484000DECF27F0DECF28F0DDCF29F0DD52DD52BC
:10485000060EE15C02E2E16AE552E16EE552E7CF65
:10486000D9FF1200D9CFE6FFE1CFD9FF040EE12630
:10487000DE6ADD6A020EDB6AFC0EDB50F36E020EAE
:10488000DBCFF4FFF350F45C4FE2FD0EDBCFE9FF2A
:10489000DB2AFE0EDBCFEAFF01E3DB2A030EEFCFBC
:1048A000DBFF300E006E030EDB50D880005408E3AF
:1048B000030EDB50390804E3030EDB50D00F1ED08B
:1048C000410E006E030EDB50D880005408E3030E47
:1048D000DB50460804E3030EDB50BF0F0ED0610E21
:1048E000006E030EDB50D88000541EE3030EDB5035
:1048F00066081AE3030EDB509F0F0A0FE76E030EE4
:10490000E7CFDBFFD9CFE9FFDACFEAFF040ED8907B
:10491000EE36ED36E806FBE1030EDB50DE26000E38
:10492000DD22020EDB2AA8D7DECF00F0DDCF01F0BA
:1049300000C0F3FF01C0F4FF040EE15C02E2E16A93
:10494000E552E16EE552E7CFD9FF1200D9CFE6FF7D
:10495000E1CFD9FF300EF36EFE0EDBCFF4FFF35044
:10496000F45C08E3390E006EFE0EDB50005C02E3DF
:10497000000E01D0010E000902E0000E01D0010E70
:10498000E552E7CFD9FF1200D9CFE6FFE1CFD9FF3B
:10499000300E006EFE0EDB50D880005404E3FE0E95
:1049A000DB50390816E2410E006EFE0EDB50D88057
:1049B000005404E3FE0EDB5046080BE2610E006E6D
:1049C000FE0EDB50D880005406E3FE0EDB50660876
:1049D00002E3010E01D0000EE552E7CFD9FF12002D
:1049E0002CEC2AF0FB0EDBCFF3FFDB06F3500009C3
:1049F0000AE07AEC2AF0FA0EE5EC2AF0F3E1011C69
:104A0000F1E1010E01D0000E5BEF2AF02CEC2AF050
:104A10003B0EE12402E3E168E652E16E010EDB6A3F
:104A2000020EDB6AF90EDBCFF6FFFA0EDBCFF7FFE3
:104A3000FB0EDBCFF8FF0800F550DF6EDF5002E120
:104A40007FEF29F0250EDF5C02E072EF29F0030E04
:104A5000DB6A040EDB6A050EDB6A060EDB6A070EF4
:104A6000DB6A94EC29F02D0EDF5C0CE02B0EDF5C92
:104A700009E0200EDF5C06E0230EDF5C03E0300E71
:104A8000DF5C1AE1DF50300A14E0130A0FE0030A7A
:104A90000AE00B0A05E0060AE4E1030EDB80E1D739
:104AA000030EDB82DED7030EDB84DBD7030EDB864F
:104AB000D8D7030EDB88D5D72A0EDF5C1BE190EC3C
:104AC00029F0DEEC29F010E0030EDB80286829686D
:104AD000130EDBCF2DF0140EDBCF2EF0BCEC2CF040
:104AE000040E26C0DBFF03D0130EC7EC29F094ECB4
:104AF00029F00BD0090EDB6A35EC2AF003E0A9ECB3
:104B00002AF0FAD7090EC7EC29F0030EDBB0DB98C8
:104B10002E0EDF5C1BE194EC29F02A0EDF5C0BE12A
:104B200090EC29F0DEEC29F003E1130E19EC2AF0E9
:104B300094EC29F00BD0090EDB6A35EC2AF003E087
:104B4000A9EC2AF0FAD7090E19EC2AF0680EDF5CFE
:104B500007E194EC29F0680EDF5C1DE1030E18D02C
:104B6000740EDF5C17E07A0EDF5C14E0480EDF5C49
:104B700006E0540EDF5C03E05A0EDF5C02E1020E39
:104B800007D06C0EDF5C03E06A0EDF5C04E1010E0F
:104B90006CEC2AF0C9DBDF506E0A01E17FD31E0AFC
:104BA00001E192D1200A01E18FD13F0A01E149D10F
:104BB0001A0A01E146D10D0A01E143D1200A01E1BF
:104BC00040D13A0A01E13DD1200A01E13AD1260A59
:104BD00001E135D10D0A01E132D11A0A01E1D9D042
:104BE000200A4AE0300A1FE0460A0EE0250A01E0EA
:104BF00083D3D950F90FE96EFF0EDA20EA6E010E69
:104C0000EE5E000EEE5AEE5A7AEC2AF0250EE66EB3
:104C100095DB03E1011C01E169D376EC2AF001E2A6
:104C20006BD3DB2A69D3080EDB6A040EDB50010864
:104C300006E2040EDB043EEC2AF0DB508BDB080EB0
:104C4000DB5009E0030EDB50010B05E172DB01E0F4
:104C50004DD3080EDB6A64DBEFCFDFFFEEEC2AF00A
:104C600003E1011C01E142D376EC2AF001E3DB2AE7
:104C700060DB01E141D33AD3070EDB5002080FE1BC
:104C8000BAEC2AF0030E81EC2AF00E0EEECFDBFF19
:104C90000F0EEECFDBFF100EEECFDBFF20D0F70EB6
:104CA000DBCF03F0F80EDBCF04F0020E035E000E44
:104CB000045AF70E03C0DBFFF80E04C0DBFF03C08D
:104CC000E9FF04C0EAFF71EC2AF0026A0E0E00C090
:104CD000DBFF0F0E01C0DBFF100E02C0DBFF0E0E6C
:104CE000DBCFE6FF0F0EDBCFE6FF100EDBCFE6FFDC
:104CF00054EC36F0E552E552E552130E27C0DBFFC7
:104D0000140E28C0DBFF060EDB5005E0130EB5ECD9
:104D10002AF001E26ADBD9EC2AF002E2130E37DB5B
:104D20009CEC2AF006E0040EB5EC2AF002E2050E37
:104D30002EDB030EDBB005D0FCDA01E0D7D2080E83
:104D4000DB6A090EDB6A0E0EDBCFF6FF0F0EDBCF40
:104D5000F7FF100EDBCFF8FF0800F550DF6EDF50D5
:104D600014E0DFEC2AF011E2EEEC2AF003E1011C82
:104D700001E1BCD2BBDB01E3DB2A090EDB2AD950FF
:104D80000E0FE96E000ECBDBE7D7D3DA01E1B4D228
:104D9000ADD2C6DA110EEECFDBFF120EEDCFDBFF88
:104DA000110EDBCFE6FF120EDBCFE6FF46EC36F04E
:104DB000E552E552130EF3CFDBFF140EF4CFDBFF09
:104DC000060EDB5004E0130ED0DB01E20EDBD9EC63
:104DD0002AF002E2130EDBDAAFDB05E0040EC5DBDE
:104DE00002E2050ED4DA030EDBB005D0A2DA01E050
:104DF0007DD2080EDB6A090EDB6A110EDBCFE9FFFC
:104E0000120EDBCFEAFFEFCFDFFFDF5014E0D7DB7E
:104E100012E2E4DB03E1011C01E168D267DB01E39C
:104E2000DB2A090EDB2A110EDB2ADBCFE9FF120E8B
:104E3000E8E3DB2AE6D77DDA01E15ED257D2030E42
:104E4000DB8E070EDB0410E195DB040E5ADB0A0E45
:104E5000EECFDBFF0B0EEECFDBFF0C0EEECFDBFF5A
:104E60000D0EEECFDBFF6CD0070EDB5003082CE1FC
:104E7000030EDBAE0DD0B2DA020E76DAEFCF00F021
:104E8000016A026A036A00AE39D00168026835D04F
:104E9000F70EDBCF01F0F80EDBCF02F0020E015E61
:104EA000000E025AF70E01C0DBFFF80E02C0DBFF56
:104EB00001C0E9FF02C0EAFFEFCF00F00A0E00C018
:104EC000DBFF0B0EDB6A38D0070EDB50020809E16E
:104ED000030EDBAE04D059DB02AE10D00ED055DB92
:104EE0000DD0030EDBAE12D079DA020E3DDAF9DA1C
:104EF000026A036A01AE02D002680368E2DA0C0EAD
:104F000002C0DBFF0D0E03C0DBFF1AD0F70EDBCFB4
:104F100002F0F80EDBCF03F0020E025E000E035A21
:104F2000F70E02C0DBFFF80E03C0DBFF02C0E9FF93
:104F300003C0EAFFD6DAC5DA0C0EDB6A0D0EDB6AB7
:104F4000060EDB5005E1010EF36E050EF3CFDBFF1D
:104F5000150EDB6A160EDB6AD950370F006E000E95
:104F6000DA20016E390E00C0DBFF3A0E01C0DBFF14
:104F7000380EDB6A080EDB6A0A0EAEDADF50780AFA
:104F800012E0200A10E0280A0CE0200A0AE03F0A9A
:104F900006E00D0A02E0200A08E1020E05D0080E24
:104FA00003D0080EDF26100E97DA030EDBBE02D008
:104FB000DB92DB94DB50800B24E08ADAD890030E7E
:104FC000EB50000A08E6000EEE5C000EEE58000EF4
:104FD000EE58000EEE5815E213DA2B682C682D6897
:104FE0002E680EEC36F00A0E22C0DBFF0B0E23C03B
:104FF000DBFF0C0E24C0DBFF0D0E25C0DBFF2D0EEA
:1050000008D0030EDBA202D02B0E03D0DBA408D005
:10501000200EF36E170EF3CFDBFF150EDB2A02D046
:10502000170EDB6A050EDB5003E1B7D901E189D029
:105030006A0E006E6F0E016E000E026E070EDBCF61
:1050400003F0046A056A066A03C02BF004C02CF062
:1050500005C02DF006C02EF0D3D926EC37F0005055
:105060002224F36E01502320F46E02502420F86EA7
:10507000F4CFF7FFF3CFF6FF0800090EF5CFDBFF03
:10508000580EDF5C0FE1610EF36E090E7BD90AE367
:10509000200E006E090EDBCFE7FF0050E75E090E21
:1050A000E7CFDBFF070EDBCF00F0016A026A036A7D
:1050B0000FDA00C02BF001C02CF002C02DF003C0AD
:1050C0002EF0EECF26F0EECF27F0EECF28F0EFCF88
:1050D00029F026EC37F029C0EDFF28C0EDFF27C0EE
:1050E000EDFF26C0EFFF390EDBCFE9FFDB063A0EFE
:1050F000DBCFEAFF01E2DB06090EDBCFEFFF150E87
:10510000DB2A4BD995E1030EDBA61DD06F0EDF5CC9
:1051100006E1C1D918E3150EDB285BDA14D0780E4E
:10512000DF5C09E0580EDF5C06E0620EDF5C03E046
:10513000420EDF5C08E1020EF36E160EF3CFDBFFCA
:1051400002D0150EDB6A030EDB50100B0EE0040ECE
:10515000DBCF00F0050EDB50D880005406E2060ECF
:10516000DB5003E1040EDB5034DA95D90AE2050E78
:10517000DBCFE7FF150EDB50E75E050EE7CFDBFF69
:1051800002D0050EDB6A040EDBCF00F0160E45D907
:10519000D880005414E2160EDBCFE6FF150EDBCFED
:1051A000E6FF040EDBCFE6FF050EDB50E552E75CC1
:1051B000E552D880E754E552D880E7545FD9030E12
:1051C000DB50010B0BE1080EDB5008E0B2D801E028
:1051D0008DD0080EDB50BED8080EDB6A170EDB50F0
:1051E00007E088D9170EF1D903E1011C01E17ED057
:1051F000160EDB5016E07ED9300EE66E9FD802E127
:10520000011C74E077D9DFCFE6FFCCEC35F0E55236
:10521000E552E552F4CF01F00001F31C02E1011C5C
:1052200065E0050EDBCF00F0160EDB50D880005491
:1052300009E2050EDBCFE7FF160EDB50E75E050E39
:10524000E7CFDBFF300EE66E050ECBD94FE1390E0E
:10525000DB2ADBCFE9FF3A0E01E3DB2ADBCFEAFFF3
:10526000090EEFCFDBFFDB500EE044D9090EADD9BC
:1052700002E1011C3BE0390EDB2ADBCFE9FF3A0EED
:10528000EDE3DB2AEBD755D831E1160EDBCFE6FF95
:10529000080EC3D8E552E7245DD82ED0070EDB50A8
:1052A000030A1CE0010A14E0030A07E07BD9DBCF04
:1052B000EEFF020EDBCFEDFF1FD0F5D8056A03AE7F
:1052C00002D0046805682CD8BCD805C0EEFF14D005
:1052D000EAD803BE046824D8B4D80ED063D9DBCF93
:1052E000EFFF0AD07BD905E1011C03E1F368F46804
:1052F00010D0FCD801E3DB2A79D91BEF25F0010E91
:10530000DBCF00F0020EDBCF01F000C0F3FF01C0E5
:10531000F4FF3B0EE15C02E2E16AE552E16ECBD0C4
:1053200029D9020E81EF2AF061D90800F550DF6E0D
:105330001200200EE66E080EF1EF2AF0CCEC35F0EC
:10534000E552E552E552F3CF00F0F4CF01F0000151
:10535000F31C1200006E016AD950010F4DD90050A4
:10536000EE260150ED221200045E000E055AF70EE3
:1053700004C0DBFFF80E05C0DBFF04C0E9FF05C079
:10538000EAFF1200DBCFF4FFF350F45C1200DB50B5
:10539000E76E040EE7CFDBFF12000A0EDBCF00F052
:1053A0000B0EDBCF01F00C0EDBCF02F00D0EDBCFCE
:1053B00003F000500110021003101200130EEECF84
:1053C000DBFF140EEDCFDBFF130EDBCF00F0140E6E
:1053D000DBCF01F00001800E01141200F70EDBCFCD
:1053E00004F0F80EDBCF05F01200050EDB50E66E80
:1053F000D950130F01D9E552E750EE6EED6A120055
:105400000A0EDBCF26F00B0EDBCF27F00C0EDBCF26
:1054100028F00D0EDBCF29F01200DBCFE6FF150ED2
:10542000DBCFE6FF050EDB50E552E724E552E7242B
:105430001200DB50CED8010EF36E060EF3CFDBFF69
:105440001200EE50EFCFEAFFE96E02C0EEFF03C09C
:10545000EEFF04C0EEFF1200D9CFE6FFDACFE6FF81
:10546000E1CFD9FFE2CFDAFF1200DFCFE6FFE66A35
:1054700060EC37F0E552E552F3501200E76E080E8B
:10548000E7CFDBFF1200EECF00F0EECF01F0EFCF61
:1054900002F0036A1200050EDBCF00F0150EDB50A0
:1054A000D88000541200010EDBCF02F0020EDBCFD9
:1054B00003F0046A1200E552E5CFDAFFE7CFD9FF27
:1054C00012000A0E00C0DBFF0B0E01C0DBFF120052
:1054D000D9500A0FFCEF2AF0F36E070EF3CFDBFF73
:1054E0001200EECF00F0EFCF01F01200010EDB2A28
:1054F000020E1200FC0EDBCFE6FFFD0EDBCFE6FF57
:105500001200005E000E015AF70E00C0DBFFF80E1D
:1055100001C0DBFF00C0E9FF01C0EAFF1200DA2092
:10552000EA6EEF2AEECFF6FF000EEF22EECFF7FF86
:10553000EF22EECFF8FF1200040EDBCFE6FF130ED2
:10554000DB50E552E75C9ADFDB5004DF060EDB50F0
:105550001200090EDB500A0DF350DF24D00FE76E66
:10556000090EE7CFDBFF94EF29F0DB50F36E050E59
:10557000C2EF29F0F70EDBCF00F0F80EDBCF01F021
:105580001200DFCFE6FF9EEF29F028DF030EECDEEE
:1055900043EF2AF0F0EC24F0E552E552E552E552F3
:1055A00000091200BDDEEE50EFCFEAFFE96E010EFA
:1055B0001200130EDB50F36E040EC2EF29F0040E3E
:1055C000DB50F36E090EC2EF29F0DBCFE6FF9EEF52
:1055D00029F0E76E050EE7CFDBFF12008BDFC1EF8E
:1055E0002AF0DBCFE6FF86DFCAEF2AF0D950F90FA9
:1055F000E96EFF0E8FEF2AF0E96E000EDA20EA6EF8
:02560000120096
:0E560200219E08D0219E29AE05D0286C291EBD
:10561000E86A2922218E29C023F028C022F0336AAB
:10562000326A8E0E246E256AC1EF2DF0219E0CD0B9
:10563000219E29AE09D0266C271E281E291EE86A45
:10564000272228222922218E29C023F028C022F0D7
:1056500027C033F026C032F09E0E246E256AC1EFBB
:105660002DF02F7E216AFDEC2DF015EC2EF021B6E9
:10567000A5EF2DF021A20AD021AA03D021BEA5EFCB
:105680002DF021A4B1EF2DF0AEEF2DF021AA05D021
:1056900021ACB1EF2DF0AEEF2DF021A00AD021A862
:1056A00008D021BE04D021A402D0BAEF2DF0BEEF65
:1056B0002DF0326A256A2F502A5C316E10E327C024
:1056C00033F028C022F029C023F02AC030F02CC0CB
:1056D00027F02DC028F02EC029F0213A09D02CC087
:1056E00033F02DC022F02EC023F02FC030F0316CEB
:1056F000219E21BC218E30C024F021B0EDEF2DF091
:105700001A0E3160EDEF2DF0246A2A6A21A408D028
:10571000276C281E291E2A1EE86A282229222A22EE
:1057200021AC08D0336C221E231E241EE86A2222DC
:1057300023222422266A315207E02A3429322832D1
:1057400027322632312EF9D72750332628502222ED
:10575000295023222A50242226C032F0219E24AE32
:105760000BD0326C331E221E231E241EE86A332205
:10577000222223222422218E24A006D0D880233264
:10578000223233323232302A30C024F0C1EF2DF0D1
:10579000216AFDEC2DF015EC2EF021B6A5EF2DF0D1
:1057A00021A205D021BAA5EF2DF0ACEF2DF021BA42
:1057B000B8EF2DF021A005D021B8A5EF2DF0B8EF5E
:1057C0002DF021B8ACEF2DF0256A7F0E2A24246E2F
:1057D000E86A25222F50245EE86A255A1A0E306E98
:1057E0002A6A326A336A226A236A2C50275E2D5055
:1057F000285A2E50295A000E2A5A09E72C502726DB
:105800002D5028222E502922000E2A2201D0328A21
:10581000D8902736283629362A36D890323633366D
:1058200022362336302EE1D7295028102710D8A44D
:10583000328AC1EF2DF0216AFDEC2DF015EC2EF02F
:1058400021B6A5EF2DF021A205D021B8A5EF2DF0AE
:10585000ACEF2DF021AA05D021B0A5EF2DF0ACEFD3
:105860002DF021B002D021A802D0B8EF2DF0256A8A
:105870002F502A24246EE86A25227E0E245EE86AD0
:10588000255A326A336A226A236A2E502902F4CFDB
:1058900023F0F3CF22F02D502902F3503326F45099
:1058A0002222000E23222E502802F3503326F450D9
:1058B0002222000E23222C502902F3503226F450CB
:1058C0003322000E222223222D502802F3503226AA
:1058D000F4503322000E222223222E502702F350AE
:1058E0003226F4503322000E222223222C5028028A
:1058F000F4503226000E3322222223222D5027027A
:10590000F4503226000E332222222322C1EF2DF042
:10591000206AE86A2EAE95EF2CF02B6C2C1E2D1E03
:105920002E1E2C222D222E22201E29AEA0EF2CF07E
:10593000266C271E281E291E272228222922201EE7
:1059400026EC37F029BEB7EF2CF020AE000C266C09
:10595000271E281E291EE86A272228222922226CB7
:10596000231E241E251E232224222522000C20BEB5
:10597000A7EF2CF02188FF0C29C033F028C032F0AB
:1059800028502D02F4CF27F0F3CF26F029502E0215
:10599000F4CF29F0F3CF28F02D02F3502726F4504E
:1059A0002822E86A292232502E02F3502726F4508A
:1059B0002822E86A29222EAEE2EF2CF03250285E2F
:1059C0003350295A33AE000C2D50285E2E50295AE0
:1059D000000C28C032F028502D02F4CF27F0F3CF6E
:1059E00026F029502E02F4CF29F0F3CF28F02D0213
:1059F000F3502726F4502822E86A292232502E023A
:105A0000F3502726F4502822E86A2922000C216A44
:105A1000FDEC2DF021B611EF2DF021A20FD021B415
:105A200007D07F0E296EFF0E286E276E266E25D0BA
:105A3000800E296E01D0296A000EF6D721B0FBD75F
:105A4000266A9F0E2A60EBD77E0E2A64F4D79E0E3C
:105A50002A5C07E0D89029322832273226322A2AB7
:105A6000F6D721A40AD0266C271E281E291EE86A14
:105A700027222822292229AEDED7120050EC2DF051
:105A800021B6000C21B0000C21B4000C010C50EC2C
:105A90002DF021B6000C21B0000C21A4000C010C4B
:105AA000216AFDEC2DF015EC2EF021B6120021AE8E
:105AB00008D021A004D021A802D02180120021907A
:105AC00012002F502A5C0BE12E50295C08E12D506A
:105AD000285C05E12C50275C02E121801200D8A04F
:105AE00002D0218E10D02A502FC02AF02F6E2950BC
:105AF0002EC029F02E6E28502DC028F02D6E275074
:105B00002CC027F02C6E2F502A5C10E0FF0F09E00C
:105B1000219021B403D021AE2184120021AE219422
:105B200012002F2AD8902E322D322C322C50275E84
:105B30002D50285A2E50295A29BEEAD7D8902736F8
:105B4000283629362A2EF8D7C8D77F0E2A6EFF0EA0
:105B5000296E286E276E12007F0E21BEFF0E2A6E60
:105B600002D07F0E2A6E800E296E286A276AF3D72C
:105B700021AE04D0800E2A6E296AF7D72A6A296AD4
:105B8000F4D72350221033103210F8E025BEF0D79E
:105B900023BE0CD024502510EBE0D890323633369B
:105BA000223623362406D8A02506F2D72550D4E184
:105BB0002428D2E032AE11D07F0E321402E133A09D
:105BC0000CD0332AE86A2222232207E3D88023322A
:105BD00022323332242A2428BFE02450C9E033C0C3
:105BE00027F022C028F02334296E24302A6E29326F
:105BF0002A9E21BE2A8EABEF2DF029362A3602E3EB
:105C00002184217E06E121802A6A296A286A276A7E
:105C100012002A2803E0D88029321200D8902932B5
:105C200002E121821200218612002E362F3602E375
:105C3000218C217E06E121882F6A2E6A2D6A2C6A2A
:105C400012002F2803E0D8802E321200D8902E3276
:105C5000EAE1218A1200216AFDEC2DF021B635EF30
:105C60002EF021A20ED021B405D07F0E296EFF0E9A
:105C7000286E1FD0800E296E286A1BD0296A286AD8
:105C800018D021B0FBD78F0E2A60EDD77E0E2A6484
:105C9000F5D78E0E2A5C05E0D890293228322A2AC0
:105CA000F8D721A406D0286C291EE86A292229AE3B
:045CB000E5D7120022
:0C5CB400D9CFE6FFDACFE6FFE1CFD9FF41
:105CC000E2CFDAFF220EE12402E3E168E652E16E60
:105CD000D950130FE66E000EDA20E66EA8DA99ECC2
:105CE00034F0006E060EE15C02E2E16AE552E16E1C
:105CF0000050E76E0E0EE7CFDBFFDB50840B0CE0AD
:105D0000210E0001FC6FFD6B0F0EDB68100EDB68CF
:105D1000110EDB687F0E6ED08ADA36DA020E26C0EC
:105D2000DBFF030E27C0DBFF040E28C0DBFF050EE0
:105D300029C0DBFF87DA2C6A100E2D6E490E2E6EFD
:105D4000460E14DA47EC2DF0010A32E07BDA67DA0E
:105D50000DDAC8EC2BF0BFD9060EDBCF27F0070E0B
:105D6000DBCF28F0080EDBCF29F0090EDBCF2AF0BD
:105D700007EC2DF018EC2BF0AED964DA060EDBCF71
:105D800008F0070EDBCF09F0080EDBCF0AF0090E92
:105D9000DBCF0BF044DA2F6E08C027F009C028F0E3
:105DA0000AC029F00BC02AF048DA31EC2BF0C4D934
:105DB000F90EDB5012E00E0EDB040BE1FA0EDBCF26
:105DC00000F0FB0EDBCF01F0FC0EDBCF02F0FD0E8E
:105DD00052D167D92E6AF8D947D00E0EDB0419E1EB
:105DE0000F0EDB6A100EDB6A800EF36E110EF3CF1E
:105DF000DBFF3F0EF36E120EF3CFDBFF0F0EDBCF98
:105E000000F0100EDBCF01F0110EDBCF02F0120E0E
:105E100032D1190EDB6A45D9800E2E6ED5D9006AB3
:105E2000016A026A3F0E036ED950060FE96E000E3A
:105E3000DA20EA6EEECF27F0EECF28F0EECF29F091
:105E4000EFCF2AF000C02CF001C02DF002C02EF0E0
:105E500003C02FF031EC2BF02AC0EDFF29C0EDFF7D
:105E600028C0EDFF27C0EFFFDF50010B0AE0190E3D
:105E7000DB5002E0000E01D0010EE76E190EE7CFF5
:105E8000DBFF8CD9060EDBCF0CF0070EDBCF0DF05D
:105E9000080EDBCF0EF0090EDBCF0FF02C6A2D6A57
:105EA000490E2E6E400E2F6E0CC027F00DC028F04C
:105EB0000EC029F00FC02AF01BEC2CF05CD9A6D93B
:105EC00095D931EC2BF077D9060EDBCF14F0070E05
:105ED000DBCF15F0080EDBCF16F0090EDBCF17F085
:105EE000220E2C6EAA0E2D6E7D0E2E6E3A0E2F6E89
:105EF00014C027F015C028F016C029F017C02AF0EA
:105F00001BEC2CF027C010F028C011F029C012F0B3
:105F10002AC013F0EDD831EC2BF00A0E27C0DBFFBE
:105F20000B0E28C0DBFF0C0E29C0DBFF0D0E2AC0B4
:105F3000DBFFD9500A0FE96E000EEAD825D926C03A
:105F400000F027C001F028C002F029C003F02C6A3D
:105F50002D6A800E2E6E390E2F6E26C027F04FD977
:105F600047EC2DF0010A13E1D9500A0FE96E000E3B
:105F7000DA20EA6E020EEECFDBFF030EEECFDBFF80
:105F8000040EEECFDBFF050EEECFDBFF68D0E1D8CD
:105F90000A0EDBCF2CF00B0EDBCF2DF00C0EDBCF7F
:105FA0002EF00D0EDBCF2FF01BEC2CF01A0E27C0BD
:105FB000DBFF1B0E28C0DBFF1C0E29C0DBFF1D0E04
:105FC0002AC0DBFF5B0E276E9C0E286E2E0E296EFC
:105FD000360E2A6E72D8CFD8220E2C6EB20E2D6ECF
:105FE0004F0E2E6EB90E32D99ED83E0E2C6E870EF5
:105FF0002D6E080E2E6E3C0E29D9DDD8A40E2C6E07
:10600000AA0E2D6E2A0E2E6EBE0E20D91E0E27C091
:10601000DBFF1F0E28C0DBFF200E29C0DBFF210E97
:106020002AC0DBFF0A0EDBCF00F00B0EDBCF01F046
:106030000C0EDBCF02F00D0EDBCF03F08AD81E0E64
:10604000DBCF2CF01F0EDBCF2DF0200EDBCF2EF0A0
:10605000210EDBCF2FF0F1D832EC2BF06DD8190EDA
:10606000DB5008E09BD82C6A2D6A800E2E6EBF0E86
:10607000F0D803D042D8DBCF03F000C026F001C037
:1060800027F002C028F003C029F0220EE15C02E2F2
:10609000E16AE552E16EE552E5CFDAFFE7CFD9FFDD
:1060A00012007CD8830E2C6EF90E2D6EA20E2E6E71
:1060B0003E0ECFD82C6A2D6A12001A0EDBCF2CF0C0
:1060C0001B0EDBCF2DF01C0EDBCF2EF01D0EDBCF19
:1060D0002FF01BEF2CF0060E27C0DBFF070E28C0A9
:1060E000DBFF080E29C0DBFF090E2AC0DBFF120010
:1060F0008DD800C027F0FFEF30F0020EDBCF00F0AC
:10610000030EDBCF01F0040EDBCF02F0050E120010
:10611000DA20EA6EEECFE6FFEECFE6FFEECFE6FF47
:10612000EFCFE6FF120027C004F028C005F029C019
:1061300006F02AC007F01200020E27C0DBFF030E94
:1061400028C0DBFF040E29C0DBFF050E2AC0DBFFE1
:1061500012000A0EDBCF27F00B0EDBCF28F00C0E5F
:10616000DBCF29F00D0EDBCF2AF012002F6E00C01E
:1061700027F0FFEF30F027C008F028C009F029C051
:106180000AF02AC00BF0120079EC36F0E552E55225
:10619000E552E55212002F6E32EF2BF0020EDBCFEC
:1061A00004F0030EDBCF05F0040EDBCF06F0050E86
:1061B000DBCF07F0120027C000F028C001F029C093
:1061C00002F02AC003F012003F0EE5DF2BEC2EF0A8
:1061D00028C0DEFF29C0DDFF000EDFCF28F0010E52
:1061E000DBCF29F003EC2BF06BEF30F004C027F08D
:1061F00005C028F006C029F007C02AF0120001C02F
:1062000028F002C029F003C02AF0120027C02CF0A9
:1062100028C02DF029C02EF02AC02FF01200DB0E6E
:106220002C6E0F0E2D6EC90E2E6E400E1200D95020
:10623000FA0FE96EFF0E88EF30F01BEC2CF073DFE5
:1062400078EF30F05ADFDBCF03F01200A4DF5DEF10
:0E62500030F02F6ECBDF1BEC2CF0DBEF30F0CC
:02625E00D9CF96
:10626000E6FFE1CFD9FF030EE126FD0EDBCF28F0DC
:10627000FE0EDBCF29F0DE5228C0DEFF29C0DDFF95
:10628000DD52020EDB50AA6E010EDB50A96EA69EF7
:10629000A69CA680A850DF6EDF50006E030EE15C66
:1062A00002E2E16AE552E16E0050E552E7CFD9FF24
:1062B0001200D9CFE6FFE1CFD9FF040EE126FD0E93
