:020000040000FA
:0608000022EF32F01200AD
:020806001200DE
:0608080016EF04F01200DF
:0608180008EF06F01200DB
:02081E000100D7
:0C08200083640000BE0000002E000000F9
:04082C00DACFE4FF3C
:10083000E2CFDAFFE9CFE4FFEACFE4FFF6CFE4FF4F
:10084000F7CFE4FFF5CFE4FFF3CFE4FFF4CFE4FF0D
:10085000FACFE4FF00EE24F0140EE80403E3EECF39
:10086000E4FFFBD700EE00F0240EE80403E3EECF34
:10087000E4FFFBD7E652F2A42AD1D59EFC0ED76E38
:100880003F0ED66ED58E0101072B000E0823010105
:100890008F2B000E9023912392230101932B000EA6
:1008A0009423952396230101972B000E98239923D7
:1008B0009A2301019B2B000E9C239D239E23010163
:1008C000092B000E0A230101F52B000EF623320E30
:1008D0000001815D02E20001812B030E010100197C
:1008E00001E1015101E17FD0020E0101001901E196
:1008F00001513CE0010E0101001901E1015107E045
:100900000101005101E1015101E0DBD0DFD0805055
:10091000100B100A01E0010E010808E10101026B51
:10092000036B0101002B000E01231FD00101022BDC
:10093000000E03230101F40ED8800255010E035569
:1009400014E20101026B036B0101010E0D1901E1BB
:100950000E5106E00101070E0D1901E10E5105E1EE
:100960000101AA5101E0B2D0897EB0D080A805D0A3
:1009700001010007000E015B35D00101022B000EC2
:1009800003230101320ED8800255000E03552AE2DE
:10099000000EE66EE66A000EE66EE66AFEEC09F010
:1009A000E552E552E552E552899E899C8A908A98E3
:1009B000020E01010D1901E10E510BE001010D5173
:1009C00001E10E5101E00AD0898E0101096B0A6B29
:1009D00005D0040E01010D6F0E6B00D00101002B3C
:1009E000000E012373D080A83FD0040E01010D1921
:1009F00001E10E5133E0070E01010D1901E10E5125
:100A000028E0050E01010D1901E10E511DE0030E54
:100A100001010D1901E10E5112E0010E01010D1944
:100A200001E10E5107E001010D5101E10E5101E01C
:100A300016D015D0020E01010D6F0E6B10D0010EF5
:100A400001010D6F0E6B0BD0060E01010D6F0E6BC9
:100A500006D0080E01010D6F0E6B01D0FF000101E1
:100A6000002B000E01232CD0050E01010D1901E110
:100A70000E5116E001010D5101E10E5101E020D0AF
:100A80000101D00ED8800955070E0A5508E2899C4D
:100A9000050E01010D6F0E6B0101026B036B10D08F
:100AA0000101022B000E03230101640ED8800255C0
:100AB000000E035504E20101026B036B897E00D036
:100AC00005D0010E0101006F016B00D0F2949EA6CB
:100AD00073D00001816B0001826B000180510F0A0D
:100AE00064E0010A5EE0030A44E0010A39E0070A13
:100AF0002EE0080A23E0010A0AE0030A01E058D0C8
:100B000083C0C9FF0001846B0001802B54D0C5ACA9
:100B100003D080C082F011D000018451842BEA6A96
:100B2000860FE96E000EEA22EF50C96E0001855172
:100B30000001845D02E10001802B3DD0C5AC03D0F3
:100B400080C082F003D0C5840001806B34D0010ED8
:100B500000018311C96E0001846B0001802B2BD032
:100B6000C5AC03D080C082F003D0C5860001802BC5
:100B700022D000018451842BEA6A860FE96E000EB0
:100B8000EA22C9CFEFFF000185510001845D04E234
:100B9000C59A0001800703D0C58A0001802BC58853
:100BA0000AD0C5840001802B06D00001806B03D0E1
:100BB0000001806B00D09E96A1A606D0A196400EA3
:100BC000000180110001826FE55200EE23F0240E37
:100BD000E80403E3E5CFEDFFFBD700EE37F0140E9A
:100BE000E80403E3E5CFEDFFFBD7E5CFFAFFE5CF60
:100BF000F4FFE5CFF3FFE5CFF5FFE5CFF7FFE5CF56
:100C0000F6FFE5CFEAFFE5CFE9FFE5CFDAFF110018
:100C1000D8CFE4FFE0CFE4FFE46EDACFE4FFE2CF29
:100C2000DAFFE9CFE4FFEACFE4FFE6529EAC2CD135
:100C30009E9CC4CF06F1C3CF05F101010451EA6ABD
:100C4000A00FE96E010EEA22EF50050801E09BD0EB
:100C500001010C3504E20B510308000E0C5501E3B1
:100C600091D005C105F106C106F10101FF0ED88042
:100C70000557030E0657010E0101D89005370637B8
:100C8000E806FBE10101900E055D010E065905E243
:100C90000101900E056F010E066F900E0101055FB8
:100CA000010E0101065B0101FF0ED8800555030E00
:100CB000065504E201010569030E066F01010451A6
:100CC000E96EEA6AD890E936EA360F0EE926010E97
:100CD000EA22EE5001010527EE500101062305C16D
:100CE00038F006C139F0010E0F0B05E0D89039320B
:100CF0003832E806FBE101010451E96EEA6AD89056
:100D0000E936EA360F0EE926010EEA2238C0EEFF78
:100D100039C0EDFF01010B6B0C6B01010451090A95
:100D20002EE0010A29E00F0A24E0010A1FE0030A6D
:100D30001AE0010A15E0070A10E0010A0BE0030AB5
:100D400006E0010A01E01ED0929089801BD09292A9
:100D5000898218D09294898415D09296898612D06F
:100D6000929A898A0FD093948A840CD093968A861B
:100D700009D093928A8206D093988A8803D0939060
:100D80008A8000D02CD001010451E96EEA6AD89023
:100D9000E936EA360F0EE926010EEA22EE5001018D
:100DA0000527EE500101062305C138F006C139F0D0
:100DB000010E0F0B05E0D89039323832E806FBE11E
:100DC00001010451E96EEA6AD890E936EA360F0E5D
:100DD000E926010EEA2238C0EEFF39C0EDFF0A0E07
:100DE000386E0101042B01010451D880385402E30C
:100DF0000101046B01010451EA6AA00FE96E010EC2
:100E0000EA22EF50050837E101010B2B000E0C23FD
:100E100001010C3504E20B510308000E0C552BE2C6
:100E200001010451090A25E0010A21E00F0A1DE031
:100E3000010A19E0030A15E0010A11E0070A0DE0B2
:100E4000010A09E0030A05E0010A01E014D09280DA
:100E500012D0928210D092840ED092860CD0928AB8
:100E60000AD0938408D0938606D0938204D09388C6
:100E700002D0938000D001010451EA6ABE0FE96EEE
:100E8000000EEA22EF50C26E9EAA98D0ABA403D007
:100E9000AECFF9F193D0ABA203D0AB98AB888ED094
:100EA000AECFF9F10101010E0D1901E10E5173E010
:100EB0000101FA51080A66E00F0A5AE0010A4EE001
:100EC000030A42E0010A36E0070A2AE0010A1EE0AE
:100ED000030A12E0010A01E05ED0520E0101F95D41
:100EE00003E10101010EFA6F560E0101F95D03E104
:100EF0000101050EFA6F4FD0650E0101F95D02E1A7
:100F0000020E01D0000E0101FA6F45D0730E0101EF
:100F1000F95D02E1030E01D0000E0101FA6F3BD032
:100F2000650E0101F95D02E1040E01D0000E010120
:100F3000FA6F31D0740E0101F95D02E1070E01D0A4
:100F4000000E0101FA6F27D0650E0101F95D02E183
:100F5000060E01D0000E0101FA6F1DD0720E0101C4
:100F6000F95D02E1070E01D0000E0101FA6F13D006
:100F70000D0E0101F95D02E1080E01D0000E010124
:100F8000FA6F09D00A0E0101F95D02E1FF0002D0FB
:100F90000101FA6B00D00101F751EA6AD40FE96E42
:100FA000010EEA22F9C1EFFF1F0E386E0101F72B87
:100FB0000101F751385C02E20101F76BE552E5CF20
:100FC000EAFFE5CFE9FFE5CFDAFFE550E5CFE0FF47
:100FD000E5CFD8FF1000D9CFE6FFE1CFD9FF030E50
:100FE000E126F00ED36EC00E9B6E0101FA6B01017B
:100FF0000D6B0E6B006B016B026B036B010EDB6AFA
:10100000020EDB6A010EDBCF00F0020EDBCF01F037
:10101000D890015004E61A0E005C000E01581AE246
:10102000010EDBCFE9FF020EDBCFEAFFD890E936F5
:10103000EA36D890E936EA36270EE926010EEA228A
:10104000EE6AEE6AEE6AEE6A010EDB2A020EDAE35F
:10105000DB2AD8D7010EDB6A020EDB6A010EDBCF7A
:1010600000F0020EDBCF01F0D890015004E6040E30
:10107000005C000E01581AE2010EDBCFE9FF020E00
:10108000DBCFEAFFD890E936EA36D890E936EA367F
:101090008F0EE926010EEA22EE6AEE6AEE6AEE6A29
:1010A000010EDB2A020EDAE3DB2AD8D7010EDB6A57
:1010B000020EDB6A010EDBCF00F0020EDBCF01F087
:1010C000D890015004E60A0E005C000E015811E2AF
:1010D000010EDBCFE9FF020EDBCFEAFFA00EE9260F
:1010E000010EEA22010EEF6EDB2A020EE3E3DB2A99
:1010F000E1D70101236B246B256B266B046B0B6B13
:101100000C6BAA6BAB6B096B0A6B076B086B896A7C
:101110003F0EDF6EDF50926E8A6A1F0EDF6E000197
:10112000D01DDF16E66A080EE66E0EEC0DF0E552F5
:10113000E5520101A86B0001C81DDF16E66A090E21
:10114000E66E0EEC0DF0E552E5520101A96BDF50A1
:10115000936E180E8B6E980E946E020ED56EFC0E6A
:10116000D76E3F0ED66ED58EF294F28AF184B00E11
:10117000B16EA292A192A092B1809D92010ECA6E10
:10118000CC68CB68CA849F6F000E256F266B236FD7
:10119000246BE66EE66AE66EE66A9AD8E552E55298
:1011A000E552E5529F9C9D8CBE0EC06E020EC16E34
:1011B00001010451EA6ABE0FE96E000EEA22EF5007
:1011C000C26E2BEC19F021EC2EF0D09CD08EF28E5A
:1011D000F28C600E006E620E016E026A00C0E6FFC5
:1011E000E66E02C0E6FF7AEC19F0E552E552E552F0
:1011F000F9EC1BF005EC2FF0010E0101006F016B03
:101200008050100B100A01E0010E0108F9E0010105
:101210000D510E1103E1010E0D6F0E6B898E030E41
:10122000E15C02E2E16AE552E16EE552E7CFD9FF07
:101230001200D1DEF40EE66E010EE66EB5D8E55270
:10124000E5520101096B0A6BC0EC19F0000902E0DC
:10125000C6EC19F0070E01010D1901E10E5135E040
:10126000050E0D1901E10E512BE0060E0D1901E1DD
:101270000E5126E0020E0D1901E10E5116E0030E8B
:101280000D1901E10E5111E0010E0D19DDE10E51B4
:10129000DBE1CC51095DCD510A59D6E3096B0A6BEC
:1012A000AAA1D2D752EC1CF0CFD7C6EC11F0899E80
:1012B000899C8A908A98010E01010D6F0E6BC4D72C
:1012C00086EC0EF004EC0FF0BFD70FEC10F0BCD79B
:1012D000D9CFE6FFE1CFD9FF040EE126FD0EDBCF2B
:1012E00000F0FE0EDBCF01F0FF0ED8800054030E9D
:1012F000015407E2FD0EDB68030EF36EFE0EF3CF22
:10130000DBFFFB0EDBCF00F0FC0EDBCF01F0FF0EAE
:10131000D8800054030E015407E2FB0EDB68030E75
:10132000F36EFC0EF3CFDBFFFB0EDBCF00F0FC0E09
:10133000DBCF01F0060ED89000360136E804FBE161
:1013400000C0DEFF01C0DDFFFD0EDBCF00F0FE0EB2
:10135000DBCF01F0060ED89000360136E804FBE141
:10136000020E00C0DBFF030E01C0DBFF010EDB50ED
:10137000BE6E030EDB50BB6EDF50E840E8403F0B13
:10138000300B0C09BD6E020EDB40E8403F0B300B0A
:101390000C09BA6E040EE15C02E2E16AE552E16E0C
:1013A000E552E7CFD9FF1200D9CFE6FFE1CFD9FF51
:1013B000020EE126F29A0101096B0A6BF28AF29A97
:1013C00009C1DEFF0AC1DDFFF28ADECF00F0DDCF0A
:1013D00001F0FD0EDBCF02F0FE0EDBCF03F002507A
:1013E000005C03500158EBE3020EE15C02E2E16AAB
:1013F000E552E16EE552E7CFD9FF1200D9CFE6FF03
:10140000E1CFD9FF0A0EE12623C100F024C101F08B
:10141000FD0EDB50001811E1FE0EDB5001180DE14E
:1014200025C102F026C103F0FB0EDB50021805E1D6
:10143000FC0EDB50031801E1E7D2000EE66EE66A0F
:10144000E66EE66A45DFE552E552E552E5528B9AD3
:101450008B908A9C8A9AA092A192B190B368050E53
:10146000B26EB180080EF6C0DBFFFD0EDBCF00F0E0
:10147000FE0EDBCF01F0013401E387D000500008FD
:10148000000E015401E381D0010EF36E040EF3CF80
:10149000DBFF060EDB6A080E2C6E2D6AFD0EDBCF1D
:1014A00031F0FE0EDBCF32F040EC27F02AC0DEFF39
:1014B0002BC0DDFF0001000ED880F655000EF75559
:1014C00001E3F8D0DECF00F0DDCF01F001341EE201
:1014D00000509008010E015419E2DECF02F0DDCF7A
:1014E00003F0900E025E010E035A02C02CF003C0FE
:1014F0002DF0FAC031F0FBC032F0CEEC31F000013B
:10150000F6512C24006EF7512D2027D0DECF00F0AD
:10151000DDCF01F0900ED8800056010E0156F65135
:10152000005CF75101581CE2DECF02F0DDCF03F082
:10153000900ED8800256010E035602C02CF003C054
:101540002DF0FAC031F0FBC032F0CEEC31F00001EA
:101550002C50F65D006E2D50F759080E00C0DBFFD1
:10156000080EDB50006E016ADECF02F0DDCF03F023
:1015700001500318E8AE02D0033404D00250005CDE
:101580000350015801E396D089D0FD0EDBCF00F067
:10159000FE0EDBCF01F00001800E011401E18FD0BF
:1015A000040EDB6A010EF36E060EF3CFDBFFF80EBE
:1015B0002C6E2D68FD0EDBCF31F0FE0EDBCF32F04E
:1015C00040EC27F02AC0DEFF2BC0DDFF0001000E3B
:1015D000D880F655000EF7556DE2DECF00F0DDCF76
:1015E00001F001341EE200509008010E015419E28E
:1015F000DECF02F0DDCF03F0900E025E010E035A43
:1016000002C02CF003C02DF0FAC031F0FBC032F064
:10161000CEEC31F00001F6512C24006EF7512D2054
:1016200027D0DECF00F0DDCF01F0900ED88000563D
:10163000010E0156F651005CF75101581CE2DECF55
:1016400002F0DDCF03F0900ED8800256010E035653
:1016500002C02CF003C02DF0FAC031F0FBC032F014
:10166000CEEC31F000012C50F65D006E2D50F75994
:10167000080E00C0DBFF080EDB50006E016ADECFF3
:1016800002F0DDCF03F001500318E8AE02D00334BE
:1016900004D00250005C035001580CE2080EDB50ED
:1016A000006E016AD9CFE9FFDACFEAFFE850EE5EBB
:1016B0000150ED5A640EDE26000EDD220FD001012E
:1016C0009F510CE0010EF36E040EF3CFDBFF010E11
:1016D000F36E060EF3CFDBFFDE6ADD6A090EF8C09B
:1016E000DBFFFB0EDBCF00F0FC0EDBCF01F00134A3
:1016F00001E393D000500008000E015401E38DD0A7
:10170000010EF36E050EF3CFDBFF070EDB6A080E4A
:101710002C6E2D6AFB0EDBCF31F0FC0EDBCF32F0EE
:1017200040EC27F0020E2AC0DBFF030E2BC0DBFFCC
:101730000001000ED880F855000EF95501E310D1D4
:10174000020EDBCF00F0030EDBCF01F0013420E20C
:1017500000509008010E01541BE2020EDBCF02F094
:10176000030EDBCF03F0900E025E010E035A02C09F
:101770002CF003C02DF0FAC031F0FBC032F0CEECFB
:1017800031F00001F8512C24006EF9512D202BD09E
:10179000020EDBCF00F0030EDBCF01F0900ED880FD
:1017A0000056010E0156F851005CF95101581EE235
:1017B000020EDBCF02F0030EDBCF03F0900ED880D9
:1017C0000256010E035602C02CF003C02DF0FAC0E1
:1017D00031F0FBC032F0CEEC31F000012C50F85D5E
:1017E000006E2D50F959090E00C0DBFF090EDB50C9
:1017F000006E016A020EDBCF02F0030EDBCF03F0B6
:1018000001500318E8AE02D0033404D00250005C4B
:101810000350015801E3A4D096D0FB0EDBCF00F0BB
:10182000FC0EDBCF01F00001800E011401E1A2D01B
:10183000050EDB6A010EF36E070EF3CFDBFFF80E29
:101840002C6E2D68FB0EDBCF31F0FC0EDBCF32F0BF
:1018500040EC27F0020E2AC0DBFF030E2BC0DBFF9B
:101860000001000ED880F855000EF95501E378D03C
:10187000020EDBCF00F0030EDBCF01F0013420E2DB
:1018800000509008010E01541BE2020EDBCF02F063
:10189000030EDBCF03F0900E025E010E035A02C06E
:1018A0002CF003C02DF0FAC031F0FBC032F0CEECCA
:1018B00031F00001F8512C24006EF9512D202BD06D
:1018C000020EDBCF00F0030EDBCF01F0900ED880CC
:1018D0000056010E0156F851005CF95101581EE204
:1018E000020EDBCF02F0030EDBCF03F0900ED880A8
:1018F0000256010E035602C02CF003C02DF0FAC0B0
:1019000031F0FBC032F0CEEC31F000012C50F85D2C
:10191000006E2D50F959090E00C0DBFF090EDB5097
:10192000006E016A020EDBCF02F0030EDBCF03F084
:1019300001500318E8AE02D0033404D00250005C1A
:10194000035001580DE2090EDB50006E016AD950B8
:10195000020FE96EDACFEAFF0050EE5E0150ED5A59
:10196000D950020FE96EDACFEAFF640EEE26000EC0
:10197000ED2211D001019F510EE0010EF36E050E14
:10198000F3CFDBFF010EF36E070EF3CFDBFF020E8A
:10199000DB6A030EDB6A0101010E9F6FFD0EDBCFD8
:1019A00023F1FE0EDBCF24F1FB0EDBCF25F1FC0E85
:1019B000DBCF26F1A1A2FED7A192020EDBCFE6FF7C
:1019C000030EDBCFE6FFDECFE6FFDDCFE6FF80DCF8
:1019D000E552E552E552E552040EDB50E8B08B8A41
:1019E000E8A08B9A060EDB50E8B08B80E8A08B90C5
:1019F000050EDB50E8B08A8CE8A08A9C070EDB500D
:101A0000E8B08A8AE8A08A9A0A0EE15C02E2E16AFA
:101A1000E552E16EE552E7CFD9FF1200D9CFE6FFDC
:101A2000E1CFD9FFFE0EDB50090A5AE0010A50E06F
:101A30000F0A46E0010A3CE0030A32E0010A28E00E
:101A4000070A1EE0010A14E0030A0AE0010A4EE157
:101A5000FD0EDB50E8B08980E8B048D0899046D0D0
:101A6000FD0EDB50E8B08982E8B040D089923ED0CC
:101A7000FD0EDB50E8B08984E8B038D0899436D0C8
:101A8000FD0EDB50E8B08986E8B030D089962ED0C4
:101A9000FD0EDB50E8B0898AE8B028D0899A26D0BC
:101AA000FD0EDB50E8B08A84E8B020D08A941ED0C6
:101AB000FD0EDB50E8B08A86E8B018D08A9616D0C2
:101AC000FD0EDB50E8B08A82E8B010D08A920ED0CA
:101AD000FD0EDB50E8B08A88E8B008D08A9806D0BE
:101AE000FD0EDB50E8B08A80E8A08A90E552E7CF8F
:101AF000D9FF1200D9CFE6FFE1CFD9FFE652DF6A66
:101B0000FE0EDB50090A35E0010A2EE00F0A28E03C
:101B1000010A22E0030A1CE0010A16E0070A10E0AD
:101B2000010A0AE0030A04E0010A26E1895022D0F2
:101B30008950020B20E01BD08950040B1CE017D009
:101B40008950080B18E013D08950200B14E00FD0F7
:101B50008A50040B10E00BD08A50080B0CE007D021
:101B60008A50020B08E003D08A50100B04E0010EEB
:101B700002D08A50010BDF6EDF50E552E552E7CF0D
:101B8000D9FF1200D9CFE6FFE1CFD9FFFE0EDB501F
:101B9000030A1EE0010A14E0030A0AE0010A1EE13A
:101BA000FD0EDB50E8B0898EE8B018D0899E16D0C3
:101BB000FD0EDB50E8B0898CE8B010D0899C0ED0C7
:101BC000FD0EDB50E8B08A80E8B008D08A9006D0DD
:101BD000FD0EDB50E8B08A88E8A08A98E552E7CF8E
:101BE000D9FF1200D9CFE6FFE1CFD9FFE652DF6A75
:101BF000FE0EDB50030A13E0010A0DE0030A06E0C3
:101C0000010A12E18950800B08E003D08950400B93
:101C100004E0010E02D08A50010BDF6E05D08A501D
:101C2000100B01E0010EDF6EDF50E552E552E7CF09
:101C3000D9FF1200D9CFE6FFE1CFD9FFF29AFE0E0D
:101C4000DB50040DF3CFE9FFF4CFEAFF8F0EE92656
:101C5000010EEA22EE6AEE6AEE6AEE6AF28AE55256
:101C6000E7CFD9FF1200D9CFE6FFE1CFD9FF040EAD
:101C7000E126F29AFE0EDB50040DF3CFE9FFF4CF1C
:101C8000EAFF8F0EE926010EEA22EECFDFFF010EFA
:101C9000EECFDBFF020EEECFDBFF030EEECFDBFF5E
:101CA000F28ADECF2AF0DECF2BF0DECF2CF0DDCFB4
:101CB0002DF0DD52DD52040EE15C02E2E16AE552F4
:101CC000E16EE552E7CFD9FF1200B36AB26AB18084
:101CD0001200D9CFE6FFE1CFD9FF020EE126B250C4
:101CE000DF6E010EB3CFDBFFDECF00F0DDCF01F002
:101CF00000C0F3FF01C0F4FF020EE15C02E2E16A02
:101D0000E552E16EE552E7CFD9FF1200E66AE66AD6
:101D100039DFE552E552E66A010EE66E33DFE55241
:101D2000E552E66A020EE66E2DDFE552E552E66AFE
:101D3000030EE66E27DFE552E552050E01010D6F39
:101D40000E6B0101050E0D195EE10E515CE1320EC4
:101D5000D8800F55010E105503E2010EE66E01D03A
:101D6000E66AE66A0FDFE552E5520101320ED880DD
:101D70001155010E125503E2010EE66E02D0E66A1D
:101D8000010EE66EFFDEE552E5520101FF0ED8803E
:101D90001355010E145503E2010EE66E01D0E66AFA
:101DA000020EE66EEFDEE552E5520101FF0ED8802D
:101DB0001555010E165503E2010EE66E01D0E66AD6
:101DC000030EE66EDFDEE552E5520101FF0ED8801C
:101DD0001755010E18550AE2010EE66E020EE66E68
:101DE000D1DEE552E552010EE66E07D0E66A020E3C
:101DF000E66EC8DEE552E552E66A030EE66EC2DE26
:101E0000E552E5529ED71200E66AE66ABBDEE5526D
:101E1000E552E66A010EE66EB5DEE552E552E66A87
:101E2000020EE66EAFDEE552E552E66A030EE66E9E
:101E3000A9DEE552E552010EE66EE66AA3DEE55242
:101E4000E552320EE66EE66AE66EE66AFEEC09F0F0
:101E5000E552E552E552E552E80EE66E030EE66EF7
:101E6000D4EC09F0E552E552E66AE66A8BDEE5520B
:101E7000E552000EE66EE66AE66EE66AFEEC09F0F2
:101E8000E552E552E552E552C80EE66EE66AD4EC3C
:101E900009F0E552E552010EE66EE66E73DEE5529C
:101EA000E552CE0EE66EE668E66EE668FEEC09F0F8
:101EB000E552E552E552E552E80EE66E030EE66E97
:101EC000D4EC09F0E552E552E66A010EE66E5ADE00
:101ED000E552E552000EE66EE66AE66EE66AFEEC54
:101EE00009F0E552E552E552E552C80EE66EE66AA3
:101EF000D4EC09F0E552E552010EE66E020EE66EF4
:101F000041DEE552E552320EE66EE66ACE0EE66E30
:101F1000E668FEEC09F0E552E552E552E552E80EBE
:101F2000E66E030EE66ED4EC09F0E552E552E66A81
:101F3000020EE66E27DEE552E552000EE66EE66A18
:101F4000E66EE66AFEEC09F0E552E552E552E5522E
:101F5000C80EE66EE66AD4EC09F0E552E552010ED1
:101F6000E66E030EE66E0EDEE552E552CE0EE66E2E
:101F7000E668320EE66EE66AFEEC09F0E552E552DE
:101F8000E552E552E80EE66E030EE66ED4EC09F07B
:101F9000E552E552E66A030EE66EF4DDE552E552DF
:101FA000000EE66EE66AE66EE66AFEEC09F0E552C1
:101FB000E552E552E552320EE66EE66A000EE66E36
:101FC000E66AFEEC09F0E552E552E552E552E80E0C
:101FD000E66E030EE66ED4EC09F0E552E552000E13
:101FE000E66EE66A320EE66EE66AFEEC09F0E5524F
:101FF000E552E552E552E80EE66E030EE66ED4ECCD
:1020000009F0E552E552000EE66EE66AE66EE66A13
:10201000FEEC09F0E552E552E552E5521200C0EC43
:1020200019F0000902E0C6EC19F00101080E0D19C3
:1020300001E080D00E5101E07DD0010EE66EE66A2F
:10204000A1DDE552E552320EE66EE66AE66EE66A1C
:10205000FEEC09F0E552E552E552E552D00EE66E8F
:10206000070EE66ED4EC09F0E552E552640EE66E1A
:10207000E66AE66EE66AFEEC09F0E552E552E552E4
:10208000E552E80EE66E030EE66ED4EC09F0E5527A
:10209000E552010EE66E030EE66E74DDE552E55282
:1020A000000EE66EE66AE66EE66AFEEC09F0E552C0
:1020B000E552E552E552F40EE66E010EE66ED4EC02
:1020C00009F0E552E552CE0EE66EE668E66EE66889
:1020D000FEEC09F0E552E552E552E552D00EE66E0F
:1020E000070EE66ED4EC09F0E552E5529C0EE66E62
:1020F000E668E66EE668FEEC09F0E552E552E55268
:10210000E552E80EE66E030EE66ED4EC09F0E552F9
:10211000E552E66A030EE66E35DDE552E552000E45
:10212000E66EE66AE66EE66AFEEC09F0E552E55216
:10213000E552E552070E01010D6F0E6B70D7D9CF36
:10214000E6FFE1CFD9FFFD0EDBCFCEF1FE0EDBCFF8
:10215000CFF10101D06BD16B6F0ECE5F000ECF5B64
:10216000D05BD15B700E2F6E170E306E316A326A03
:10217000CEC12AF0CFC12BF0D0C12CF0D1C12DF0AF
:1021800092EC30F026C0CEF127C0CFF128C0D0F1BC
:1021900029C0D1F18A0E2F6E0C0E306E316A326A70
:1021A00026C02AF027C02BF028C02CF029C02DF023
:1021B0000CEC27F02AC0CEF12BC0CFF12CC0D0F10F
:1021C0002DC0D1F1640E0101CE5F000ECF5BD05B5C
:1021D000D15BD880D151FF0A08E6F60ECE5DFF0E26
:1021E000CF59FF0ED059FF0ED1590BE20001190E45
:1021F000E86FFC0EE96FEA69EB6907C1D2F108C12B
:10220000D3F10101D251075D006E0851D355016E23
:10221000E80E005C030E015801E2B0D007C1D2F114
:1022200008C1D3F1190E0001E81911E1FC0EE919FA
:102230000EE1E868EA190BE1E868EB1908E1CEC1A4
:10224000E8F0CFC1E9F0D0C1EAF0D1C1EBF0E80E7F
:10225000E96E000EEA6E030EEB500101D119E8AEF3
:1022600002D0D13508D0CE51EE5CCF51EE58D051CE
:10227000EE58D151EE582DE2E80EE96E000EEA6EEE
:10228000EE50CE5D006EEE50CF59016EEE50D0593B
:10229000026EEE50D159036EE834000E031809E6C1
:1022A000D880010E0054000E0154000E0254000E9E
:1022B00003543DE2E8C0CEF1E9C0CFF1EAC0D0F16D
:1022C000EBC0D1F1020ECE27000ECF23D023D123B5
:1022D0002ED0CE0EE96E010EEA6EEE500001E85DE2
:1022E000006EEE50E959016EEE50EA59026EEE5062
:1022F000EB59036EE834000E031809E6D880010E8E
:102300000054000E0154000E0254000E03540FE25C
:10231000E8C0CEF1E9C0CFF1EAC0D0F1EBC0D1F115
:10232000020E0101CE5F000ECF5BD05BD15B0101DD
:10233000CE510001E8270101CF510001E92301013D
:10234000D0510001EA230101D1510001EB23020E1B
:102350002F6E306A316A326AE8C02AF0E9C02BF089
:10236000EAC02CF0EBC02DF00CEC27F02AC0E8F00E
:102370002BC0E9F02CC0EAF02DC0EBF0E8C0F3FF71
:0C238000E9C0F4FFE552E7CFD9FF1200DE
:04238C00D9CFE6FFC0
:10239000E1CFD9FF280EE126DE6ADE6A5C0EDE6E32
:1023A000420EDD6EDD52DD52080EDB6A090EDB6A7D
:1023B000200EF36E0A0EF3CFDBFF410EF36E0B0E11
:1023C000F3CFDBFF0C0EDB6A0D0EDB6A0E0EDB6A51
:1023D0000F0EDB6A100EDB6A110EDB6A8C0EF36ED9
:1023E000120EF3CFDBFF420EF36E130EF3CFDBFFC3
:1023F000140EDB6A150EDB6AA00EF36E160EF3CF19
:10240000DBFF410EF36E170EF3CFDBFF180EDB6A16
:10241000190EDB6A200EF36E1A0EF3CFDBFF400EAF
:10242000F36E1B0EF3CFDBFF1C0EDB6A1D0EDB6AA7
:102430001E0EDB6A1F0EDB6A200EDB6A210EDB6AD2
:10244000220EDB6A230EDB6A240EDB6A250EDB6AB2
:10245000260EDB6A270EDB6A0101F40E115D010E08
:10246000125926E2E66AE66AC2EC0DF0E552E55240
:102470000FC100F010C101F0090E0102F3CF01F00D
:102480000002F3CF00F0F4500126030E0F0B05E01D
:10249000D89001320032E806FBE1950E0026010ECD
:1024A000012200C02CF001C02DF085EC25F009D1EF
:1024B0000FC104F010C105F0090E0502F3CF05F0BD
:1024C0000402F3CF04F0F4500526030E0F0B05E0D1
:1024D000D89005320432E806FBE104C02CF005C0B8
:1024E0002DF085EC25F02BC000F02CC001F02DC0A4
:1024F00002F02EC003F0080EDBCF0AF0090EDBCF8E
:102500000BF00A0EDBCF0CF00B0EDBCF0DF09A0EAA
:10251000306E990E316E326E3F0E336E0AC02BF064
:102520000BC02CF00CC02DF00DC02EF09FEC26F04F
:102530002BC006F02CC007F02DC008F02EC009F00B
:102540002BC030F02CC031F02DC032F02EC033F053
:1025500000C02BF001C02CF002C02DF003C02EF003
:10256000CBEC27F0010A01E05DD10FC112F010C1E0
:1025700013F0090E1302F3CF13F01202F3CF12F08F
:10258000F4501326030E0F0B05E0D89013321232CD
:10259000E806FBE112C02CF013C02DF085EC25F00D
:1025A0002BC00EF02CC00FF02DC010F02EC011F07B
:1025B000186A196AB40E1A6E430E1B6E080EDBCF32
:1025C00020F0090EDBCF21F00A0EDBCF22F00B0E3C
:1025D000DBCF23F09A0E306E990E316E326E3F0EC5
:1025E000336E20C02BF021C02CF022C02DF023C070
:1025F0002EF09FEC26F02BC01CF02CC01DF02DC03F
:102600001EF02EC01FF02BC030F02CC031F02DC0BA
:1026100032F02EC033F018C02BF019C02CF01AC0C5
:102620002DF01BC02EF0B5EC25F02BC014F02CC003
:1026300015F02DC016F02EC017F02BC030F02CC0B6
:1026400031F02DC032F02EC033F00EC02BF00FC091
:102650002CF010C02DF011C02EF0C2EC27F0010AB2
:1026600001E0E0D0E66AE66AC2EC0DF0E552E55220
:102670000FC12CF010C12DF085EC25F02BC004F01B
:102680002CC005F02DC006F02EC007F0140E306EE1
:10269000AE0E316E870E326E3F0E336E9FEC26F01B
:1026A0002BC000F02CC001F02DC002F02EC003F0B2
:1026B000306A800E316ECA0E326E430E336EB6EC47
:1026C00025F00C0E2BC0DBFF0D0E2CC0DBFF0E0E19
:1026D0002DC0DBFF0F0E2EC0DBFF0C0EDBCF04F096
:1026E0000D0EDBCF05F00E0EDBCF06F00F0EDBCFAD
:1026F00007F0C30E306EF50E316E480E326E400E8E
:10270000336E04C02BF005C02CF006C02DF007C0BE
:102710002EF09FEC26F02BC000F02CC001F02DC055
:1027200002F02EC003F0306A316A340E326E430E6E
:10273000336E4CEC26F00C0E2BC0DBFF0D0E2CC0C4
:10274000DBFF0E0E2DC0DBFF0F0E2EC0DBFFD950BE
:102750000C0FE96EDACFEAFFEECFE6FFEECFE6FF31
:10276000EECFE6FFEFCFE6FF83EC31F0E552E55226
:10277000E552E5522AC000F02BC001F02CC002F057
:102780002DC003F02AC02BF001C02CF002C02DF0A8
:1027900003C02EF0000EDFCF30F0010EDBCF31F0A2
:1027A000020EDBCF32F0030EDBCF33F09FEC26F0CE
:1027B000200E2BC0DBFF210E2CC0DBFF220E2DC014
:1027C000DBFF230E2EC0DBFFD9500C0FE96EDACFF2
:1027D000EAFFEECFE6FFEECFE6FFEECFE6FFEFCF6C
:1027E000E6FF5BEC31F0E552E552E552E5522AC0D6
:1027F00000F02BC001F02CC002F02DC003F02AC065
:102800002BF001C02CF002C02DF003C02EF0000E02
:10281000DFCF30F0010EDBCF31F0020EDBCF32F034
:10282000030EFCD1010EE66EE66AC2EC0DF0E55235
:10283000E552D9CFE9FFDACFEAFF040EEECFDBFF96
:10284000050EEECFDBFF060EEECFDBFF070EEECF61
:10285000DBFF0FC104F010C105F0090E0502F3CF34
:1028600005F00402F3CF04F0F4500526030E0F0B1D
:1028700005E0D89005320432E806FBE104C02CF0F4
:1028800005C02DF085EC25F02BC000F02CC001F028
:102890002DC002F02EC003F0080EDBCF06F0090EAB
:1028A000DBCF07F00A0EDBCF08F00B0EDBCF09F011
:1028B00006C030F007C031F008C032F009C033F074
:1028C000C2EC27F0010A01E0BAD10FC10EF010C12D
:1028D0000FF0090E0F02F3CF0FF00E02F3CF0EF040
:1028E000F4500F26030E0F0B05E0D8900F320E3276
:1028F000E806FBE10EC02CF00FC02DF085EC25F0B2
:102900002BC00AF02CC00BF02DC00CF02EC00DF027
:10291000146A156AB40E166E430E176E080EDBCFDE
:1029200018F0090EDBCF19F00A0EDBCF1AF00B0EF0
:10293000DBCF1BF018C030F019C031F01AC032F0F4
:102940001BC033F014C02BF015C02CF016C02DF0B6
:1029500017C02EF0B5EC25F02BC010F02CC011F0F4
:102960002DC012F02EC013F02BC030F02CC031F06F
:102970002DC032F02EC033F00AC02BF00BC02CF06B
:102980000CC02DF00DC02EF0CBEC27F0010A01E0B9
:1029900056D10FC100F010C101F0090E0102F3CFB2
:1029A00001F00002F3CF00F0F4500126030E0F0BEC
:1029B00005E0D89001320032E806FBE1B40E005C7D
:1029C000000E01583EE20FC104F010C105F0090EDF
:1029D0000502F3CF05F00402F3CF04F0F45005260E
:1029E000030E0F0B05E0D89005320432E806FBE138
:1029F000950E0426010E052204C02CF005C02DF012
:102A000085EC25F02BC000F02CC001F02DC002F0A9
:102A10002EC003F0100EDBCF06F0110EDBCF07F057
:102A2000120EDBCF08F0130EDBCF09F006C030F03A
:102A300007C031F008C032F009C033F0B6EC25F021
:102A40003DD00FC104F010C105F0090E0502F3CF0F
:102A500005F00402F3CF04F0F4500526030E0F0B2B
:102A600005E0D89005320432E806FBE1950E042615
:102A7000010E052204C02CF005C02DF085EC25F0D8
:102A80002BC000F02CC001F02DC002F02EC003F0CE
:102A9000100EDBCF06F0110EDBCF07F0120EDBCFEE
:102AA00008F0130EDBCF09F006C030F007C031F09C
:102AB00008C032F009C033F0B5EC25F00C0E2BC085
:102AC000DBFF0D0E2CC0DBFF0E0E2DC0DBFF0F0E4B
:102AD0002EC0DBFF0C0EDBCF04F00D0EDBCF05F0BC
:102AE0000E0EDBCF06F00F0EDBCF07F0C30E306EFD
:102AF000F50E316E480E326E400E336E04C02BF070
:102B000005C02CF006C02DF007C02EF09FEC26F07B
:102B10002BC000F02CC001F02DC002F02EC003F03D
:102B2000306A316A340E326E430E336E4CEC26F04E
:102B30000C0E2BC0DBFF0D0E2CC0DBFF0E0E2DC0CC
:102B4000DBFF0F0E2EC0DBFFD9500C0FE96EDACF82
:102B5000EAFFEECFE6FFEECFE6FFEECFE6FFEFCFE8
:102B6000E6FF83EC31F0E552E552E552E5522AC02A
:102B700000F02BC001F02CC002F02DC003F02AC0E1
:102B80002BF001C02CF002C02DF003C02EF0040E7B
:102B9000DBCF30F0050EDBCF31F0060EDBCF32F0AD
:102BA000070EDBCF33F09FEC26F0200E2BC0DBFFAF
:102BB000210E2CC0DBFF220E2DC0DBFF230E2EC00A
:102BC000DBFFD9500C0FE96EDACFEAFFEECFE6FF5C
:102BD000EECFE6FFEECFE6FFEFCFE6FF5BEC31F0A6
:102BE000E552E552E552E5522AC000F02BC001F053
:102BF0002CC002F02DC003F02AC02BF001C02CF035
:102C000002C02DF003C02EF0040EDBCF30F0050E15
:102C1000DBCF31F0060EDBCF32F0070EDBCF33F027
:102C20009FEC26F0240E2BC0DBFF250E2CC0DBFF13
:102C3000260E2DC0DBFF270E2EC0DBFF20D0D9CF04
:102C4000E9FFDACFEAFF200EEECFDBFF210EEECF59
:102C5000DBFF220EEECFDBFF230EEECFDBFFD9CF63
:102C6000E9FFDACFEAFF240EEECFDBFF250EEECF31
:102C7000DBFF260EEECFDBFF270EEECFDBFF13C10F
:102C80002CF014C12DF085EC25F01C0E2BC0DBFFC1
:102C90001D0E2CC0DBFF1E0E2DC0DBFF1F0E2EC035
:102CA000DBFF1C0EDBCF00F01D0EDBCF01F01E0E94
:102CB000DBCF02F01F0EDBCF03F0306A316A480E23
:102CC000326E420E336E00C02BF001C02CF002C0F9
:102CD0002DF003C02EF0C2EC27F0010A2EE11C0EED
:102CE000DBCF04F01D0EDBCF05F01E0EDBCF06F0B0
:102CF0001F0EDBCF07F0306A316A9B0E326E430E37
:102D0000336E04C02BF005C02CF006C02DF007C0B8
:102D10002EF0CBEC27F0010A10E1200EDB6A210E29
:102D2000DB6A220EDB6A230EDB6A240EDB6A250EC9
:102D3000DB6A260EDB6A270EDB6A1C0EDBCF00F097
:102D40001D0EDBCF01F01E0EDBCF02F01F0EDBCF1E
:102D500003F0180EDBCF04F0190EDBCF05F01A0ECE
:102D6000DBCF06F01B0EDBCF07F004C030F005C050
:102D700031F006C032F007C033F000C02BF001C0C4
:102D80002CF002C02DF003C02EF0CBEC27F0010A8E
:102D90004CE01C0EDBCF00F01D0EDBCF01F01E0E51
:102DA000DBCF02F01F0EDBCF03F0086A096AB40E16
:102DB0000A6E430E0B6E180EDBCF0CF0190EDBCF34
:102DC0000DF01A0EDBCF0EF01B0EDBCF0FF00CC098
:102DD00030F00DC031F00EC032F00FC033F008C03B
:102DE0002BF009C02CF00AC02DF00BC02EF0B5EC72
:102DF00025F02BC004F02CC005F02DC006F02EC02D
:102E000007F02BC030F02CC031F02DC032F02EC0B6
:102E100033F000C02BF001C02CF002C02DF003C035
:102E20002EF0C2EC27F0010A06E101013F6B406B76
:102E3000416B426B77D01C0EDBCF00F01D0EDBCF59
:102E400001F01E0EDBCF02F01F0EDBCF03F0306A65
:102E5000316A340E326E430E336E00C02BF001C067
:102E60002CF002C02DF003C02EF0CBEC27F0010AAD
:102E700025E0006A016AB40E026E430E036ED9505B
:102E80001C0FE96EDACFEAFFEECF2BF0EECF2CF07D
:102E9000EECF2DF0EFCF2EF000C030F001C031F0BA
:102EA00002C032F003C033F0B5EC25F02EC0EDFFC8
:102EB0002DC0EDFF2CC0EDFF2BC0EFFF1C0EDBCFB4
:102EC00000F01D0EDBCF01F01E0EDBCF02F01F0E57
:102ED000DBCF03F0306A316A340E326E430E336E4C
:102EE00000C02BF001C02CF002C02DF003C02EF06A
:102EF0004CEC26F0140EDBCF30F0150EDBCF31F0AA
:102F0000160EDBCF32F0170EDBCF33F09FEC26F03E
:102F10008BEC27F02AC03FF12BC040F12CC041F1CF
:102F20002DC042F1200EDBCF04F0210EDBCF05F0E7
:102F3000220EDBCF06F0230EDBCF07F0306A316ABA
:102F4000800E326EBF0E336E04C02BF005C02CF025
:102F500006C02DF007C02EF09FEC26F02BC000F02D
:102F60002CC001F02DC002F02EC003F03FC12AF0AA
:102F700040C12BF041C12CF042C12DF09CEC25F05A
:102F80002BC008F02CC009F02DC00AF02EC00BF0A9
:102F90002BC030F02CC031F02DC032F02EC033F0F9
:102FA00000C02BF001C02CF002C02DF003C02EF0A9
:102FB000B6EC25F08BEC27F02AC027F12BC028F1C6
:102FC0002CC029F12DC02AF1240EDBCF00F0250EF4
:102FD000DBCF01F0260EDBCF02F0270EDBCF03F0B4
:102FE0003FC12AF040C12BF041C12CF042C12DF06D
:102FF0009CEC25F02BC004F02CC005F02DC006F091
:103000002EC007F02BC030F02CC031F02DC032F0B4
:103010002EC033F000C02BF001C02CF002C02DF008
:1030200003C02EF0B6EC25F08BEC27F02AC02BF174
:103030002BC02CF12CC02DF12DC02EF1240EDBCF96
:1030400004F0250EDBCF05F0260EDBCF06F0270EB1
:10305000DBCF07F0306A316A800E326EBF0E336EFE
:1030600004C02BF005C02CF006C02DF007C02EF0D8
:103070009FEC26F02BC000F02CC001F02DC002F018
:103080002EC003F03FC12AF040C12BF041C12CF00B
:1030900042C12DF09CEC25F02BC008F02CC009F0AB
:1030A0002DC00AF02EC00BF02BC030F02CC031F038
:1030B0002DC032F02EC033F000C02BF001C02CF038
:1030C00002C02DF003C02EF0B6EC25F08BEC27F0FB
:1030D0002AC02FF12BC030F12CC031F12DC032F1BC
:1030E000200EDBCF00F0210EDBCF01F0220EDBCF74
:1030F00002F0230EDBCF03F03FC12AF040C12BF0DA
:1031000041C12CF042C12DF09CEC25F02BC004F005
:103110002CC005F02DC006F02EC007F02BC030F0FB
:103120002CC031F02DC032F02EC033F000C02BF097
:1031300001C02CF002C02DF003C02EF0B6EC25F03B
:103140008BEC27F02AC033F12BC034F12CC035F1C1
:103150002DC036F10101800E2A1512E027C100F0C2
:1031600028C101F029C102F02AC103F0000E006C51
:10317000011E0122021E0222031E0322008E08D01D
:1031800027C100F028C101F029C102F02AC103F0D3
:1031900000C0B8F0800E2E1512E02BC100F02CC13B
:1031A00001F02DC102F02EC103F0000E006C011ED3
:1031B0000122021E0222031E0322008E08D02BC110
:1031C00000F02CC101F02DC102F02EC103F000C0AF
:1031D000B9F0800E321512E02FC100F030C101F0BD
:1031E00031C102F032C103F0000E006C011E012259
:1031F000021E0222031E0322008E08D02FC100F0FF
:1032000030C101F031C102F032C103F000C0BAF0A8
:10321000800E361512E033C100F034C101F035C123
:1032200002F036C103F0000E006C011E0122021EE6
:103230000222031E0322008E08D033C100F034C1E5
:1032400001F035C102F036C103F000C0BBF0DDEC87
:063250002EF02CEF12F03D
:0A3256009D9A9E9A040EAC6E800E45
:10326000AB6EB886B06A440EAF6E240EAC6E900E94
:10327000AB6E0101F76B200EF75D09E2F751EA6AC8
:10328000D40FE96E010EEA22EF6AF72BF4D7F86B40
:10329000F8C1F7F1FA6B9F9A9E9A9D8A1200D9CFD6
:1032A000E6FFE1CFD9FFACA2FED7FE0EDB50AD6E3C
:1032B000E552E7CFD9FF1200D9CFE6FFE1CFD9FF22
:1032C000FD0EDBCFE9FFFE0EDBCFEAFFEF500EE095
:1032D000FD0EDBCFE9FFDB2AFE0EDBCFEAFF01E3C9
:1032E000DB2AEF50E66EDBDFE552EAD7E552E7CFA7
:1032F000D9FF1200D9CFE6FFE1CFD9FFFC0EDBCF1B
:10330000F6FFFD0EDBCFF7FFFE0EDBCFF8FF080068
:10331000F55016E0D950FC0FE96EFF0EDA20EA6E88
:10332000EFCFF6FFEE2AEFCFF7FF000EEE22EFCF42
:10333000F8FFEE220800F550E66EB1DFE552DED769
:10334000E552E7CFD9FF1200D9CFE6FFE1CFD9FF91
:10335000E6520101F851EA6AD40FE96E010EEA2241
:10336000EFCFDFFF200E006EF82BF851D88000540D
:1033700001E3F86BDF50E552E552E7CFD9FF1200C9
:103380000101F751F85D01E1000C010CD9CFE6FF16
:10339000E1CFD9FF1A0EE126190EDB6A0101F56BA8
:1033A000F66B0101640ED880F555000EF6552DE33D
:1033B000E7DF0009F6E0C8DFE76E180EE7CFDBFFB6
:1033C000DBCF00F0200EE76E0018E8AE02D0E73445
:1033D00002D0E750005C19E3170E006E190EDB50A7
:1033E000005C13E3D9CF00F0DACF01F0190EDBCF88
:1033F000F3FFDB2AF3500F01D924E96E000EDA2027
:10340000EA6E180EDBCFEFFFC9D7D9CF00F0DACFC5
:1034100001F0190EDB500F01D924E96E000EDA20FD
:10342000EA6EEF6A190EDB5009E0E66AD9CFE6FFD3
:10343000DACFE6FF0DD8E552E552E5521A0EE15C0F
:1034400002E2E16AE552E16EE552E7CFD9FF1200F0
:10345000D9CFE6FFE1CFD9FF060EE126FD0EDBCF87
:10346000E9FFFE0EDBCFEAFFEF50520A01E165D122
:10347000040A01E160D1140A01E14ED10F0A01E111
:10348000FCD0020A01E1CAD0030A01E198D0050A82
:1034900052E03A0A4FE0200A01E051D1640E0101E6
:1034A000CC6FCD6B010EE76EFD0EDBCFE9FFFE0E9C
:1034B000DBCFEAFFE750E926000EEA22EF50310A9F
:1034C0001CE0010A01E031D0030EE76EFD0EDBCFF8
:1034D000E9FFFE0EDBCFEAFFE750E926000EEA2205
:1034E000EF50310805E13DD90101AA81899E04D040
:1034F0000101AA910101AB6B18D0030EE76EFD0E1E
:10350000DBCFE9FFFE0EDBCFEAFFE750E926000E36
:10351000EA22EF50310802E1010E01D0000E010154
:10352000E8B0AA83E8A0AA9300D0010E01010D6FB4
:103530000E6B0DD10CD1010EE76EFD0EDBCFE9FF56
:10354000FE0EDBCFEAFFE750E926000EEA22EF503D
:10355000440822E1030EE76EFD0EDBCFE9FFFE0E0D
:10356000DBCFEAFFE750E926000EEA22EFCF00F0BA
:10357000300E005C11E3390E016E030EE76EFD0E96
:10358000DBCFE9FFFE0EDBCFEAFFE750E926000EB6
:10359000EA22EF50015C01E2DAD0030EE76EFD0E85
:1035A000DBCFE9FFFE0EDBCFEAFFE750E926000E96
:1035B000EA22EF50D00F0101AB6FD3D8C8D0010E73
:1035C000E76EFD0EDBCFE9FFFE0EDBCFEAFFE75033
:1035D000E926000EEA22EF50D00FDF6E030EE76EF1
:1035E000FD0EDBCFE9FFFE0EDBCFEAFFE750E92659
:1035F000000EEA22EF50D00FE76E010EE7CFDBFF9F
:103600000101AB510AE1010EDBCFE6FFDFCFE6FFA0
:10361000C2EC0DF0E552E55200D099D0010EE76EF4
:10362000FD0EDBCFE9FFFE0EDBCFEAFFE750E92618
:10363000000EEA22EF50D00FDF6E030EE76EFD0E94
:10364000DBCFE9FFFE0EDBCFEAFFE750E926000EF5
:10365000EA22EF50D00FE76E010EE7CFDBFF01014A
:10366000AB510AE1010EDBCFE6FFDFCFE6FF0EEC48
:103670000DF0E552E55200D06AD0030EE66E020E60
:10368000E76EFD0EDBCF00F0FE0EDBCF01F0E75062
:103690000026000E012200C0E6FF01C0E6FF5EDA50
:1036A000E552E552E552020EF3CFDBFF030EF4CFF5
:1036B000DBFF030EE66E060EE76EFD0EDBCF00F0BD
:1036C000FE0EDBCF01F0E7500026000E012200C005
:1036D000E6FF01C0E6FF42DAE552E552E552040E8C
:1036E000F3CFDBFF050EF4CFDBFF0101AB5113E19C
:1036F000040EDBCFE6FF050EDBCFE6FF020EDBCFCD
:10370000E6FF030EDBCFE6FFFEEC09F0E552E552E3
:10371000E552E55200D01BD0070E01010D6F0E6B74
:10372000FD0EDBCFE6FFFE0EDBCFE6FFF4EC2CF068
:10373000E552E5520CD05DD80AD0FF0008D0FC0E4F
:10374000DB5004E1150EE66EAADDE55200D0060E50
:10375000E15C02E2E16AE552E16EE552E7CFD9FFB2
:103760001200D9CFE6FFE1CFD9FFE6529D0E006EE1
:10377000620E016E026A00C0E6FFE66E02C0E6FF5E
:10378000B9DDE552E552E5520101AB5111E1DF6AC5
:103790000A0EDF5C0DE2DF50EA6AA00FE96E010E4F
:1037A000EA22EF50300FE66E7ADDE552DF2AF0D7DD
:1037B000940E006E620E016E026A00C0E6FFE66EB5
:1037C00002C0E6FF97DDE552E552E552910E006E2C
:1037D000620E016E026A00C0E6FFE66E02C0E6FFFE
:1037E00089DDE552E552E552E552E552E7CFD9FFD2
:1037F0001200D9CFE6FFE1CFD9FF200EE12625EC5C
:103800002CF08C0E006E620E016E026A00C0E6FFA4
:10381000E66E02C0E6FF6EDDE552E552E552200E8F
:10382000E66E3DDDE552830E006E620E016E026AA9
:1038300000C0E6FFE66E02C0E6FF5CDDE552E55241
:10384000E552FAC0E6FFFBC0E6FFF8C0E6FFF9C0AC
:10385000E6FFF6C0E6FFF7C0E6FF6E0E006E620EF2
:10386000016E026A00C0E6FFE66E02C0E6FFD9CF35
:10387000E6FFDACFE6FFABEC2FF0036E0B0EE15E56
:103880000350D9CFE6FFDACFE6FF16DDE552E55269
:10389000200EE15C02E2E16AE552E16EE552E7CF1B
:1038A000D9FF1200D9CFE6FFE1CFD9FF160EE126EE
:1038B0000101AB5101E07DD0020EDB6A0A0EF36E0E
:1038C000020EDBCFF4FFF350F45C62E2020EDB5039
:1038D000EA6AA00FE96E010EEA22EF500AE0020E3A
:1038E000DB50EA6AA00FE96E010EEA22EF500208EF
:1038F0000FE1020EDBCFE6FF7AEC0DF0E552000996
:1039000003E1006A016A33D00068030E016E2FD014
:10391000020EDB50EA6AA00FE96E010EEA22EF50B8
:10392000060817E1020EEA6ADB34FE0BEA36E96E9E
:103930000F0EE926010EEA22EECFE6FFEFCFE6FFFB
:103940009FEC10F0E552E552F3CF00F0F4CF01F018
:103950000ED0020EEA6ADB34FE0BEA36E96E0F0E79
:10396000E926010EEA22EECF00F0EFCF01F0020EC1
:10397000EA6ADB34FE0BEA36E96EAC0EE926010E8C
:10398000EA2200C0EEFF01C0EDFF020EDB2A96D74F
:10399000E66AF2EC0DF0E552E76E140EE7CFDBFFBE
:1039A000010EE66EF2EC0DF0E552E76E150EE7CF74
:1039B000DBFF020EDB6A0A0EF36E020EDBCFF4FFB2
:1039C000F350F45C34E2020EEA6ADB34FE0BEA36B2
:1039D000E96EAC0EE926010EEA22EECFE6FFEFCF4C
:1039E000E6FF020EDB28E66EE66A630E006E620EEC
:1039F000016E026A00C0E6FFE66E02C0E6FFD95023
:103A0000030FE66E000EDA20E66EABEC2FF0036ECD
:103A1000090EE15E0350D950030FE66E000EDA2066
:103A2000E66E4ADCE552E552020EDB2AC4D7020EEE
:103A3000DB6AD950030F006E020EDBCFF3FFDB2AE7
:103A4000F3500F010024E96E000EDA20EA6E4C0EEE
:103A5000EF6ED950030F006E020EDBCFF3FFDB2AAF
:103A6000F3500024E96E000EDA20EA6E450EEF6E88
:103A7000D950030F006E020EDBCFF3FFDB2AF350A9
:103A80000024E96E000EDA20EA6E440EEF6ED95083
:103A9000030F006E020EDBCFF3FFDB2AF35000248E
:103AA000E96E000EDA20EA6E3D0EEF6E140EDB506A
:103AB000300FE66ED950030F006E020EDBCFF3FF1E
:103AC000DB2AF3500024E96E000EDA20EA6EE5529C
:103AD000E750EF6E150EDB50300FE66ED950030F36
:103AE000006E020EDBCFF3FFDB2AF3500024E96EF9
:103AF000000EDA20EA6EE552E750EF6ED950030F60
:103B0000006EDACF01F0020EDB500024E96E000EE9
:103B1000DA20EA6EEF6AD950030FE66E000EDA2063
:103B2000E66E5CEC19F0E552E552910E006E620E05
:103B3000016E026A00C0E6FFE66E02C0E6FF7AECA4
:103B400019F0E552E552E552160EE15C02E2E16A37
:103B5000E552E16EE552E7CFD9FF1200D9CFE6FF7B
:103B6000E1CFD9FF060EE126010EF36E040EF3CF6E
:103B7000DBFF050EDB6A020EDB6A030EDB6ADF6A1F
:103B8000FC0EDB50DF5C43E2FD0EDBCFE9FFDB2AFE
:103B9000FE0EDBCFEAFF01E3DB2A010EEFCFDBFFF6
:103BA000DB5035E0010EDB502D0805E1040EDB682B
:103BB000050EDB682AD0300EF36E010EDBCFF4FF6A
:103BC000F350F45C22E3390E006E010EDB50005C12
:103BD0001CE3D950020FE96EDACFEAFF0A0EEC02BD
:103BE000F3CFEDFFEF02F3CFEEFFF450ED26010E21
:103BF000DB50D00F006E016AD950020FE96EDACFA8
:103C0000EAFF0050EE260150ED22DF2AB9D7040E5C
:103C1000DBCF00F0050EDBCF01F0D950020FE96ECB
:103C2000DACFEAFF00C031F001C032F0EECF2CF065
:103C3000EDCF2DF06DEC27F02AC0EEFF2BC0EDFF8D
:103C4000020EDBCF00F0030EDBCF01F000C0F3FF6C
:103C500001C0F4FF060EE15C02E2E16AE552E16EAA
:103C6000E552E7CFD9FF1200D9CFE6FFE1CFD9FF68
:103C7000060EE126DE6ADE6ADE6ADD6ADD52DD52AC
:103C8000040EDB6AFC0EDB50F36E040EDBCFF4FF98
:103C9000F350F45C57E2FD0EDBCFE9FFDB2AFE0EAA
:103CA000DBCFEAFF01E3DB2A050EEFCFDBFF300EAF
:103CB000F36E050EDBCFF4FFF350F45C43E3390EF3
:103CC000006E050EDB50005C3DE3300E006E050E0D
:103CD000DBCFE7FF0050E75E050EE7CFDBFFD9CF74
:103CE000E9FFDACFEAFF0A0E2F6E306A316A326AD4
:103CF000EECF2AF0EECF2BF0EECF2CF0EFCF2DF061
:103D000092EC30F029C0EDFF28C0EDFF27C0EDFF99
:103D100026C0EFFF050EDBCF00F0016A026A036ADE
:103D200000AE03D00168026803680050DE2601502F
:103D3000DE220250DE220350DD22DD52DD52040E6F
:103D4000DB2AA0D7DECF2AF0DECF2BF0DECF2CF09F
:103D5000DDCF2DF0DD52DD52060EE15C02E2E16ABC
:103D6000E552E16EE552E7CFD9FF1200D9CFE6FF69
:103D7000E1CFD9FF040EE126DE6ADD6A020EDB6ABE
:103D8000FC0EDB50F36E020EDBCFF4FFF350F45C5D
:103D90004FE2FD0EDBCFE9FFDB2AFE0EDBCFEAFFB1
:103DA00001E3DB2A030EEFCFDBFF300E006E030EC4
:103DB000DB50D880005408E3030EDB50390804E3DD
:103DC000030EDB50D00F1ED0410E006E030EDB50F1
:103DD000D880005408E3030EDB50460804E3030ECA
:103DE000DB50BF0F0ED0610E006E030EDB50D8808B
:103DF00000541EE3030EDB5066081AE3030EDB508B
:103E00009F0F0A0FE76E030EE7CFDBFFD9CFE9FF65
:103E1000DACFEAFF040ED890EE36ED36E806FBE185
:103E2000030EDB50DE26000EDD22020EDB2AA8D7B1
:103E3000DECF00F0DDCF01F000C0F3FF01C0F4FFE2
:103E4000040EE15C02E2E16AE552E16EE552E7CF81
:103E5000D9FF1200D9CFE6FFE1CFD9FF300EF36EC4
:103E6000FE0EDBCFF4FFF350F45C08E3390E006E76
:103E7000FE0EDB50005C02E3000E01D0010E0009D3
:103E800002E0000E01D0010EE552E7CFD9FF12008B
:103E9000D9CFE6FFE1CFD9FF300E006EFE0EDB502A
:103EA000D880005404E3FE0EDB50390816E2410EC0
:103EB000006EFE0EDB50D880005404E3FE0EDB5093
:103EC00046080BE2610E006EFE0EDB50D8800054F7
:103ED00006E3FE0EDB50660802E3010E01D0000E81
:083EE000E552E7CFD9FF120003
:083EE800B0EC24F0FB0EDBCF6F
:103EF000F3FFDB06F35000090AE0FEEC24F0FA0EB3
:103F000069EC25F0F3E1011CF1E1010E01D0000E96
:103F1000DFEF24F0B0EC24F03B0EE12402E3E16893
:103F2000E652E16E010EDB6A020EDB6AF90EDBCFB0
:103F3000F6FFFA0EDBCFF7FFFB0EDBCFF8FF080032
:103F4000F550DF6EDF5002E103EF24F0250EDF5C59
:103F500002E0F6EF23F0030EDB6A040EDB6A050EC7
:103F6000DB6A060EDB6A070EDB6A18EC24F02D0E06
:103F7000DF5C0CE02B0EDF5C09E0200EDF5C06E06E
:103F8000230EDF5C03E0300EDF5C1AE1DF50300A05
:103F900014E0130A0FE0030A0AE00B0A05E0060A20
:103FA000E4E1030EDB80E1D7030EDB82DED7030EF4
:103FB000DB84DBD7030EDB86D8D7030EDB88D5D7AF
:103FC0002A0EDF5C1BE114EC24F062EC24F010E01C
:103FD000030EDB802C682D68130EDBCF31F0140E3E
:103FE000DBCF32F040EC27F0040E2AC0DBFF03D019
:103FF000130E4BEC24F018EC24F00BD0090EDB6A06
:10400000B9EC24F003E02DEC25F0FAD7090E4BECC7
:1040100024F0030EDBB0DB982E0EDF5C1BE118EC06
:1040200024F02A0EDF5C0BE114EC24F062EC24F0A7
:1040300003E1130E9DEC24F018EC24F00BD0090ED4
:10404000DB6AB9EC24F003E02DEC25F0FAD7090E79
:104050009DEC24F0680EDF5C07E118EC24F0680E9C
:10406000DF5C1DE1030E18D0740EDF5C17E07A0EE2
:10407000DF5C14E0480EDF5C06E0540EDF5C03E01A
:104080005A0EDF5C02E1020E07D06C0EDF5C03E02B
:104090006A0EDF5C04E1010EF0EC24F0C9DBDF50B6
:1040A0006E0A01E17FD31E0A01E192D1200A01E1EB
:1040B0008FD13F0A01E149D11A0A01E146D10D0A27
:1040C00001E143D1200A01E140D13A0A01E13DD1A9
:1040D000200A01E13AD1260A01E135D10D0A01E1B8
:1040E00032D11A0A01E1D9D0200A4AE0300A1FE091
:1040F000460A0EE0250A01E083D3D950F90FE96E94
:10410000FF0EDA20EA6E010EEE5E000EEE5AEE5A57
:10411000FEEC24F0250EE66E95DB03E1011C01E1C7
:1041200069D3FAEC24F001E26BD3DB2A69D3080EE1
:10413000DB6A040EDB50010806E2040EDB04C2EC6D
:1041400024F0DB508BDB080EDB5009E0030EDB5064
:10415000010B05E172DB01E04DD3080EDB6A64DB85
:10416000EFCFDFFF72EC25F003E1011C01E142D348
:10417000FAEC24F001E3DB2A60DB01E141D33AD31E
:10418000070EDB5002080FE13EEC25F0030E05ECB4
:1041900025F00E0EEECFDBFF0F0EEECFDBFF100E85
:1041A000EECFDBFF20D0F70EDBCF03F0F80EDBCF36
:1041B00004F0020E035E000E045AF70E03C0DBFF8C
:1041C000F80E04C0DBFF03C0E9FF04C0EAFFF5EC12
:1041D00024F0026A0E0E00C0DBFF0F0E01C0DBFFF1
:1041E000100E02C0DBFF0E0EDBCFE6FF0F0EDBCFA3
:1041F000E6FF100EDBCFE6FFD8EC30F0E552E552DB
:10420000E552130E2BC0DBFF140E2CC0DBFF060E95
:10421000DB5005E0130E39EC25F001E26ADB5DECC2
:1042200025F002E2130E37DB20EC25F006E0040E49
:1042300039EC25F002E2050E2EDB030EDBB005D0D3
:10424000FCDA01E0D7D2080EDB6A090EDB6A0E0E3B
:10425000DBCFF6FF0F0EDBCFF7FF100EDBCFF8FF43
:104260000800F550DF6EDF5014E063EC25F011E23A
:1042700072EC25F003E1011C01E1BCD2BBDB01E3E0
:10428000DB2A090EDB2AD9500E0FE96E000ECBDBBC
:10429000E7D7D3DA01E1B4D2ADD2C6DA110EEECF50
:1042A000DBFF120EEDCFDBFF110EDBCFE6FF120EB0
:1042B000DBCFE6FFCAEC30F0E552E552130EF3CF48
:1042C000DBFF140EF4CFDBFF060EDB5004E0130E11
:1042D000D0DB01E20EDB5DEC25F002E2130EDBDA4F
:1042E000AFDB05E0040EC5DB02E2050ED4DA030EF7
:1042F000DBB005D0A2DA01E07DD2080EDB6A090E40
:10430000DB6A110EDBCFE9FF120EDBCFEAFFEFCF46
:10431000DFFFDF5014E0D7DB12E2E4DB03E1011C36
:1043200001E168D267DB01E3DB2A090EDB2A110E0B
:10433000DB2ADBCFE9FF120EE8E3DB2AE6D77DDAE2
:1043400001E15ED257D2030EDB8E070EDB0410E1D3
:1043500095DB040E5ADB0A0EEECFDBFF0B0EEECF21
:10436000DBFF0C0EEECFDBFF0D0EEECFDBFF6CD0D4
:10437000070EDB5003082CE1030EDBAE0DD0B2DAE2
:10438000020E76DAEFCF00F0016A026A036A00AE2D
:1043900039D00168026835D0F70EDBCF01F0F80E96
:1043A000DBCF02F0020E015E000E025AF70E01C0D2
:1043B000DBFFF80E02C0DBFF01C0E9FF02C0EAFF2D
:1043C000EFCF00F00A0E00C0DBFF0B0EDB6A38D027
:1043D000070EDB50020809E1030EDBAE04D059DB07
:1043E00002AE10D00ED055DB0DD0030EDBAE12D0D6
:1043F00079DA020E3DDAF9DA026A036A01AE02D016
:1044000002680368E2DA0C0E02C0DBFF0D0E03C087
:10441000DBFF1AD0F70EDBCF02F0F80EDBCF03F094
:10442000020E025E000E035AF70E02C0DBFFF80E0A
:1044300003C0DBFF02C0E9FF03C0EAFFD6DAC5DA3A
:104440000C0EDB6A0D0EDB6A060EDB5005E1010E79
:10445000F36E050EF3CFDBFF150EDB6A160EDB6A7B
:10446000D950370F006E000EDA20016E390E00C0F1
:10447000DBFF3A0E01C0DBFF380EDB6A080EDB6A99
:104480000A0EAEDADF50780A12E0200A10E0280A9D
:104490000CE0200A0AE03F0A06E00D0A02E0200ACA
:1044A00008E1020E05D0080E03D0080EDF26100E1C
:1044B00097DA030EDBBE02D0DB92DB94DB50800B7D
:1044C00024E08ADAD890030EEB50000A08E6000ECA
:1044D000EE5C000EEE58000EEE58000EEE5815E29F
:1044E00013DA2F6830683168326892EC30F00A0EC7
:1044F00026C0DBFF0B0E27C0DBFF0C0E28C0DBFF46
:104500000D0E29C0DBFF2D0E08D0030EDBA202D05A
:104510002B0E03D0DBA408D0200EF36E170EF3CFC2
:10452000DBFF150EDB2A02D0170EDB6A050EDB500F
:1045300003E1B7D901E189D0720E006E640E016EFD
:10454000000E026E070EDBCF03F0046A056A066AEE
:1045500003C02FF004C030F005C031F006C032F0C7
:10456000D3D9AAEC31F000502624F36E0150272055
:10457000F46E02502820F86EF4CFF7FFF3CFF6FF69
:104580000800090EF5CFDBFF580EDF5C0FE1610E6E
:10459000F36E090E7BD90AE3200E006E090EDBCF05
:1045A000E7FF0050E75E090EE7CFDBFF070EDBCF2A
:1045B00000F0016A026A036A0FDA00C02FF001C03E
:1045C00030F002C031F003C032F0EECF2AF0EECF6F
:1045D0002BF0EECF2CF0EFCF2DF0AAEC31F02DC068
:1045E000EDFF2CC0EDFF2BC0EDFF2AC0EFFF390E11
:1045F000DBCFE9FFDB063A0EDBCFEAFF01E2DB06A9
:10460000090EDBCFEFFF150EDB2A4BD995E1030E28
:10461000DBA61DD06F0EDF5C06E1C1D918E3150ED5
:10462000DB285BDA14D0780EDF5C09E0580EDF5C23
:1046300006E0620EDF5C03E0420EDF5C08E1020E82
:10464000F36E160EF3CFDBFF02D0150EDB6A030EFE
:10465000DB50100B0EE0040EDBCF00F0050EDB503C
:10466000D880005406E2060EDB5003E1040EDB5056
:1046700034DA95D90AE2050EDBCFE7FF150EDB50E1
:10468000E75E050EE7CFDBFF02D0050EDB6A040E06
:10469000DBCF00F0160E45D9D880005414E2160E78
:1046A000DBCFE6FF150EDBCFE6FF040EDBCFE6FF28
:1046B000050EDB50E552E75CE552D880E754E55241
:1046C000D880E7545FD9030EDB50010B0BE1080ED5
:1046D000DB5008E0B2D801E08DD0080EDB50BED828
:1046E000080EDB6A170EDB5007E088D9170EF1D9E8
:1046F00003E1011C01E17ED0160EDB5016E07ED9ED
:10470000300EE66E9FD802E1011C74E077D9DFCF4E
:10471000E6FF50EC30F0E552E552E552F4CF01F0FF
:104720000001F31C02E1011C65E0050EDBCF00F087
:10473000160EDB50D880005409E2050EDBCFE7FFF0
:10474000160EDB50E75E050EE7CFDBFF300EE66EA0
:10475000050ECBD94FE1390EDB2ADBCFE9FF3A0E4C
:1047600001E3DB2ADBCFEAFF090EEFCFDBFFDB50F3
:104770000EE044D9090EADD902E1011C3BE0390E2F
:10478000DB2ADBCFE9FF3A0EEDE3DB2AEBD755D886
:1047900031E1160EDBCFE6FF080EC3D8E552E72461
:1047A0005DD82ED0070EDB50030A1CE0010A14E08E
:1047B000030A07E07BD9DBCFEEFF020EDBCFEDFF74
:1047C0001FD0F5D8056A03AE02D0046805682CD85E
:1047D000BCD805C0EEFF14D0EAD803BE046824D8C4
:1047E000B4D80ED063D9DBCFEFFF0AD07BD905E177
:1047F000011C03E1F368F46810D0FCD801E3DB2A64
:1048000079D99FEF1FF0010EDBCF00F0020EDBCF56
:1048100001F000C0F3FF01C0F4FF3B0EE15C02E2D7
:10482000E16AE552E16ECBD029D9020E05EF25F001
:1048300061D90800F550DF6E1200200EE66E080EFA
:1048400075EF25F050EC30F0E552E552E552F3CF2C
:1048500000F0F4CF01F00001F31C1200006E016AB9
:10486000D950010F4DD90050EE260150ED22120013
:10487000045E000E055AF70E04C0DBFFF80E05C0FB
:10488000DBFF04C0E9FF05C0EAFF1200DBCFF4FF45
:10489000F350F45C1200DB50E76E040EE7CFDBFF51
:1048A00012000A0EDBCF00F00B0EDBCF01F00C0E76
:1048B000DBCF02F00D0EDBCF03F000500110021031
:1048C00003101200130EEECFDBFF140EEDCFDBFF53
:1048D000130EDBCF00F0140EDBCF01F00001800ED1
:1048E00001141200F70EDBCF04F0F80EDBCF05F059
:1048F0001200050EDB50E66ED950130F01D9E552B8
:10490000E750EE6EED6A12000A0EDBCF2AF00B0EB6
:10491000DBCF2BF00C0EDBCF2CF00D0EDBCF2DF010
:104920001200DBCFE6FF150EDBCFE6FF050EDB50F6
:10493000E552E724E552E7241200DB50CED8010E01
:10494000F36E060EF3CFDBFF1200EE50EFCFEAFF5F
:10495000E96E02C0EEFF03C0EEFF04C0EEFF1200DE
:10496000D9CFE6FFDACFE6FFE1CFD9FFE2CFDAFF1A
:104970001200DFCFE6FFE66AE4EC31F0E552E552E3
:10498000F3501200E76E080EE7CFDBFF1200EECF08
:1049900000F0EECF01F0EFCF02F0036A1200050E37
:1049A000DBCF00F0150EDB50D88000541200010E52
:1049B000DBCF02F0020EDBCF03F0046A1200E552F7
:1049C000E5CFDAFFE7CFD9FF12000A0E00C0DBFF08
:1049D0000B0E01C0DBFF1200D9500A0F80EF25F04B
:1049E000F36E070EF3CFDBFF1200EECF00F0EFCF38
:1049F00001F01200010EDB2A020E1200FC0EDBCFCA
:104A0000E6FFFD0EDBCFE6FF1200005E000E015A4E
:104A1000F70E00C0DBFFF80E01C0DBFF00C0E9FFAE
:104A200001C0EAFF1200DA20EA6EEF2AEECFF6FFAD
:104A3000000EEF22EECFF7FFEF22EECFF8FF1200CD
:104A4000040EDBCFE6FF130EDB50E552E75C9ADF86
:104A5000DB5004DF060EDB501200090EDB500A0D9E
:104A6000F350DF24D00FE76E090EE7CFDBFF18EF1E
:104A700024F0DB50F36E050E46EF24F0F70EDBCF8B
:104A800000F0F80EDBCF01F01200DFCFE6FF22EFDF
:104A900024F028DF030EECDEC7EF24F074EC1FF0E7
:104AA000E552E552E552E55200091200BDDEEE5036
:104AB000EFCFEAFFE96E010E1200130EDB50F36E2A
:104AC000040E46EF24F0040EDB50F36E090E46EFA1
:104AD00024F0DBCFE6FF22EF24F0E76E050EE7CFF0
:104AE000DBFF12008BDF45EF25F0DBCFE6FF86DF33
:104AF0004EEF25F0D950F90FE96EFF0E13EF25F0B8
:0A4B0000E96E000EDA20EA6E1200E2
:064B0A00259E08D0259E47
:104B10002DAE05D02C6C2D1EE86A2D22258E2DC0C1
:104B200027F02CC026F0376A366A8E0E286E296A66
:104B300045EF28F0259E0CD0259E2DAE09D02A6C7D
:104B40002B1E2C1E2D1EE86A2B222C222D22258E98
:104B50002DC027F02CC026F02BC037F02AC036F02D
:104B60009E0E286E296A45EF28F0337E256A81EC77
:104B700028F099EC28F025B629EF28F025A20AD0D4
:104B800025AA03D025BE29EF28F025A435EF28F06B
:104B900032EF28F025AA05D025AC35EF28F032EF0A
:104BA00028F025A00AD025A808D025BE04D025A429
:104BB00002D03EEF28F042EF28F0366A296A3350DF
:104BC0002E5C356E10E32BC037F02CC026F02DC0C4
:104BD00027F02EC034F030C02BF031C02CF032C0A2
:104BE0002DF0253A09D030C037F031C026F032C060
:104BF00027F033C034F0356C259E25BC258E34C09B
:104C000028F025B071EF28F01A0E356071EF28F00A
:104C1000286A2E6A25A408D02B6C2C1E2D1E2E1E51
:104C2000E86A2C222D222E2225AC08D0376C261EB5
:104C3000271E281EE86A2622272228222A6A3552A1
:104C400007E02E342D322C322B322A32352EF9D772
:104C50002B5037262C5026222D5027222E5028222A
:104C60002AC036F0259E28AE0BD0366C371E261E85
:104C7000271E281EE86A3722262227222822258E70
:104C800028A006D0D8802732263237323632342A4E
:104C900034C028F045EF28F0256A81EC28F099EC23
:104CA00028F025B629EF28F025A205D025BA29EF4E
:104CB00028F030EF28F025BA3CEF28F025A005D0E9
:104CC00025B829EF28F03CEF28F025B830EF28F080
:104CD000296A7F0E2E24286EE86A29223350285E26
:104CE000E86A295A1A0E346E2E6A366A376A266ABC
:104CF000276A30502B5E31502C5A32502D5A000EFC
:104D00002E5A09E730502B2631502C2232502D22BA
:104D1000000E2E2201D0368AD8902B362C362D3616
:104D20002E36D8903636373626362736342EE1D70B
:104D30002D502C102B10D8A4368A45EF28F0256A68
:104D400081EC28F099EC28F025B629EF28F025A26F
:104D500005D025B829EF28F030EF28F025AA05D096
:104D600025B029EF28F030EF28F025B002D025A893
:104D700002D03CEF28F0296A33502E24286EE86ACE
:104D800029227E0E285EE86A295A366A376A266A20
:104D9000276A32502D02F4CF27F0F3CF26F031509E
:104DA0002D02F3503726F4502622000E27223250CF
:104DB0002C02F3503726F4502622000E27223050C2
:104DC0002D02F3503626F4503722000E26222722D9
:104DD00031502C02F3503626F4503722000E262292
:104DE000272232502B02F3503626F4503722000E81
:104DF0002622272230502C02F4503626000E37226D
:104E00002622272231502B02F4503626000E37225C
:104E10002622272245EF28F0246AE86A32AE19EFED
:104E200027F02F6C301E311E321E302231223222EA
:104E3000241E2DAE24EF27F02A6C2B1E2C1E2D1EB7
:104E40002B222C222D22241EAAEC31F02DBE3BEF6A
:104E500027F024AE000C2A6C2B1E2C1E2D1EE86A97
:104E60002B222C222D22266C271E281E291E2722AB
:104E700028222922000C24BE2BEF27F02588FF0CC6
:104E80002DC037F02CC036F02C503102F4CF2BF06F
:104E9000F3CF2AF02D503202F4CF2DF0F3CF2CF0C7
:104EA0003102F3502B26F4502C22E86A2D22365082
:104EB0003202F3502B26F4502C22E86A2D2232AE17
:104EC00066EF27F036502C5E37502D5A37AE000C67
:104ED00031502C5E32502D5A000C2CC036F02C5024
:104EE0003102F4CF2BF0F3CF2AF02D503202F4CF61
:104EF0002DF0F3CF2CF03102F3502B26F4502C225E
:104F0000E86A2D2236503202F3502B26F4502C2220
:104F1000E86A2D22000C256A81EC28F025B695EF71
:104F200027F025A20FD025B407D07F0E2D6EFF0EDF
:104F30002C6E2B6E2A6E25D0800E2D6E01D02D6A20
:104F4000000EF6D725B0FBD72A6A9F0E2E60EBD74E
:104F50007E0E2E64F4D79E0E2E5C07E0D8902D3284
:104F60002C322B322A322E2AF6D725A40AD02A6CCC
:104F70002B1E2C1E2D1EE86A2B222C222D222DAE3C
:104F8000DED71200D4EC27F025B6000C25B0000CBB
:104F900025B4000C010CD4EC27F025B6000C25B08C
:104FA000000C25A4000C010C256A81EC28F099EC7A
:104FB00028F025B6120025AE08D025A004D025A8DB
:104FC00002D0258012002590120033502E5C0BE198
:104FD00032502D5C08E131502C5C05E130502B5CE7
:104FE00002E125801200D8A002D0258E10D02E50CC
:104FF00033C02EF0336E2D5032C02DF0326E2C5057
:1050000031C02CF0316E2B5030C02BF0306E33504D
:105010002E5C10E0FF0F09E0259025B403D025AEEB
:105020002584120025AE25941200332AD8903232FE
:105030003132303230502B5E31502C5A32502D5A92
:105040002DBEEAD7D8902B362C362D362E2EF8D7FB
:10505000C8D77F0E2E6EFF0E2D6E2C6E2B6E12009B
:105060007F0E25BEFF0E2E6E02D07F0E2E6E800E9E
:105070002D6E2C6A2B6AF3D725AE04D0800E2E6ECF
:105080002D6AF7D72E6A2D6AF4D7275026103710CD
:105090003610F8E029BEF0D727BE0CD028502910D2
:1050A000EBE0D89036363736263627362806D8A095
:1050B0002906F2D72950D4E12828D2E036AE11D003
:1050C0007F0E361402E137A00CD0372AE86A262278
:1050D000272207E3D880273226323732282A282889
:1050E000BFE02850C9E037C02BF026C02CF0273491
:1050F0002D6E28302E6E2D322E9E25BE2E8E2FEF39
:1051000028F02D362E3602E32584257E06E1258003
:105110002E6A2D6A2C6A2B6A12002E2803E0D88092
:105120002D321200D8902D3202E125821200258600
:1051300012003236333602E3258C257E06E12588BF
:10514000336A326A316A306A1200332803E0D88049
:1051500032321200D8903232EAE1258A1200256AF2
:1051600081EC28F025B6B9EF28F025A20ED025B4A1
:1051700005D07F0E2D6EFF0E2C6E1FD0800E2D6E73
:105180002C6A1BD02D6A2C6A18D025B0FBD78F0E45
:105190002E60EDD77E0E2E64F5D78E0E2E5C05E0C8
:1051A000D8902D322C322E2AF8D725A406D02C6C7C
:0C51B0002D1EE86A2D222DAEE5D712005E
:0451BC00D9CFE6FF62
:1051C000DACFE6FFE1CFD9FFE2CFDAFF220EE1240A
:1051D00002E3E168E652E16ED950130FE66E000E6D
:1051E000DA20E66EA8DA1DEC2FF0006E060EE15C08
:1051F00002E2E16AE552E16E0050E76E0E0EE7CF83
:10520000DBFFDB50840B0CE0210E0001FC6FFD6B1B
:105210000F0EDB68100EDB68110EDB687F0E6ED0A0
:105220008ADA36DA020E2AC0DBFF030E2BC0DBFF60
:10523000040E2CC0DBFF050E2DC0DBFF87DA306AC1
:10524000100E316E490E326E460E14DACBEC27F09A
:10525000010A32E07BDA67DA0DDA4CEC26F0BFD9CE
:10526000060EDBCF2BF0070EDBCF2CF0080EDBCFCA
:105270002DF0090EDBCF2EF08BEC27F09CEC25F007
:10528000AED964DA060EDBCF08F0070EDBCF09F0EB
:10529000080EDBCF0AF0090EDBCF0BF044DA336ED9
:1052A00008C02BF009C02CF00AC02DF00BC02EF066
:1052B00048DAB5EC25F0C4D9F90EDB5012E00E0E39
:1052C000DB040BE1FA0EDBCF00F0FB0EDBCF01F0CD
:1052D000FC0EDBCF02F0FD0E52D167D9326AF8D94D
:1052E00047D00E0EDB0419E10F0EDB6A100EDB6AED
:1052F000800EF36E110EF3CFDBFF3F0EF36E120E36
:10530000F3CFDBFF0F0EDBCF00F0100EDBCF01F091
:10531000110EDBCF02F0120E32D1190EDB6A45D925
:10532000800E326ED5D9006A016A026A3F0E036EA2
:10533000D950060FE96E000EDA20EA6EEECF2BF0A0
:10534000EECF2CF0EECF2DF0EFCF2EF000C030F0EE
:1053500001C031F002C032F003C033F0B5EC25F0EB
:105360002EC0EDFF2DC0EDFF2CC0EDFF2BC0EFFFD9
:10537000DF50010B0AE0190EDB5002E0000E01D0F5
:10538000010EE76E190EE7CFDBFF8CD9060EDBCFDF
:105390000CF0070EDBCF0DF0080EDBCF0EF0090E80
:1053A000DBCF0FF0306A316A490E326E400E336E39
:1053B0000CC02BF00DC02CF00EC02DF00FC02EF045
:1053C0009FEC26F05CD9A6D995D9B5EC25F077D914
:1053D000060EDBCF14F0070EDBCF15F0080EDBCF87
:1053E00016F0090EDBCF17F0220E306EAA0E316ECA
:1053F0007D0E326E3A0E336E14C02BF015C02CF0B9
:1054000016C02DF017C02EF09FEC26F02BC010F028
:105410002CC011F02DC012F02EC013F0EDD8B5EC59
:1054200025F00A0E2BC0DBFF0B0E2CC0DBFF0C0E91
:105430002DC0DBFF0D0E2EC0DBFFD9500A0FE96E29
:10544000000EEAD825D92AC000F02BC001F02CC0EC
:1054500002F02DC003F0306A316A800E326E390ED0
:10546000336E2AC02BF04FD9CBEC27F0010A13E1A1
:10547000D9500A0FE96E000EDA20EA6E020EEECF66
:10548000DBFF030EEECFDBFF040EEECFDBFF050EDE
:10549000EECFDBFF68D0E1D80A0EDBCF30F00B0E89
:1054A000DBCF31F00C0EDBCF32F00D0EDBCF33F063
:1054B0009FEC26F01A0E2BC0DBFF1B0E2CC0DBFF6F
:1054C0001C0E2DC0DBFF1D0E2EC0DBFF5B0E2B6EF6
:1054D0009C0E2C6E2E0E2D6E360E2E6E72D8CFD8E0
:1054E000220E306EB20E316E4F0E326EB90E32D9C0
:1054F0009ED83E0E306E870E316E080E326E3C0E18
:1055000029D9DDD8A40E306EAA0E316E2A0E326E65
:10551000BE0E20D91E0E2BC0DBFF1F0E2CC0DBFFE2
:10552000200E2DC0DBFF210E2EC0DBFF0A0EDBCFCD
:1055300000F00B0EDBCF01F00C0EDBCF02F00D0EF6
:10554000DBCF03F08AD81E0EDBCF30F01F0EDBCF8F
:1055500031F0200EDBCF32F0210EDBCF33F0F1D86B
:10556000B6EC25F06DD8190EDB5008E09BD8306AF8
:10557000316A800E326EBF0EF0D803D042D8DBCF36
:1055800003F000C02AF001C02BF002C02CF003C0D1
:105590002DF0220EE15C02E2E16AE552E16EE55295
:1055A000E5CFDAFFE7CFD9FF12007CD8830E306E4B
:1055B000F90E316EA20E326E3E0ECFD8306A316ACD
:1055C00012001A0EDBCF30F01B0EDBCF31F01C0EB9
:1055D000DBCF32F01D0EDBCF33F09FEF26F0060E4F
:1055E0002BC0DBFF070E2CC0DBFF080E2DC0DBFF3E
:1055F000090E2EC0DBFF12008DD800C02BF083EF08
:105600002BF0020EDBCF00F0030EDBCF01F0040E17
:10561000DBCF02F0050E1200DA20EA6EEECFE6FFD5
:10562000EECFE6FFEECFE6FFEFCFE6FF12002BC096
:1056300004F02CC005F02DC006F02EC007F01200BB
:10564000020E2BC0DBFF030E2CC0DBFF040E2DC0AF
:10565000DBFF050E2EC0DBFF12000A0EDBCF2BF0A6
:105660000B0EDBCF2CF00C0EDBCF2DF00D0EDBCFB5
:105670002EF01200336E00C02BF083EF2BF02BC006
:1056800008F02CC009F02DC00AF02EC00BF012005B
:10569000FDEC30F0E552E552E552E5521200336E72
:1056A000B6EF25F0020EDBCF04F0030EDBCF05F0E2
:1056B000040EDBCF06F0050EDBCF07F012002BC087
:1056C00000F02CC001F02DC002F02EC003F012003B
:1056D0003F0EE5DFAFEC28F02CC0DEFF2DC0DDFF74
:1056E000000EDFCF2CF0010EDBCF2DF087EC25F084
:1056F000EFEF2AF004C02BF005C02CF006C02DF00F
:1057000007C02EF0120001C02CF002C02DF003C023
:105710002EF012002BC030F02CC031F02DC032F032
:105720002EC033F01200DB0E306E0F0E316EC90E3C
:10573000326E400E1200D950FA0FE96EFF0E0CEFD8
:105740002BF09FEC26F073DFFCEF2AF05ADFDBCF63
:1057500003F01200A4DFE1EF2AF0336ECBDF9FEC01
:0657600026F05FEF2BF0C4
:0A576600D9CFE6FFE1CFD9FF030E13
:10577000E126FD0EDBCF2CF0FE0EDBCF2DF0DE524E
:105780002CC0DEFF2DC0DDFFDD52020EDB50AA6E05
:10579000010EDB50A96EA69EA69CA680A850DF6EC7
:1057A000DF50006E030EE15C02E2E16AE552E16E59
:1057B0000050E552E7CFD9FF1200D9CFE6FFE1CF85
:1057C000D9FF040EE126FD0EDBCF2CF0FE0EDBCF61
:1057D0002DF0020E2CC0DBFF030E2DC0DBFFDB50D3
:1057E000AA6E020EDB50A96EFC0EDB50A86EA69EC0
:1057F000A69CA684F29E550EA76EAA0EA76EA68240
:10580000DE6ADD6AA6A215D0DFCF00F0DF2A010E26
:10581000DBCF01F001E3DB2A026A0234000E02183A
:1058200007E6D880E80E0054FD0E0154000E025425
:10583000E9E2F28EA694040EE15C02E2E16AE5522E
:10584000E16EE552E7CFD9FF1200D9CFE6FFE1CFF5
:10585000D9FF020EE126000EE66EE66A84DFE5520D
:10586000E552DF6E010EE66EE66A7DDFE552E55237
:10587000E76E010EE7CFDBFFDECF00F0DDCF01F0FA
:10588000F00ED8800054000E015402E2DE6ADD6A98
:10589000DECFF6F0DDCFF7F0020EE66EE66A63DFEC
:1058A000E552E552DF6E030EE66EE66A5CDFE55216
:1058B000E552E76E010EE7CFDBFFDECF00F0DDCF74
:1058C00001F0F00ED8800054000E015402E2DE6AAE
:1058D000DD6ADECFF8F0DDCFF9F0040EE66EE66AA1
:1058E00042DFE552E552DF6E050EE66EE66A3BDF0B
:1058F000E552E552E76E010EE7CFDBFFDECF00F0A9
:10590000DDCF01F0140ED8800054000E015403E2E4
:105910000A0EDE6EDD6ADECFFAF0DDCFFBF0020E9E
:10592000E15C02E2E16AE552E16EE552E7CFD9FFC0
:105930001200D9CFE6FFE1CFD9FF020EE126F6C073
:10594000DEFFF7C0DDFFDFCFE6FF000EE66EE66AA2
:1059500034DFE552E552E552010EDBCFE6FFE66E9D
:10596000E66A2BDFE552E552E552F8C0DEFFF9C0EA
:10597000DDFFDFCFE6FF020EE66EE66A1EDFE552D0
:10598000E552E552010EDBCFE6FF030EE66EE66A56
:1059900014DFE552E552E552FAC0DEFFFBC0DDFF41
:1059A000DFCFE6FF040EE66EE66A07DFE552E5525A
:1059B000E552010EDBCFE6FF050EE66EE66AFDDE80
:1059C000E552E552E552320EE66EE66AD4EC09F095
:1059D000E552E552020EE15C02E2E16AE552E16E57
:1059E000E552E7CFD9FF1200D9CFE6FFE1CFD9FFCB
:1059F0001E0EE126020EE76EFD0EDBCFE9FFFE0E66
:105A0000DBCFEAFFE750E926000EEA22EF50E66E10
:105A10002AEC1FF0E552000901E1DCD0060EE76E2A
:105A2000FD0EDBCFE9FFFE0EDBCFEAFFE750E926F4
:105A3000000EEA22EF50E66E2AEC1FF0E552000954
:105A400001E1C8D0030EE66E020EE76EFD0EDBCF5D
:105A500000F0FE0EDBCF01F0E7500026000E012221
:105A600000C0E6FF01C0E6FFAEEC1DF0E552E552D6
:105A7000E552F3CFDEFFF4CFDDFFDECF00F0DDCF68
:105A800001F0F00ED8800054000E015403E2F00E35
:105A9000DE6EDD6A030EE66E060EE76EFD0EDBCFF0
:105AA00000F0FE0EDBCF01F0E7500026000E0122D1
:105AB00000C0E6FF01C0E6FFAEEC1DF0E552E55286
:105AC000E552020EF3CFDBFF030EF4CFDBFF020E35
:105AD000DBCF00F0030EDBCF01F0F00ED8800054D6
:105AE000000E015407E2F00EF36E020EF3CFDBFF5F
:105AF000030EDB6ADECFF6F0DDCFF7F0020EDBCF70
:105B0000F8F0030EDBCFF9F00A0EE76EFD0EDBCFE7
:105B1000E9FFFE0EDBCFEAFFE750E926000EEA229E
:105B2000EF50E66E2AEC1FF0E552000952E0030E3A
:105B3000E66E0A0EE76EFD0EDBCF00F0FE0EDBCF49
:105B400001F0E7500026000E012200C0E6FF01C070
:105B5000E6FFAEEC1DF0E552E552E552040EF3CF40
:105B6000DBFF050EF4CFDBFFD950040FE96EDACF6F
:105B7000EAFFFF0EEE1809E1ED5007E10A0EF36EA1
:105B8000040EF3CFDBFF050EDB6A040EDBCF00F063
:105B9000050EDBCF01F0010E005C000E01580CE396
:105BA000040EDBCF02F0050EDBCF03F0140ED8801D
:105BB0000254000E035407E2140EF36E040EF3CFEA
:105BC000DBFF050EDB6A040EDBCFFAF0050EDBCF40
:105BD000FBF0AFDE3ADEFAC0E6FFFBC0E6FFF8C03E
:105BE000E6FFF9C0E6FFF6C0E6FFF7C0E6FFA30E4A
:105BF000006E620E016E026A00C0E6FFE66E02C031
:105C0000E6FFD950060FE66E000EDA20E66EABEC2A
:105C10002FF0036E0B0EE15E0350D950060FE66EB7
:105C2000000EDA20E66E5CEC19F0E552E5521E0E2D
:105C3000E15C02E2E16AE552E16EE552E7CFD9FFAD
:025C4000120050
:0E5C4200C76A110EC86E280EC66E400EC56EE3
:105C5000948694889F869E969D86A286A196A0860D
:105C600006D8A00EE66E14EC32F0E5521200D9CF41
:105C7000E6FFE1CFD9FFE652C950DF6EC69AC69C57
:105C8000C69EC59CC59A0001846B82A80CD89E96BE
:105C9000A1960001806B816B826BC68AE552E5524A
:105CA000E7CFD9FF1200D9CFE6FFE1CFD9FFE65207
:105CB0008A88C69ADF6A090EDF5C0EE29496020EAD
:105CC000E66E2EEC32F0E5529486020EE66E2EEC75
:105CD00032F0E552DF2AEFD7E552E552E7CFD9FFA0
:105CE00012000001816B1F0EC51403E1C750040BA5
:105CF00007E00A0E006E8151005CF5E221EF2EF004
:105D00001200D9CFE6FFE1CFD9FFE652DF6A020EDB
:105D10000001815DFCE3E5DFFE0EDBCF83F0FD0ECD
:105D2000DBCF85F00001816B010E806FC580805153
:105D300012E0020E006E8151005C03E2800E8011C1
:105D4000826F8251F4E0C5847CDFDF2A050EDF5CC0
:105D5000E9E3000E02D0816B010EE552E552E7CF78
:105D6000D9FF1200D9CFE6FFE1CFD9FF020E000123
:105D7000815DFCE3B6DFFE0EDB5001090001836F9D
:105D8000FD0EDBCF85F0816B0B0E806FC5808051DF
:105D90000EE0020E006E8151005C03E2800E801165
:105DA000826F8251F4E0C5844CDF000E02D0816B1B
:105DB000010EE552E7CFD9FF1200D9CFE6FFE1CFC0
:105DC000D9FFE652DF6A060EDF5C13E2DF50EA6AB3
:105DD000B80FE96E000EEA22EF50E66EDF50EA6A75
:105DE000860FE96E000EEA22E552E750EF6EDF2AD9
:105DF000EAD7060EE66E140EE66E83DFE552E55234
:105E0000E552E552E7CFD9FF1200D9CFE6FFE1CF47
:105E1000D9FFE652DF6A060EDF5C09E2DF50EA6A6C
:105E2000B80FE96E000EEA22EF6ADF2AF4D7C5DF69
:0A5E3000E552E552E7CFD9FF12005A
:065E3A00D9CFE6FFDACF2C
:105E4000E6FFE1CFD9FFE2CFDAFFE6520068016852
:105E50007F0E026E036AD950FA0FE96EFF0EDA2048
:105E6000EA6EEE500016EE500116EE500216EE509D
:105E700003166AD800C0EEFF01C0EEFF02C0EEFFBD
:105E800003C0EEFFFD0EDB50800B02E0010E01D0DF
:105E9000000EE66E59D8060EE926000EEA22E552FB
:105EA000E750EF6EFC0EDBCF00F0FD0EDBCF01F014
:105EB000D89000360136FC0E00C0DBFFFD0E01C09D
:105EC000DBFFDB50E66E40D8040EE926000EEA2226
:105ED000E552E750EE6EED6AFD0EDB50006E016A92
:105EE000FF0E001818E1015016E12ED8EECF00F099
:105EF000EECF01F0EECF02F0EFCF03F00050011033
:105F00000210031006E0210E0001FC6FFD6B800EF5
:105F10000BD0040E09D0FD0EDB5008E115D8EE6A57
:105F2000EE6AEE6AEE6A010EDF6E06D0020EDF6EDA
:105F30000BD8EE52EE52EE8EDF50E552E552E5CF31
:105F4000DAFFE7CFD9FF1200F80EDBCFE9FFF90E39
:065F5000DBCFEAFF1200A6
:0A5F5600D9CFE6FFDACFE6FFE1CF76
:105F6000D9FFE2CFDAFFE652E652E652E652D950C6
:105F7000F90F006EFF0EDA20016E020E00C0DBFF8B
:105F8000030E01C0DBFF020EDBCFE6FF030EDBCF0B
:105F9000E6FFF90EDBCFE6FFFA0EDBCFE6FFFB0EE6
:105FA000DBCFE6FFD950FC0FE66EFF0EDA20E66E7F
:105FB0008AEC1FF0006E070EE15C02E2E16AE55236
:105FC000E16E0050F3CFDEFFF4CFDDFFFC0EDBCF40
:105FD000E9FFFD0EDBCFEAFFEF6ADECF00F0DDCF99
:105FE00001F000C0F3FF01C0F4FF040EE15C02E227
:105FF000E16AE552E16EE552E5CFDAFFE7CFD9FF7E
:0260000012008C
:0E6002001E0EF66E080EF76E000EF86E000110
:106010000900F550F16F0900F550F26F03E1F167E7
:1060200001D03DD00900F550EC6F0900F550ED6F3F
:106030000900F550EE6F09000900F550E96E0900FE
:10604000F550EA6E090009000900F550EF6F0900EC
:10605000F550F06F09000900F6CFF3F0F7CFF4F038
:10606000F8CFF5F0ECC0F6FFEDC0F7FFEEC0F8FF9B
:106070000001EF5302E1F05307E00900F550EE6E26
:10608000EF07F8E2F007F9D7F3C0F6FFF4C0F7FF27
:10609000F5C0F8FF0001F107000EF25BBFD7120058
:1060A000D9CFE6FFDACFE6FFE1CFD9FFE2CFDAFFC3
:1060B000FB0EDBCF00F0FC0EDBCF01F00001800E09
:1060C00001141AE1FB0EDBCFE9FFFC0EDBCFEAFF88
:1060D000EECFF3FFEDCFF4FFEE2A000EEF22F3CF69
:1060E000E9FFF4CFEAFFFD0EDBCFEFFFEF50016ACF
:1060F000F36E01C0F4FF10D0FB0EDB50FE0806E18A
:10610000FD0EDBCFE6FF06EC32F005D0FD0EDBCF57
:10611000E6FF03EC04F0E552E552E5CFDAFFE7CF06
:04612000D9FF120091
:0C6124002A502F02F3CF26F0F4CF27F012
:106130003002F3502726000EF420286E2A50310238
:10614000F3502826000EF420296E2A503202F35014
:1061500029262B502F02F3502726F4502822000E18
:1061600029222B503002F3502826F45029222B509C
:106170003102F35029262C502F02F3502826F450D8
:1061800029222C503002F35029262D502F02F35093
:0461900029261200AA
:0C619400FE0EE3CFE9FFFF0EE3CFEAFFB1
:1061A000F36AF46AEE5203E0F34AF42AFBD71200D2
:1061B000FF0EE3CFF8FFE552FF0EE3CFF7FFE55206
:1061C000FF0EE3CFF6FFE552E66AE66AE66A0900EB
:1061D000F55209E0FD0EE32A05E1FE0EE32A02E195
:1061E000FF0EE32AF4D7FD0EE3CF2BF0FE0EE3CF34
:0A61F0002CF0FF0EE3CF2DF012009B
:0661FA00D9CFE6FFDACF69
:10620000E6FFE1CFD9FFE2CFDAFFE652E652D950FE
:10621000FD0F006EFF0EDA2000C0DEFFDD6EDECF68
:10622000E9FFDDCFEAFFEF9EFA0EDBCF00F0FB0EB9
:10623000DBCF01F0FC0EDBCF02F0FD0EDBCF03F075
:1062400000C02AF001C02BF002C02CF003C02DF0DA
:10625000E552E552E552E5CFDAFFE7CFD9FF12006C
:106260000D0A00434E25643D253034752C00202056
:10627000423A253033752C253033752C2530337553
:106280000D0A005665722E352E333300544A3342C0
:10629000000D0A002C5553455F4D434200434E69A3
